{
  "address": "0xe7f1725E7734CE288F8367e1Bb143E90bb3F0512",
  "abi": [
    {
      "inputs": [],
      "stateMutability": "nonpayable",
      "type": "constructor"
    },
    {
      "inputs": [],
      "name": "AuctionRegistry_RestrictedOwnerAccess",
      "type": "error"
    },
    {
      "inputs": [],
      "name": "auctionManagerAddress",
      "outputs": [
        {
          "internalType": "address",
          "name": "",
          "type": "address"
        }
      ],
      "stateMutability": "view",
      "type": "function"
    },
    {
      "inputs": [
        {
          "internalType": "bytes",
          "name": "checkData",
          "type": "bytes"
        }
      ],
      "name": "checkUpkeep",
      "outputs": [
        {
          "internalType": "bool",
          "name": "upkeepNeeded",
          "type": "bool"
        },
        {
          "internalType": "bytes",
          "name": "performData",
          "type": "bytes"
        }
      ],
      "stateMutability": "view",
      "type": "function"
    },
    {
      "inputs": [],
      "name": "owner",
      "outputs": [
        {
          "internalType": "address",
          "name": "",
          "type": "address"
        }
      ],
      "stateMutability": "view",
      "type": "function"
    },
    {
      "inputs": [
        {
          "internalType": "bytes",
          "name": "performData",
          "type": "bytes"
        }
      ],
      "name": "performUpkeep",
      "outputs": [],
      "stateMutability": "nonpayable",
      "type": "function"
    },
    {
      "inputs": [
        {
          "internalType": "address",
          "name": "_auctionManagerAddress",
          "type": "address"
        }
      ],
      "name": "setAuctionManagerAddress",
      "outputs": [],
      "stateMutability": "nonpayable",
      "type": "function"
    }
  ],
  "transactionHash": "0x111f7eceae3f77d4592e92161f96cb5eb5a29c97328f38b0b9c859488a48d5b5",
  "args": [],
  "numDeployments": 1,
  "solcInputHash": "122ea963491bf0364bb069582fb886f0",
  "bytecode": "0x60a060405234801561001057600080fd5b503373ffffffffffffffffffffffffffffffffffffffff1660808173ffffffffffffffffffffffffffffffffffffffff1660601b8152505060805160601c6115bf61006d60003960008181610e000152610e2401526115bf6000f3fe608060405234801561001057600080fd5b50600436106100575760003560e01c80634585e33b1461005c5780636e04ff0d1461007857806370749d9b146100a95780638da5cb5b146100c7578063cd7dc52d146100e5575b600080fd5b61007660048036038101906100719190610fc4565b610101565b005b610092600480360381019061008d9190610fc4565b6107b0565b6040516100a09291906110c5565b60405180910390f35b6100b1610dda565b6040516100be9190611136565b60405180910390f35b6100cf610dfe565b6040516100dc9190611136565b60405180910390f35b6100ff60048036038101906100fa919061117d565b610e22565b005b6000600160009054906101000a900473ffffffffffffffffffffffffffffffffffffffff1673ffffffffffffffffffffffffffffffffffffffff1663e0f0f2cf6040518163ffffffff1660e01b815260040160006040518083038186803b15801561016b57600080fd5b505afa15801561017f573d6000803e3d6000fd5b505050506040513d6000823e3d601f19601f820116820180604052508101906101a891906112fd565b90507f5fe7f977e71dba2ea1a68e21057beebb9be2ac30c6410aa38d4f3fbe41dcffd283836040516101db929190611385565b604051809103902014156103315760005b600182516101fa91906113d7565b81101561032f5760008282815181106102165761021561140b565b5b602002602001015173ffffffffffffffffffffffffffffffffffffffff16636fc601706040518163ffffffff1660e01b815260040160206040518083038186803b15801561026357600080fd5b505afa158015610277573d6000803e3d6000fd5b505050506040513d601f19601f8201168201806040525081019061029b9190611466565b141561031c578181815181106102b4576102b361140b565b5b602002602001015173ffffffffffffffffffffffffffffffffffffffff16631a81d59c6040518163ffffffff1660e01b8152600401600060405180830381600087803b15801561030357600080fd5b505af1158015610317573d6000803e3d6000fd5b505050505b808061032790611493565b9150506101ec565b505b7ff2ee15ea639b73fa3db9b34a245bdfa015c260c598b211bf05a1ecc4b3e3b4f28383604051610362929190611385565b6040518091039020141561056e576000600160009054906101000a900473ffffffffffffffffffffffffffffffffffffffff1673ffffffffffffffffffffffffffffffffffffffff166387c8b7fb6040518163ffffffff1660e01b815260040160006040518083038186803b1580156103da57600080fd5b505afa1580156103ee573d6000803e3d6000fd5b505050506040513d6000823e3d601f19601f8201168201806040525081019061041791906112fd565b905060005b6001825161042a91906113d7565b81101561056b5760008282815181106104465761044561140b565b5b602002602001015173ffffffffffffffffffffffffffffffffffffffff1663251d9abe6040518163ffffffff1660e01b815260040160206040518083038186803b15801561049357600080fd5b505afa1580156104a7573d6000803e3d6000fd5b505050506040513d601f19601f820116820180604052508101906104cb9190611466565b1415610558578181815181106104e4576104e361140b565b5b602002602001015173ffffffffffffffffffffffffffffffffffffffff166379dfe88460006040518263ffffffff1660e01b815260040161052591906114dc565b600060405180830381600087803b15801561053f57600080fd5b505af1158015610553573d6000803e3d6000fd5b505050505b808061056390611493565b91505061041c565b50505b7f69c322e3248a5dfc29d73c5b0553b0185a35cd5bb6386747517ef7e53b15e287838360405161059f929190611385565b604051809103902014156107ab576000600160009054906101000a900473ffffffffffffffffffffffffffffffffffffffff1673ffffffffffffffffffffffffffffffffffffffff166344b8f1896040518163ffffffff1660e01b815260040160006040518083038186803b15801561061757600080fd5b505afa15801561062b573d6000803e3d6000fd5b505050506040513d6000823e3d601f19601f8201168201806040525081019061065491906112fd565b905060005b6001825161066791906113d7565b8110156107a85760008282815181106106835761068261140b565b5b602002602001015173ffffffffffffffffffffffffffffffffffffffff16631fcd47f56040518163ffffffff1660e01b815260040160206040518083038186803b1580156106d057600080fd5b505afa1580156106e4573d6000803e3d6000fd5b505050506040513d601f19601f820116820180604052508101906107089190611466565b1415610795578181815181106107215761072061140b565b5b602002602001015173ffffffffffffffffffffffffffffffffffffffff1663e5ce7f7760036040518263ffffffff1660e01b8152600401610762919061156e565b600060405180830381600087803b15801561077c57600080fd5b505af1158015610790573d6000803e3d6000fd5b505050505b80806107a090611493565b915050610659565b50505b505050565b600060607f5fe7f977e71dba2ea1a68e21057beebb9be2ac30c6410aa38d4f3fbe41dcffd284846040516107e5929190611385565b604051809103902014156109be576000600160009054906101000a900473ffffffffffffffffffffffffffffffffffffffff1673ffffffffffffffffffffffffffffffffffffffff1663e0f0f2cf6040518163ffffffff1660e01b815260040160006040518083038186803b15801561085d57600080fd5b505afa158015610871573d6000803e3d6000fd5b505050506040513d6000823e3d601f19601f8201168201806040525081019061089a91906112fd565b90506000925084848080601f016020809104026020016040519081016040528093929190818152602001838380828437600081840152601f19601f82011690508083019250505050505050915060005b600182516108f891906113d7565b8110156109b75760008282815181106109145761091361140b565b5b602002602001015173ffffffffffffffffffffffffffffffffffffffff16636fc601706040518163ffffffff1660e01b815260040160206040518083038186803b15801561096157600080fd5b505afa158015610975573d6000803e3d6000fd5b505050506040513d601f19601f820116820180604052508101906109999190611466565b14156109a457600193505b80806109af90611493565b9150506108ea565b5050610dd3565b7ff2ee15ea639b73fa3db9b34a245bdfa015c260c598b211bf05a1ecc4b3e3b4f284846040516109ef929190611385565b60405180910390201415610bc8576000600160009054906101000a900473ffffffffffffffffffffffffffffffffffffffff1673ffffffffffffffffffffffffffffffffffffffff166387c8b7fb6040518163ffffffff1660e01b815260040160006040518083038186803b158015610a6757600080fd5b505afa158015610a7b573d6000803e3d6000fd5b505050506040513d6000823e3d601f19601f82011682018060405250810190610aa491906112fd565b90506000925084848080601f016020809104026020016040519081016040528093929190818152602001838380828437600081840152601f19601f82011690508083019250505050505050915060005b60018251610b0291906113d7565b811015610bc1576000828281518110610b1e57610b1d61140b565b5b602002602001015173ffffffffffffffffffffffffffffffffffffffff1663251d9abe6040518163ffffffff1660e01b815260040160206040518083038186803b158015610b6b57600080fd5b505afa158015610b7f573d6000803e3d6000fd5b505050506040513d601f19601f82011682018060405250810190610ba39190611466565b1415610bae57600193505b8080610bb990611493565b915050610af4565b5050610dd3565b7f69c322e3248a5dfc29d73c5b0553b0185a35cd5bb6386747517ef7e53b15e2878484604051610bf9929190611385565b60405180910390201415610dd2576000600160009054906101000a900473ffffffffffffffffffffffffffffffffffffffff1673ffffffffffffffffffffffffffffffffffffffff166344b8f1896040518163ffffffff1660e01b815260040160006040518083038186803b158015610c7157600080fd5b505afa158015610c85573d6000803e3d6000fd5b505050506040513d6000823e3d601f19601f82011682018060405250810190610cae91906112fd565b90506000925084848080601f016020809104026020016040519081016040528093929190818152602001838380828437600081840152601f19601f82011690508083019250505050505050915060005b60018251610d0c91906113d7565b811015610dcb576000828281518110610d2857610d2761140b565b5b602002602001015173ffffffffffffffffffffffffffffffffffffffff16631fcd47f56040518163ffffffff1660e01b815260040160206040518083038186803b158015610d7557600080fd5b505afa158015610d89573d6000803e3d6000fd5b505050506040513d601f19601f82011682018060405250810190610dad9190611466565b1415610db857600193505b8080610dc390611493565b915050610cfe565b5050610dd3565b5b9250929050565b60008054906101000a900473ffffffffffffffffffffffffffffffffffffffff1681565b7f000000000000000000000000000000000000000000000000000000000000000081565b7f000000000000000000000000000000000000000000000000000000000000000073ffffffffffffffffffffffffffffffffffffffff163373ffffffffffffffffffffffffffffffffffffffff1614610ea7576040517f5a70fb0600000000000000000000000000000000000000000000000000000000815260040160405180910390fd5b806000806101000a81548173ffffffffffffffffffffffffffffffffffffffff021916908373ffffffffffffffffffffffffffffffffffffffff16021790555060008054906101000a900473ffffffffffffffffffffffffffffffffffffffff16600160006101000a81548173ffffffffffffffffffffffffffffffffffffffff021916908373ffffffffffffffffffffffffffffffffffffffff16021790555050565b6000604051905090565b600080fd5b600080fd5b600080fd5b600080fd5b600080fd5b60008083601f840112610f8457610f83610f5f565b5b8235905067ffffffffffffffff811115610fa157610fa0610f64565b5b602083019150836001820283011115610fbd57610fbc610f69565b5b9250929050565b60008060208385031215610fdb57610fda610f55565b5b600083013567ffffffffffffffff811115610ff957610ff8610f5a565b5b61100585828601610f6e565b92509250509250929050565b60008115159050919050565b61102681611011565b82525050565b600081519050919050565b600082825260208201905092915050565b60005b8381101561106657808201518184015260208101905061104b565b83811115611075576000848401525b50505050565b6000601f19601f8301169050919050565b60006110978261102c565b6110a18185611037565b93506110b1818560208601611048565b6110ba8161107b565b840191505092915050565b60006040820190506110da600083018561101d565b81810360208301526110ec818461108c565b90509392505050565b600073ffffffffffffffffffffffffffffffffffffffff82169050919050565b6000611120826110f5565b9050919050565b61113081611115565b82525050565b600060208201905061114b6000830184611127565b92915050565b61115a81611115565b811461116557600080fd5b50565b60008135905061117781611151565b92915050565b60006020828403121561119357611192610f55565b5b60006111a184828501611168565b91505092915050565b7f4e487b7100000000000000000000000000000000000000000000000000000000600052604160045260246000fd5b6111e28261107b565b810181811067ffffffffffffffff82111715611201576112006111aa565b5b80604052505050565b6000611214610f4b565b905061122082826111d9565b919050565b600067ffffffffffffffff8211156112405761123f6111aa565b5b602082029050602081019050919050565b60008151905061126081611151565b92915050565b600061127961127484611225565b61120a565b9050808382526020820190506020840283018581111561129c5761129b610f69565b5b835b818110156112c557806112b18882611251565b84526020840193505060208101905061129e565b5050509392505050565b600082601f8301126112e4576112e3610f5f565b5b81516112f4848260208601611266565b91505092915050565b60006020828403121561131357611312610f55565b5b600082015167ffffffffffffffff81111561133157611330610f5a565b5b61133d848285016112cf565b91505092915050565b600081905092915050565b82818337600083830152505050565b600061136c8385611346565b9350611379838584611351565b82840190509392505050565b6000611392828486611360565b91508190509392505050565b6000819050919050565b7f4e487b7100000000000000000000000000000000000000000000000000000000600052601160045260246000fd5b60006113e28261139e565b91506113ed8361139e565b925082821015611400576113ff6113a8565b5b828203905092915050565b7f4e487b7100000000000000000000000000000000000000000000000000000000600052603260045260246000fd5b6114438161139e565b811461144e57600080fd5b50565b6000815190506114608161143a565b92915050565b60006020828403121561147c5761147b610f55565b5b600061148a84828501611451565b91505092915050565b600061149e8261139e565b91507fffffffffffffffffffffffffffffffffffffffffffffffffffffffffffffffff8214156114d1576114d06113a8565b5b600182019050919050565b60006020820190506114f1600083018461101d565b92915050565b7f4e487b7100000000000000000000000000000000000000000000000000000000600052602160045260246000fd5b60068110611537576115366114f7565b5b50565b600081905061154882611526565b919050565b60006115588261153a565b9050919050565b6115688161154d565b82525050565b6000602082019050611583600083018461155f565b9291505056fea26469706673582212200e24ffe2756c2d1ee5cf3f082f44cf9c31f8bc7f0fae0745c938172b2874d84164736f6c63430008080033",
  "devdoc": {
    "kind": "dev",
    "methods": {
      "checkUpkeep(bytes)": {
        "details": "To ensure that it is never called, you may want to add the cannotExecute modifier from KeeperBase to your implementation of this method.",
        "params": {
          "checkData": "specified in the upkeep registration so it is always the same for a registered upkeep. This can easily be broken down into specific arguments using `abi.decode`, so multiple upkeeps can be registered on the same contract and easily differentiated by the contract."
        },
        "returns": {
          "performData": "bytes that the keeper should call performUpkeep with, if upkeep is needed. If you would like to encode data to decode later, try `abi.encode`.",
          "upkeepNeeded": "boolean to indicate whether the keeper should call performUpkeep or not."
        }
      },
      "performUpkeep(bytes)": {
        "details": "The input to this method should not be trusted, and the caller of the method should not even be restricted to any single registry. Anyone should be able call it, and the input should be validated, there is no guarantee that the data passed in is the performData returned from checkUpkeep. This could happen due to malicious keepers, racing keepers, or simply a state change while the performUpkeep transaction is waiting for confirmation. Always validate the data passed in.",
        "params": {
          "performData": "is the data which was passed back from the checkData simulation. If it is encoded, it can easily be decoded into other types by calling `abi.decode`. This data should not be trusted, and should be validated against the contract's current state."
        }
      }
    },
    "version": 1
  },
  "userdoc": {
    "kind": "user",
    "methods": {
      "checkUpkeep(bytes)": {
        "notice": "method that is simulated by the keepers to see if any work actually needs to be performed. This method does does not actually need to be executable, and since it is only ever simulated it can consume lots of gas."
      },
      "performUpkeep(bytes)": {
        "notice": "method that is actually executed by the keepers, via the registry. The data returned by the checkUpkeep simulation will be passed into this method to actually be executed."
      }
    },
    "version": 1
  },
  "storageLayout": {
    "storage": [
      {
        "astId": 974,
        "contract": "contracts/AuctionContracts.sol:AuctionKeeper",
        "label": "auctionManagerAddress",
        "offset": 0,
        "slot": "0",
        "type": "t_address"
      },
      {
        "astId": 977,
        "contract": "contracts/AuctionContracts.sol:AuctionKeeper",
        "label": "auctionManager",
        "offset": 0,
        "slot": "1",
        "type": "t_contract(AuctionManager)1859"
      }
    ],
    "types": {
      "t_address": {
        "encoding": "inplace",
        "label": "address",
        "numberOfBytes": "20"
      },
      "t_contract(AuctionManager)1859": {
        "encoding": "inplace",
        "label": "contract AuctionManager",
        "numberOfBytes": "20"
      }
    }
  }
}