{
  "address": "0x5FC8d32690cc91D4c39d9d3abcBD16989F875707",
  "abi": [
    {
      "inputs": [
        {
          "internalType": "address",
          "name": "_auctionRegistryAddress",
          "type": "address"
        },
        {
          "internalType": "address",
          "name": "_eventEmitterAddress",
          "type": "address"
        },
        {
          "internalType": "address",
          "name": "_auctionKeeperAddress",
          "type": "address"
        },
        {
          "internalType": "address",
          "name": "_contractFactoryAddress",
          "type": "address"
        }
      ],
      "stateMutability": "nonpayable",
      "type": "constructor"
    },
    {
      "inputs": [],
      "name": "AuctionManager_BiddingAuctionNotFound",
      "type": "error"
    },
    {
      "inputs": [],
      "name": "AuctionManager_PendingPaymentAuctionNotFound",
      "type": "error"
    },
    {
      "inputs": [],
      "name": "AuctionManager_VerifyWinnerAuctionNotFound",
      "type": "error"
    },
    {
      "inputs": [
        {
          "internalType": "address",
          "name": "_auctionAddress",
          "type": "address"
        }
      ],
      "name": "addBiddingAuction",
      "outputs": [],
      "stateMutability": "nonpayable",
      "type": "function"
    },
    {
      "inputs": [
        {
          "internalType": "address",
          "name": "_auctionAddress",
          "type": "address"
        }
      ],
      "name": "addPendingPaymentAuction",
      "outputs": [],
      "stateMutability": "nonpayable",
      "type": "function"
    },
    {
      "inputs": [
        {
          "internalType": "address",
          "name": "_auctionAddress",
          "type": "address"
        }
      ],
      "name": "addVerifyWinnerAuction",
      "outputs": [],
      "stateMutability": "nonpayable",
      "type": "function"
    },
    {
      "inputs": [
        {
          "internalType": "uint256",
          "name": "",
          "type": "uint256"
        }
      ],
      "name": "biddingAuctions",
      "outputs": [
        {
          "internalType": "address",
          "name": "",
          "type": "address"
        }
      ],
      "stateMutability": "view",
      "type": "function"
    },
    {
      "inputs": [
        {
          "internalType": "address",
          "name": "_nftAddress",
          "type": "address"
        },
        {
          "internalType": "uint256",
          "name": "_tokenId",
          "type": "uint256"
        }
      ],
      "name": "createAuction",
      "outputs": [],
      "stateMutability": "nonpayable",
      "type": "function"
    },
    {
      "inputs": [],
      "name": "getBiddingAuctions",
      "outputs": [
        {
          "internalType": "address[]",
          "name": "",
          "type": "address[]"
        }
      ],
      "stateMutability": "view",
      "type": "function"
    },
    {
      "inputs": [],
      "name": "getContractType",
      "outputs": [
        {
          "internalType": "enum Constants.ContractType",
          "name": "",
          "type": "uint8"
        }
      ],
      "stateMutability": "pure",
      "type": "function"
    },
    {
      "inputs": [],
      "name": "getPendingPaymentAuctions",
      "outputs": [
        {
          "internalType": "address[]",
          "name": "",
          "type": "address[]"
        }
      ],
      "stateMutability": "view",
      "type": "function"
    },
    {
      "inputs": [],
      "name": "getVerifyWinnerAuctions",
      "outputs": [
        {
          "internalType": "address[]",
          "name": "",
          "type": "address[]"
        }
      ],
      "stateMutability": "view",
      "type": "function"
    },
    {
      "inputs": [
        {
          "internalType": "uint256",
          "name": "",
          "type": "uint256"
        }
      ],
      "name": "pendingPaymentAuctions",
      "outputs": [
        {
          "internalType": "address",
          "name": "",
          "type": "address"
        }
      ],
      "stateMutability": "view",
      "type": "function"
    },
    {
      "inputs": [
        {
          "internalType": "address",
          "name": "_auctionAddress",
          "type": "address"
        }
      ],
      "name": "removeBiddingAuction",
      "outputs": [],
      "stateMutability": "nonpayable",
      "type": "function"
    },
    {
      "inputs": [
        {
          "internalType": "address",
          "name": "_auctionAddress",
          "type": "address"
        }
      ],
      "name": "removePendingPaymentAuction",
      "outputs": [],
      "stateMutability": "nonpayable",
      "type": "function"
    },
    {
      "inputs": [
        {
          "internalType": "address",
          "name": "_auctionAddress",
          "type": "address"
        }
      ],
      "name": "removeVerifyWinnerAuction",
      "outputs": [],
      "stateMutability": "nonpayable",
      "type": "function"
    },
    {
      "inputs": [
        {
          "internalType": "address",
          "name": "_auctionAddress",
          "type": "address"
        }
      ],
      "name": "searchBiddingAuction",
      "outputs": [
        {
          "internalType": "uint256",
          "name": "",
          "type": "uint256"
        }
      ],
      "stateMutability": "view",
      "type": "function"
    },
    {
      "inputs": [
        {
          "internalType": "address",
          "name": "_auctionAddress",
          "type": "address"
        }
      ],
      "name": "searchPendingPaymentAuction",
      "outputs": [
        {
          "internalType": "int256",
          "name": "",
          "type": "int256"
        }
      ],
      "stateMutability": "view",
      "type": "function"
    },
    {
      "inputs": [
        {
          "internalType": "address",
          "name": "_auctionAddress",
          "type": "address"
        }
      ],
      "name": "searchVerifyWInnerAuction",
      "outputs": [
        {
          "internalType": "uint256",
          "name": "",
          "type": "uint256"
        }
      ],
      "stateMutability": "view",
      "type": "function"
    },
    {
      "inputs": [
        {
          "internalType": "uint256",
          "name": "",
          "type": "uint256"
        }
      ],
      "name": "verifyWinnerAuctions",
      "outputs": [
        {
          "internalType": "address",
          "name": "",
          "type": "address"
        }
      ],
      "stateMutability": "view",
      "type": "function"
    }
  ],
  "transactionHash": "0xd4fad268211eb9984ca4d274538ca907a72bf6b738e2f0a873bf7117822822cc",
  "args": [
    "0x5FbDB2315678afecb367f032d93F642f64180aa3",
    "0xCf7Ed3AccA5a467e9e704C703E8D87F634fB0Fc9",
    "0xe7f1725E7734CE288F8367e1Bb143E90bb3F0512",
    "0x9fE46736679d2D9a65F0992F2272dE9f3c7fa6e0"
  ],
  "numDeployments": 1,
  "solcInputHash": "122ea963491bf0364bb069582fb886f0",
  "bytecode": "0x60806040523480156200001157600080fd5b5060405162001987380380620019878339818101604052810190620000379190620001af565b83600360006101000a81548173ffffffffffffffffffffffffffffffffffffffff021916908373ffffffffffffffffffffffffffffffffffffffff16021790555082600460006101000a81548173ffffffffffffffffffffffffffffffffffffffff021916908373ffffffffffffffffffffffffffffffffffffffff16021790555081600560006101000a81548173ffffffffffffffffffffffffffffffffffffffff021916908373ffffffffffffffffffffffffffffffffffffffff16021790555080600660006101000a81548173ffffffffffffffffffffffffffffffffffffffff021916908373ffffffffffffffffffffffffffffffffffffffff1602179055505050505062000221565b600080fd5b600073ffffffffffffffffffffffffffffffffffffffff82169050919050565b600062000177826200014a565b9050919050565b62000189816200016a565b81146200019557600080fd5b50565b600081519050620001a9816200017e565b92915050565b60008060008060808587031215620001cc57620001cb62000145565b5b6000620001dc8782880162000198565b9450506020620001ef8782880162000198565b9350506040620002028782880162000198565b9250506060620002158782880162000198565b91505092959194509250565b61175680620002316000396000f3fe608060405234801561001057600080fd5b506004361061010b5760003560e01c80638ac3f2ba116100a2578063d3f7c1c011610071578063d3f7c1c0146102ca578063e0f0f2cf146102e6578063e558019114610304578063f575795c14610334578063f7e88298146103505761010b565b80638ac3f2ba146102305780639188319c14610260578063c51a29e01461027c578063d054059c1461029a5761010b565b80637ca80099116100de5780637ca800991461019657806382b4318c146101c657806383e254ba146101e257806387c8b7fb146102125761010b565b80630d800c1a146101105780630e652b48146101405780631d6a99651461015c57806344b8f18914610178575b600080fd5b61012a60048036038101906101259190611103565b61036c565b6040516101379190611171565b60405180910390f35b61015a600480360381019061015591906111b8565b6103ab565b005b610176600480360381019061017191906111b8565b61044a565b005b6101806105c3565b60405161018d91906112a3565b60405180910390f35b6101b060048036038101906101ab91906111b8565b610651565b6040516101bd91906112de565b60405180910390f35b6101e060048036038101906101db91906111b8565b61072c565b005b6101fc60048036038101906101f791906111b8565b6107cb565b6040516102099190611308565b60405180910390f35b61021a6108a6565b60405161022791906112a3565b60405180910390f35b61024a60048036038101906102459190611103565b610934565b6040516102579190611171565b60405180910390f35b61027a600480360381019061027591906111b8565b610973565b005b610284610a12565b604051610291919061139a565b60405180910390f35b6102b460048036038101906102af9190611103565b610a1b565b6040516102c19190611171565b60405180910390f35b6102e460048036038101906102df91906111b8565b610a5a565b005b6102ee610bc3565b6040516102fb91906112a3565b60405180910390f35b61031e600480360381019061031991906111b8565b610c51565b60405161032b9190611308565b60405180910390f35b61034e600480360381019061034991906111b8565b610d2c565b005b61036a600480360381019061036591906113b5565b610e97565b005b6000818154811061037c57600080fd5b906000526020600020016000915054906101000a900473ffffffffffffffffffffffffffffffffffffffff1681565b600060028111156103bf576103be611323565b5b6103c833610f78565b60028111156103da576103d9611323565b5b146103e457600080fd5b6000819080600181540180825580915050600190039060005260206000200160009091909190916101000a81548173ffffffffffffffffffffffffffffffffffffffff021916908373ffffffffffffffffffffffffffffffffffffffff16021790555050565b6000600281111561045e5761045d611323565b5b61046733610f78565b600281111561047957610478611323565b5b1461048357600080fd5b60008061048f83610651565b9050600081126105be5780915060008290505b60016002805490506104b49190611424565b8110156105755760026001826104ca9190611458565b815481106104db576104da6114ae565b5b9060005260206000200160009054906101000a900473ffffffffffffffffffffffffffffffffffffffff166002828154811061051a576105196114ae565b5b9060005260206000200160006101000a81548173ffffffffffffffffffffffffffffffffffffffff021916908373ffffffffffffffffffffffffffffffffffffffff160217905550808061056d906114dd565b9150506104a2565b50600280548061058857610587611526565b5b6001900381819060005260206000200160006101000a81549073ffffffffffffffffffffffffffffffffffffffff021916905590555b505050565b6060600280548060200260200160405190810160405280929190818152602001828054801561064757602002820191906000526020600020905b8160009054906101000a900473ffffffffffffffffffffffffffffffffffffffff1673ffffffffffffffffffffffffffffffffffffffff16815260200190600101908083116105fd575b5050505050905090565b600080600090505b6002805490508110156106f4578273ffffffffffffffffffffffffffffffffffffffff1660028281548110610691576106906114ae565b5b9060005260206000200160009054906101000a900473ffffffffffffffffffffffffffffffffffffffff1673ffffffffffffffffffffffffffffffffffffffff1614156106e15780915050610727565b80806106ec906114dd565b915050610659565b506040517f504195f300000000000000000000000000000000000000000000000000000000815260040160405180910390fd5b919050565b600060028111156107405761073f611323565b5b61074933610f78565b600281111561075b5761075a611323565b5b1461076557600080fd5b6001819080600181540180825580915050600190039060005260206000200160009091909190916101000a81548173ffffffffffffffffffffffffffffffffffffffff021916908373ffffffffffffffffffffffffffffffffffffffff16021790555050565b600080600090505b60018054905081101561086e578273ffffffffffffffffffffffffffffffffffffffff166001828154811061080b5761080a6114ae565b5b9060005260206000200160009054906101000a900473ffffffffffffffffffffffffffffffffffffffff1673ffffffffffffffffffffffffffffffffffffffff16141561085b57809150506108a1565b8080610866906114dd565b9150506107d3565b506040517fca5b8dbf00000000000000000000000000000000000000000000000000000000815260040160405180910390fd5b919050565b6060600180548060200260200160405190810160405280929190818152602001828054801561092a57602002820191906000526020600020905b8160009054906101000a900473ffffffffffffffffffffffffffffffffffffffff1673ffffffffffffffffffffffffffffffffffffffff16815260200190600101908083116108e0575b5050505050905090565b6001818154811061094457600080fd5b906000526020600020016000915054906101000a900473ffffffffffffffffffffffffffffffffffffffff1681565b6000600281111561098757610986611323565b5b61099033610f78565b60028111156109a2576109a1611323565b5b146109ac57600080fd5b6002819080600181540180825580915050600190039060005260206000200160009091909190916101000a81548173ffffffffffffffffffffffffffffffffffffffff021916908373ffffffffffffffffffffffffffffffffffffffff16021790555050565b60006001905090565b60028181548110610a2b57600080fd5b906000526020600020016000915054906101000a900473ffffffffffffffffffffffffffffffffffffffff1681565b60006002811115610a6e57610a6d611323565b5b610a7733610f78565b6002811115610a8957610a88611323565b5b14610a9357600080fd5b6000610a9e826107cb565b905060008190505b60018080549050610ab79190611424565b811015610b775760018082610acc9190611458565b81548110610add57610adc6114ae565b5b9060005260206000200160009054906101000a900473ffffffffffffffffffffffffffffffffffffffff1660018281548110610b1c57610b1b6114ae565b5b9060005260206000200160006101000a81548173ffffffffffffffffffffffffffffffffffffffff021916908373ffffffffffffffffffffffffffffffffffffffff1602179055508080610b6f906114dd565b915050610aa6565b506001805480610b8a57610b89611526565b5b6001900381819060005260206000200160006101000a81549073ffffffffffffffffffffffffffffffffffffffff021916905590555050565b60606000805480602002602001604051908101604052809291908181526020018280548015610c4757602002820191906000526020600020905b8160009054906101000a900473ffffffffffffffffffffffffffffffffffffffff1673ffffffffffffffffffffffffffffffffffffffff1681526020019060010190808311610bfd575b5050505050905090565b600080600090505b600080549050811015610cf4578273ffffffffffffffffffffffffffffffffffffffff1660008281548110610c9157610c906114ae565b5b9060005260206000200160009054906101000a900473ffffffffffffffffffffffffffffffffffffffff1673ffffffffffffffffffffffffffffffffffffffff161415610ce15780915050610d27565b8080610cec906114dd565b915050610c59565b506040517f967626d200000000000000000000000000000000000000000000000000000000815260040160405180910390fd5b919050565b60006002811115610d4057610d3f611323565b5b610d4933610f78565b6002811115610d5b57610d5a611323565b5b14610d6557600080fd5b6000610d7082610c51565b905060008190505b6001600080549050610d8a9190611424565b811015610e4b576000600182610da09190611458565b81548110610db157610db06114ae565b5b9060005260206000200160009054906101000a900473ffffffffffffffffffffffffffffffffffffffff1660008281548110610df057610def6114ae565b5b9060005260206000200160006101000a81548173ffffffffffffffffffffffffffffffffffffffff021916908373ffffffffffffffffffffffffffffffffffffffff1602179055508080610e43906114dd565b915050610d78565b506000805480610e5e57610e5d611526565b5b6001900381819060005260206000200160006101000a81549073ffffffffffffffffffffffffffffffffffffffff021916905590555050565b6000600660009054906101000a900473ffffffffffffffffffffffffffffffffffffffff1690508073ffffffffffffffffffffffffffffffffffffffff1663bdf1708a8484600460009054906101000a900473ffffffffffffffffffffffffffffffffffffffff16600560009054906101000a900473ffffffffffffffffffffffffffffffffffffffff166040518563ffffffff1660e01b8152600401610f419493929190611555565b600060405180830381600087803b158015610f5b57600080fd5b505af1158015610f6f573d6000803e3d6000fd5b50505050505050565b60008060008373ffffffffffffffffffffffffffffffffffffffff166040516024016040516020818303038152906040527fc51a29e0000000000000000000000000000000000000000000000000000000007bffffffffffffffffffffffffffffffffffffffffffffffffffffffff19166020820180517bffffffffffffffffffffffffffffffffffffffffffffffffffffffff83818316178352505050506040516110249190611614565b6000604051808303816000865af19150503d8060008114611061576040519150601f19603f3d011682016040523d82523d6000602084013e611066565b606091505b5091509150816110ab576040517f08c379a00000000000000000000000000000000000000000000000000000000081526004016110a2906116ae565b60405180910390fd5b808060200190518101906110bf91906116f3565b92505050919050565b600080fd5b6000819050919050565b6110e0816110cd565b81146110eb57600080fd5b50565b6000813590506110fd816110d7565b92915050565b600060208284031215611119576111186110c8565b5b6000611127848285016110ee565b91505092915050565b600073ffffffffffffffffffffffffffffffffffffffff82169050919050565b600061115b82611130565b9050919050565b61116b81611150565b82525050565b60006020820190506111866000830184611162565b92915050565b61119581611150565b81146111a057600080fd5b50565b6000813590506111b28161118c565b92915050565b6000602082840312156111ce576111cd6110c8565b5b60006111dc848285016111a3565b91505092915050565b600081519050919050565b600082825260208201905092915050565b6000819050602082019050919050565b61121a81611150565b82525050565b600061122c8383611211565b60208301905092915050565b6000602082019050919050565b6000611250826111e5565b61125a81856111f0565b935061126583611201565b8060005b8381101561129657815161127d8882611220565b975061128883611238565b925050600181019050611269565b5085935050505092915050565b600060208201905081810360008301526112bd8184611245565b905092915050565b6000819050919050565b6112d8816112c5565b82525050565b60006020820190506112f360008301846112cf565b92915050565b611302816110cd565b82525050565b600060208201905061131d60008301846112f9565b92915050565b7f4e487b7100000000000000000000000000000000000000000000000000000000600052602160045260246000fd5b6003811061136357611362611323565b5b50565b600081905061137482611352565b919050565b600061138482611366565b9050919050565b61139481611379565b82525050565b60006020820190506113af600083018461138b565b92915050565b600080604083850312156113cc576113cb6110c8565b5b60006113da858286016111a3565b92505060206113eb858286016110ee565b9150509250929050565b7f4e487b7100000000000000000000000000000000000000000000000000000000600052601160045260246000fd5b600061142f826110cd565b915061143a836110cd565b92508282101561144d5761144c6113f5565b5b828203905092915050565b6000611463826110cd565b915061146e836110cd565b9250827fffffffffffffffffffffffffffffffffffffffffffffffffffffffffffffffff038211156114a3576114a26113f5565b5b828201905092915050565b7f4e487b7100000000000000000000000000000000000000000000000000000000600052603260045260246000fd5b60006114e8826110cd565b91507fffffffffffffffffffffffffffffffffffffffffffffffffffffffffffffffff82141561151b5761151a6113f5565b5b600182019050919050565b7f4e487b7100000000000000000000000000000000000000000000000000000000600052603160045260246000fd5b600060808201905061156a6000830187611162565b61157760208301866112f9565b6115846040830185611162565b6115916060830184611162565b95945050505050565b600081519050919050565b600081905092915050565b60005b838110156115ce5780820151818401526020810190506115b3565b838111156115dd576000848401525b50505050565b60006115ee8261159a565b6115f881856115a5565b93506116088185602086016115b0565b80840191505092915050565b600061162082846115e3565b915081905092915050565b600082825260208201905092915050565b7f556e61626c6520746f2064657465726d696e652074686520636f6e747261637460008201527f2074797065210000000000000000000000000000000000000000000000000000602082015250565b600061169860268361162b565b91506116a38261163c565b604082019050919050565b600060208201905081810360008301526116c78161168b565b9050919050565b600381106116db57600080fd5b50565b6000815190506116ed816116ce565b92915050565b600060208284031215611709576117086110c8565b5b6000611717848285016116de565b9150509291505056fea2646970667358221220a562de3fb32f5878f229488e6f1c31fd596778985ba9eeea5ee1fe905c212dba64736f6c63430008080033",
  "devdoc": {
    "kind": "dev",
    "methods": {},
    "version": 1
  },
  "userdoc": {
    "kind": "user",
    "methods": {},
    "version": 1
  },
  "storageLayout": {
    "storage": [
      {
        "astId": 1379,
        "contract": "contracts/AuctionContracts.sol:AuctionManager",
        "label": "biddingAuctions",
        "offset": 0,
        "slot": "0",
        "type": "t_array(t_address)dyn_storage"
      },
      {
        "astId": 1382,
        "contract": "contracts/AuctionContracts.sol:AuctionManager",
        "label": "verifyWinnerAuctions",
        "offset": 0,
        "slot": "1",
        "type": "t_array(t_address)dyn_storage"
      },
      {
        "astId": 1385,
        "contract": "contracts/AuctionContracts.sol:AuctionManager",
        "label": "pendingPaymentAuctions",
        "offset": 0,
        "slot": "2",
        "type": "t_array(t_address)dyn_storage"
      },
      {
        "astId": 1387,
        "contract": "contracts/AuctionContracts.sol:AuctionManager",
        "label": "auctionRegistryAddress",
        "offset": 0,
        "slot": "3",
        "type": "t_address"
      },
      {
        "astId": 1389,
        "contract": "contracts/AuctionContracts.sol:AuctionManager",
        "label": "eventEmitterAddress",
        "offset": 0,
        "slot": "4",
        "type": "t_address"
      },
      {
        "astId": 1391,
        "contract": "contracts/AuctionContracts.sol:AuctionManager",
        "label": "auctionKeeperAddress",
        "offset": 0,
        "slot": "5",
        "type": "t_address"
      },
      {
        "astId": 1393,
        "contract": "contracts/AuctionContracts.sol:AuctionManager",
        "label": "contractFactoryAddress",
        "offset": 0,
        "slot": "6",
        "type": "t_address"
      }
    ],
    "types": {
      "t_address": {
        "encoding": "inplace",
        "label": "address",
        "numberOfBytes": "20"
      },
      "t_array(t_address)dyn_storage": {
        "base": "t_address",
        "encoding": "dynamic_array",
        "label": "address[]",
        "numberOfBytes": "32"
      }
    }
  }
}