{
  "address": "0x9fE46736679d2D9a65F0992F2272dE9f3c7fa6e0",
  "abi": [
    {
      "inputs": [],
      "stateMutability": "nonpayable",
      "type": "constructor"
    },
    {
      "inputs": [],
      "name": "AuctionRegistry_RestrictedOwnerAccess",
      "type": "error"
    },
    {
      "inputs": [],
      "name": "AuctionRegistry__RestrictedManagerAccess",
      "type": "error"
    },
    {
      "inputs": [],
      "name": "auctionManagerAddress",
      "outputs": [
        {
          "internalType": "address",
          "name": "",
          "type": "address"
        }
      ],
      "stateMutability": "view",
      "type": "function"
    },
    {
      "inputs": [],
      "name": "auctionRegistryAddress",
      "outputs": [
        {
          "internalType": "address",
          "name": "",
          "type": "address"
        }
      ],
      "stateMutability": "view",
      "type": "function"
    },
    {
      "inputs": [
        {
          "internalType": "address",
          "name": "_nftAddress",
          "type": "address"
        },
        {
          "internalType": "uint256",
          "name": "_tokenId",
          "type": "uint256"
        },
        {
          "internalType": "address",
          "name": "_eventEmitterAddress",
          "type": "address"
        },
        {
          "internalType": "address",
          "name": "_auctionKeeperAddress",
          "type": "address"
        }
      ],
      "name": "createAuction",
      "outputs": [],
      "stateMutability": "nonpayable",
      "type": "function"
    },
    {
      "inputs": [],
      "name": "owner",
      "outputs": [
        {
          "internalType": "address",
          "name": "",
          "type": "address"
        }
      ],
      "stateMutability": "view",
      "type": "function"
    },
    {
      "inputs": [
        {
          "internalType": "address",
          "name": "_auctionManagerAddress",
          "type": "address"
        }
      ],
      "name": "setAuctionManagerAddress",
      "outputs": [],
      "stateMutability": "nonpayable",
      "type": "function"
    }
  ],
  "transactionHash": "0x40ade12a866f16ce090209ca5da04097dcd4db8793e0f12750187998bb1f86a1",
  "args": [],
  "numDeployments": 1,
  "solcInputHash": "122ea963491bf0364bb069582fb886f0",
  "bytecode": "0x60a060405234801561001057600080fd5b503373ffffffffffffffffffffffffffffffffffffffff1660808173ffffffffffffffffffffffffffffffffffffffff1660601b8152505060805160601c6157d861006d6000396000818161012f01526102bc01526157d86000f3fe60806040523480156200001157600080fd5b50600436106200005e5760003560e01c806370749d9b14620000635780638da5cb5b1462000085578063bdf1708a14620000a7578063cd7dc52d14620000c7578063f5d8a57914620000e7575b600080fd5b6200006d62000109565b6040516200007c91906200045d565b60405180910390f35b6200008f6200012d565b6040516200009e91906200045d565b60405180910390f35b620000c56004803603810190620000bf9190620004eb565b62000151565b005b620000e56004803603810190620000df91906200055d565b620002ba565b005b620000f1620003e4565b6040516200010091906200045d565b60405180910390f35b60008054906101000a900473ffffffffffffffffffffffffffffffffffffffff1681565b7f000000000000000000000000000000000000000000000000000000000000000081565b60008054906101000a900473ffffffffffffffffffffffffffffffffffffffff1673ffffffffffffffffffffffffffffffffffffffff163373ffffffffffffffffffffffffffffffffffffffff1614620001d7576040517fd9ce249600000000000000000000000000000000000000000000000000000000815260040160405180910390fd5b6000333084848888604051620001ed906200040a565b620001fe96959493929190620005a0565b604051809103906000f0801580156200021b573d6000803e3d6000fd5b509050600360009054906101000a900473ffffffffffffffffffffffffffffffffffffffff1673ffffffffffffffffffffffffffffffffffffffff16635946f92c8686846040518463ffffffff1660e01b81526004016200027f939291906200060d565b600060405180830381600087803b1580156200029a57600080fd5b505af1158015620002af573d6000803e3d6000fd5b505050505050505050565b7f000000000000000000000000000000000000000000000000000000000000000073ffffffffffffffffffffffffffffffffffffffff163373ffffffffffffffffffffffffffffffffffffffff161462000340576040517f5a70fb0600000000000000000000000000000000000000000000000000000000815260040160405180910390fd5b806000806101000a81548173ffffffffffffffffffffffffffffffffffffffff021916908373ffffffffffffffffffffffffffffffffffffffff16021790555060008054906101000a900473ffffffffffffffffffffffffffffffffffffffff16600260006101000a81548173ffffffffffffffffffffffffffffffffffffffff021916908373ffffffffffffffffffffffffffffffffffffffff16021790555050565b600160009054906101000a900473ffffffffffffffffffffffffffffffffffffffff1681565b615158806200064b83390190565b600073ffffffffffffffffffffffffffffffffffffffff82169050919050565b6000620004458262000418565b9050919050565b620004578162000438565b82525050565b60006020820190506200047460008301846200044c565b92915050565b600080fd5b6200048a8162000438565b81146200049657600080fd5b50565b600081359050620004aa816200047f565b92915050565b6000819050919050565b620004c581620004b0565b8114620004d157600080fd5b50565b600081359050620004e581620004ba565b92915050565b600080600080608085870312156200050857620005076200047a565b5b6000620005188782880162000499565b94505060206200052b87828801620004d4565b93505060406200053e8782880162000499565b9250506060620005518782880162000499565b91505092959194509250565b6000602082840312156200057657620005756200047a565b5b6000620005868482850162000499565b91505092915050565b6200059a81620004b0565b82525050565b600060c082019050620005b760008301896200044c565b620005c660208301886200044c565b620005d560408301876200044c565b620005e460608301866200044c565b620005f360808301856200044c565b6200060260a08301846200058f565b979650505050505050565b60006060820190506200062460008301866200044c565b6200063360208301856200058f565b6200064260408301846200044c565b94935050505056fe6101006040526001600360006101000a8154816fffffffffffffffffffffffffffffffff02191690836fffffffffffffffffffffffffffffffff16021790555062015180600a5562015180600d556000600e60006101000a81548160ff02191690836005811115620000765762000075620003e5565b5b02179055506000600e60016101000a81548160ff02191690836005811115620000a457620000a3620003e5565b5b02179055506000601060146101000a81548160ff021916908315150217905550348015620000d157600080fd5b5060405162005158380380620051588339818101604052810190620000f79190620004b9565b85600260006101000a81548173ffffffffffffffffffffffffffffffffffffffff021916908373ffffffffffffffffffffffffffffffffffffffff1602179055508473ffffffffffffffffffffffffffffffffffffffff1660a08173ffffffffffffffffffffffffffffffffffffffff1660601b815250508273ffffffffffffffffffffffffffffffffffffffff1660808173ffffffffffffffffffffffffffffffffffffffff1660601b815250508473ffffffffffffffffffffffffffffffffffffffff1660c08173ffffffffffffffffffffffffffffffffffffffff1660601b815250508373ffffffffffffffffffffffffffffffffffffffff1660e08173ffffffffffffffffffffffffffffffffffffffff1660601b81525050816000806101000a81548173ffffffffffffffffffffffffffffffffffffffff021916908373ffffffffffffffffffffffffffffffffffffffff160217905550806001819055506000600e60006101000a81548160ff02191690836005811115620002845762000283620003e5565b5b0217905550620002cf600360009054906101000a90046fffffffffffffffffffffffffffffffff166fffffffffffffffffffffffffffffffff166200036c60201b620030ec1760201c565b60048190555060e05160601c73ffffffffffffffffffffffffffffffffffffffff1663e08ea11a308885856200030a620003b960201b60201c565b6040518663ffffffff1660e01b81526004016200032c95949392919062000577565b600060405180830381600087803b1580156200034757600080fd5b505af11580156200035c573d6000803e3d6000fd5b50505050505050505050620007fc565b6000806200037f620003c160201b60201c565b90506000818462000391919062000603565b6ec097ce7bc90715b34b9f1000000000620003ad919062000693565b90508092505050919050565b600042905090565b600080641ec1e48d8090506402540be40081620003df9190620006d5565b91505090565b7f4e487b7100000000000000000000000000000000000000000000000000000000600052602160045260246000fd5b600080fd5b600073ffffffffffffffffffffffffffffffffffffffff82169050919050565b6000620004468262000419565b9050919050565b620004588162000439565b81146200046457600080fd5b50565b60008151905062000478816200044d565b92915050565b6000819050919050565b62000493816200047e565b81146200049f57600080fd5b50565b600081519050620004b38162000488565b92915050565b60008060008060008060c08789031215620004d957620004d862000414565b5b6000620004e989828a0162000467565b9650506020620004fc89828a0162000467565b95505060406200050f89828a0162000467565b94505060606200052289828a0162000467565b93505060806200053589828a0162000467565b92505060a06200054889828a01620004a2565b9150509295509295509295565b620005608162000439565b82525050565b62000571816200047e565b82525050565b600060a0820190506200058e600083018862000555565b6200059d602083018762000555565b620005ac604083018662000555565b620005bb606083018562000566565b620005ca608083018462000566565b9695505050505050565b7f4e487b7100000000000000000000000000000000000000000000000000000000600052601160045260246000fd5b600062000610826200047e565b91506200061d836200047e565b9250817fffffffffffffffffffffffffffffffffffffffffffffffffffffffffffffffff0483118215151615620006595762000658620005d4565b5b828202905092915050565b7f4e487b7100000000000000000000000000000000000000000000000000000000600052601260045260246000fd5b6000620006a0826200047e565b9150620006ad836200047e565b925082620006c057620006bf62000664565b5b828204905092915050565b6000819050919050565b6000620006e282620006cb565b9150620006ef83620006cb565b9250827f7fffffffffffffffffffffffffffffffffffffffffffffffffffffffffffffff0482116000841360008413161615620007315762000730620005d4565b5b817f80000000000000000000000000000000000000000000000000000000000000000583126000841260008413161615620007715762000770620005d4565b5b827f80000000000000000000000000000000000000000000000000000000000000000582126000841360008412161615620007b157620007b0620005d4565b5b827f7fffffffffffffffffffffffffffffffffffffffffffffffffffffffffffffff0582126000841260008412161615620007f157620007f0620005d4565b5b828202905092915050565b60805160601c60a05160601c60c05160601c60e05160601c614898620008c060003960008181610b7c01528181610d910152818161144e015281816117c90152818161190a01528181611bdc015281816120ef01528181612414015281816127f501528181612b370152612fcc015260008181610e9701528181610f2201528181611ce101528181611d6c01528181611e06015281816128d801528181612c6c0152612f41015260006129fd015260008181611a6e0152612a5301526148986000f3fe60806040526004361061023b5760003560e01c806379dfe8841161012e578063d57bde79116100ab578063e1abf80c1161006f578063e1abf80c1461079d578063e5ce7f77146107c6578063e92ec65d146107ef578063f40d06011461081a578063ffac02d9146108245761023b565b8063d57bde79146106c6578063d6f7b688146106f1578063dbb9e0cd1461071c578063dc9aaf3614610747578063dcd4c063146107725761023b565b80639500a4b9116100f25780639500a4b9146106125780639979ef451461063d57806399a7b9a914610666578063c51a29e014610670578063d5055fa81461069b5761023b565b806379dfe8841461053d57806387ceff0914610566578063898fca8e146105915780639157e1ba146105bc57806391f90157146105e75761023b565b80634ba9a927116101bc5780636fc60170116101805780636fc60170146104905780636fefb047146104bb5780636ffd6b5e146104e657806371d05ecf146104fd578063725be527146105145761023b565b80634ba9a927146103b95780634c2a178a146103e45780635917dc5f1461040f5780635bf8633a1461043a5780636d4d09d7146104655761023b565b80631a81d59c116102035780631a81d59c146102f65780631ec2bf311461030d5780631fcd47f5146103385780632359658014610363578063251d9abe1461038e5761023b565b806308551a5314610240578063117df0881461026b57806315488b881461027557806316662d99146102a057806317d70f7c146102cb575b600080fd5b34801561024c57600080fd5b5061025561084f565b6040516102629190613190565b60405180910390f35b610273610875565b005b34801561028157600080fd5b5061028a610c3c565b60405161029791906131c4565b60405180910390f35b3480156102ac57600080fd5b506102b5610c42565b6040516102c291906131c4565b60405180910390f35b3480156102d757600080fd5b506102e0610c48565b6040516102ed91906131c4565b60405180910390f35b34801561030257600080fd5b5061030b610c4e565b005b34801561031957600080fd5b50610322610fad565b60405161032f91906131fa565b60405180910390f35b34801561034457600080fd5b5061034d610ffc565b60405161035a91906131c4565b60405180910390f35b34801561036f57600080fd5b50610378611033565b60405161038591906131c4565b60405180910390f35b34801561039a57600080fd5b506103a3611039565b6040516103b091906131c4565b60405180910390f35b3480156103c557600080fd5b506103ce611070565b6040516103db91906131c4565b60405180910390f35b3480156103f057600080fd5b506103f9611076565b6040516104069190613240565b60405180910390f35b34801561041b57600080fd5b50610424611098565b6040516104319190613240565b60405180910390f35b34801561044657600080fd5b5061044f6110ba565b60405161045c919061327c565b60405180910390f35b34801561047157600080fd5b5061047a6110de565b60405161048791906131c4565b60405180910390f35b34801561049c57600080fd5b506104a56110e4565b6040516104b291906131c4565b60405180910390f35b3480156104c757600080fd5b506104d061111b565b6040516104dd91906131fa565b60405180910390f35b3480156104f257600080fd5b506104fb61116a565b005b34801561050957600080fd5b5061051261150e565b005b34801561052057600080fd5b5061053b600480360381019061053691906132c8565b611889565b005b34801561054957600080fd5b50610564600480360381019061055f91906132c8565b611a13565b005b34801561057257600080fd5b5061057b611e93565b60405161058891906131c4565b60405180910390f35b34801561059d57600080fd5b506105a6611e9b565b6040516105b391906131c4565b60405180910390f35b3480156105c857600080fd5b506105d1611ea1565b6040516105de919061336c565b60405180910390f35b3480156105f357600080fd5b506105fc611eb4565b604051610609919061327c565b60405180910390f35b34801561061e57600080fd5b50610627611eda565b60405161063491906131c4565b60405180910390f35b34801561064957600080fd5b50610664600480360381019061065f91906133b3565b611ee0565b005b61066e6121ae565b005b34801561067c57600080fd5b506106856124d2565b6040516106929190613428565b60405180910390f35b3480156106a757600080fd5b506106b06124d7565b6040516106bd91906131fa565b60405180910390f35b3480156106d257600080fd5b506106db612525565b6040516106e891906131c4565b60405180910390f35b3480156106fd57600080fd5b5061070661252b565b60405161071391906131fa565b60405180910390f35b34801561072857600080fd5b50610731612579565b60405161073e91906131fa565b60405180910390f35b34801561075357600080fd5b5061075c6125c8565b60405161076991906131fa565b60405180910390f35b34801561077e57600080fd5b50610787612617565b60405161079491906131c4565b60405180910390f35b3480156107a957600080fd5b506107c460048036038101906107bf919061346f565b61261d565b005b3480156107d257600080fd5b506107ed60048036038101906107e891906134d4565b612965565b005b3480156107fb57600080fd5b50610804612cf9565b60405161081191906131c4565b60405180910390f35b610822612cff565b005b34801561083057600080fd5b506108396130d9565b6040516108469190613549565b60405180910390f35b600260009054906101000a900473ffffffffffffffffffffffffffffffffffffffff1681565b601060009054906101000a900473ffffffffffffffffffffffffffffffffffffffff1673ffffffffffffffffffffffffffffffffffffffff163373ffffffffffffffffffffffffffffffffffffffff1614158061093e5750601060009054906101000a900473ffffffffffffffffffffffffffffffffffffffff1673ffffffffffffffffffffffffffffffffffffffff163373ffffffffffffffffffffffffffffffffffffffff1614801561093d575060011515601060149054906101000a900460ff161515145b5b806109a65750601060009054906101000a900473ffffffffffffffffffffffffffffffffffffffff1673ffffffffffffffffffffffffffffffffffffffff163373ffffffffffffffffffffffffffffffffffffffff161480156109a557506109a46124d7565b5b5b6109e5576040517f08c379a00000000000000000000000000000000000000000000000000000000081526004016109dc90613633565b60405180910390fd5b6000601160003373ffffffffffffffffffffffffffffffffffffffff1673ffffffffffffffffffffffffffffffffffffffff16815260200190815260200160002060009054906101000a90046fffffffffffffffffffffffffffffffff1690506000601160003373ffffffffffffffffffffffffffffffffffffffff1673ffffffffffffffffffffffffffffffffffffffff16815260200190815260200160002060006101000a8154816fffffffffffffffffffffffffffffffff02191690836fffffffffffffffffffffffffffffffff16021790555060003373ffffffffffffffffffffffffffffffffffffffff16826fffffffffffffffffffffffffffffffff16604051610af490613684565b60006040518083038185875af1925050503d8060008114610b31576040519150601f19603f3d011682016040523d82523d6000602084013e610b36565b606091505b5050905080610b7a576040517f08c379a0000000000000000000000000000000000000000000000000000000008152600401610b71906136e5565b60405180910390fd5b7f000000000000000000000000000000000000000000000000000000000000000073ffffffffffffffffffffffffffffffffffffffff1663ae69121c3060008054906101000a900473ffffffffffffffffffffffffffffffffffffffff166001543387610be5611e93565b6040518763ffffffff1660e01b8152600401610c0696959493929190613740565b600060405180830381600087803b158015610c2057600080fd5b505af1158015610c34573d6000803e3d6000fd5b505050505050565b60045481565b60085481565b60015481565b610c566125c8565b610c95576040517f08c379a0000000000000000000000000000000000000000000000000000000008152600401610c8c90613813565b60405180910390fd5b600654421015610cda576040517f08c379a0000000000000000000000000000000000000000000000000000000008152600401610cd1906138a5565b60405180910390fd5b600073ffffffffffffffffffffffffffffffffffffffff16601060009054906101000a900473ffffffffffffffffffffffffffffffffffffffff1673ffffffffffffffffffffffffffffffffffffffff161415610d4057610d3b6001612965565b610e95565b6002600e60006101000a81548160ff02191690836005811115610d6657610d656132f5565b5b0217905550610d73611e93565b600881905550600a54600854610d8991906138f4565b6009819055507f000000000000000000000000000000000000000000000000000000000000000073ffffffffffffffffffffffffffffffffffffffff166318f6b76830600260009054906101000a900473ffffffffffffffffffffffffffffffffffffffff1660008054906101000a900473ffffffffffffffffffffffffffffffffffffffff16600154601060009054906101000a900473ffffffffffffffffffffffffffffffffffffffff16600f546008546009546040518963ffffffff1660e01b8152600401610e6298979695949392919061399f565b600060405180830381600087803b158015610e7c57600080fd5b505af1158015610e90573d6000803e3d6000fd5b505050505b7f000000000000000000000000000000000000000000000000000000000000000073ffffffffffffffffffffffffffffffffffffffff1663f575795c306040518263ffffffff1660e01b8152600401610eee919061327c565b600060405180830381600087803b158015610f0857600080fd5b505af1158015610f1c573d6000803e3d6000fd5b505050507f000000000000000000000000000000000000000000000000000000000000000073ffffffffffffffffffffffffffffffffffffffff166382b4318c306040518263ffffffff1660e01b8152600401610f79919061327c565b600060405180830381600087803b158015610f9357600080fd5b505af1158015610fa7573d6000803e3d6000fd5b50505050565b600060046005811115610fc357610fc26132f5565b5b600e60009054906101000a900460ff166005811115610fe557610fe46132f5565b5b1415610ff45760019050610ff9565b600090505b90565b6000600c54611009611e93565b11156110185760009050611030565b611020611e93565b600c5461102d9190613a1d565b90505b90565b600a5481565b6000600954611046611e93565b1115611055576000905061106d565b61105d611e93565b60095461106a9190613a1d565b90505b90565b60065481565b600760009054906101000a90046fffffffffffffffffffffffffffffffff1681565b600360009054906101000a90046fffffffffffffffffffffffffffffffff1681565b60008054906101000a900473ffffffffffffffffffffffffffffffffffffffff1681565b60055481565b60006006546110f1611e93565b11156111005760009050611118565b611108611e93565b6006546111159190613a1d565b90505b90565b600060026005811115611131576111306132f5565b5b600e60009054906101000a900460ff166005811115611153576111526132f5565b5b14156111625760019050611167565b600090505b90565b600260009054906101000a900473ffffffffffffffffffffffffffffffffffffffff1673ffffffffffffffffffffffffffffffffffffffff163373ffffffffffffffffffffffffffffffffffffffff16146111f1576040517f78a40c3800000000000000000000000000000000000000000000000000000000815260040160405180910390fd5b60046005811115611205576112046132f5565b5b600e60009054906101000a900460ff166005811115611227576112266132f5565b5b1415611268576040517f08c379a000000000000000000000000000000000000000000000000000000000815260040161125f90613a9d565b60405180910390fd5b60058081111561127b5761127a6132f5565b5b600e60019054906101000a900460ff16600581111561129d5761129c6132f5565b5b146112dd576040517f08c379a00000000000000000000000000000000000000000000000000000000081526004016112d490613b2f565b60405180910390fd5b6000601260003373ffffffffffffffffffffffffffffffffffffffff1673ffffffffffffffffffffffffffffffffffffffff1681526020019081526020016000205490506000811161135b576040517f843b3a3800000000000000000000000000000000000000000000000000000000815260040160405180910390fd5b6000601260003373ffffffffffffffffffffffffffffffffffffffff1673ffffffffffffffffffffffffffffffffffffffff1681526020019081526020016000208190555060003373ffffffffffffffffffffffffffffffffffffffff16826040516113c690613684565b60006040518083038185875af1925050503d8060008114611403576040519150601f19603f3d011682016040523d82523d6000602084013e611408565b606091505b505090508061144c576040517f08c379a000000000000000000000000000000000000000000000000000000000815260040161144390613b9b565b60405180910390fd5b7f000000000000000000000000000000000000000000000000000000000000000073ffffffffffffffffffffffffffffffffffffffff1663be86097e3060008054906101000a900473ffffffffffffffffffffffffffffffffffffffff1660015433876114b7611e93565b6040518763ffffffff1660e01b81526004016114d896959493929190613bbb565b600060405180830381600087803b1580156114f257600080fd5b505af1158015611506573d6000803e3d6000fd5b505050505050565b601060009054906101000a900473ffffffffffffffffffffffffffffffffffffffff1673ffffffffffffffffffffffffffffffffffffffff163373ffffffffffffffffffffffffffffffffffffffff161461159e576040517f08c379a000000000000000000000000000000000000000000000000000000000815260040161159590613c8e565b60405180910390fd5b600460058111156115b2576115b16132f5565b5b600e60019054906101000a900460ff1660058111156115d4576115d36132f5565b5b14611614576040517f08c379a000000000000000000000000000000000000000000000000000000000815260040161160b90613cfa565b60405180910390fd5b600060126000601060009054906101000a900473ffffffffffffffffffffffffffffffffffffffff1673ffffffffffffffffffffffffffffffffffffffff1673ffffffffffffffffffffffffffffffffffffffff168152602001908152602001600020549050600081116116b4576040517f843b3a3800000000000000000000000000000000000000000000000000000000815260040160405180910390fd5b600060126000601060009054906101000a900473ffffffffffffffffffffffffffffffffffffffff1673ffffffffffffffffffffffffffffffffffffffff1673ffffffffffffffffffffffffffffffffffffffff1681526020019081526020016000208190555060003373ffffffffffffffffffffffffffffffffffffffff168260405161174190613684565b60006040518083038185875af1925050503d806000811461177e576040519150601f19603f3d011682016040523d82523d6000602084013e611783565b606091505b50509050806117c7576040517f08c379a00000000000000000000000000000000000000000000000000000000081526004016117be90613b9b565b60405180910390fd5b7f000000000000000000000000000000000000000000000000000000000000000073ffffffffffffffffffffffffffffffffffffffff16631b5f9c3f3060008054906101000a900473ffffffffffffffffffffffffffffffffffffffff166001543387611832611e93565b6040518763ffffffff1660e01b815260040161185396959493929190613bbb565b600060405180830381600087803b15801561186d57600080fd5b505af1158015611881573d6000803e3d6000fd5b505050505050565b60008054906101000a900473ffffffffffffffffffffffffffffffffffffffff1673ffffffffffffffffffffffffffffffffffffffff163373ffffffffffffffffffffffffffffffffffffffff16146118e157600080fd5b6001151581151514156118fd576118f86005612965565b611908565b6119076004612965565b5b7f000000000000000000000000000000000000000000000000000000000000000073ffffffffffffffffffffffffffffffffffffffff166379cb66b930600260009054906101000a900473ffffffffffffffffffffffffffffffffffffffff1660008054906101000a900473ffffffffffffffffffffffffffffffffffffffff16600154601060009054906101000a900473ffffffffffffffffffffffffffffffffffffffff16600f546119ba611e93565b896040518963ffffffff1660e01b81526004016119de989796959493929190613d1a565b600060405180830381600087803b1580156119f857600080fd5b505af1158015611a0c573d6000803e3d6000fd5b5050505050565b600260009054906101000a900473ffffffffffffffffffffffffffffffffffffffff1673ffffffffffffffffffffffffffffffffffffffff163373ffffffffffffffffffffffffffffffffffffffff1614158015611abd57507f000000000000000000000000000000000000000000000000000000000000000073ffffffffffffffffffffffffffffffffffffffff163373ffffffffffffffffffffffffffffffffffffffff1614155b15611af4576040517f78a40c3800000000000000000000000000000000000000000000000000000000815260040160405180910390fd5b611afc61111b565b611b3b576040517f08c379a0000000000000000000000000000000000000000000000000000000008152600401611b3290613e0a565b60405180910390fd5b6000611b45611039565b11611b85576040517f08c379a0000000000000000000000000000000000000000000000000000000008152600401611b7c90613e9c565b60405180910390fd5b8015611dfa57611b93611e93565b600b81905550600d54600b54611ba991906138f4565b600c819055506003600e60006101000a81548160ff02191690836005811115611bd557611bd46132f5565b5b02179055507f000000000000000000000000000000000000000000000000000000000000000073ffffffffffffffffffffffffffffffffffffffff1663917e705830600260009054906101000a900473ffffffffffffffffffffffffffffffffffffffff1660008054906101000a900473ffffffffffffffffffffffffffffffffffffffff16600154601060009054906101000a900473ffffffffffffffffffffffffffffffffffffffff16600f54600b54600c546040518963ffffffff1660e01b8152600401611cad98979695949392919061399f565b600060405180830381600087803b158015611cc757600080fd5b505af1158015611cdb573d6000803e3d6000fd5b505050507f000000000000000000000000000000000000000000000000000000000000000073ffffffffffffffffffffffffffffffffffffffff1663d3f7c1c0306040518263ffffffff1660e01b8152600401611d38919061327c565b600060405180830381600087803b158015611d5257600080fd5b505af1158015611d66573d6000803e3d6000fd5b505050507f000000000000000000000000000000000000000000000000000000000000000073ffffffffffffffffffffffffffffffffffffffff16639188319c306040518263ffffffff1660e01b8152600401611dc3919061327c565b600060405180830381600087803b158015611ddd57600080fd5b505af1158015611df1573d6000803e3d6000fd5b50505050611e90565b611e046002612965565b7f000000000000000000000000000000000000000000000000000000000000000073ffffffffffffffffffffffffffffffffffffffff1663d3f7c1c0306040518263ffffffff1660e01b8152600401611e5d919061327c565b600060405180830381600087803b158015611e7757600080fd5b505af1158015611e8b573d6000803e3d6000fd5b505050505b50565b600042905090565b600b5481565b600e60019054906101000a900460ff1681565b601060009054906101000a900473ffffffffffffffffffffffffffffffffffffffff1681565b600c5481565b600260009054906101000a900473ffffffffffffffffffffffffffffffffffffffff1673ffffffffffffffffffffffffffffffffffffffff163373ffffffffffffffffffffffffffffffffffffffff161415611f68576040517fc8cfc8e900000000000000000000000000000000000000000000000000000000815260040160405180910390fd5b611f706125c8565b611faf576040517f08c379a0000000000000000000000000000000000000000000000000000000008152600401611fa690613813565b60405180910390fd5b600454601160003373ffffffffffffffffffffffffffffffffffffffff1673ffffffffffffffffffffffffffffffffffffffff16815260200190815260200160002060009054906101000a90046fffffffffffffffffffffffffffffffff166fffffffffffffffffffffffffffffffff161015612061576040517f08c379a000000000000000000000000000000000000000000000000000000000815260040161205890613f08565b60405180910390fd5b600f5481116120a5576040517f08c379a000000000000000000000000000000000000000000000000000000000815260040161209c90613f9a565b60405180910390fd5b80600f8190555033601060006101000a81548173ffffffffffffffffffffffffffffffffffffffff021916908373ffffffffffffffffffffffffffffffffffffffff1602179055507f000000000000000000000000000000000000000000000000000000000000000073ffffffffffffffffffffffffffffffffffffffff1663d3b63be83060008054906101000a900473ffffffffffffffffffffffffffffffffffffffff166001543386612158611e93565b6040518763ffffffff1660e01b815260040161217996959493929190613bbb565b600060405180830381600087803b15801561219357600080fd5b505af11580156121a7573d6000803e3d6000fd5b5050505050565b600260009054906101000a900473ffffffffffffffffffffffffffffffffffffffff1673ffffffffffffffffffffffffffffffffffffffff163373ffffffffffffffffffffffffffffffffffffffff161415612236576040517fc8cfc8e900000000000000000000000000000000000000000000000000000000815260040160405180910390fd5b61223e6125c8565b61227d576040517f08c379a000000000000000000000000000000000000000000000000000000000815260040161227490613813565b60405180910390fd5b6000601160003373ffffffffffffffffffffffffffffffffffffffff1673ffffffffffffffffffffffffffffffffffffffff16815260200190815260200160002060009054906101000a90046fffffffffffffffffffffffffffffffff166fffffffffffffffffffffffffffffffff161461232d576040517f08c379a000000000000000000000000000000000000000000000000000000000815260040161232490614006565b60405180910390fd5b600454341015612372576040517f08c379a000000000000000000000000000000000000000000000000000000000815260040161236990614098565b60405180910390fd5b34601160003373ffffffffffffffffffffffffffffffffffffffff1673ffffffffffffffffffffffffffffffffffffffff16815260200190815260200160002060008282829054906101000a90046fffffffffffffffffffffffffffffffff166123dc91906140b8565b92506101000a8154816fffffffffffffffffffffffffffffffff02191690836fffffffffffffffffffffffffffffffff1602179055507f000000000000000000000000000000000000000000000000000000000000000073ffffffffffffffffffffffffffffffffffffffff1663a02cc9573060008054906101000a900473ffffffffffffffffffffffffffffffffffffffff16600154333461247d611e93565b6040518763ffffffff1660e01b815260040161249e96959493929190613bbb565b600060405180830381600087803b1580156124b857600080fd5b505af11580156124cc573d6000803e3d6000fd5b50505050565b600090565b60006005808111156124ec576124eb6132f5565b5b600e60009054906101000a900460ff16600581111561250e5761250d6132f5565b5b141561251d5760019050612522565b600090505b90565b600f5481565b60008060058111156125405761253f6132f5565b5b600e60009054906101000a900460ff166005811115612562576125616132f5565b5b14156125715760019050612576565b600090505b90565b60006003600581111561258f5761258e6132f5565b5b600e60009054906101000a900460ff1660058111156125b1576125b06132f5565b5b14156125c057600190506125c5565b600090505b90565b6000600160058111156125de576125dd6132f5565b5b600e60009054906101000a900460ff166005811115612600576125ff6132f5565b5b141561260f5760019050612614565b600090505b90565b60095481565b61262561252b565b612664576040517f08c379a000000000000000000000000000000000000000000000000000000000815260040161265b9061414a565b60405180910390fd5b600260009054906101000a900473ffffffffffffffffffffffffffffffffffffffff1673ffffffffffffffffffffffffffffffffffffffff163373ffffffffffffffffffffffffffffffffffffffff16146126f4576040517f08c379a00000000000000000000000000000000000000000000000000000000081526004016126eb906141b6565b60405180910390fd5b6000816fffffffffffffffffffffffffffffffff1611612749576040517f08c379a000000000000000000000000000000000000000000000000000000000815260040161274090614248565b60405180910390fd5b42600581905550816fffffffffffffffffffffffffffffffff1660055461277091906138f4565b60068190555081600760006101000a8154816fffffffffffffffffffffffffffffffff02191690836fffffffffffffffffffffffffffffffff160217905550806fffffffffffffffffffffffffffffffff16600f819055506001600e60006101000a81548160ff021916908360058111156127ee576127ed6132f5565b5b02179055507f000000000000000000000000000000000000000000000000000000000000000073ffffffffffffffffffffffffffffffffffffffff16632f7a085b30600260009054906101000a900473ffffffffffffffffffffffffffffffffffffffff1660008054906101000a900473ffffffffffffffffffffffffffffffffffffffff16600154600454600554600654896040518963ffffffff1660e01b81526004016128a4989796959493929190614268565b600060405180830381600087803b1580156128be57600080fd5b505af11580156128d2573d6000803e3d6000fd5b505050507f000000000000000000000000000000000000000000000000000000000000000073ffffffffffffffffffffffffffffffffffffffff16630e652b48306040518263ffffffff1660e01b815260040161292f919061327c565b600060405180830381600087803b15801561294957600080fd5b505af115801561295d573d6000803e3d6000fd5b505050505050565b60036005811115612979576129786132f5565b5b600e60009054906101000a900460ff16600581111561299b5761299a6132f5565b5b1480156129f55750601060009054906101000a900473ffffffffffffffffffffffffffffffffffffffff1673ffffffffffffffffffffffffffffffffffffffff163373ffffffffffffffffffffffffffffffffffffffff16145b80612a4b57507f000000000000000000000000000000000000000000000000000000000000000073ffffffffffffffffffffffffffffffffffffffff163373ffffffffffffffffffffffffffffffffffffffff16145b80612aa157507f000000000000000000000000000000000000000000000000000000000000000073ffffffffffffffffffffffffffffffffffffffff163373ffffffffffffffffffffffffffffffffffffffff16145b612ae0576040517f08c379a0000000000000000000000000000000000000000000000000000000008152600401612ad790614358565b60405180910390fd5b6005600e60006101000a81548160ff02191690836005811115612b0657612b056132f5565b5b021790555080600e60016101000a81548160ff02191690836005811115612b3057612b2f6132f5565b5b02179055507f000000000000000000000000000000000000000000000000000000000000000073ffffffffffffffffffffffffffffffffffffffff16632eca920f30600260009054906101000a900473ffffffffffffffffffffffffffffffffffffffff1660008054906101000a900473ffffffffffffffffffffffffffffffffffffffff16600154612bc1611e93565b601060009054906101000a900473ffffffffffffffffffffffffffffffffffffffff16600f54896040518963ffffffff1660e01b8152600401612c0b989796959493929190614378565b600060405180830381600087803b158015612c2557600080fd5b505af1158015612c39573d6000803e3d6000fd5b5050505060036005811115612c5157612c506132f5565b5b816005811115612c6457612c636132f5565b5b1415612cf6577f000000000000000000000000000000000000000000000000000000000000000073ffffffffffffffffffffffffffffffffffffffff16631d6a9965306040518263ffffffff1660e01b8152600401612cc3919061327c565b600060405180830381600087803b158015612cdd57600080fd5b505af1158015612cf1573d6000803e3d6000fd5b505050505b50565b600d5481565b601060009054906101000a900473ffffffffffffffffffffffffffffffffffffffff1673ffffffffffffffffffffffffffffffffffffffff163373ffffffffffffffffffffffffffffffffffffffff1614158015612d625750612d60612579565b155b15612d99576040517ff5ba74f800000000000000000000000000000000000000000000000000000000815260040160405180910390fd5b612da1612579565b612de0576040517f08c379a0000000000000000000000000000000000000000000000000000000008152600401612dd790614468565b60405180910390fd5b6000612dea610ffc565b11612e2a576040517f08c379a0000000000000000000000000000000000000000000000000000000008152600401612e21906144fa565b60405180910390fd5b600f543414612e6e576040517f08c379a0000000000000000000000000000000000000000000000000000000008152600401612e659061458c565b60405180910390fd5b601060149054906101000a900460ff1615612ebe576040517f08c379a0000000000000000000000000000000000000000000000000000000008152600401612eb5906145f8565b60405180910390fd5b3460126000600260009054906101000a900473ffffffffffffffffffffffffffffffffffffffff1673ffffffffffffffffffffffffffffffffffffffff1673ffffffffffffffffffffffffffffffffffffffff168152602001908152602001600020819055506001601060146101000a81548160ff0219169083151502179055507f000000000000000000000000000000000000000000000000000000000000000073ffffffffffffffffffffffffffffffffffffffff16631d6a9965306040518263ffffffff1660e01b8152600401612f98919061327c565b600060405180830381600087803b158015612fb257600080fd5b505af1158015612fc6573d6000803e3d6000fd5b505050507f000000000000000000000000000000000000000000000000000000000000000073ffffffffffffffffffffffffffffffffffffffff16638dcf508d3060008054906101000a900473ffffffffffffffffffffffffffffffffffffffff1660015433600260009054906101000a900473ffffffffffffffffffffffffffffffffffffffff1634613058611e93565b6040518863ffffffff1660e01b815260040161307a9796959493929190614618565b600060405180830381600087803b15801561309457600080fd5b505af11580156130a8573d6000803e3d6000fd5b505050506004600e60006101000a81548160ff021916908360058111156130d2576130d16132f5565b5b0217905550565b600e60009054906101000a900460ff1681565b6000806130f761312d565b9050600081846131079190614687565b6ec097ce7bc90715b34b9f10000000006131219190614710565b90508092505050919050565b600080641ec1e48d8090506402540be40081613149919061474b565b91505090565b600073ffffffffffffffffffffffffffffffffffffffff82169050919050565b600061317a8261314f565b9050919050565b61318a8161316f565b82525050565b60006020820190506131a56000830184613181565b92915050565b6000819050919050565b6131be816131ab565b82525050565b60006020820190506131d960008301846131b5565b92915050565b60008115159050919050565b6131f4816131df565b82525050565b600060208201905061320f60008301846131eb565b92915050565b60006fffffffffffffffffffffffffffffffff82169050919050565b61323a81613215565b82525050565b60006020820190506132556000830184613231565b92915050565b60006132668261314f565b9050919050565b6132768161325b565b82525050565b6000602082019050613291600083018461326d565b92915050565b600080fd5b6132a5816131df565b81146132b057600080fd5b50565b6000813590506132c28161329c565b92915050565b6000602082840312156132de576132dd613297565b5b60006132ec848285016132b3565b91505092915050565b7f4e487b7100000000000000000000000000000000000000000000000000000000600052602160045260246000fd5b60068110613335576133346132f5565b5b50565b600081905061334682613324565b919050565b600061335682613338565b9050919050565b6133668161334b565b82525050565b6000602082019050613381600083018461335d565b92915050565b613390816131ab565b811461339b57600080fd5b50565b6000813590506133ad81613387565b92915050565b6000602082840312156133c9576133c8613297565b5b60006133d78482850161339e565b91505092915050565b600381106133f1576133f06132f5565b5b50565b6000819050613402826133e0565b919050565b6000613412826133f4565b9050919050565b61342281613407565b82525050565b600060208201905061343d6000830184613419565b92915050565b61344c81613215565b811461345757600080fd5b50565b60008135905061346981613443565b92915050565b6000806040838503121561348657613485613297565b5b60006134948582860161345a565b92505060206134a58582860161345a565b9150509250929050565b600681106134bc57600080fd5b50565b6000813590506134ce816134af565b92915050565b6000602082840312156134ea576134e9613297565b5b60006134f8848285016134bf565b91505092915050565b60068110613512576135116132f5565b5b50565b600081905061352382613501565b919050565b600061353382613515565b9050919050565b61354381613528565b82525050565b600060208201905061355e600083018461353a565b92915050565b600082825260208201905092915050565b7f596f752063616e206f6e6c7920776974686472617720746865206465706f736960008201527f7420696620796f7520617265206e6f742074686520686967686573742062696460208201527f64657221206f7220596f7520776f6e20616e64207061696420666f722074686560408201527f2066756c6c207061796d656e7421000000000000000000000000000000000000606082015250565b600061361d606e83613564565b915061362882613575565b608082019050919050565b6000602082019050818103600083015261364c81613610565b9050919050565b600081905092915050565b50565b600061366e600083613653565b91506136798261365e565b600082019050919050565b600061368f82613661565b9150819050919050565b7f455448207769746864726177616c206661696c65642100000000000000000000600082015250565b60006136cf601683613564565b91506136da82613699565b602082019050919050565b600060208201905081810360008301526136fe816136c2565b9050919050565b6000819050919050565b600061372a61372561372084613215565b613705565b6131ab565b9050919050565b61373a8161370f565b82525050565b600060c082019050613755600083018961326d565b613762602083018861326d565b61376f60408301876131b5565b61377c606083018661326d565b6137896080830185613731565b61379660a08301846131b5565b979650505050505050565b7f41756374696f6e206e6f7420696e205374617274656442696464696e6720737460008201527f6174652100000000000000000000000000000000000000000000000000000000602082015250565b60006137fd602483613564565b9150613808826137a1565b604082019050919050565b6000602082019050818103600083015261382c816137f0565b9050919050565b7f41756374696f6e20686173206e6f74207265616368656420656e642074696d6560008201527f2079657421000000000000000000000000000000000000000000000000000000602082015250565b600061388f602583613564565b915061389a82613833565b604082019050919050565b600060208201905081810360008301526138be81613882565b9050919050565b7f4e487b7100000000000000000000000000000000000000000000000000000000600052601160045260246000fd5b60006138ff826131ab565b915061390a836131ab565b9250827fffffffffffffffffffffffffffffffffffffffffffffffffffffffffffffffff0382111561393f5761393e6138c5565b5b828201905092915050565b600061396561396061395b8461314f565b613705565b61314f565b9050919050565b60006139778261394a565b9050919050565b60006139898261396c565b9050919050565b6139998161397e565b82525050565b6000610100820190506139b5600083018b61326d565b6139c2602083018a613990565b6139cf604083018961326d565b6139dc60608301886131b5565b6139e9608083018761326d565b6139f660a08301866131b5565b613a0360c08301856131b5565b613a1060e08301846131b5565b9998505050505050505050565b6000613a28826131ab565b9150613a33836131ab565b925082821015613a4657613a456138c5565b5b828203905092915050565b7f41756374696f6e207374696c6c2070656e64696e6720666f7220617564697421600082015250565b6000613a87602083613564565b9150613a9282613a51565b602082019050919050565b60006020820190508181036000830152613ab681613a7a565b9050919050565b7f41756374696f6e206f776e657273686970206e6f74207472616e73666572726560008201527f6421000000000000000000000000000000000000000000000000000000000000602082015250565b6000613b19602283613564565b9150613b2482613abd565b604082019050919050565b60006020820190508181036000830152613b4881613b0c565b9050919050565b7f455448207472616e73666572206661696c656400000000000000000000000000600082015250565b6000613b85601383613564565b9150613b9082613b4f565b602082019050919050565b60006020820190508181036000830152613bb481613b78565b9050919050565b600060c082019050613bd0600083018961326d565b613bdd602083018861326d565b613bea60408301876131b5565b613bf7606083018661326d565b613c0460808301856131b5565b613c1160a08301846131b5565b979650505050505050565b7f526566756e642063616e206f6e6c79206265206d61646520746f20706179657260008201527f2100000000000000000000000000000000000000000000000000000000000000602082015250565b6000613c78602183613564565b9150613c8382613c1c565b604082019050919050565b60006020820190508181036000830152613ca781613c6b565b9050919050565b7f496e65676c696769626c6520666f7220726566756e6421000000000000000000600082015250565b6000613ce4601783613564565b9150613cef82613cae565b602082019050919050565b60006020820190508181036000830152613d1381613cd7565b9050919050565b600061010082019050613d30600083018b61326d565b613d3d602083018a613990565b613d4a604083018961326d565b613d5760608301886131b5565b613d64608083018761326d565b613d7160a08301866131b5565b613d7e60c08301856131b5565b613d8b60e08301846131eb565b9998505050505050505050565b7f41756374696f6e206e6f7420696e20566572696679696e6757696e6e6572207360008201527f7461746521000000000000000000000000000000000000000000000000000000602082015250565b6000613df4602583613564565b9150613dff82613d98565b604082019050919050565b60006020820190508181036000830152613e2381613de7565b9050919050565b7f53656c6c657220646964206e6f742076657269667920696e20676976656e207460008201527f696d652100000000000000000000000000000000000000000000000000000000602082015250565b6000613e86602483613564565b9150613e9182613e2a565b604082019050919050565b60006020820190508181036000830152613eb581613e79565b9050919050565b7f506c65617365206465706f736974206265666f72652062696464696e67210000600082015250565b6000613ef2601e83613564565b9150613efd82613ebc565b602082019050919050565b60006020820190508181036000830152613f2181613ee5565b9050919050565b7f596f757220626964206973206c6f776572207468616e2074686520637572726560008201527f6e74206869676865737420626964210000000000000000000000000000000000602082015250565b6000613f84602f83613564565b9150613f8f82613f28565b604082019050919050565b60006020820190508181036000830152613fb381613f77565b9050919050565b7f596f75206861766520616c7265616479206465706f7369746564210000000000600082015250565b6000613ff0601b83613564565b9150613ffb82613fba565b602082019050919050565b6000602082019050818103600083015261401f81613fe3565b9050919050565b7f506c656173652070617920746865206578616374206465706f73697420616d6f60008201527f756e742100000000000000000000000000000000000000000000000000000000602082015250565b6000614082602483613564565b915061408d82614026565b604082019050919050565b600060208201905081810360008301526140b181614075565b9050919050565b60006140c382613215565b91506140ce83613215565b9250826fffffffffffffffffffffffffffffffff038211156140f3576140f26138c5565b5b828201905092915050565b7f41756374696f6e206e6f7420696e205265676973746572656420737461746521600082015250565b6000614134602083613564565b915061413f826140fe565b602082019050919050565b6000602082019050818103600083015261416381614127565b9050919050565b7f53746172742061756374696f6e207265717569726573206f776e657221000000600082015250565b60006141a0601d83613564565b91506141ab8261416a565b602082019050919050565b600060208201905081810360008301526141cf81614193565b9050919050565b7f5374617274696e6720626964206d75737420626520677265617465722074686160008201527f6e20302077656900000000000000000000000000000000000000000000000000602082015250565b6000614232602783613564565b915061423d826141d6565b604082019050919050565b6000602082019050818103600083015261426181614225565b9050919050565b60006101008201905061427e600083018b61326d565b61428b602083018a613990565b614298604083018961326d565b6142a560608301886131b5565b6142b260808301876131b5565b6142bf60a08301866131b5565b6142cc60c08301856131b5565b6142d960e0830184613731565b9998505050505050505050565b7f46756e6374696f6e206e6f7420746f2062652063616c6c6564206d616e75616c60008201527f6c79210000000000000000000000000000000000000000000000000000000000602082015250565b6000614342602383613564565b915061434d826142e6565b604082019050919050565b6000602082019050818103600083015261437181614335565b9050919050565b60006101008201905061438e600083018b61326d565b61439b602083018a613990565b6143a8604083018961326d565b6143b560608301886131b5565b6143c260808301876131b5565b6143cf60a083018661326d565b6143dc60c08301856131b5565b6143e960e083018461335d565b9998505050505050505050565b7f41756374696f6e206e6f7420696e2050656e64696e675061796d656e7420737460008201527f6174652100000000000000000000000000000000000000000000000000000000602082015250565b6000614452602483613564565b915061445d826143f6565b604082019050919050565b6000602082019050818103600083015261448181614445565b9050919050565b7f5061796d656e742077696e646f7720666f722066756c6c20736574746c656d6560008201527f6e7420636c6f7365642100000000000000000000000000000000000000000000602082015250565b60006144e4602a83613564565b91506144ef82614488565b604082019050919050565b60006020820190508181036000830152614513816144d7565b9050919050565b7f5061796d656e742076616c7565206d75737420626520657175616c20746f207960008201527f6f75722077696e6e696e67206269642100000000000000000000000000000000602082015250565b6000614576603083613564565b91506145818261451a565b604082019050919050565b600060208201905081810360008301526145a581614569565b9050919050565b7f596f752068617665207061696421000000000000000000000000000000000000600082015250565b60006145e2600e83613564565b91506145ed826145ac565b602082019050919050565b60006020820190508181036000830152614611816145d5565b9050919050565b600060e08201905061462d600083018a61326d565b61463a602083018961326d565b61464760408301886131b5565b614654606083018761326d565b6146616080830186613990565b61466e60a08301856131b5565b61467b60c08301846131b5565b98975050505050505050565b6000614692826131ab565b915061469d836131ab565b9250817fffffffffffffffffffffffffffffffffffffffffffffffffffffffffffffffff04831182151516156146d6576146d56138c5565b5b828202905092915050565b7f4e487b7100000000000000000000000000000000000000000000000000000000600052601260045260246000fd5b600061471b826131ab565b9150614726836131ab565b925082614736576147356146e1565b5b828204905092915050565b6000819050919050565b600061475682614741565b915061476183614741565b9250827f7fffffffffffffffffffffffffffffffffffffffffffffffffffffffffffffff04821160008413600084131616156147a05761479f6138c5565b5b817f800000000000000000000000000000000000000000000000000000000000000005831260008412600084131616156147dd576147dc6138c5565b5b827f8000000000000000000000000000000000000000000000000000000000000000058212600084136000841216161561481a576148196138c5565b5b827f7fffffffffffffffffffffffffffffffffffffffffffffffffffffffffffffff0582126000841260008412161615614857576148566138c5565b5b82820290509291505056fea264697066735822122092f0749a176158a9975783e4d9194d8c100fac4e214d000fdc7fd974e7c7a96f64736f6c63430008080033a2646970667358221220d05cf0beabb6d06a9cce3aed658022e2b6521b7797fbf6b7175aa740c31e7c8364736f6c63430008080033",
  "devdoc": {
    "kind": "dev",
    "methods": {},
    "version": 1
  },
  "userdoc": {
    "kind": "user",
    "methods": {},
    "version": 1
  },
  "storageLayout": {
    "storage": [
      {
        "astId": 138,
        "contract": "contracts/AuctionContracts.sol:ContractFactory",
        "label": "auctionManagerAddress",
        "offset": 0,
        "slot": "0",
        "type": "t_address"
      },
      {
        "astId": 140,
        "contract": "contracts/AuctionContracts.sol:ContractFactory",
        "label": "auctionRegistryAddress",
        "offset": 0,
        "slot": "1",
        "type": "t_address"
      },
      {
        "astId": 143,
        "contract": "contracts/AuctionContracts.sol:ContractFactory",
        "label": "auctionManager",
        "offset": 0,
        "slot": "2",
        "type": "t_contract(AuctionManager)1859"
      },
      {
        "astId": 146,
        "contract": "contracts/AuctionContracts.sol:ContractFactory",
        "label": "auctionRegistry",
        "offset": 0,
        "slot": "3",
        "type": "t_contract(AuctionRegistry)968"
      }
    ],
    "types": {
      "t_address": {
        "encoding": "inplace",
        "label": "address",
        "numberOfBytes": "20"
      },
      "t_contract(AuctionManager)1859": {
        "encoding": "inplace",
        "label": "contract AuctionManager",
        "numberOfBytes": "20"
      },
      "t_contract(AuctionRegistry)968": {
        "encoding": "inplace",
        "label": "contract AuctionRegistry",
        "numberOfBytes": "20"
      }
    }
  }
}