{
  "address": "0xCf7Ed3AccA5a467e9e704C703E8D87F634fB0Fc9",
  "abi": [
    {
      "anonymous": false,
      "inputs": [
        {
          "indexed": true,
          "internalType": "address",
          "name": "auction",
          "type": "address"
        },
        {
          "indexed": false,
          "internalType": "address",
          "name": "seller",
          "type": "address"
        },
        {
          "indexed": false,
          "internalType": "address",
          "name": "nftAddress",
          "type": "address"
        },
        {
          "indexed": true,
          "internalType": "uint256",
          "name": "tokenId",
          "type": "uint256"
        },
        {
          "indexed": true,
          "internalType": "address",
          "name": "winner",
          "type": "address"
        },
        {
          "indexed": false,
          "internalType": "uint256",
          "name": "winningBid",
          "type": "uint256"
        },
        {
          "indexed": false,
          "internalType": "uint256",
          "name": "time",
          "type": "uint256"
        },
        {
          "indexed": false,
          "internalType": "bool",
          "name": "pass",
          "type": "bool"
        }
      ],
      "name": "AuctionAuditResult",
      "type": "event"
    },
    {
      "anonymous": false,
      "inputs": [
        {
          "indexed": true,
          "internalType": "address",
          "name": "auction",
          "type": "address"
        },
        {
          "indexed": true,
          "internalType": "address",
          "name": "nftAddress",
          "type": "address"
        },
        {
          "indexed": true,
          "internalType": "uint256",
          "name": "tokenId",
          "type": "uint256"
        },
        {
          "indexed": false,
          "internalType": "address",
          "name": "bidder",
          "type": "address"
        },
        {
          "indexed": false,
          "internalType": "uint256",
          "name": "bidAmount",
          "type": "uint256"
        },
        {
          "indexed": false,
          "internalType": "uint256",
          "name": "bidTime",
          "type": "uint256"
        }
      ],
      "name": "AuctionBidPlaced",
      "type": "event"
    },
    {
      "anonymous": false,
      "inputs": [
        {
          "indexed": true,
          "internalType": "address",
          "name": "auction",
          "type": "address"
        },
        {
          "indexed": false,
          "internalType": "address",
          "name": "seller",
          "type": "address"
        },
        {
          "indexed": false,
          "internalType": "address",
          "name": "nftAddress",
          "type": "address"
        },
        {
          "indexed": true,
          "internalType": "uint256",
          "name": "tokenId",
          "type": "uint256"
        },
        {
          "indexed": false,
          "internalType": "uint256",
          "name": "closeTime",
          "type": "uint256"
        },
        {
          "indexed": false,
          "internalType": "address",
          "name": "winner",
          "type": "address"
        },
        {
          "indexed": false,
          "internalType": "uint256",
          "name": "winningBid",
          "type": "uint256"
        },
        {
          "indexed": true,
          "internalType": "enum Constants.AuctionEndState",
          "name": "endState",
          "type": "uint8"
        }
      ],
      "name": "AuctionClosed",
      "type": "event"
    },
    {
      "anonymous": false,
      "inputs": [
        {
          "indexed": true,
          "internalType": "address",
          "name": "auction",
          "type": "address"
        },
        {
          "indexed": true,
          "internalType": "address",
          "name": "nftAddress",
          "type": "address"
        },
        {
          "indexed": true,
          "internalType": "uint256",
          "name": "tokenId",
          "type": "uint256"
        },
        {
          "indexed": false,
          "internalType": "address",
          "name": "bidder",
          "type": "address"
        },
        {
          "indexed": false,
          "internalType": "uint256",
          "name": "depositAmount",
          "type": "uint256"
        },
        {
          "indexed": false,
          "internalType": "uint256",
          "name": "depositTime",
          "type": "uint256"
        }
      ],
      "name": "AuctionDepositPlaced",
      "type": "event"
    },
    {
      "anonymous": false,
      "inputs": [
        {
          "indexed": true,
          "internalType": "address",
          "name": "auction",
          "type": "address"
        },
        {
          "indexed": true,
          "internalType": "address",
          "name": "nftAddress",
          "type": "address"
        },
        {
          "indexed": true,
          "internalType": "uint256",
          "name": "tokenId",
          "type": "uint256"
        },
        {
          "indexed": false,
          "internalType": "address",
          "name": "bidder",
          "type": "address"
        },
        {
          "indexed": false,
          "internalType": "uint256",
          "name": "retrieveAmount",
          "type": "uint256"
        },
        {
          "indexed": false,
          "internalType": "uint256",
          "name": "retrievalTime",
          "type": "uint256"
        }
      ],
      "name": "AuctionDepositRetrieved",
      "type": "event"
    },
    {
      "anonymous": false,
      "inputs": [
        {
          "indexed": true,
          "internalType": "address",
          "name": "auction",
          "type": "address"
        },
        {
          "indexed": false,
          "internalType": "address",
          "name": "nftAddress",
          "type": "address"
        },
        {
          "indexed": false,
          "internalType": "uint256",
          "name": "tokenId",
          "type": "uint256"
        },
        {
          "indexed": true,
          "internalType": "address",
          "name": "winner",
          "type": "address"
        },
        {
          "indexed": false,
          "internalType": "address",
          "name": "seller",
          "type": "address"
        },
        {
          "indexed": true,
          "internalType": "uint256",
          "name": "paidAmount",
          "type": "uint256"
        },
        {
          "indexed": false,
          "internalType": "uint256",
          "name": "paidTime",
          "type": "uint256"
        }
      ],
      "name": "AuctionFullSettlementPaid",
      "type": "event"
    },
    {
      "anonymous": false,
      "inputs": [
        {
          "indexed": true,
          "internalType": "address",
          "name": "auction",
          "type": "address"
        },
        {
          "indexed": false,
          "internalType": "address",
          "name": "seller",
          "type": "address"
        },
        {
          "indexed": false,
          "internalType": "address",
          "name": "nftAddress",
          "type": "address"
        },
        {
          "indexed": true,
          "internalType": "uint256",
          "name": "tokenId",
          "type": "uint256"
        },
        {
          "indexed": true,
          "internalType": "address",
          "name": "winner",
          "type": "address"
        },
        {
          "indexed": false,
          "internalType": "uint256",
          "name": "winningBid",
          "type": "uint256"
        },
        {
          "indexed": false,
          "internalType": "uint256",
          "name": "startTime",
          "type": "uint256"
        },
        {
          "indexed": false,
          "internalType": "uint256",
          "name": "endTime",
          "type": "uint256"
        }
      ],
      "name": "AuctionPendingPayment",
      "type": "event"
    },
    {
      "anonymous": false,
      "inputs": [
        {
          "indexed": true,
          "internalType": "address",
          "name": "auction",
          "type": "address"
        },
        {
          "indexed": false,
          "internalType": "address",
          "name": "nftAddress",
          "type": "address"
        },
        {
          "indexed": false,
          "internalType": "uint256",
          "name": "tokenId",
          "type": "uint256"
        },
        {
          "indexed": false,
          "internalType": "address",
          "name": "winner",
          "type": "address"
        },
        {
          "indexed": true,
          "internalType": "uint256",
          "name": "refundAmount",
          "type": "uint256"
        },
        {
          "indexed": false,
          "internalType": "uint256",
          "name": "retrievalTime",
          "type": "uint256"
        }
      ],
      "name": "AuctionProceedsRefunded",
      "type": "event"
    },
    {
      "anonymous": false,
      "inputs": [
        {
          "indexed": true,
          "internalType": "address",
          "name": "auction",
          "type": "address"
        },
        {
          "indexed": false,
          "internalType": "address",
          "name": "nftAddress",
          "type": "address"
        },
        {
          "indexed": false,
          "internalType": "uint256",
          "name": "tokenId",
          "type": "uint256"
        },
        {
          "indexed": true,
          "internalType": "address",
          "name": "seller",
          "type": "address"
        },
        {
          "indexed": true,
          "internalType": "uint256",
          "name": "retrieveAmount",
          "type": "uint256"
        },
        {
          "indexed": false,
          "internalType": "uint256",
          "name": "retrievalTime",
          "type": "uint256"
        }
      ],
      "name": "AuctionProceedsRetrieved",
      "type": "event"
    },
    {
      "anonymous": false,
      "inputs": [
        {
          "indexed": true,
          "internalType": "address",
          "name": "auction",
          "type": "address"
        },
        {
          "indexed": false,
          "internalType": "address",
          "name": "seller",
          "type": "address"
        },
        {
          "indexed": true,
          "internalType": "address",
          "name": "nftAddress",
          "type": "address"
        },
        {
          "indexed": true,
          "internalType": "uint256",
          "name": "tokenId",
          "type": "uint256"
        },
        {
          "indexed": false,
          "internalType": "uint256",
          "name": "registerTime",
          "type": "uint256"
        }
      ],
      "name": "AuctionRegistered",
      "type": "event"
    },
    {
      "anonymous": false,
      "inputs": [
        {
          "indexed": true,
          "internalType": "address",
          "name": "auction",
          "type": "address"
        },
        {
          "indexed": false,
          "internalType": "address",
          "name": "seller",
          "type": "address"
        },
        {
          "indexed": true,
          "internalType": "address",
          "name": "nftAddress",
          "type": "address"
        },
        {
          "indexed": true,
          "internalType": "uint256",
          "name": "tokenId",
          "type": "uint256"
        },
        {
          "indexed": false,
          "internalType": "uint256",
          "name": "depositWei",
          "type": "uint256"
        },
        {
          "indexed": false,
          "internalType": "uint256",
          "name": "bidStartTime",
          "type": "uint256"
        },
        {
          "indexed": false,
          "internalType": "uint256",
          "name": "bidEndTime",
          "type": "uint256"
        },
        {
          "indexed": false,
          "internalType": "uint256",
          "name": "startingBid",
          "type": "uint256"
        }
      ],
      "name": "AuctionStartedBidding",
      "type": "event"
    },
    {
      "anonymous": false,
      "inputs": [
        {
          "indexed": true,
          "internalType": "address",
          "name": "auction",
          "type": "address"
        },
        {
          "indexed": false,
          "internalType": "address",
          "name": "seller",
          "type": "address"
        },
        {
          "indexed": false,
          "internalType": "address",
          "name": "nftAddress",
          "type": "address"
        },
        {
          "indexed": true,
          "internalType": "uint256",
          "name": "tokenId",
          "type": "uint256"
        },
        {
          "indexed": true,
          "internalType": "address",
          "name": "winner",
          "type": "address"
        },
        {
          "indexed": false,
          "internalType": "uint256",
          "name": "winningBid",
          "type": "uint256"
        },
        {
          "indexed": false,
          "internalType": "uint256",
          "name": "startTime",
          "type": "uint256"
        },
        {
          "indexed": false,
          "internalType": "uint256",
          "name": "endTime",
          "type": "uint256"
        }
      ],
      "name": "AuctionVerifyingWinner",
      "type": "event"
    },
    {
      "inputs": [
        {
          "internalType": "address",
          "name": "_auction",
          "type": "address"
        },
        {
          "internalType": "address",
          "name": "_seller",
          "type": "address"
        },
        {
          "internalType": "address",
          "name": "_nftAddress",
          "type": "address"
        },
        {
          "internalType": "uint256",
          "name": "_tokenId",
          "type": "uint256"
        },
        {
          "internalType": "address",
          "name": "_winner",
          "type": "address"
        },
        {
          "internalType": "uint256",
          "name": "_winningBid",
          "type": "uint256"
        },
        {
          "internalType": "uint256",
          "name": "_time",
          "type": "uint256"
        },
        {
          "internalType": "bool",
          "name": "_pass",
          "type": "bool"
        }
      ],
      "name": "emitAuctionAuditResult",
      "outputs": [],
      "stateMutability": "nonpayable",
      "type": "function"
    },
    {
      "inputs": [
        {
          "internalType": "address",
          "name": "_auction",
          "type": "address"
        },
        {
          "internalType": "address",
          "name": "_nftAddress",
          "type": "address"
        },
        {
          "internalType": "uint256",
          "name": "_tokenId",
          "type": "uint256"
        },
        {
          "internalType": "address",
          "name": "_bidder",
          "type": "address"
        },
        {
          "internalType": "uint256",
          "name": "_bidAmount",
          "type": "uint256"
        },
        {
          "internalType": "uint256",
          "name": "_bidTime",
          "type": "uint256"
        }
      ],
      "name": "emitAuctionBidPlaced",
      "outputs": [],
      "stateMutability": "nonpayable",
      "type": "function"
    },
    {
      "inputs": [
        {
          "internalType": "address",
          "name": "_auction",
          "type": "address"
        },
        {
          "internalType": "address",
          "name": "_seller",
          "type": "address"
        },
        {
          "internalType": "address",
          "name": "_nftAddress",
          "type": "address"
        },
        {
          "internalType": "uint256",
          "name": "_tokenId",
          "type": "uint256"
        },
        {
          "internalType": "uint256",
          "name": "_closeTime",
          "type": "uint256"
        },
        {
          "internalType": "address",
          "name": "_winner",
          "type": "address"
        },
        {
          "internalType": "uint256",
          "name": "_winningBid",
          "type": "uint256"
        },
        {
          "internalType": "enum Constants.AuctionEndState",
          "name": "_endState",
          "type": "uint8"
        }
      ],
      "name": "emitAuctionClosed",
      "outputs": [],
      "stateMutability": "nonpayable",
      "type": "function"
    },
    {
      "inputs": [
        {
          "internalType": "address",
          "name": "_auction",
          "type": "address"
        },
        {
          "internalType": "address",
          "name": "_nftAddress",
          "type": "address"
        },
        {
          "internalType": "uint256",
          "name": "_tokenId",
          "type": "uint256"
        },
        {
          "internalType": "address",
          "name": "_bidder",
          "type": "address"
        },
        {
          "internalType": "uint256",
          "name": "_depositAmount",
          "type": "uint256"
        },
        {
          "internalType": "uint256",
          "name": "_depositTime",
          "type": "uint256"
        }
      ],
      "name": "emitAuctionDepositPlaced",
      "outputs": [],
      "stateMutability": "nonpayable",
      "type": "function"
    },
    {
      "inputs": [
        {
          "internalType": "address",
          "name": "_auction",
          "type": "address"
        },
        {
          "internalType": "address",
          "name": "_nftAddress",
          "type": "address"
        },
        {
          "internalType": "uint256",
          "name": "_tokenId",
          "type": "uint256"
        },
        {
          "internalType": "address",
          "name": "_bidder",
          "type": "address"
        },
        {
          "internalType": "uint256",
          "name": "_retrieveAmount",
          "type": "uint256"
        },
        {
          "internalType": "uint256",
          "name": "_retrievalTime",
          "type": "uint256"
        }
      ],
      "name": "emitAuctionDepositRetrieved",
      "outputs": [],
      "stateMutability": "nonpayable",
      "type": "function"
    },
    {
      "inputs": [
        {
          "internalType": "address",
          "name": "_auction",
          "type": "address"
        },
        {
          "internalType": "address",
          "name": "_nftAddress",
          "type": "address"
        },
        {
          "internalType": "uint256",
          "name": "_tokenId",
          "type": "uint256"
        },
        {
          "internalType": "address",
          "name": "_winner",
          "type": "address"
        },
        {
          "internalType": "address",
          "name": "_seller",
          "type": "address"
        },
        {
          "internalType": "uint256",
          "name": "_paidAmount",
          "type": "uint256"
        },
        {
          "internalType": "uint256",
          "name": "_paidTime",
          "type": "uint256"
        }
      ],
      "name": "emitAuctionFullSettlementPaid",
      "outputs": [],
      "stateMutability": "nonpayable",
      "type": "function"
    },
    {
      "inputs": [
        {
          "internalType": "address",
          "name": "_auction",
          "type": "address"
        },
        {
          "internalType": "address",
          "name": "_seller",
          "type": "address"
        },
        {
          "internalType": "address",
          "name": "_nftAddress",
          "type": "address"
        },
        {
          "internalType": "uint256",
          "name": "_tokenId",
          "type": "uint256"
        },
        {
          "internalType": "address",
          "name": "_winner",
          "type": "address"
        },
        {
          "internalType": "uint256",
          "name": "_winningBid",
          "type": "uint256"
        },
        {
          "internalType": "uint256",
          "name": "_startTime",
          "type": "uint256"
        },
        {
          "internalType": "uint256",
          "name": "_expiryTime",
          "type": "uint256"
        }
      ],
      "name": "emitAuctionPendingPayment",
      "outputs": [],
      "stateMutability": "nonpayable",
      "type": "function"
    },
    {
      "inputs": [
        {
          "internalType": "address",
          "name": "_auction",
          "type": "address"
        },
        {
          "internalType": "address",
          "name": "_nftAddress",
          "type": "address"
        },
        {
          "internalType": "uint256",
          "name": "_tokenId",
          "type": "uint256"
        },
        {
          "internalType": "address",
          "name": "_winner",
          "type": "address"
        },
        {
          "internalType": "uint256",
          "name": "_refundAmount",
          "type": "uint256"
        },
        {
          "internalType": "uint256",
          "name": "_retrievalTime",
          "type": "uint256"
        }
      ],
      "name": "emitAuctionProceedsRefunded",
      "outputs": [],
      "stateMutability": "nonpayable",
      "type": "function"
    },
    {
      "inputs": [
        {
          "internalType": "address",
          "name": "_auction",
          "type": "address"
        },
        {
          "internalType": "address",
          "name": "_nftAddress",
          "type": "address"
        },
        {
          "internalType": "uint256",
          "name": "_tokenId",
          "type": "uint256"
        },
        {
          "internalType": "address",
          "name": "_seller",
          "type": "address"
        },
        {
          "internalType": "uint256",
          "name": "_retrieveAmount",
          "type": "uint256"
        },
        {
          "internalType": "uint256",
          "name": "_retrievalTime",
          "type": "uint256"
        }
      ],
      "name": "emitAuctionProceedsRetrieved",
      "outputs": [],
      "stateMutability": "nonpayable",
      "type": "function"
    },
    {
      "inputs": [
        {
          "internalType": "address",
          "name": "_auction",
          "type": "address"
        },
        {
          "internalType": "address",
          "name": "_seller",
          "type": "address"
        },
        {
          "internalType": "address",
          "name": "_nftAddress",
          "type": "address"
        },
        {
          "internalType": "uint256",
          "name": "_tokenId",
          "type": "uint256"
        },
        {
          "internalType": "uint256",
          "name": "_registerTime",
          "type": "uint256"
        }
      ],
      "name": "emitAuctionRegistered",
      "outputs": [],
      "stateMutability": "nonpayable",
      "type": "function"
    },
    {
      "inputs": [
        {
          "internalType": "address",
          "name": "_auction",
          "type": "address"
        },
        {
          "internalType": "address",
          "name": "_seller",
          "type": "address"
        },
        {
          "internalType": "address",
          "name": "_nftAddress",
          "type": "address"
        },
        {
          "internalType": "uint256",
          "name": "_tokenId",
          "type": "uint256"
        },
        {
          "internalType": "uint256",
          "name": "_depositWei",
          "type": "uint256"
        },
        {
          "internalType": "uint256",
          "name": "_startTime",
          "type": "uint256"
        },
        {
          "internalType": "uint256",
          "name": "_bidEndTime",
          "type": "uint256"
        },
        {
          "internalType": "uint256",
          "name": "_startingBid",
          "type": "uint256"
        }
      ],
      "name": "emitAuctionStartedBidding",
      "outputs": [],
      "stateMutability": "nonpayable",
      "type": "function"
    },
    {
      "inputs": [
        {
          "internalType": "address",
          "name": "_auction",
          "type": "address"
        },
        {
          "internalType": "address",
          "name": "_seller",
          "type": "address"
        },
        {
          "internalType": "address",
          "name": "_nftAddress",
          "type": "address"
        },
        {
          "internalType": "uint256",
          "name": "_tokenId",
          "type": "uint256"
        },
        {
          "internalType": "address",
          "name": "_winner",
          "type": "address"
        },
        {
          "internalType": "uint256",
          "name": "_winningBid",
          "type": "uint256"
        },
        {
          "internalType": "uint256",
          "name": "_startTime",
          "type": "uint256"
        },
        {
          "internalType": "uint256",
          "name": "_expiryTime",
          "type": "uint256"
        }
      ],
      "name": "emitAuctionVerifyingWinner",
      "outputs": [],
      "stateMutability": "nonpayable",
      "type": "function"
    }
  ],
  "transactionHash": "0xbaed71d52d4a05ab1987895c3ef950ced690f71f816b6a6c67cb31af090f364e",
  "args": [],
  "numDeployments": 1,
  "solcInputHash": "122ea963491bf0364bb069582fb886f0",
  "bytecode": "0x608060405234801561001057600080fd5b506112c7806100206000396000f3fe608060405234801561001057600080fd5b50600436106100b45760003560e01c8063917e705811610071578063917e705814610161578063a02cc9571461017d578063ae69121c14610199578063be86097e146101b5578063d3b63be8146101d1578063e08ea11a146101ed576100b4565b806318f6b768146100b95780631b5f9c3f146100d55780632eca920f146100f15780632f7a085b1461010d57806379cb66b9146101295780638dcf508d14610145575b600080fd5b6100d360048036038101906100ce91906109df565b610209565b005b6100ef60048036038101906100ea9190610a95565b61028d565b005b61010b60048036038101906101069190610b47565b6102f6565b005b61012760048036038101906101229190610bfd565b610376565b005b610143600480360381019061013e9190610ceb565b6103fa565b005b61015f600480360381019061015a9190610da1565b61047e565b005b61017b600480360381019061017691906109df565b6104ff565b005b61019760048036038101906101929190610a95565b610583565b005b6101b360048036038101906101ae9190610a95565b610601565b005b6101cf60048036038101906101ca9190610a95565b61067f565b005b6101eb60048036038101906101e69190610a95565b6106fd565b005b61020760048036038101906102029190610e43565b61077b565b005b33610213816107f6565b508473ffffffffffffffffffffffffffffffffffffffff16868a73ffffffffffffffffffffffffffffffffffffffff167fc2a076433ad22c84f267eeffa04dc73052536776a7d487430ed7a2c4a4677d648b8b89898960405161027a959493929190610edc565b60405180910390a4505050505050505050565b33610297816107f6565b50828773ffffffffffffffffffffffffffffffffffffffff167f35033a0586b2eb3fcd9bb02fcf12cd8bfa21ac20a855963258fdb987f009367c888888876040516102e59493929190610f2f565b60405180910390a350505050505050565b33610300816107f6565b5081600581111561031457610313610f74565b5b868a73ffffffffffffffffffffffffffffffffffffffff167fc5afeb842b1ee0a786f0181fd50d600ada6f7182ac63862b96f7f442770648b28b8b8a8a8a604051610363959493929190610fa3565b60405180910390a4505050505050505050565b33610380816107f6565b50858773ffffffffffffffffffffffffffffffffffffffff168a73ffffffffffffffffffffffffffffffffffffffff167f24eb4b3ed711873687e910758f75270c9463ed43b0ed071bdd590a4300bcd88e8b898989896040516103e7959493929190610ff6565b60405180910390a4505050505050505050565b33610404816107f6565b508473ffffffffffffffffffffffffffffffffffffffff16868a73ffffffffffffffffffffffffffffffffffffffff167f9508ec25b144da066199b5989b94395f140d3fa4b4b89d9d1fe759b3a56207818b8b89898960405161046b959493929190611058565b60405180910390a4505050505050505050565b33610488816107f6565b50828573ffffffffffffffffffffffffffffffffffffffff168973ffffffffffffffffffffffffffffffffffffffff167fd9aab4ab40bdf963884f8195430dfa8cfb4f612db68e77014f08b1572104386d8a8a89886040516104ed9493929190610f2f565b60405180910390a45050505050505050565b33610509816107f6565b508473ffffffffffffffffffffffffffffffffffffffff16868a73ffffffffffffffffffffffffffffffffffffffff167fff4bb47ee7dfdeaa91aa6bb72cb414f4a5417cb8b7856c50518377140a76f84f8b8b898989604051610570959493929190610edc565b60405180910390a4505050505050505050565b3361058d816107f6565b50848673ffffffffffffffffffffffffffffffffffffffff168873ffffffffffffffffffffffffffffffffffffffff167f9ae6f0a8ca0d7d683b3c09bd0ae5753f0e32122471cfd78314043b23098a6c248787876040516105f0939291906110ab565b60405180910390a450505050505050565b3361060b816107f6565b50848673ffffffffffffffffffffffffffffffffffffffff168873ffffffffffffffffffffffffffffffffffffffff167f61f5631971566b3768bafba61e9d2a9b41fcffa03bd2a2c2226c2187b9d4fbb487878760405161066e939291906110ab565b60405180910390a450505050505050565b33610689816107f6565b50828473ffffffffffffffffffffffffffffffffffffffff168873ffffffffffffffffffffffffffffffffffffffff167f7569a47fcb55a5f63c8124400d576611f2035190cb270c5d6f9d3fdfc020be468989876040516106ec939291906110ab565b60405180910390a450505050505050565b33610707816107f6565b50848673ffffffffffffffffffffffffffffffffffffffff168873ffffffffffffffffffffffffffffffffffffffff167f2babdf2515139b15f37dbc4b16e25fe27d46327703abc50cd73c7acb5369e3cc87878760405161076a939291906110ab565b60405180910390a450505050505050565b33610785816107f6565b50828473ffffffffffffffffffffffffffffffffffffffff168773ffffffffffffffffffffffffffffffffffffffff167f34d6b4d35fa401c6a7d3efae588ddd17d510ceb459bf4af495f1498706fd44c188866040516107e69291906110e2565b60405180910390a4505050505050565b60008060008373ffffffffffffffffffffffffffffffffffffffff166040516024016040516020818303038152906040527fc51a29e0000000000000000000000000000000000000000000000000000000007bffffffffffffffffffffffffffffffffffffffffffffffffffffffff19166020820180517bffffffffffffffffffffffffffffffffffffffffffffffffffffffff83818316178352505050506040516108a29190611185565b6000604051808303816000865af19150503d80600081146108df576040519150601f19603f3d011682016040523d82523d6000602084013e6108e4565b606091505b509150915081610929576040517f08c379a00000000000000000000000000000000000000000000000000000000081526004016109209061121f565b60405180910390fd5b8080602001905181019061093d9190611264565b92505050919050565b600080fd5b600073ffffffffffffffffffffffffffffffffffffffff82169050919050565b60006109768261094b565b9050919050565b6109868161096b565b811461099157600080fd5b50565b6000813590506109a38161097d565b92915050565b6000819050919050565b6109bc816109a9565b81146109c757600080fd5b50565b6000813590506109d9816109b3565b92915050565b600080600080600080600080610100898b031215610a00576109ff610946565b5b6000610a0e8b828c01610994565b9850506020610a1f8b828c01610994565b9750506040610a308b828c01610994565b9650506060610a418b828c016109ca565b9550506080610a528b828c01610994565b94505060a0610a638b828c016109ca565b93505060c0610a748b828c016109ca565b92505060e0610a858b828c016109ca565b9150509295985092959890939650565b60008060008060008060c08789031215610ab257610ab1610946565b5b6000610ac089828a01610994565b9650506020610ad189828a01610994565b9550506040610ae289828a016109ca565b9450506060610af389828a01610994565b9350506080610b0489828a016109ca565b92505060a0610b1589828a016109ca565b9150509295509295509295565b60068110610b2f57600080fd5b50565b600081359050610b4181610b22565b92915050565b600080600080600080600080610100898b031215610b6857610b67610946565b5b6000610b768b828c01610994565b9850506020610b878b828c01610994565b9750506040610b988b828c01610994565b9650506060610ba98b828c016109ca565b9550506080610bba8b828c016109ca565b94505060a0610bcb8b828c01610994565b93505060c0610bdc8b828c016109ca565b92505060e0610bed8b828c01610b32565b9150509295985092959890939650565b600080600080600080600080610100898b031215610c1e57610c1d610946565b5b6000610c2c8b828c01610994565b9850506020610c3d8b828c01610994565b9750506040610c4e8b828c01610994565b9650506060610c5f8b828c016109ca565b9550506080610c708b828c016109ca565b94505060a0610c818b828c016109ca565b93505060c0610c928b828c016109ca565b92505060e0610ca38b828c016109ca565b9150509295985092959890939650565b60008115159050919050565b610cc881610cb3565b8114610cd357600080fd5b50565b600081359050610ce581610cbf565b92915050565b600080600080600080600080610100898b031215610d0c57610d0b610946565b5b6000610d1a8b828c01610994565b9850506020610d2b8b828c01610994565b9750506040610d3c8b828c01610994565b9650506060610d4d8b828c016109ca565b9550506080610d5e8b828c01610994565b94505060a0610d6f8b828c016109ca565b93505060c0610d808b828c016109ca565b92505060e0610d918b828c01610cd6565b9150509295985092959890939650565b600080600080600080600060e0888a031215610dc057610dbf610946565b5b6000610dce8a828b01610994565b9750506020610ddf8a828b01610994565b9650506040610df08a828b016109ca565b9550506060610e018a828b01610994565b9450506080610e128a828b01610994565b93505060a0610e238a828b016109ca565b92505060c0610e348a828b016109ca565b91505092959891949750929550565b600080600080600060a08688031215610e5f57610e5e610946565b5b6000610e6d88828901610994565b9550506020610e7e88828901610994565b9450506040610e8f88828901610994565b9350506060610ea0888289016109ca565b9250506080610eb1888289016109ca565b9150509295509295909350565b610ec78161096b565b82525050565b610ed6816109a9565b82525050565b600060a082019050610ef16000830188610ebe565b610efe6020830187610ebe565b610f0b6040830186610ecd565b610f186060830185610ecd565b610f256080830184610ecd565b9695505050505050565b6000608082019050610f446000830187610ebe565b610f516020830186610ecd565b610f5e6040830185610ebe565b610f6b6060830184610ecd565b95945050505050565b7f4e487b7100000000000000000000000000000000000000000000000000000000600052602160045260246000fd5b600060a082019050610fb86000830188610ebe565b610fc56020830187610ebe565b610fd26040830186610ecd565b610fdf6060830185610ebe565b610fec6080830184610ecd565b9695505050505050565b600060a08201905061100b6000830188610ebe565b6110186020830187610ecd565b6110256040830186610ecd565b6110326060830185610ecd565b61103f6080830184610ecd565b9695505050505050565b61105281610cb3565b82525050565b600060a08201905061106d6000830188610ebe565b61107a6020830187610ebe565b6110876040830186610ecd565b6110946060830185610ecd565b6110a16080830184611049565b9695505050505050565b60006060820190506110c06000830186610ebe565b6110cd6020830185610ecd565b6110da6040830184610ecd565b949350505050565b60006040820190506110f76000830185610ebe565b6111046020830184610ecd565b9392505050565b600081519050919050565b600081905092915050565b60005b8381101561113f578082015181840152602081019050611124565b8381111561114e576000848401525b50505050565b600061115f8261110b565b6111698185611116565b9350611179818560208601611121565b80840191505092915050565b60006111918284611154565b915081905092915050565b600082825260208201905092915050565b7f556e61626c6520746f2064657465726d696e652074686520636f6e747261637460008201527f2074797065210000000000000000000000000000000000000000000000000000602082015250565b600061120960268361119c565b9150611214826111ad565b604082019050919050565b60006020820190508181036000830152611238816111fc565b9050919050565b6003811061124c57600080fd5b50565b60008151905061125e8161123f565b92915050565b60006020828403121561127a57611279610946565b5b60006112888482850161124f565b9150509291505056fea264697066735822122055f82d7e9b0d7289634c73c26dbad542149329bd9be5dee45b8d2737876944d964736f6c63430008080033",
  "devdoc": {
    "kind": "dev",
    "methods": {},
    "version": 1
  },
  "userdoc": {
    "kind": "user",
    "methods": {},
    "version": 1
  },
  "storageLayout": {
    "storage": [],
    "types": null
  }
}