{
  "address": "0x4D72772b2DE280D3A60Fa87e39225Bde79a54A68",
  "abi": [
    {
      "inputs": [
        {
          "internalType": "address",
          "name": "_auctionRegistryAddress",
          "type": "address"
        },
        {
          "internalType": "address",
          "name": "_eventEmitterAddress",
          "type": "address"
        },
        {
          "internalType": "address",
          "name": "_auctionKeeperAddress",
          "type": "address"
        },
        {
          "internalType": "address",
          "name": "_contractFactoryAddress",
          "type": "address"
        }
      ],
      "stateMutability": "nonpayable",
      "type": "constructor"
    },
    {
      "inputs": [
        {
          "internalType": "address",
          "name": "_auctionAddress",
          "type": "address"
        }
      ],
      "name": "addBiddingAuction",
      "outputs": [],
      "stateMutability": "nonpayable",
      "type": "function"
    },
    {
      "inputs": [
        {
          "internalType": "address",
          "name": "_auctionAddress",
          "type": "address"
        }
      ],
      "name": "addPendingPaymentAuction",
      "outputs": [],
      "stateMutability": "nonpayable",
      "type": "function"
    },
    {
      "inputs": [
        {
          "internalType": "address",
          "name": "_auctionAddress",
          "type": "address"
        }
      ],
      "name": "addVerifyWinnerAuction",
      "outputs": [],
      "stateMutability": "nonpayable",
      "type": "function"
    },
    {
      "inputs": [
        {
          "internalType": "uint256",
          "name": "",
          "type": "uint256"
        }
      ],
      "name": "biddingAuctions",
      "outputs": [
        {
          "internalType": "address",
          "name": "",
          "type": "address"
        }
      ],
      "stateMutability": "view",
      "type": "function"
    },
    {
      "inputs": [
        {
          "internalType": "address",
          "name": "_nftAddress",
          "type": "address"
        },
        {
          "internalType": "uint256",
          "name": "_tokenId",
          "type": "uint256"
        }
      ],
      "name": "createAuction",
      "outputs": [],
      "stateMutability": "nonpayable",
      "type": "function"
    },
    {
      "inputs": [],
      "name": "getBiddingAuctions",
      "outputs": [
        {
          "internalType": "address[]",
          "name": "",
          "type": "address[]"
        }
      ],
      "stateMutability": "view",
      "type": "function"
    },
    {
      "inputs": [],
      "name": "getContractType",
      "outputs": [
        {
          "internalType": "enum Constants.ContractType",
          "name": "",
          "type": "uint8"
        }
      ],
      "stateMutability": "pure",
      "type": "function"
    },
    {
      "inputs": [],
      "name": "getPendingPaymentAuctions",
      "outputs": [
        {
          "internalType": "address[]",
          "name": "",
          "type": "address[]"
        }
      ],
      "stateMutability": "view",
      "type": "function"
    },
    {
      "inputs": [],
      "name": "getVerifyWinnerAuctions",
      "outputs": [
        {
          "internalType": "address[]",
          "name": "",
          "type": "address[]"
        }
      ],
      "stateMutability": "view",
      "type": "function"
    },
    {
      "inputs": [],
      "name": "owner",
      "outputs": [
        {
          "internalType": "address",
          "name": "",
          "type": "address"
        }
      ],
      "stateMutability": "view",
      "type": "function"
    },
    {
      "inputs": [
        {
          "internalType": "uint256",
          "name": "",
          "type": "uint256"
        }
      ],
      "name": "pendingPaymentAuctions",
      "outputs": [
        {
          "internalType": "address",
          "name": "",
          "type": "address"
        }
      ],
      "stateMutability": "view",
      "type": "function"
    },
    {
      "inputs": [
        {
          "internalType": "address",
          "name": "_auctionAddress",
          "type": "address"
        }
      ],
      "name": "removeBiddingAuction",
      "outputs": [],
      "stateMutability": "nonpayable",
      "type": "function"
    },
    {
      "inputs": [
        {
          "internalType": "address",
          "name": "_auctionAddress",
          "type": "address"
        }
      ],
      "name": "removePendingPaymentAuction",
      "outputs": [],
      "stateMutability": "nonpayable",
      "type": "function"
    },
    {
      "inputs": [
        {
          "internalType": "address",
          "name": "_auctionAddress",
          "type": "address"
        }
      ],
      "name": "removeVerifyWinnerAuction",
      "outputs": [],
      "stateMutability": "nonpayable",
      "type": "function"
    },
    {
      "inputs": [
        {
          "internalType": "address",
          "name": "_auctionAddress",
          "type": "address"
        }
      ],
      "name": "searchBiddingAuction",
      "outputs": [
        {
          "internalType": "int256",
          "name": "",
          "type": "int256"
        }
      ],
      "stateMutability": "view",
      "type": "function"
    },
    {
      "inputs": [
        {
          "internalType": "address",
          "name": "_auctionAddress",
          "type": "address"
        }
      ],
      "name": "searchPendingPaymentAuction",
      "outputs": [
        {
          "internalType": "int256",
          "name": "",
          "type": "int256"
        }
      ],
      "stateMutability": "view",
      "type": "function"
    },
    {
      "inputs": [
        {
          "internalType": "address",
          "name": "_auctionAddress",
          "type": "address"
        }
      ],
      "name": "searchVerifyWinnerAuction",
      "outputs": [
        {
          "internalType": "int256",
          "name": "",
          "type": "int256"
        }
      ],
      "stateMutability": "view",
      "type": "function"
    },
    {
      "inputs": [
        {
          "internalType": "uint256",
          "name": "",
          "type": "uint256"
        }
      ],
      "name": "verifyWinnerAuctions",
      "outputs": [
        {
          "internalType": "address",
          "name": "",
          "type": "address"
        }
      ],
      "stateMutability": "view",
      "type": "function"
    }
  ],
  "transactionHash": "0xb09355428c4489cfb7f036fd8fa7382d5d2cd8818440ea0a6450daa135576835",
  "args": [
    "0x71Ad1f44244D3AF0eE3799EBa6479d003A084E44",
    "0x002b34520317f55B1c7Dbe0ceFA519f9d7dDF90a",
    "0x499a2e315C54F2304B190b54eDD78Cbf7d43BD27",
    "0xb6e6D78992B16220269F7B7E3F9fc07839F90744"
  ],
  "numDeployments": 4,
  "solcInputHash": "4387a266e024914e79edf44efd99a1f7",
  "bytecode": "0x60a06040523480156200001157600080fd5b5060405162000fc038038062000fc08339810160408190526200003491620000c9565b3360601b608052600380546001600160a01b039586166001600160a01b031991821617909155600480549486169482169490941790935560058054928516928416929092179091556006805491909316911617905562000137565b60006001600160a01b0382165b92915050565b620000ad816200008f565b8114620000b957600080fd5b50565b80516200009c81620000a2565b60008060008060808587031215620000e457620000e4600080fd5b6000620000f28787620000bc565b94505060206200010587828801620000bc565b93505060406200011887828801620000bc565b92505060606200012b87828801620000bc565b91505092959194509250565b60805160601c610e6a6200015660003960006101e70152610e6a6000f3fe608060405234801561001057600080fd5b50600436106101165760003560e01c80638da5cb5b116100a2578063d3f7c1c011610071578063d3f7c1c01461023e578063e0f0f2cf14610251578063e558019114610259578063f575795c1461026c578063f7e882981461027f57600080fd5b80638da5cb5b146101e25780639188319c14610209578063c51a29e01461021c578063d054059c1461022b57600080fd5b80637ca80099116100e95780637ca80099146101815780638214fe33146101a157806382b4318c146101b457806387c8b7fb146101c75780638ac3f2ba146101cf57600080fd5b80630d800c1a1461011b5780630e652b48146101445780631d6a99651461015957806344b8f1891461016c575b600080fd5b61012e610129366004610ada565b610292565b60405161013b9190610b1b565b60405180910390f35b610157610152366004610b3d565b6102bc565b005b610157610167366004610b3d565b610331565b610174610446565b60405161013b9190610bbb565b61019461018f366004610b3d565b6104a8565b60405161013b9190610bd9565b6101946101af366004610b3d565b610510565b6101576101c2366004610b3d565b61056e565b6101746105e5565b61012e6101dd366004610ada565b610645565b61012e7f000000000000000000000000000000000000000000000000000000000000000081565b610157610217366004610b3d565b610655565b600160405161013b9190610c30565b61012e610239366004610ada565b6106cd565b61015761024c366004610b3d565b6106dd565b6101746107c8565b610194610267366004610b3d565b610828565b61015761027a366004610b3d565b610886565b61015761028d366004610c3e565b610971565b600081815481106102a257600080fd5b6000918252602090912001546001600160a01b0316905081565b60006102c7336109ea565b60048111156102d8576102d8610be7565b146102e257600080fd5b600080546001810182559080527f290decd9548b62a8d60345a988386fc84ba6bc95484008f6362f93160ef3e5630180546001600160a01b0319166001600160a01b0392909216919091179055565b600061033c336109ea565b600481111561034d5761034d610be7565b1461035757600080fd5b600080610363836104a8565b90506000811261044157905080805b60025461038190600190610c91565b81101561040c576002610395826001610ca8565b815481106103a5576103a5610cc0565b600091825260209091200154600280546001600160a01b0390921691839081106103d1576103d1610cc0565b600091825260209091200180546001600160a01b0319166001600160a01b03929092169190911790558061040481610cd6565b915050610372565b50600280548061041e5761041e610cf1565b600082815260209020810160001990810180546001600160a01b03191690550190555b505050565b6060600280548060200260200160405190810160405280929190818152602001828054801561049e57602002820191906000526020600020905b81546001600160a01b03168152600190910190602001808311610480575b5050505050905090565b6000805b60025481101561050657826001600160a01b0316600282815481106104d3576104d3610cc0565b6000918252602090912001546001600160a01b031614156104f45792915050565b806104fe81610cd6565b9150506104ac565b5060001992915050565b6000805b60015481101561050657826001600160a01b03166001828154811061053b5761053b610cc0565b6000918252602090912001546001600160a01b0316141561055c5792915050565b8061056681610cd6565b915050610514565b6000610579336109ea565b600481111561058a5761058a610be7565b1461059457600080fd5b6001805480820182556000919091527fb10e2d527612073b26eecdfd717e6a320cf44b4afac2b0732d9fcbe2b7fa0cf60180546001600160a01b0319166001600160a01b0392909216919091179055565b6060600180548060200260200160405190810160405280929190818152602001828054801561049e576020028201919060005260206000209081546001600160a01b03168152600190910190602001808311610480575050505050905090565b600181815481106102a257600080fd5b6000610660336109ea565b600481111561067157610671610be7565b1461067b57600080fd5b600280546001810182556000919091527f405787fa12a823e0f2b7631cc41b3ba8828b3321ca811111fa75cd3aa3bb5ace0180546001600160a01b0319166001600160a01b0392909216919091179055565b600281815481106102a257600080fd5b60006106e8336109ea565b60048111156106f9576106f9610be7565b1461070357600080fd5b60008061070f83610510565b90506000811261044157905080805b6001805461072c9190610c91565b8110156107b657600161073f8282610ca8565b8154811061074f5761074f610cc0565b600091825260209091200154600180546001600160a01b03909216918390811061077b5761077b610cc0565b600091825260209091200180546001600160a01b0319166001600160a01b0392909216919091179055806107ae81610cd6565b91505061071e565b50600180548061041e5761041e610cf1565b6060600080548060200260200160405190810160405280929190818152602001828054801561049e576020028201919060005260206000209081546001600160a01b03168152600190910190602001808311610480575050505050905090565b6000805b60005481101561050657826001600160a01b03166000828154811061085357610853610cc0565b6000918252602090912001546001600160a01b031614156108745792915050565b8061087e81610cd6565b91505061082c565b6000610891336109ea565b60048111156108a2576108a2610be7565b146108ac57600080fd5b6000806108b883610828565b90506000811261044157905080805b6000546108d690600190610c91565b81101561095f5760006108ea826001610ca8565b815481106108fa576108fa610cc0565b600091825260208220015481546001600160a01b0390911691908390811061092457610924610cc0565b600091825260209091200180546001600160a01b0319166001600160a01b03929092169190911790558061095781610cd6565b9150506108c7565b50600080548061041e5761041e610cf1565b60065460048054600554604051633d85f50560e21b81526001600160a01b0394851694859463f617d414946109b39433948b948b949381169392169101610d07565b600060405180830381600087803b1580156109cd57600080fd5b505af11580156109e1573d6000803e3d6000fd5b50505050505050565b60408051600481526024810182526020810180516001600160e01b0316630628d14f60e51b1790529051600091829182916001600160a01b03861691610a309190610da5565b6000604051808303816000865af19150503d8060008114610a6d576040519150601f19603f3d011682016040523d82523d6000602084013e610a72565b606091505b509150915081610a9d5760405162461bcd60e51b8152600401610a9490610db1565b60405180910390fd5b80806020019051810190610ab19190610e13565b949350505050565b805b8114610ac657600080fd5b50565b8035610ad481610ab9565b92915050565b600060208284031215610aef57610aef600080fd5b6000610ab18484610ac9565b60006001600160a01b038216610ad4565b610b1581610afb565b82525050565b60208101610ad48284610b0c565b610abb81610afb565b8035610ad481610b29565b600060208284031215610b5257610b52600080fd5b6000610ab18484610b32565b6000610b6a8383610b0c565b505060200190565b6000610b7c825190565b80845260209384019383018060005b83811015610bb0578151610b9f8882610b5e565b975060208301925050600101610b8b565b509495945050505050565b60208082528101610bcc8184610b72565b9392505050565b80610b15565b60208101610ad48284610bd3565b634e487b7160e01b600052602160045260246000fd5b60058110610ac657610ac6610be7565b80610c1781610bfd565b919050565b6000610ad482610c0d565b610b1581610c1c565b60208101610ad48284610c27565b60008060408385031215610c5457610c54600080fd5b6000610c608585610b32565b9250506020610c7185828601610ac9565b9150509250929050565b634e487b7160e01b600052601160045260246000fd5b600082821015610ca357610ca3610c7b565b500390565b60008219821115610cbb57610cbb610c7b565b500190565b634e487b7160e01b600052603260045260246000fd5b6000600019821415610cea57610cea610c7b565b5060010190565b634e487b7160e01b600052603160045260246000fd5b60a08101610d158288610b0c565b610d226020830187610b0c565b610d2f6040830186610bd3565b610d3c6060830185610b0c565b610d496080830184610b0c565b9695505050505050565b60005b83811015610d6e578181015183820152602001610d56565b83811115610d7d576000848401525b50505050565b6000610d8d825190565b610d9b818560208601610d53565b9290920192915050565b6000610bcc8284610d83565b60208082528101610ad481602681527f556e61626c6520746f2064657465726d696e652074686520636f6e747261637460208201526520747970652160d01b604082015260600190565b60058110610ac657600080fd5b8051610ad481610dfb565b600060208284031215610e2857610e28600080fd5b6000610ab18484610e0856fea2646970667358221220c600c09e455010b6c59dee284a04074edeaefb9996da58db04ed4458e13105c964736f6c63430008080033",
  "devdoc": {
    "kind": "dev",
    "methods": {},
    "version": 1
  },
  "userdoc": {
    "kind": "user",
    "methods": {},
    "version": 1
  },
  "storageLayout": {
    "storage": [
      {
        "astId": 4154,
        "contract": "contracts/AuctionContracts.sol:AuctionManager",
        "label": "biddingAuctions",
        "offset": 0,
        "slot": "0",
        "type": "t_array(t_address)dyn_storage"
      },
      {
        "astId": 4157,
        "contract": "contracts/AuctionContracts.sol:AuctionManager",
        "label": "verifyWinnerAuctions",
        "offset": 0,
        "slot": "1",
        "type": "t_array(t_address)dyn_storage"
      },
      {
        "astId": 4160,
        "contract": "contracts/AuctionContracts.sol:AuctionManager",
        "label": "pendingPaymentAuctions",
        "offset": 0,
        "slot": "2",
        "type": "t_array(t_address)dyn_storage"
      },
      {
        "astId": 4162,
        "contract": "contracts/AuctionContracts.sol:AuctionManager",
        "label": "auctionRegistryAddress",
        "offset": 0,
        "slot": "3",
        "type": "t_address"
      },
      {
        "astId": 4164,
        "contract": "contracts/AuctionContracts.sol:AuctionManager",
        "label": "eventEmitterAddress",
        "offset": 0,
        "slot": "4",
        "type": "t_address"
      },
      {
        "astId": 4166,
        "contract": "contracts/AuctionContracts.sol:AuctionManager",
        "label": "auctionKeeperAddress",
        "offset": 0,
        "slot": "5",
        "type": "t_address"
      },
      {
        "astId": 4168,
        "contract": "contracts/AuctionContracts.sol:AuctionManager",
        "label": "contractFactoryAddress",
        "offset": 0,
        "slot": "6",
        "type": "t_address"
      }
    ],
    "types": {
      "t_address": {
        "encoding": "inplace",
        "label": "address",
        "numberOfBytes": "20"
      },
      "t_array(t_address)dyn_storage": {
        "base": "t_address",
        "encoding": "dynamic_array",
        "label": "address[]",
        "numberOfBytes": "32"
      }
    }
  }
}