{
  "address": "0xdc1Ca033c90dF601Ebd4ce7CdC62F7A66120E70B",
  "abi": [
    {
      "inputs": [
        {
          "internalType": "address",
          "name": "_auctionRegistryAddress",
          "type": "address"
        },
        {
          "internalType": "address",
          "name": "_eventEmitterAddress",
          "type": "address"
        },
        {
          "internalType": "address",
          "name": "_auctionKeeperAddress",
          "type": "address"
        },
        {
          "internalType": "address",
          "name": "_contractFactoryAddress",
          "type": "address"
        }
      ],
      "stateMutability": "nonpayable",
      "type": "constructor"
    },
    {
      "inputs": [
        {
          "internalType": "address",
          "name": "_auctionAddress",
          "type": "address"
        }
      ],
      "name": "addBiddingAuction",
      "outputs": [],
      "stateMutability": "nonpayable",
      "type": "function"
    },
    {
      "inputs": [
        {
          "internalType": "address",
          "name": "_auctionAddress",
          "type": "address"
        }
      ],
      "name": "addPendingPaymentAuction",
      "outputs": [],
      "stateMutability": "nonpayable",
      "type": "function"
    },
    {
      "inputs": [
        {
          "internalType": "address",
          "name": "_auctionAddress",
          "type": "address"
        }
      ],
      "name": "addVerifyWinnerAuction",
      "outputs": [],
      "stateMutability": "nonpayable",
      "type": "function"
    },
    {
      "inputs": [
        {
          "internalType": "uint256",
          "name": "",
          "type": "uint256"
        }
      ],
      "name": "biddingAuctions",
      "outputs": [
        {
          "internalType": "address",
          "name": "",
          "type": "address"
        }
      ],
      "stateMutability": "view",
      "type": "function"
    },
    {
      "inputs": [
        {
          "internalType": "address",
          "name": "_nftAddress",
          "type": "address"
        },
        {
          "internalType": "uint256",
          "name": "_tokenId",
          "type": "uint256"
        }
      ],
      "name": "createAuction",
      "outputs": [],
      "stateMutability": "nonpayable",
      "type": "function"
    },
    {
      "inputs": [],
      "name": "getBiddingAuctions",
      "outputs": [
        {
          "internalType": "address[]",
          "name": "",
          "type": "address[]"
        }
      ],
      "stateMutability": "view",
      "type": "function"
    },
    {
      "inputs": [],
      "name": "getContractType",
      "outputs": [
        {
          "internalType": "enum Constants.ContractType",
          "name": "",
          "type": "uint8"
        }
      ],
      "stateMutability": "pure",
      "type": "function"
    },
    {
      "inputs": [],
      "name": "getPendingPaymentAuctions",
      "outputs": [
        {
          "internalType": "address[]",
          "name": "",
          "type": "address[]"
        }
      ],
      "stateMutability": "view",
      "type": "function"
    },
    {
      "inputs": [],
      "name": "getVerifyWinnerAuctions",
      "outputs": [
        {
          "internalType": "address[]",
          "name": "",
          "type": "address[]"
        }
      ],
      "stateMutability": "view",
      "type": "function"
    },
    {
      "inputs": [
        {
          "internalType": "uint256",
          "name": "",
          "type": "uint256"
        }
      ],
      "name": "pendingPaymentAuctions",
      "outputs": [
        {
          "internalType": "address",
          "name": "",
          "type": "address"
        }
      ],
      "stateMutability": "view",
      "type": "function"
    },
    {
      "inputs": [
        {
          "internalType": "address",
          "name": "_auctionAddress",
          "type": "address"
        }
      ],
      "name": "removeBiddingAuction",
      "outputs": [],
      "stateMutability": "nonpayable",
      "type": "function"
    },
    {
      "inputs": [
        {
          "internalType": "address",
          "name": "_auctionAddress",
          "type": "address"
        }
      ],
      "name": "removePendingPaymentAuction",
      "outputs": [],
      "stateMutability": "nonpayable",
      "type": "function"
    },
    {
      "inputs": [
        {
          "internalType": "address",
          "name": "_auctionAddress",
          "type": "address"
        }
      ],
      "name": "removeVerifyWinnerAuction",
      "outputs": [],
      "stateMutability": "nonpayable",
      "type": "function"
    },
    {
      "inputs": [
        {
          "internalType": "address",
          "name": "_auctionAddress",
          "type": "address"
        }
      ],
      "name": "searchBiddingAuction",
      "outputs": [
        {
          "internalType": "int256",
          "name": "",
          "type": "int256"
        }
      ],
      "stateMutability": "view",
      "type": "function"
    },
    {
      "inputs": [
        {
          "internalType": "address",
          "name": "_auctionAddress",
          "type": "address"
        }
      ],
      "name": "searchPendingPaymentAuction",
      "outputs": [
        {
          "internalType": "int256",
          "name": "",
          "type": "int256"
        }
      ],
      "stateMutability": "view",
      "type": "function"
    },
    {
      "inputs": [
        {
          "internalType": "address",
          "name": "_auctionAddress",
          "type": "address"
        }
      ],
      "name": "searchVerifyWinnerAuction",
      "outputs": [
        {
          "internalType": "int256",
          "name": "",
          "type": "int256"
        }
      ],
      "stateMutability": "view",
      "type": "function"
    },
    {
      "inputs": [
        {
          "internalType": "uint256",
          "name": "",
          "type": "uint256"
        }
      ],
      "name": "verifyWinnerAuctions",
      "outputs": [
        {
          "internalType": "address",
          "name": "",
          "type": "address"
        }
      ],
      "stateMutability": "view",
      "type": "function"
    }
  ],
  "transactionHash": "0x3135803b220d279447bfbc4e9dd0a283fc6f45d61adf68c031185adb4f88a1d2",
  "args": [
    "0x3CD4D8e20Fcf0A5923C13A2E3C3b585679b59dC5",
    "0xD998fACeeD18821dB38aED49905a756c82CD1adD",
    "0x8Cb7C4d5F1E91508EFe5AE447dc798BF85Ff4757",
    "0xE063856F2406C1572F6978acEf5e0aF1AFB0c18E"
  ],
  "numDeployments": 2,
  "solcInputHash": "3c2cf0b0cade31d1af9f3f98d3d2f77c",
  "bytecode": "0x60806040523480156200001157600080fd5b5060405162000f7838038062000f788339810160408190526200003491620000c2565b600380546001600160a01b039586166001600160a01b031991821617909155600480549486169482169490941790935560058054928516928416929092179091556006805491909316911617905562000130565b60006001600160a01b0382165b92915050565b620000a68162000088565b8114620000b257600080fd5b50565b805162000095816200009b565b60008060008060808587031215620000dd57620000dd600080fd5b6000620000eb8787620000b5565b9450506020620000fe87828801620000b5565b93505060406200011187828801620000b5565b92505060606200012487828801620000b5565b91505092959194509250565b610e3880620001406000396000f3fe608060405234801561001057600080fd5b506004361061010b5760003560e01c80638ac3f2ba116100a2578063d3f7c1c011610071578063d3f7c1c01461020c578063e0f0f2cf1461021f578063e558019114610227578063f575795c1461023a578063f7e882981461024d57600080fd5b80638ac3f2ba146101c45780639188319c146101d7578063c51a29e0146101ea578063d054059c146101f957600080fd5b80637ca80099116100de5780637ca80099146101765780638214fe331461019657806382b4318c146101a957806387c8b7fb146101bc57600080fd5b80630d800c1a146101105780630e652b48146101395780631d6a99651461014e57806344b8f18914610161575b600080fd5b61012361011e366004610aa8565b610260565b6040516101309190610ae9565b60405180910390f35b61014c610147366004610b0b565b61028a565b005b61014c61015c366004610b0b565b6102ff565b610169610414565b6040516101309190610b89565b610189610184366004610b0b565b610476565b6040516101309190610ba7565b6101896101a4366004610b0b565b6104de565b61014c6101b7366004610b0b565b61053c565b6101696105b3565b6101236101d2366004610aa8565b610613565b61014c6101e5366004610b0b565b610623565b60016040516101309190610bfe565b610123610207366004610aa8565b61069b565b61014c61021a366004610b0b565b6106ab565b610169610796565b610189610235366004610b0b565b6107f6565b61014c610248366004610b0b565b610854565b61014c61025b366004610c0c565b61093f565b6000818154811061027057600080fd5b6000918252602090912001546001600160a01b0316905081565b6000610295336109b8565b60048111156102a6576102a6610bb5565b146102b057600080fd5b600080546001810182559080527f290decd9548b62a8d60345a988386fc84ba6bc95484008f6362f93160ef3e5630180546001600160a01b0319166001600160a01b0392909216919091179055565b600061030a336109b8565b600481111561031b5761031b610bb5565b1461032557600080fd5b60008061033183610476565b90506000811261040f57905080805b60025461034f90600190610c5f565b8110156103da576002610363826001610c76565b8154811061037357610373610c8e565b600091825260209091200154600280546001600160a01b03909216918390811061039f5761039f610c8e565b600091825260209091200180546001600160a01b0319166001600160a01b0392909216919091179055806103d281610ca4565b915050610340565b5060028054806103ec576103ec610cbf565b600082815260209020810160001990810180546001600160a01b03191690550190555b505050565b6060600280548060200260200160405190810160405280929190818152602001828054801561046c57602002820191906000526020600020905b81546001600160a01b0316815260019091019060200180831161044e575b5050505050905090565b6000805b6002548110156104d457826001600160a01b0316600282815481106104a1576104a1610c8e565b6000918252602090912001546001600160a01b031614156104c25792915050565b806104cc81610ca4565b91505061047a565b5060001992915050565b6000805b6001548110156104d457826001600160a01b03166001828154811061050957610509610c8e565b6000918252602090912001546001600160a01b0316141561052a5792915050565b8061053481610ca4565b9150506104e2565b6000610547336109b8565b600481111561055857610558610bb5565b1461056257600080fd5b6001805480820182556000919091527fb10e2d527612073b26eecdfd717e6a320cf44b4afac2b0732d9fcbe2b7fa0cf60180546001600160a01b0319166001600160a01b0392909216919091179055565b6060600180548060200260200160405190810160405280929190818152602001828054801561046c576020028201919060005260206000209081546001600160a01b0316815260019091019060200180831161044e575050505050905090565b6001818154811061027057600080fd5b600061062e336109b8565b600481111561063f5761063f610bb5565b1461064957600080fd5b600280546001810182556000919091527f405787fa12a823e0f2b7631cc41b3ba8828b3321ca811111fa75cd3aa3bb5ace0180546001600160a01b0319166001600160a01b0392909216919091179055565b6002818154811061027057600080fd5b60006106b6336109b8565b60048111156106c7576106c7610bb5565b146106d157600080fd5b6000806106dd836104de565b90506000811261040f57905080805b600180546106fa9190610c5f565b81101561078457600161070d8282610c76565b8154811061071d5761071d610c8e565b600091825260209091200154600180546001600160a01b03909216918390811061074957610749610c8e565b600091825260209091200180546001600160a01b0319166001600160a01b03929092169190911790558061077c81610ca4565b9150506106ec565b5060018054806103ec576103ec610cbf565b6060600080548060200260200160405190810160405280929190818152602001828054801561046c576020028201919060005260206000209081546001600160a01b0316815260019091019060200180831161044e575050505050905090565b6000805b6000548110156104d457826001600160a01b03166000828154811061082157610821610c8e565b6000918252602090912001546001600160a01b031614156108425792915050565b8061084c81610ca4565b9150506107fa565b600061085f336109b8565b600481111561087057610870610bb5565b1461087a57600080fd5b600080610886836107f6565b90506000811261040f57905080805b6000546108a490600190610c5f565b81101561092d5760006108b8826001610c76565b815481106108c8576108c8610c8e565b600091825260208220015481546001600160a01b039091169190839081106108f2576108f2610c8e565b600091825260209091200180546001600160a01b0319166001600160a01b03929092169190911790558061092581610ca4565b915050610895565b5060008054806103ec576103ec610cbf565b60065460048054600554604051633d85f50560e21b81526001600160a01b0394851694859463f617d414946109819433948b948b949381169392169101610cd5565b600060405180830381600087803b15801561099b57600080fd5b505af11580156109af573d6000803e3d6000fd5b50505050505050565b60408051600481526024810182526020810180516001600160e01b0316630628d14f60e51b1790529051600091829182916001600160a01b038616916109fe9190610d73565b6000604051808303816000865af19150503d8060008114610a3b576040519150601f19603f3d011682016040523d82523d6000602084013e610a40565b606091505b509150915081610a6b5760405162461bcd60e51b8152600401610a6290610d7f565b60405180910390fd5b80806020019051810190610a7f9190610de1565b949350505050565b805b8114610a9457600080fd5b50565b8035610aa281610a87565b92915050565b600060208284031215610abd57610abd600080fd5b6000610a7f8484610a97565b60006001600160a01b038216610aa2565b610ae381610ac9565b82525050565b60208101610aa28284610ada565b610a8981610ac9565b8035610aa281610af7565b600060208284031215610b2057610b20600080fd5b6000610a7f8484610b00565b6000610b388383610ada565b505060200190565b6000610b4a825190565b80845260209384019383018060005b83811015610b7e578151610b6d8882610b2c565b975060208301925050600101610b59565b509495945050505050565b60208082528101610b9a8184610b40565b9392505050565b80610ae3565b60208101610aa28284610ba1565b634e487b7160e01b600052602160045260246000fd5b60058110610a9457610a94610bb5565b80610be581610bcb565b919050565b6000610aa282610bdb565b610ae381610bea565b60208101610aa28284610bf5565b60008060408385031215610c2257610c22600080fd5b6000610c2e8585610b00565b9250506020610c3f85828601610a97565b9150509250929050565b634e487b7160e01b600052601160045260246000fd5b600082821015610c7157610c71610c49565b500390565b60008219821115610c8957610c89610c49565b500190565b634e487b7160e01b600052603260045260246000fd5b6000600019821415610cb857610cb8610c49565b5060010190565b634e487b7160e01b600052603160045260246000fd5b60a08101610ce38288610ada565b610cf06020830187610ada565b610cfd6040830186610ba1565b610d0a6060830185610ada565b610d176080830184610ada565b9695505050505050565b60005b83811015610d3c578181015183820152602001610d24565b83811115610d4b576000848401525b50505050565b6000610d5b825190565b610d69818560208601610d21565b9290920192915050565b6000610b9a8284610d51565b60208082528101610aa281602681527f556e61626c6520746f2064657465726d696e652074686520636f6e747261637460208201526520747970652160d01b604082015260600190565b60058110610a9457600080fd5b8051610aa281610dc9565b600060208284031215610df657610df6600080fd5b6000610a7f8484610dd656fea2646970667358221220902264c61d7ea6f254dd0b8b0f0cf2d576f178ebffa4ba373d1a543680794f9364736f6c63430008080033",
  "devdoc": {
    "kind": "dev",
    "methods": {},
    "version": 1
  },
  "userdoc": {
    "kind": "user",
    "methods": {},
    "version": 1
  },
  "storageLayout": {
    "storage": [
      {
        "astId": 1465,
        "contract": "contracts/AuctionContracts.sol:AuctionManager",
        "label": "biddingAuctions",
        "offset": 0,
        "slot": "0",
        "type": "t_array(t_address)dyn_storage"
      },
      {
        "astId": 1468,
        "contract": "contracts/AuctionContracts.sol:AuctionManager",
        "label": "verifyWinnerAuctions",
        "offset": 0,
        "slot": "1",
        "type": "t_array(t_address)dyn_storage"
      },
      {
        "astId": 1471,
        "contract": "contracts/AuctionContracts.sol:AuctionManager",
        "label": "pendingPaymentAuctions",
        "offset": 0,
        "slot": "2",
        "type": "t_array(t_address)dyn_storage"
      },
      {
        "astId": 1473,
        "contract": "contracts/AuctionContracts.sol:AuctionManager",
        "label": "auctionRegistryAddress",
        "offset": 0,
        "slot": "3",
        "type": "t_address"
      },
      {
        "astId": 1475,
        "contract": "contracts/AuctionContracts.sol:AuctionManager",
        "label": "eventEmitterAddress",
        "offset": 0,
        "slot": "4",
        "type": "t_address"
      },
      {
        "astId": 1477,
        "contract": "contracts/AuctionContracts.sol:AuctionManager",
        "label": "auctionKeeperAddress",
        "offset": 0,
        "slot": "5",
        "type": "t_address"
      },
      {
        "astId": 1479,
        "contract": "contracts/AuctionContracts.sol:AuctionManager",
        "label": "contractFactoryAddress",
        "offset": 0,
        "slot": "6",
        "type": "t_address"
      }
    ],
    "types": {
      "t_address": {
        "encoding": "inplace",
        "label": "address",
        "numberOfBytes": "20"
      },
      "t_array(t_address)dyn_storage": {
        "base": "t_address",
        "encoding": "dynamic_array",
        "label": "address[]",
        "numberOfBytes": "32"
      }
    }
  }
}