{
  "address": "0xB55817172DF1F5fbEF6490F410976eA6e3542cfF",
  "abi": [
    {
      "inputs": [
        {
          "internalType": "address",
          "name": "_auctionRegistryAddress",
          "type": "address"
        }
      ],
      "stateMutability": "nonpayable",
      "type": "constructor"
    },
    {
      "inputs": [],
      "name": "ContractFactory_RestrictedOwnerAccess",
      "type": "error"
    },
    {
      "inputs": [],
      "name": "ContractFactory__RestrictedManagerAccess",
      "type": "error"
    },
    {
      "inputs": [],
      "name": "auctionManagerAddress",
      "outputs": [
        {
          "internalType": "address",
          "name": "",
          "type": "address"
        }
      ],
      "stateMutability": "view",
      "type": "function"
    },
    {
      "inputs": [],
      "name": "auctionRegistryAddress",
      "outputs": [
        {
          "internalType": "address",
          "name": "",
          "type": "address"
        }
      ],
      "stateMutability": "view",
      "type": "function"
    },
    {
      "inputs": [
        {
          "internalType": "address",
          "name": "_seller",
          "type": "address"
        },
        {
          "internalType": "address",
          "name": "_nftAddress",
          "type": "address"
        },
        {
          "internalType": "uint256",
          "name": "_tokenId",
          "type": "uint256"
        },
        {
          "internalType": "address",
          "name": "_eventEmitterAddress",
          "type": "address"
        },
        {
          "internalType": "address",
          "name": "_auctionKeeperAddress",
          "type": "address"
        }
      ],
      "name": "createAuction",
      "outputs": [],
      "stateMutability": "nonpayable",
      "type": "function"
    },
    {
      "inputs": [],
      "name": "getContractType",
      "outputs": [
        {
          "internalType": "enum Constants.ContractType",
          "name": "",
          "type": "uint8"
        }
      ],
      "stateMutability": "pure",
      "type": "function"
    },
    {
      "inputs": [],
      "name": "owner",
      "outputs": [
        {
          "internalType": "address",
          "name": "",
          "type": "address"
        }
      ],
      "stateMutability": "view",
      "type": "function"
    },
    {
      "inputs": [
        {
          "internalType": "address",
          "name": "_auctionManagerAddress",
          "type": "address"
        }
      ],
      "name": "setAuctionManagerAddress",
      "outputs": [],
      "stateMutability": "nonpayable",
      "type": "function"
    }
  ],
  "transactionHash": "0x9b997b4c65cca82a27a41bbb136e0d8e37540a89d4f1fe1b03f069341eb16d52",
  "args": [
    "0x3CD4D8e20Fcf0A5923C13A2E3C3b585679b59dC5"
  ],
  "numDeployments": 2,
  "solcInputHash": "873df27978f0386f3c0ba3fc13f1d329",
  "bytecode": "0x60a060405234801561001057600080fd5b5060405161399938038061399983398101604081905261002f9161009b565b3360601b608052600180546001600160a01b03929092166001600160a01b03199283168117909155600380549092161790556100c4565b60006001600160a01b0382165b92915050565b61008281610066565b811461008d57600080fd5b50565b805161007381610079565b6000602082840312156100b0576100b0600080fd5b60006100bc8484610090565b949350505050565b60805160601c6138aa6100ef6000396000818160a10152818161012301526101be01526138aa6000f3fe60806040523480156200001157600080fd5b50600436106200006a5760003560e01c806370749d9b146200006f5780638da5cb5b146200009b578063c51a29e014620000c3578063cd7dc52d14620000d4578063f5d8a57914620000ed578063f617d4141462000101575b600080fd5b60005462000083906001600160a01b031681565b604051620000929190620002d9565b60405180910390f35b620000837f000000000000000000000000000000000000000000000000000000000000000081565b60036040516200009291906200033e565b620000eb620000e536600462000372565b62000118565b005b60015462000083906001600160a01b031681565b620000eb62000112366004620003b3565b6200018e565b336001600160a01b037f000000000000000000000000000000000000000000000000000000000000000016146200016257604051630c74017560e41b815260040160405180910390fd5b600080546001600160a01b039092166001600160a01b0319928316811790915560028054909216179055565b6000546001600160a01b03163314620001ba57604051633cb5ab2560e11b815260040160405180910390fd5b60007f00000000000000000000000000000000000000000000000000000000000000008660008054906101000a90046001600160a01b0316858589896040516200020490620002a7565b6200021697969594939291906200043e565b604051809103906000f08015801562000233573d6000803e3d6000fd5b50600354604051631651be4b60e21b81529192506001600160a01b031690635946f92c906200026b90889088908690600401620004b4565b600060405180830381600087803b1580156200028657600080fd5b505af11580156200029b573d6000803e3d6000fd5b50505050505050505050565b61339280620004e383390190565b60006001600160a01b0382165b92915050565b620002d381620002b5565b82525050565b60208101620002c28284620002c8565b634e487b7160e01b600052602160045260246000fd5b60058110620003125762000312620002e9565b50565b806200032181620002ff565b919050565b6000620002c28262000315565b620002d38162000326565b60208101620002c2828462000333565b6200035981620002b5565b81146200031257600080fd5b8035620002c2816200034e565b600060208284031215620003895762000389600080fd5b600062000397848462000365565b949350505050565b8062000359565b8035620002c2816200039f565b600080600080600060a08688031215620003d057620003d0600080fd5b6000620003de888862000365565b9550506020620003f18882890162000365565b94505060406200040488828901620003a6565b9350506060620004178882890162000365565b92505060806200042a8882890162000365565b9150509295509295909350565b80620002d3565b60e081016200044e828a620002c8565b6200045d6020830189620002c8565b6200046c6040830188620002c8565b6200047b6060830187620002c8565b6200048a6080830186620002c8565b6200049960a0830185620002c8565b620004a860c083018462000437565b98975050505050505050565b60608101620004c48286620002c8565b620004d3602083018562000437565b620003976040830184620002c856fe60c0604052600680546001600160801b031916600117905562015180600d8190556010556012805461ffff191690556014805460ff60a01b191690553480156200004857600080fd5b5060405162003392380380620033928339810160408190526200006b9162000238565b606087811b6001600160601b03199081166080529087901b1660a052600380546001600160a01b03199081166001600160a01b0388811691821790935560028054831687851617905560048054831690911790556005805482168784161790556000805490911691841691909117905560018190556012805460ff191690556006546200010d906001600160801b03166200018b602090811b62001dfa17901c565b600755600554604051637047508d60e11b81526001600160a01b039091169063e08ea11a906200014a9030908a90879087904290600401620002ff565b600060405180830381600087803b1580156200016557600080fd5b505af11580156200017a573d6000803e3d6000fd5b50505050505050505050506200044e565b60008062000198620001cb565b90506000620001a882856200036b565b620001c3906ec097ce7bc90715b34b9f1000000000620003a3565b949350505050565b6000641ec1e48d80620001e4816402540be400620003ba565b91505090565b60006001600160a01b0382165b92915050565b6200020881620001ea565b81146200021457600080fd5b50565b8051620001f781620001fd565b8062000208565b8051620001f78162000224565b600080600080600080600060e0888a031215620002585762000258600080fd5b6000620002668a8a62000217565b9750506020620002798a828b0162000217565b96505060406200028c8a828b0162000217565b95505060606200029f8a828b0162000217565b9450506080620002b28a828b0162000217565b93505060a0620002c58a828b0162000217565b92505060c0620002d88a828b016200022b565b91505092959891949750929550565b620002f281620001ea565b82525050565b80620002f2565b60a081016200030f8288620002e7565b6200031e6020830187620002e7565b6200032d6040830186620002e7565b6200033c6060830185620002f8565b6200034b6080830184620002f8565b9695505050505050565b634e487b7160e01b600052601160045260246000fd5b600081600019048311821515161562000388576200038862000355565b500290565b634e487b7160e01b600052601260045260246000fd5b600082620003b557620003b56200038d565b500490565b6000826001600160ff1b030482116000841360008413161615620003e257620003e262000355565b81600160ff1b058312600084126000841316161562000405576200040562000355565b82600160ff1b058212600084136000841216161562000428576200042862000355565b826001600160ff1b03058212600084126000841216161562000388576200038862000355565b60805160601c60a05160601c612e70620005226000396000818161025d0152818161090a01528181610b7401528181610c5401528181610e1701528181610e8c01528181610f91015281816110d00152818161121a0152818161136d015281816113f001528181611441015281816114e30152818161159f0152818161169301528181611823015281816118df01528181611a4101528181611ae601528181611c8b0152611d8d0152600081816103ba01528181610b4101528181610cf401528181610da30152611cc40152612e706000f3fe6080604052600436106102465760003560e01c806379dfe88411610139578063d5055fa8116100b6578063dcd4c0631161007a578063dcd4c06314610602578063e1abf80c14610618578063e5ce7f7714610638578063e92ec65d14610658578063f40d06011461066e578063ffac02d91461067657600080fd5b8063d5055fa814610598578063d57bde79146105ad578063d6f7b688146105c3578063dbb9e0cd146105d8578063dc9aaf36146105ed57600080fd5b80639500a4b9116100fd5780639500a4b9146105295780639979ef451461053f57806399a7b9a91461055f578063c3691aa514610567578063c51a29e01461057c57600080fd5b806379dfe88414610491578063898fca8e146104b15780638b142225146104c75780639157e1ba146104dd57806391f901571461050957600080fd5b80634ba9a927116101c75780636d4d09d71161018b5780636d4d09d71461041c5780636fc60170146104325780636fefb0471461044757806371d05ecf1461045c578063725be5271461047157600080fd5b80634ba9a927146103655780634c2a178a1461037b5780634df8ccb1146103a85780635917dc5f146103dc5780635bf8633a146103fc57600080fd5b80631a81d59c1161020e5780631a81d59c146102ee5780631ec2bf31146103035780631fcd47f514610325578063235965801461033a578063251d9abe1461035057600080fd5b806308551a531461024b578063117df0881461029557806315488b881461029f57806316662d99146102c257806317d70f7c146102d8575b600080fd5b34801561025757600080fd5b5061027f7f000000000000000000000000000000000000000000000000000000000000000081565b60405161028c9190611f4e565b60405180910390f35b61029d61069d565b005b3480156102ab57600080fd5b506102b560075481565b60405161028c9190611f62565b3480156102ce57600080fd5b506102b5600b5481565b3480156102e457600080fd5b506102b560015481565b3480156102fa57600080fd5b5061029d610836565b34801561030f57600080fd5b50610318610a36565b60405161028c9190611f78565b34801561033157600080fd5b506102b5610a64565b34801561034657600080fd5b506102b5600d5481565b34801561035c57600080fd5b506102b5610a89565b34801561037157600080fd5b506102b560095481565b34801561038757600080fd5b50600a5461039b906001600160801b031681565b60405161028c9190611f95565b3480156103b457600080fd5b5061027f7f000000000000000000000000000000000000000000000000000000000000000081565b3480156103e857600080fd5b5060065461039b906001600160801b031681565b34801561040857600080fd5b5060005461027f906001600160a01b031681565b34801561042857600080fd5b506102b560085481565b34801561043e57600080fd5b506102b5610aa9565b34801561045357600080fd5b50610318610ac9565b34801561046857600080fd5b5061029d610ad2565b34801561047d57600080fd5b5061029d61048c366004611fbd565b610cbe565b34801561049d57600080fd5b5061029d6104ac366004611fbd565b610e81565b3480156104bd57600080fd5b506102b5600e5481565b3480156104d357600080fd5b506102b560115481565b3480156104e957600080fd5b506012546104fc90610100900460ff1681565b60405161028c9190612027565b34801561051557600080fd5b5060145461027f906001600160a01b031681565b34801561053557600080fd5b506102b5600f5481565b34801561054b57600080fd5b5061029d61055a366004612046565b6110c5565b61029d61120f565b34801561057357600080fd5b5061029d611362565b34801561058857600080fd5b50600060405161028c9190612095565b3480156105a457600080fd5b5061031861154d565b3480156105b957600080fd5b506102b560135481565b3480156105cf57600080fd5b50610318611556565b3480156105e457600080fd5b5061031861155e565b3480156105f957600080fd5b50610318611567565b34801561060e57600080fd5b506102b5600c5481565b34801561062457600080fd5b5061029d6106333660046120bd565b611570565b34801561064457600080fd5b5061029d610653366004612112565b611725565b34801561066457600080fd5b506102b560105481565b61029d611b9d565b34801561068257600080fd5b506012546106909060ff1681565b60405161028c9190612161565b6014546001600160a01b0316331415806106da57506014546001600160a01b0316331480156106da5750601454600160a01b900460ff1615156001145b806106fd57506014546001600160a01b0316331480156106fd57506106fd61154d565b6107225760405162461bcd60e51b815260040161071990612199565b60405180910390fd5b3360008181526015602052604080822080546001600160801b0319811690915590516001600160801b039091169290839061075c906121b1565b60006040518083038185875af1925050503d8060008114610799576040519150601f19603f3d011682016040523d82523d6000602084013e61079e565b606091505b50509050806107bf5760405162461bcd60e51b8152600401610719906121e9565b600554600054600154604051632b9a448760e21b81526001600160a01b039384169363ae69121c93610800933093929091169133908990429060040161221a565b600060405180830381600087803b15801561081a57600080fd5b505af115801561082e573d6000803e3d6000fd5b505050505050565b61083e611567565b61085a5760405162461bcd60e51b815260040161071990612299565b60095442101561087c5760405162461bcd60e51b8152600401610719906122cd565b6014546001600160a01b031661089b576108966002611725565b6109d3565b6012805460ff1916600217905542600b819055600d546108ba916122f3565b600c556013546108c990611e34565b6011819055600554600054600154601454601354600b54600c54604051630eb941ff60e01b81526001600160a01b0397881698630eb941ff9861093f9830987f0000000000000000000000000000000000000000000000000000000000000000989183169790969290911694909360040161232a565b600060405180830381600087803b15801561095957600080fd5b505af115801561096d573d6000803e3d6000fd5b5050600480546040516320ad0c6360e21b81526001600160a01b0390911693506382b4318c92506109a091309101611f4e565b600060405180830381600087803b1580156109ba57600080fd5b505af11580156109ce573d6000803e3d6000fd5b505050505b60048054604051633d5d5e5760e21b81526001600160a01b039091169163f575795c91610a0291309101611f4e565b600060405180830381600087803b158015610a1c57600080fd5b505af1158015610a30573d6000803e3d6000fd5b50505050565b600060045b60125460ff166005811115610a5257610a52611fde565b1415610a5e5750600190565b50600090565b6000600f54421115610a765750600090565b42600f54610a8491906123b0565b905090565b6000600c54421115610a9b5750600090565b42600c54610a8491906123b0565b6000600954421115610abb5750600090565b42600954610a8491906123b0565b60006002610a3b565b6014546001600160a01b03163314610afc5760405162461bcd60e51b815260040161071990612408565b6005601254610100900460ff166006811115610b1a57610b1a611fde565b14610b375760405162461bcd60e51b81526004016107199061244c565b6001600160a01b037f00000000000000000000000000000000000000000000000000000000000000008116600090815260166020526040808220547f000000000000000000000000000000000000000000000000000000000000000090931682528120549091610ba6916122f3565b905060008111610bc957604051631087674760e31b815260040160405180910390fd5b6014546040516000916001600160a01b0316908390610be7906121b1565b60006040518083038185875af1925050503d8060008114610c24576040519150601f19603f3d011682016040523d82523d6000602084013e610c29565b606091505b5050905080610c4a5760405162461bcd60e51b815260040161071990612486565b6001600160a01b037f0000000000000000000000000000000000000000000000000000000000000000811660009081526016602052604080822082905560055491546001549151634e71d3d960e11b815292841693639ce3a7b2936108009330939092169190339089904290600401612496565b6000546001600160a01b03163314610cd557600080fd5b60018115151415610dd757610cea6006611725565b6001600160a01b037f0000000000000000000000000000000000000000000000000000000000000000166000818152601660205260408082205490519092908390610d34906121b1565b60006040518083038185875af1925050503d8060008114610d71576040519150601f19603f3d011682016040523d82523d6000602084013e610d76565b606091505b5050905080610d975760405162461bcd60e51b815260040161071990612486565b50506001600160a01b037f000000000000000000000000000000000000000000000000000000000000000016600090815260166020526040812055610de1565b610de16005611725565b6005546000546001546014546013546040516379cb66b960e01b81526001600160a01b03958616956379cb66b995610e4c9530957f00000000000000000000000000000000000000000000000000000000000000009592841694919316919042908b906004016124d8565b600060405180830381600087803b158015610e6657600080fd5b505af1158015610e7a573d6000803e3d6000fd5b5050505050565b336001600160a01b037f00000000000000000000000000000000000000000000000000000000000000001614801590610ec557506002546001600160a01b03163314155b15610ee357604051630f14818760e31b815260040160405180910390fd5b610eeb610ac9565b610f075760405162461bcd60e51b815260040161071990612299565b6000610f11610a89565b11610f2e5760405162461bcd60e51b815260040161071990612575565b80156110895742600e819055601054610f46916122f3565b600f8190556012805460ff19166003179055600554600054600154601454601354600e5460405163122fce0b60e31b81526001600160a01b039687169763917e705897610fc79730977f0000000000000000000000000000000000000000000000000000000000000000979183169690959290911693909290600401612585565b600060405180830381600087803b158015610fe157600080fd5b505af1158015610ff5573d6000803e3d6000fd5b50506004805460405163034fdf0760e61b81526001600160a01b03909116935063d3f7c1c0925061102891309101611f4e565b600060405180830381600087803b15801561104257600080fd5b505af1158015611056573d6000803e3d6000fd5b5050600480546040516324620c6760e21b81526001600160a01b039091169350639188319c9250610e4c91309101611f4e565b6110936003611725565b6004805460405163034fdf0760e61b81526001600160a01b039091169163d3f7c1c091610e4c91309101611f4e565b50565b336001600160a01b037f000000000000000000000000000000000000000000000000000000000000000016141561110f5760405163c8cfc8e960e01b815260040160405180910390fd5b611117611567565b6111335760405162461bcd60e51b815260040161071990612299565b600061113d610aa9565b1161115a5760405162461bcd60e51b815260040161071990612612565b600754336000908152601560205260409020546001600160801b031610156111945760405162461bcd60e51b815260040161071990612656565b60135481116111b55760405162461bcd60e51b81526004016107199061269a565b6013819055601480546001600160a01b03191633908117909155600554600054600154604051631a76c77d60e31b81526001600160a01b039384169463d3b63be894610e4c94309491169290919088904290600401612496565b336001600160a01b037f00000000000000000000000000000000000000000000000000000000000000001614156112595760405163c8cfc8e960e01b815260040160405180910390fd5b611261611567565b61127d5760405162461bcd60e51b815260040161071990612299565b336000908152601560205260409020546001600160801b0316156112b35760405162461bcd60e51b8152600401610719906126d3565b6007543410156112d55760405162461bcd60e51b81526004016107199061270f565b33600090815260156020526040812080543492906112fd9084906001600160801b031661271f565b82546001600160801b039182166101009390930a92830291909202199091161790555060055460005460015460405163a02cc95760e01b81526001600160a01b039384169363a02cc95793610a02933093919092169190339034904290600401612496565b336001600160a01b037f000000000000000000000000000000000000000000000000000000000000000016146113ab57604051630f14818760e31b815260040160405180910390fd5b6006601254610100900460ff1660068111156113c9576113c9611fde565b146113e65760405162461bcd60e51b815260040161071990612786565b6001600160a01b037f0000000000000000000000000000000000000000000000000000000000000000166000908152601660205260409020548061143d57604051631087674760e31b815260040160405180910390fd5b60007f00000000000000000000000000000000000000000000000000000000000000006001600160a01b031682604051611476906121b1565b60006040518083038185875af1925050503d80600081146114b3576040519150601f19603f3d011682016040523d82523d6000602084013e6114b8565b606091505b50509050806114d95760405162461bcd60e51b815260040161071990612486565b6001600160a01b037f00000000000000000000000000000000000000000000000000000000000000008116600090815260166020526040808220829055600554915460015491516377a0addb60e11b81529284169363ef415bb6936108009330939092169190339089904290600401612496565b60006005610a3b565b600080610a3b565b60006003610a3b565b60006001610a3b565b611578611556565b6115945760405162461bcd60e51b8152600401610719906127c8565b336001600160a01b037f000000000000000000000000000000000000000000000000000000000000000016146115dc5760405162461bcd60e51b8152600401610719906127fe565b6000816001600160801b0316116116055760405162461bcd60e51b815260040161071990612833565b42600881905561161f906001600160801b038416906122f3565b600955600a80546001600160801b0319166001600160801b03848116919091179091558116601355601280546001919060ff191682800217905550600554600054600154600754600854600954604051632f7a085b60e01b81526001600160a01b0396871696632f7a085b966116c49630967f000000000000000000000000000000000000000000000000000000000000000096929093169490938b90600401612843565b600060405180830381600087803b1580156116de57600080fd5b505af11580156116f2573d6000803e3d6000fd5b5050600480546040516301cca56960e31b81526001600160a01b039091169350630e652b48925061080091309101611f4e565b600281600681111561173957611739611fde565b14156117c857600160125460ff16600581111561175857611758611fde565b146117755760405162461bcd60e51b8152600401610719906128e1565b61177d610aa9565b1561179a5760405162461bcd60e51b81526004016107199061291e565b6014546001600160a01b0316156117c35760405162461bcd60e51b815260040161071990612977565b611a7e565b60038160068111156117dc576117dc611fde565b141561188457600260125460ff1660058111156117fb576117fb611fde565b146118185760405162461bcd60e51b8152600401610719906129bb565b336001600160a01b037f00000000000000000000000000000000000000000000000000000000000000001614806118685750600461185533611e53565b600481111561186657611866611fde565b145b6117c35760405162461bcd60e51b815260040161071990612a0f565b600481600681111561189857611898611fde565b141561196a57600360125460ff1660058111156118b7576118b7611fde565b146118d45760405162461bcd60e51b8152600401610719906129bb565b336001600160a01b037f00000000000000000000000000000000000000000000000000000000000000001614806119245750600461191133611e53565b600481111561192257611922611fde565b145b6119405760405162461bcd60e51b815260040161071990612a0f565b601454600160a01b900460ff16156117c35760405162461bcd60e51b815260040161071990612a4a565b600681600681111561197e5761197e611fde565b148061199b5750600581600681111561199957611999611fde565b145b15611a0057600460125460ff1660058111156119b9576119b9611fde565b146119d65760405162461bcd60e51b8152600401610719906129bb565b6000546001600160a01b031633146117c35760405162461bcd60e51b815260040161071990612a7d565b600060125460ff166005811115611a1957611a19611fde565b14611a365760405162461bcd60e51b8152600401610719906129bb565b336001600160a01b037f00000000000000000000000000000000000000000000000000000000000000001614611a7e5760405162461bcd60e51b815260040161071990612ab0565b60128054600560ff1982168117835583929161ffff191617610100836006811115611aab57611aab611fde565b0217905550600554600054600154601454601354604051632eca920f60e01b81526001600160a01b0395861695632eca920f95611b1b9530957f00000000000000000000000000000000000000000000000000000000000000009592841694919342939116918b90600401612ac0565b600060405180830381600087803b158015611b3557600080fd5b505af1158015611b49573d6000803e3d6000fd5b5060049250611b56915050565b816006811115611b6857611b68611fde565b14156110c25760048054604051631d6a996560e01b81526001600160a01b0390911691631d6a996591610e4c91309101611f4e565b6014546001600160a01b03163314801590611bbd5750611bbb61155e565b155b15611bdb57604051631eb74e9f60e31b815260040160405180910390fd5b611be361155e565b611bff5760405162461bcd60e51b815260040161071990612299565b6000611c09610a64565b11611c265760405162461bcd60e51b815260040161071990612b71565b601154601354611c3691906122f3565b3414611c545760405162461bcd60e51b815260040161071990612bcf565b601454600160a01b900460ff1615611c7e5760405162461bcd60e51b815260040161071990612c04565b6013546001600160a01b037f00000000000000000000000000000000000000000000000000000000000000008116600090815260166020526040808220939093556011547f00000000000000000000000000000000000000000000000000000000000000008316825290839020556014805460ff60a01b1916600160a01b179055600480549251631d6a996560e01b81529290911691631d6a996591611d2691309101611f4e565b600060405180830381600087803b158015611d4057600080fd5b505af1158015611d54573d6000803e3d6000fd5b5050600554600054600154604051638dcf508d60e01b81526001600160a01b039384169550638dcf508d9450611db993309316919033907f00000000000000000000000000000000000000000000000000000000000000009034904290600401612c14565b600060405180830381600087803b158015611dd357600080fd5b505af1158015611de7573d6000803e3d6000fd5b50506012805460ff191660041790555050565b600080611e05611f11565b90506000611e138285612c7c565b611e2c906ec097ce7bc90715b34b9f1000000000612cb1565b949350505050565b60006064611e43600584612c7c565b611e4d9190612cb1565b92915050565b60408051600481526024810182526020810180516001600160e01b0316630628d14f60e51b1790529051600091829182916001600160a01b03861691611e999190612d13565b6000604051808303816000865af19150503d8060008114611ed6576040519150601f19603f3d011682016040523d82523d6000602084013e611edb565b606091505b509150915081611efd5760405162461bcd60e51b815260040161071990612d69565b80806020019051810190611e2c9190612d91565b6000641ec1e48d80611f28816402540be400612db2565b91505090565b60006001600160a01b038216611e4d565b611f4881611f2e565b82525050565b60208101611e4d8284611f3f565b80611f48565b60208101611e4d8284611f5c565b801515611f48565b60208101611e4d8284611f70565b6001600160801b038116611f48565b60208101611e4d8284611f86565b8015155b81146110c257600080fd5b8035611e4d81611fa3565b600060208284031215611fd257611fd2600080fd5b6000611e2c8484611fb2565b634e487b7160e01b600052602160045260246000fd5b600781106110c2576110c2611fde565b8061200e81611ff4565b919050565b6000611e4d82612004565b611f4881612013565b60208101611e4d828461201e565b80611fa7565b8035611e4d81612035565b60006020828403121561205b5761205b600080fd5b6000611e2c848461203b565b600581106110c2576110c2611fde565b8061200e81612067565b6000611e4d82612077565b611f4881612081565b60208101611e4d828461208c565b6001600160801b038116611fa7565b8035611e4d816120a3565b600080604083850312156120d3576120d3600080fd5b60006120df85856120b2565b92505060206120f0858286016120b2565b9150509250929050565b600781106110c257600080fd5b8035611e4d816120fa565b60006020828403121561212757612127600080fd5b6000611e2c8484612107565b600681106110c2576110c2611fde565b8061200e81612133565b6000611e4d82612143565b611f488161214d565b60208101611e4d8284612158565b601081526000602082016f43616e6e6f742077697468647261772160801b815291505b5060200190565b60208082528101611e4d8161216f565b600081611f28565b6000611e4d826121a9565b6016815260006020820175455448207769746864726177616c206661696c65642160501b81529150612192565b60208082528101611e4d816121bc565b6000611e4d61220e6001600160801b03841681565b90565b611f48816121f9565b60c081016122288289611f3f565b6122356020830188611f3f565b6122426040830187611f5c565b61224f6060830186611f3f565b61225c6080830185612211565b61226960a0830184611f5c565b979650505050505050565b600e81526000602082016d496c6c6567616c2073746174652160901b81529150612192565b60208082528101611e4d81612274565b600d81526000602082016c4269642074696d65203e20302160981b81529150612192565b60208082528101611e4d816122a9565b634e487b7160e01b600052601160045260246000fd5b60008219821115612306576123066122dd565b500190565b6000611e4d82611f2e565b6000611e4d8261230b565b611f4881612316565b6101208101612339828c611f3f565b612346602083018b612321565b612353604083018a611f3f565b6123606060830189611f5c565b61236d6080830188611f3f565b61237a60a0830187611f5c565b61238760c0830186611f5c565b61239460e0830185611f5c565b6123a2610100830184611f5c565b9a9950505050505050505050565b6000828210156123c2576123c26122dd565b500390565b602181526000602082017f526566756e642063616e206f6e6c79206265206d61646520746f2070617965728152602160f81b602082015291505b5060400190565b60208082528101611e4d816123c7565b601781526000602082017f496e65676c696769626c6520666f7220726566756e642100000000000000000081529150612192565b60208082528101611e4d81612418565b6013815260006020820172115512081d1c985b9cd9995c8819985a5b1959606a1b81529150612192565b60208082528101611e4d8161245c565b60c081016124a48289611f3f565b6124b16020830188611f3f565b6124be6040830187611f5c565b6124cb6060830186611f3f565b61225c6080830185611f5c565b61010081016124e7828b611f3f565b6124f4602083018a612321565b6125016040830189611f3f565b61250e6060830188611f5c565b61251b6080830187611f3f565b61252860a0830186611f5c565b61253560c0830185611f5c565b61254260e0830184611f70565b9998505050505050505050565b600f81526000602082016e56657269667920657870697265642160881b81529150612192565b60208082528101611e4d8161254f565b6101008101612594828b611f3f565b6125a1602083018a612321565b6125ae6040830189611f3f565b6125bb6060830188611f5c565b6125c86080830187611f3f565b6125d560a0830186611f5c565b6125e260c0830185611f5c565b61254260e0830184611f5c565b600c81526000602082016b426964206f6e676f696e672160a01b81529150612192565b60208082528101611e4d816125ef565b601d81526000602082017f4465706f73697420726571756972656420666f722062696464696e672100000081529150612192565b60208082528101611e4d81612622565b601b81526000602082017f426964206c6f776572207468616e20686967686573742062696421000000000081529150612192565b60208082528101611e4d81612666565b60128152600060208201714163636f756e74206465706f73697465642160701b81529150612192565b60208082528101611e4d816126aa565b601581526000602082017457726f6e67206465706f73697420616d6f756e742160581b81529150612192565b60208082528101611e4d816126e3565b60006001600160801b03821691506001600160801b0383169250826001600160801b0303821115612306576123066122dd565b601a81526000602082017f4f776e657273686970206e6f74207472616e736665727265642100000000000081529150612192565b60208082528101611e4d81612752565b60208082527f41756374696f6e206e6f7420696e20526567697374657265642073746174652191019081526000612192565b60208082528101611e4d81612796565b600f81526000602082016e5265717569726573206f776e65722160881b81529150612192565b60208082528101611e4d816127d8565b600e81526000602082016d537461727420626964203c20302160901b81529150612192565b60208082528101611e4d8161280e565b6101008101612852828b611f3f565b61285f602083018a612321565b61286c6040830189611f3f565b6128796060830188611f5c565b6128866080830187611f5c565b61289360a0830186611f5c565b6128a060c0830185611f5c565b61254260e0830184612211565b601981526000602082017f496c6c6567616c207374617465207472616e736974696f6e210000000000000081529150612192565b60208082528101611e4d816128ad565b601681526000602082017561756374696f6e207374696c6c2062696464696e672160501b81529150612192565b60208082528101611e4d816128f1565b602c81526000602082017f636c6f736541756374696f6e2e4e4f5f424944444552206d757374206e6f742081526b686176652077696e6e65722160a01b60208201529150612401565b60208082528101611e4d8161292e565b601981526000602082017f696c6c6567616c207374617465207472616e736974696f6e210000000000000081529150612192565b60208082528101611e4d81612987565b602781526000602082017f636c6f736541756374696f6e2072657175697265732073656c6c6572206f72208152666b65657065722160c81b60208201529150612401565b60208082528101611e4d816129cb565b601481526000602082017377696e6e657220616c726561647920706169642160601b81529150612192565b60208082528101611e4d81612a1f565b600c81526000602082016b37b7363c9020bab234ba37b960a11b81529150612192565b60208082528101611e4d81612a5a565b600c81526000602082016b6f6e6c792073656c6c65722160a01b81529150612192565b60208082528101611e4d81612a8d565b6101008101612acf828b611f3f565b612adc602083018a612321565b612ae96040830189611f3f565b612af66060830188611f5c565b612b036080830187611f5c565b612b1060a0830186611f3f565b612b1d60c0830185611f5c565b61254260e083018461201e565b602a81526000602082017f5061796d656e742077696e646f7720666f722066756c6c20736574746c656d658152696e7420636c6f7365642160b01b60208201529150612401565b60208082528101611e4d81612b2a565b603181526000602082017f5061796d656e742076616c756520213d202877696e6e696e6720626964202b20815270706c6174666f726d20636861726765292160781b60208201529150612401565b60208082528101611e4d81612b81565b600e81526000602082016d596f75206861766520706169642160901b81529150612192565b60208082528101611e4d81612bdf565b60e08101612c22828a611f3f565b612c2f6020830189611f3f565b612c3c6040830188611f5c565b612c496060830187611f3f565b612c566080830186612321565b612c6360a0830185611f5c565b612c7060c0830184611f5c565b98975050505050505050565b6000816000190483118215151615612c9657612c966122dd565b500290565b634e487b7160e01b600052601260045260246000fd5b600082612cc057612cc0612c9b565b500490565b60005b83811015612ce0578181015183820152602001612cc8565b83811115610a305750506000910152565b6000612cfb825190565b612d09818560208601612cc5565b9290920192915050565b6000612d1f8284612cf1565b9392505050565b602681526000602082017f556e61626c6520746f2064657465726d696e652074686520636f6e747261637481526520747970652160d01b60208201529150612401565b60208082528101611e4d81612d26565b600581106110c257600080fd5b8051611e4d81612d79565b600060208284031215612da657612da6600080fd5b6000611e2c8484612d86565b6000826001600160ff1b030482116000841360008413161615612dd757612dd76122dd565b81600160ff1b0583126000841260008413161615612df757612df76122dd565b82600160ff1b0582126000841360008412161615612e1757612e176122dd565b826001600160ff1b030582126000841260008412161615612c9657612c966122dd56fea2646970667358221220b604fae7b8bfef70a49803d75f60d307f6022bf073aa0a394f8958b39682646d64736f6c63430008080033a26469706673582212206b990ca5929ffee80d65b2b6d929ddac946e14beb3394ea1261572aedc880d6964736f6c63430008080033",
  "devdoc": {
    "kind": "dev",
    "methods": {},
    "version": 1
  },
  "userdoc": {
    "kind": "user",
    "methods": {},
    "version": 1
  },
  "storageLayout": {
    "storage": [
      {
        "astId": 2785,
        "contract": "contracts/AuctionContracts.sol:ContractFactory",
        "label": "auctionManagerAddress",
        "offset": 0,
        "slot": "0",
        "type": "t_address"
      },
      {
        "astId": 2787,
        "contract": "contracts/AuctionContracts.sol:ContractFactory",
        "label": "auctionRegistryAddress",
        "offset": 0,
        "slot": "1",
        "type": "t_address"
      },
      {
        "astId": 2790,
        "contract": "contracts/AuctionContracts.sol:ContractFactory",
        "label": "auctionManager",
        "offset": 0,
        "slot": "2",
        "type": "t_contract(AuctionManager)4626"
      },
      {
        "astId": 2793,
        "contract": "contracts/AuctionContracts.sol:ContractFactory",
        "label": "auctionRegistry",
        "offset": 0,
        "slot": "3",
        "type": "t_contract(AuctionRegistry)3704"
      }
    ],
    "types": {
      "t_address": {
        "encoding": "inplace",
        "label": "address",
        "numberOfBytes": "20"
      },
      "t_contract(AuctionManager)4626": {
        "encoding": "inplace",
        "label": "contract AuctionManager",
        "numberOfBytes": "20"
      },
      "t_contract(AuctionRegistry)3704": {
        "encoding": "inplace",
        "label": "contract AuctionRegistry",
        "numberOfBytes": "20"
      }
    }
  }
}