{
  "address": "0xbE1b58B66b0395cDC4A9C582b16DE80fc7a2EC5a",
  "abi": [
    {
      "anonymous": false,
      "inputs": [
        {
          "indexed": true,
          "internalType": "address",
          "name": "auction",
          "type": "address"
        },
        {
          "indexed": false,
          "internalType": "address",
          "name": "seller",
          "type": "address"
        },
        {
          "indexed": false,
          "internalType": "address",
          "name": "nftAddress",
          "type": "address"
        },
        {
          "indexed": true,
          "internalType": "uint256",
          "name": "tokenId",
          "type": "uint256"
        },
        {
          "indexed": true,
          "internalType": "address",
          "name": "winner",
          "type": "address"
        },
        {
          "indexed": false,
          "internalType": "uint256",
          "name": "winningBid",
          "type": "uint256"
        },
        {
          "indexed": false,
          "internalType": "uint256",
          "name": "time",
          "type": "uint256"
        },
        {
          "indexed": false,
          "internalType": "bool",
          "name": "pass",
          "type": "bool"
        }
      ],
      "name": "AuctionAuditResult",
      "type": "event"
    },
    {
      "anonymous": false,
      "inputs": [
        {
          "indexed": true,
          "internalType": "address",
          "name": "auction",
          "type": "address"
        },
        {
          "indexed": true,
          "internalType": "address",
          "name": "nftAddress",
          "type": "address"
        },
        {
          "indexed": true,
          "internalType": "uint256",
          "name": "tokenId",
          "type": "uint256"
        },
        {
          "indexed": false,
          "internalType": "address",
          "name": "bidder",
          "type": "address"
        },
        {
          "indexed": false,
          "internalType": "uint256",
          "name": "bidAmount",
          "type": "uint256"
        },
        {
          "indexed": false,
          "internalType": "uint256",
          "name": "bidTime",
          "type": "uint256"
        }
      ],
      "name": "AuctionBidPlaced",
      "type": "event"
    },
    {
      "anonymous": false,
      "inputs": [
        {
          "indexed": true,
          "internalType": "address",
          "name": "auction",
          "type": "address"
        },
        {
          "indexed": false,
          "internalType": "address",
          "name": "seller",
          "type": "address"
        },
        {
          "indexed": false,
          "internalType": "address",
          "name": "nftAddress",
          "type": "address"
        },
        {
          "indexed": true,
          "internalType": "uint256",
          "name": "tokenId",
          "type": "uint256"
        },
        {
          "indexed": false,
          "internalType": "uint256",
          "name": "closeTime",
          "type": "uint256"
        },
        {
          "indexed": false,
          "internalType": "address",
          "name": "winner",
          "type": "address"
        },
        {
          "indexed": false,
          "internalType": "uint256",
          "name": "winningBid",
          "type": "uint256"
        },
        {
          "indexed": true,
          "internalType": "enum Constants.AuctionEndState",
          "name": "endState",
          "type": "uint8"
        }
      ],
      "name": "AuctionClosed",
      "type": "event"
    },
    {
      "anonymous": false,
      "inputs": [
        {
          "indexed": true,
          "internalType": "address",
          "name": "auction",
          "type": "address"
        },
        {
          "indexed": true,
          "internalType": "address",
          "name": "nftAddress",
          "type": "address"
        },
        {
          "indexed": true,
          "internalType": "uint256",
          "name": "tokenId",
          "type": "uint256"
        },
        {
          "indexed": false,
          "internalType": "address",
          "name": "bidder",
          "type": "address"
        },
        {
          "indexed": false,
          "internalType": "uint256",
          "name": "depositAmount",
          "type": "uint256"
        },
        {
          "indexed": false,
          "internalType": "uint256",
          "name": "depositTime",
          "type": "uint256"
        }
      ],
      "name": "AuctionDepositPlaced",
      "type": "event"
    },
    {
      "anonymous": false,
      "inputs": [
        {
          "indexed": true,
          "internalType": "address",
          "name": "auction",
          "type": "address"
        },
        {
          "indexed": true,
          "internalType": "address",
          "name": "nftAddress",
          "type": "address"
        },
        {
          "indexed": true,
          "internalType": "uint256",
          "name": "tokenId",
          "type": "uint256"
        },
        {
          "indexed": false,
          "internalType": "address",
          "name": "bidder",
          "type": "address"
        },
        {
          "indexed": false,
          "internalType": "uint256",
          "name": "retrieveAmount",
          "type": "uint256"
        },
        {
          "indexed": false,
          "internalType": "uint256",
          "name": "retrievalTime",
          "type": "uint256"
        }
      ],
      "name": "AuctionDepositRetrieved",
      "type": "event"
    },
    {
      "anonymous": false,
      "inputs": [
        {
          "indexed": true,
          "internalType": "address",
          "name": "auction",
          "type": "address"
        },
        {
          "indexed": false,
          "internalType": "address",
          "name": "nftAddress",
          "type": "address"
        },
        {
          "indexed": false,
          "internalType": "uint256",
          "name": "tokenId",
          "type": "uint256"
        },
        {
          "indexed": true,
          "internalType": "address",
          "name": "winner",
          "type": "address"
        },
        {
          "indexed": false,
          "internalType": "address",
          "name": "seller",
          "type": "address"
        },
        {
          "indexed": true,
          "internalType": "uint256",
          "name": "paidAmount",
          "type": "uint256"
        },
        {
          "indexed": false,
          "internalType": "uint256",
          "name": "paidTime",
          "type": "uint256"
        }
      ],
      "name": "AuctionFullSettlementPaid",
      "type": "event"
    },
    {
      "anonymous": false,
      "inputs": [
        {
          "indexed": true,
          "internalType": "address",
          "name": "auction",
          "type": "address"
        },
        {
          "indexed": false,
          "internalType": "address",
          "name": "seller",
          "type": "address"
        },
        {
          "indexed": false,
          "internalType": "address",
          "name": "nftAddress",
          "type": "address"
        },
        {
          "indexed": true,
          "internalType": "uint256",
          "name": "tokenId",
          "type": "uint256"
        },
        {
          "indexed": true,
          "internalType": "address",
          "name": "winner",
          "type": "address"
        },
        {
          "indexed": false,
          "internalType": "uint256",
          "name": "winningBid",
          "type": "uint256"
        },
        {
          "indexed": false,
          "internalType": "uint256",
          "name": "startTime",
          "type": "uint256"
        },
        {
          "indexed": false,
          "internalType": "uint256",
          "name": "endTime",
          "type": "uint256"
        }
      ],
      "name": "AuctionPendingPayment",
      "type": "event"
    },
    {
      "anonymous": false,
      "inputs": [
        {
          "indexed": true,
          "internalType": "address",
          "name": "auction",
          "type": "address"
        },
        {
          "indexed": false,
          "internalType": "address",
          "name": "seller",
          "type": "address"
        },
        {
          "indexed": true,
          "internalType": "address",
          "name": "nftAddress",
          "type": "address"
        },
        {
          "indexed": true,
          "internalType": "uint256",
          "name": "tokenId",
          "type": "uint256"
        },
        {
          "indexed": false,
          "internalType": "uint256",
          "name": "registerTime",
          "type": "uint256"
        }
      ],
      "name": "AuctionRegistered",
      "type": "event"
    },
    {
      "anonymous": false,
      "inputs": [
        {
          "indexed": true,
          "internalType": "address",
          "name": "auction",
          "type": "address"
        },
        {
          "indexed": false,
          "internalType": "address",
          "name": "seller",
          "type": "address"
        },
        {
          "indexed": true,
          "internalType": "address",
          "name": "nftAddress",
          "type": "address"
        },
        {
          "indexed": true,
          "internalType": "uint256",
          "name": "tokenId",
          "type": "uint256"
        },
        {
          "indexed": false,
          "internalType": "uint256",
          "name": "depositWei",
          "type": "uint256"
        },
        {
          "indexed": false,
          "internalType": "uint256",
          "name": "bidStartTime",
          "type": "uint256"
        },
        {
          "indexed": false,
          "internalType": "uint256",
          "name": "bidEndTime",
          "type": "uint256"
        },
        {
          "indexed": false,
          "internalType": "uint256",
          "name": "startingBid",
          "type": "uint256"
        }
      ],
      "name": "AuctionStartedBidding",
      "type": "event"
    },
    {
      "anonymous": false,
      "inputs": [
        {
          "indexed": true,
          "internalType": "address",
          "name": "auction",
          "type": "address"
        },
        {
          "indexed": false,
          "internalType": "address",
          "name": "seller",
          "type": "address"
        },
        {
          "indexed": false,
          "internalType": "address",
          "name": "nftAddress",
          "type": "address"
        },
        {
          "indexed": true,
          "internalType": "uint256",
          "name": "tokenId",
          "type": "uint256"
        },
        {
          "indexed": true,
          "internalType": "address",
          "name": "winner",
          "type": "address"
        },
        {
          "indexed": false,
          "internalType": "uint256",
          "name": "winningBid",
          "type": "uint256"
        },
        {
          "indexed": false,
          "internalType": "uint256",
          "name": "platformCharge",
          "type": "uint256"
        },
        {
          "indexed": false,
          "internalType": "uint256",
          "name": "startTime",
          "type": "uint256"
        },
        {
          "indexed": false,
          "internalType": "uint256",
          "name": "endTime",
          "type": "uint256"
        }
      ],
      "name": "AuctionVerifyingWinner",
      "type": "event"
    },
    {
      "anonymous": false,
      "inputs": [
        {
          "indexed": true,
          "internalType": "address",
          "name": "platformOwner",
          "type": "address"
        },
        {
          "indexed": false,
          "internalType": "address",
          "name": "payer",
          "type": "address"
        },
        {
          "indexed": true,
          "internalType": "address",
          "name": "auction",
          "type": "address"
        },
        {
          "indexed": false,
          "internalType": "enum Constants.PlatformEarnings",
          "name": "earningType",
          "type": "uint8"
        },
        {
          "indexed": false,
          "internalType": "uint256",
          "name": "time",
          "type": "uint256"
        }
      ],
      "name": "PlatformEarnings",
      "type": "event"
    },
    {
      "anonymous": false,
      "inputs": [
        {
          "indexed": true,
          "internalType": "address",
          "name": "auction",
          "type": "address"
        },
        {
          "indexed": false,
          "internalType": "address",
          "name": "nftAddress",
          "type": "address"
        },
        {
          "indexed": false,
          "internalType": "uint256",
          "name": "tokenId",
          "type": "uint256"
        },
        {
          "indexed": true,
          "internalType": "address",
          "name": "seller",
          "type": "address"
        },
        {
          "indexed": true,
          "internalType": "uint256",
          "name": "retrieveAmount",
          "type": "uint256"
        },
        {
          "indexed": false,
          "internalType": "uint256",
          "name": "retrievalTime",
          "type": "uint256"
        }
      ],
      "name": "SellerEarningsRetrieved",
      "type": "event"
    },
    {
      "anonymous": false,
      "inputs": [
        {
          "indexed": true,
          "internalType": "address",
          "name": "auction",
          "type": "address"
        },
        {
          "indexed": false,
          "internalType": "address",
          "name": "nftAddress",
          "type": "address"
        },
        {
          "indexed": false,
          "internalType": "uint256",
          "name": "tokenId",
          "type": "uint256"
        },
        {
          "indexed": false,
          "internalType": "address",
          "name": "winner",
          "type": "address"
        },
        {
          "indexed": true,
          "internalType": "uint256",
          "name": "refundAmount",
          "type": "uint256"
        },
        {
          "indexed": false,
          "internalType": "uint256",
          "name": "retrievalTime",
          "type": "uint256"
        }
      ],
      "name": "winnerPaymentRefunded",
      "type": "event"
    },
    {
      "inputs": [
        {
          "internalType": "address",
          "name": "_auction",
          "type": "address"
        },
        {
          "internalType": "address",
          "name": "_seller",
          "type": "address"
        },
        {
          "internalType": "address",
          "name": "_nftAddress",
          "type": "address"
        },
        {
          "internalType": "uint256",
          "name": "_tokenId",
          "type": "uint256"
        },
        {
          "internalType": "address",
          "name": "_winner",
          "type": "address"
        },
        {
          "internalType": "uint256",
          "name": "_winningBid",
          "type": "uint256"
        },
        {
          "internalType": "uint256",
          "name": "_time",
          "type": "uint256"
        },
        {
          "internalType": "bool",
          "name": "_pass",
          "type": "bool"
        }
      ],
      "name": "emitAuctionAuditResult",
      "outputs": [],
      "stateMutability": "nonpayable",
      "type": "function"
    },
    {
      "inputs": [
        {
          "internalType": "address",
          "name": "_auction",
          "type": "address"
        },
        {
          "internalType": "address",
          "name": "_nftAddress",
          "type": "address"
        },
        {
          "internalType": "uint256",
          "name": "_tokenId",
          "type": "uint256"
        },
        {
          "internalType": "address",
          "name": "_bidder",
          "type": "address"
        },
        {
          "internalType": "uint256",
          "name": "_bidAmount",
          "type": "uint256"
        },
        {
          "internalType": "uint256",
          "name": "_bidTime",
          "type": "uint256"
        }
      ],
      "name": "emitAuctionBidPlaced",
      "outputs": [],
      "stateMutability": "nonpayable",
      "type": "function"
    },
    {
      "inputs": [
        {
          "internalType": "address",
          "name": "_auction",
          "type": "address"
        },
        {
          "internalType": "address",
          "name": "_seller",
          "type": "address"
        },
        {
          "internalType": "address",
          "name": "_nftAddress",
          "type": "address"
        },
        {
          "internalType": "uint256",
          "name": "_tokenId",
          "type": "uint256"
        },
        {
          "internalType": "uint256",
          "name": "_closeTime",
          "type": "uint256"
        },
        {
          "internalType": "address",
          "name": "_winner",
          "type": "address"
        },
        {
          "internalType": "uint256",
          "name": "_winningBid",
          "type": "uint256"
        },
        {
          "internalType": "enum Constants.AuctionEndState",
          "name": "_endState",
          "type": "uint8"
        }
      ],
      "name": "emitAuctionClosed",
      "outputs": [],
      "stateMutability": "nonpayable",
      "type": "function"
    },
    {
      "inputs": [
        {
          "internalType": "address",
          "name": "_auction",
          "type": "address"
        },
        {
          "internalType": "address",
          "name": "_nftAddress",
          "type": "address"
        },
        {
          "internalType": "uint256",
          "name": "_tokenId",
          "type": "uint256"
        },
        {
          "internalType": "address",
          "name": "_bidder",
          "type": "address"
        },
        {
          "internalType": "uint256",
          "name": "_depositAmount",
          "type": "uint256"
        },
        {
          "internalType": "uint256",
          "name": "_depositTime",
          "type": "uint256"
        }
      ],
      "name": "emitAuctionDepositPlaced",
      "outputs": [],
      "stateMutability": "nonpayable",
      "type": "function"
    },
    {
      "inputs": [
        {
          "internalType": "address",
          "name": "_auction",
          "type": "address"
        },
        {
          "internalType": "address",
          "name": "_nftAddress",
          "type": "address"
        },
        {
          "internalType": "uint256",
          "name": "_tokenId",
          "type": "uint256"
        },
        {
          "internalType": "address",
          "name": "_bidder",
          "type": "address"
        },
        {
          "internalType": "uint256",
          "name": "_retrieveAmount",
          "type": "uint256"
        },
        {
          "internalType": "uint256",
          "name": "_retrievalTime",
          "type": "uint256"
        }
      ],
      "name": "emitAuctionDepositRetrieved",
      "outputs": [],
      "stateMutability": "nonpayable",
      "type": "function"
    },
    {
      "inputs": [
        {
          "internalType": "address",
          "name": "_auction",
          "type": "address"
        },
        {
          "internalType": "address",
          "name": "_nftAddress",
          "type": "address"
        },
        {
          "internalType": "uint256",
          "name": "_tokenId",
          "type": "uint256"
        },
        {
          "internalType": "address",
          "name": "_winner",
          "type": "address"
        },
        {
          "internalType": "address",
          "name": "_seller",
          "type": "address"
        },
        {
          "internalType": "uint256",
          "name": "_paidAmount",
          "type": "uint256"
        },
        {
          "internalType": "uint256",
          "name": "_paidTime",
          "type": "uint256"
        }
      ],
      "name": "emitAuctionFullSettlementPaid",
      "outputs": [],
      "stateMutability": "nonpayable",
      "type": "function"
    },
    {
      "inputs": [
        {
          "internalType": "address",
          "name": "_auction",
          "type": "address"
        },
        {
          "internalType": "address",
          "name": "_seller",
          "type": "address"
        },
        {
          "internalType": "address",
          "name": "_nftAddress",
          "type": "address"
        },
        {
          "internalType": "uint256",
          "name": "_tokenId",
          "type": "uint256"
        },
        {
          "internalType": "address",
          "name": "_winner",
          "type": "address"
        },
        {
          "internalType": "uint256",
          "name": "_winningBid",
          "type": "uint256"
        },
        {
          "internalType": "uint256",
          "name": "_startTime",
          "type": "uint256"
        },
        {
          "internalType": "uint256",
          "name": "_expiryTime",
          "type": "uint256"
        }
      ],
      "name": "emitAuctionPendingPayment",
      "outputs": [],
      "stateMutability": "nonpayable",
      "type": "function"
    },
    {
      "inputs": [
        {
          "internalType": "address",
          "name": "_auction",
          "type": "address"
        },
        {
          "internalType": "address",
          "name": "_seller",
          "type": "address"
        },
        {
          "internalType": "address",
          "name": "_nftAddress",
          "type": "address"
        },
        {
          "internalType": "uint256",
          "name": "_tokenId",
          "type": "uint256"
        },
        {
          "internalType": "uint256",
          "name": "_registerTime",
          "type": "uint256"
        }
      ],
      "name": "emitAuctionRegistered",
      "outputs": [],
      "stateMutability": "nonpayable",
      "type": "function"
    },
    {
      "inputs": [
        {
          "internalType": "address",
          "name": "_auction",
          "type": "address"
        },
        {
          "internalType": "address",
          "name": "_seller",
          "type": "address"
        },
        {
          "internalType": "address",
          "name": "_nftAddress",
          "type": "address"
        },
        {
          "internalType": "uint256",
          "name": "_tokenId",
          "type": "uint256"
        },
        {
          "internalType": "uint256",
          "name": "_depositWei",
          "type": "uint256"
        },
        {
          "internalType": "uint256",
          "name": "_startTime",
          "type": "uint256"
        },
        {
          "internalType": "uint256",
          "name": "_bidEndTime",
          "type": "uint256"
        },
        {
          "internalType": "uint256",
          "name": "_startingBid",
          "type": "uint256"
        }
      ],
      "name": "emitAuctionStartedBidding",
      "outputs": [],
      "stateMutability": "nonpayable",
      "type": "function"
    },
    {
      "inputs": [
        {
          "internalType": "address",
          "name": "_auction",
          "type": "address"
        },
        {
          "internalType": "address",
          "name": "_seller",
          "type": "address"
        },
        {
          "internalType": "address",
          "name": "_nftAddress",
          "type": "address"
        },
        {
          "internalType": "uint256",
          "name": "_tokenId",
          "type": "uint256"
        },
        {
          "internalType": "address",
          "name": "_winner",
          "type": "address"
        },
        {
          "internalType": "uint256",
          "name": "_winningBid",
          "type": "uint256"
        },
        {
          "internalType": "uint256",
          "name": "_platformCharge",
          "type": "uint256"
        },
        {
          "internalType": "uint256",
          "name": "_startTime",
          "type": "uint256"
        },
        {
          "internalType": "uint256",
          "name": "_expiryTime",
          "type": "uint256"
        }
      ],
      "name": "emitAuctionVerifyingWinner",
      "outputs": [],
      "stateMutability": "nonpayable",
      "type": "function"
    },
    {
      "inputs": [
        {
          "internalType": "address",
          "name": "_platformOwner",
          "type": "address"
        },
        {
          "internalType": "address",
          "name": "_payer",
          "type": "address"
        },
        {
          "internalType": "address",
          "name": "_auction",
          "type": "address"
        },
        {
          "internalType": "enum Constants.PlatformEarnings",
          "name": "_earningType",
          "type": "uint8"
        },
        {
          "internalType": "uint256",
          "name": "_time",
          "type": "uint256"
        }
      ],
      "name": "emitPlatformEarnings",
      "outputs": [],
      "stateMutability": "nonpayable",
      "type": "function"
    },
    {
      "inputs": [
        {
          "internalType": "address",
          "name": "_auction",
          "type": "address"
        },
        {
          "internalType": "address",
          "name": "_nftAddress",
          "type": "address"
        },
        {
          "internalType": "uint256",
          "name": "_tokenId",
          "type": "uint256"
        },
        {
          "internalType": "address",
          "name": "_seller",
          "type": "address"
        },
        {
          "internalType": "uint256",
          "name": "_retrieveAmount",
          "type": "uint256"
        },
        {
          "internalType": "uint256",
          "name": "_retrievalTime",
          "type": "uint256"
        }
      ],
      "name": "emitSellerEarningsRetrieved",
      "outputs": [],
      "stateMutability": "nonpayable",
      "type": "function"
    },
    {
      "inputs": [
        {
          "internalType": "address",
          "name": "_auction",
          "type": "address"
        },
        {
          "internalType": "address",
          "name": "_nftAddress",
          "type": "address"
        },
        {
          "internalType": "uint256",
          "name": "_tokenId",
          "type": "uint256"
        },
        {
          "internalType": "address",
          "name": "_winner",
          "type": "address"
        },
        {
          "internalType": "uint256",
          "name": "_refundAmount",
          "type": "uint256"
        },
        {
          "internalType": "uint256",
          "name": "_retrievalTime",
          "type": "uint256"
        }
      ],
      "name": "emitWinnerPaymentRefunded",
      "outputs": [],
      "stateMutability": "nonpayable",
      "type": "function"
    }
  ],
  "transactionHash": "0xe210f2ae6724963d8f3a8d1893329fc7508ecfdbe69f14fcb9592680bf682bff",
  "args": [],
  "numDeployments": 2,
  "solcInputHash": "873df27978f0386f3c0ba3fc13f1d329",
  "bytecode": "0x608060405234801561001057600080fd5b506112f7806100206000396000f3fe608060405234801561001057600080fd5b50600436106100cf5760003560e01c80639ce3a7b21161008c578063ae69121c11610066578063ae69121c14610181578063d3b63be814610194578063e08ea11a146101a7578063ef415bb6146101ba57600080fd5b80639ce3a7b214610148578063a02cc9571461015b578063a780a0321461016e57600080fd5b80630eb941ff146100d45780632eca920f146100e95780632f7a085b146100fc57806379cb66b91461010f5780638dcf508d14610122578063917e705814610135575b600080fd5b6100e76100e23660046109d1565b6101cd565b005b6100e76100f7366004610ab0565b610272565b6100e761010a366004610b63565b610313565b6100e761011d366004610c19565b610399565b6100e7610130366004610cbc565b61041f565b6100e7610143366004610d5b565b6104b5565b6100e7610156366004610dcb565b61053b565b6100e7610169366004610dcb565b6105c6565b6100e761017c366004610e6d565b610659565b6100e761018f366004610dcb565b6106ea565b6100e76101a2366004610dcb565b61076c565b6100e76101b5366004610ee5565b6107ee565b6100e76101c8366004610dcb565b610843565b3360006101d9826108c5565b60048111156101ea576101ea610f3f565b146102105760405162461bcd60e51b815260040161020790610f9c565b60405180910390fd5b856001600160a01b0316878b6001600160a01b03167fb599fff20cd0cdacf6eba4e160e8d8009e20988c1eae26a9adbacd0825e57fe68c8c8a8a8a8a60405161025e96959493929190610fc1565b60405180910390a450505050505050505050565b33600061027e826108c5565b600481111561028f5761028f610f3f565b146102ac5760405162461bcd60e51b815260040161020790610f9c565b8160068111156102be576102be610f3f565b868a6001600160a01b03167fc5afeb842b1ee0a786f0181fd50d600ada6f7182ac63862b96f7f442770648b28b8b8a8a8a60405161030095949392919061101b565b60405180910390a4505050505050505050565b33600061031f826108c5565b600481111561033057610330610f3f565b1461034d5760405162461bcd60e51b815260040161020790610f9c565b85876001600160a01b03168a6001600160a01b03167f24eb4b3ed711873687e910758f75270c9463ed43b0ed071bdd590a4300bcd88e8b89898989604051610300959493929190611067565b3360006103a5826108c5565b60048111156103b6576103b6610f3f565b146103d35760405162461bcd60e51b815260040161020790610f9c565b846001600160a01b0316868a6001600160a01b03167f9508ec25b144da066199b5989b94395f140d3fa4b4b89d9d1fe759b3a56207818b8b8989896040516103009594939291906110a4565b33600061042b826108c5565b600481111561043c5761043c610f3f565b146104595760405162461bcd60e51b815260040161020790610f9c565b82856001600160a01b0316896001600160a01b03167fd9aab4ab40bdf963884f8195430dfa8cfb4f612db68e77014f08b1572104386d8a8a89886040516104a394939291906110e6565b60405180910390a45050505050505050565b3360006104c1826108c5565b60048111156104d2576104d2610f3f565b146104ef5760405162461bcd60e51b815260040161020790610f9c565b846001600160a01b0316868a6001600160a01b03167fff4bb47ee7dfdeaa91aa6bb72cb414f4a5417cb8b7856c50518377140a76f84f8b8b898989604051610300959493929190611124565b336000610547826108c5565b600481111561055857610558610f3f565b146105755760405162461bcd60e51b815260040161020790610f9c565b82876001600160a01b03167f6dea70ae06d45c8fa6812244450ca27a1739b5ff5959d5d78e175529596fdf4a888888876040516105b594939291906110e6565b60405180910390a350505050505050565b3360006105d2826108c5565b60048111156105e3576105e3610f3f565b146106005760405162461bcd60e51b815260040161020790610f9c565b84866001600160a01b0316886001600160a01b03167f9ae6f0a8ca0d7d683b3c09bd0ae5753f0e32122471cfd78314043b23098a6c248787876040516106489392919061113f565b60405180910390a450505050505050565b336000610665826108c5565b600481111561067657610676610f3f565b146106935760405162461bcd60e51b815260040161020790610f9c565b836001600160a01b0316866001600160a01b03167f3ec02074dff7cee356720b1f6e201d35ea87c45961d9d9e3cc4ff52147908bc28786866040516106da9392919061119a565b60405180910390a3505050505050565b3360006106f6826108c5565b600481111561070757610707610f3f565b146107245760405162461bcd60e51b815260040161020790610f9c565b84866001600160a01b0316886001600160a01b03167f61f5631971566b3768bafba61e9d2a9b41fcffa03bd2a2c2226c2187b9d4fbb48787876040516106489392919061113f565b336000610778826108c5565b600481111561078957610789610f3f565b146107a65760405162461bcd60e51b815260040161020790610f9c565b84866001600160a01b0316886001600160a01b03167f2babdf2515139b15f37dbc4b16e25fe27d46327703abc50cd73c7acb5369e3cc8787876040516106489392919061113f565b81836001600160a01b0316866001600160a01b03167f34d6b4d35fa401c6a7d3efae588ddd17d510ceb459bf4af495f1498706fd44c187856040516108349291906111b5565b60405180910390a45050505050565b33600061084f826108c5565b600481111561086057610860610f3f565b1461087d5760405162461bcd60e51b815260040161020790610f9c565b82846001600160a01b0316886001600160a01b03167f106d24c70bbf2f6dbb6d5fa931e9951c1809fa791d8239136c544c36ecb6b8e88989876040516106489392919061113f565b60408051600481526024810182526020810180516001600160e01b0316630628d14f60e51b1790529051600091829182916001600160a01b0386169161090b9190611229565b6000604051808303816000865af19150503d8060008114610948576040519150601f19603f3d011682016040523d82523d6000602084013e61094d565b606091505b50915091508161096f5760405162461bcd60e51b815260040161020790611278565b8080602001905181019061098391906112a0565b949350505050565b60006001600160a01b0382165b92915050565b6109a78161098b565b81146109b257600080fd5b50565b80356109988161099e565b806109a7565b8035610998816109c0565b60008060008060008060008060006101208a8c0312156109f3576109f3600080fd5b60006109ff8c8c6109b5565b9950506020610a108c828d016109b5565b9850506040610a218c828d016109b5565b9750506060610a328c828d016109c6565b9650506080610a438c828d016109b5565b95505060a0610a548c828d016109c6565b94505060c0610a658c828d016109c6565b93505060e0610a768c828d016109c6565b925050610100610a888c828d016109c6565b9150509295985092959850929598565b600781106109b257600080fd5b803561099881610a98565b600080600080600080600080610100898b031215610ad057610ad0600080fd5b6000610adc8b8b6109b5565b9850506020610aed8b828c016109b5565b9750506040610afe8b828c016109b5565b9650506060610b0f8b828c016109c6565b9550506080610b208b828c016109c6565b94505060a0610b318b828c016109b5565b93505060c0610b428b828c016109c6565b92505060e0610b538b828c01610aa5565b9150509295985092959890939650565b600080600080600080600080610100898b031215610b8357610b83600080fd5b6000610b8f8b8b6109b5565b9850506020610ba08b828c016109b5565b9750506040610bb18b828c016109b5565b9650506060610bc28b828c016109c6565b9550506080610bd38b828c016109c6565b94505060a0610be48b828c016109c6565b93505060c0610bf58b828c016109c6565b92505060e0610b538b828c016109c6565b8015156109a7565b803561099881610c06565b600080600080600080600080610100898b031215610c3957610c39600080fd5b6000610c458b8b6109b5565b9850506020610c568b828c016109b5565b9750506040610c678b828c016109b5565b9650506060610c788b828c016109c6565b9550506080610c898b828c016109b5565b94505060a0610c9a8b828c016109c6565b93505060c0610cab8b828c016109c6565b92505060e0610b538b828c01610c0e565b600080600080600080600060e0888a031215610cda57610cda600080fd5b6000610ce68a8a6109b5565b9750506020610cf78a828b016109b5565b9650506040610d088a828b016109c6565b9550506060610d198a828b016109b5565b9450506080610d2a8a828b016109b5565b93505060a0610d3b8a828b016109c6565b92505060c0610d4c8a828b016109c6565b91505092959891949750929550565b600080600080600080600080610100898b031215610d7b57610d7b600080fd5b6000610d878b8b6109b5565b9850506020610d988b828c016109b5565b9750506040610da98b828c016109b5565b9650506060610dba8b828c016109c6565b9550506080610bd38b828c016109b5565b60008060008060008060c08789031215610de757610de7600080fd5b6000610df389896109b5565b9650506020610e0489828a016109b5565b9550506040610e1589828a016109c6565b9450506060610e2689828a016109b5565b9350506080610e3789828a016109c6565b92505060a0610e4889828a016109c6565b9150509295509295509295565b600281106109b257600080fd5b803561099881610e55565b600080600080600060a08688031215610e8857610e88600080fd5b6000610e9488886109b5565b9550506020610ea5888289016109b5565b9450506040610eb6888289016109b5565b9350506060610ec788828901610e62565b9250506080610ed8888289016109c6565b9150509295509295909350565b600080600080600060a08688031215610f0057610f00600080fd5b6000610f0c88886109b5565b9550506020610f1d888289016109b5565b9450506040610f2e888289016109b5565b9350506060610ec7888289016109c6565b634e487b7160e01b600052602160045260246000fd5b602781526000602082017f6576656e74456d69742063616e206f6e6c792062652063616c6c65642062792081526620bab1ba34b7b760c91b602082015291505b5060400190565b6020808252810161099881610f55565b610fb58161098b565b82525050565b80610fb5565b60c08101610fcf8289610fac565b610fdc6020830188610fac565b610fe96040830187610fbb565b610ff66060830186610fbb565b6110036080830185610fbb565b61101060a0830184610fbb565b979650505050505050565b60a081016110298288610fac565b6110366020830187610fac565b6110436040830186610fbb565b6110506060830185610fac565b61105d6080830184610fbb565b9695505050505050565b60a081016110758288610fac565b6110826020830187610fbb565b61108f6040830186610fbb565b6110506060830185610fbb565b801515610fb5565b60a081016110b28288610fac565b6110bf6020830187610fac565b6110cc6040830186610fbb565b6110d96060830185610fbb565b61105d608083018461109c565b608081016110f48287610fac565b6111016020830186610fbb565b61110e6040830185610fac565b61111b6060830184610fbb565b95945050505050565b60a081016111328288610fac565b6110826020830187610fac565b6060810161114d8286610fac565b61115a6020830185610fbb565b6109836040830184610fbb565b600281106109b2576109b2610f3f565b8061118181611167565b919050565b600061099882611177565b610fb581611186565b606081016111a88286610fac565b61115a6020830185611191565b604081016111c38285610fac565b6111d06020830184610fbb565b9392505050565b60005b838110156111f25781810151838201526020016111da565b83811115611201576000848401525b50505050565b6000611211825190565b61121f8185602086016111d7565b9290920192915050565b60006111d08284611207565b602681526000602082017f556e61626c6520746f2064657465726d696e652074686520636f6e747261637481526520747970652160d01b60208201529150610f95565b6020808252810161099881611235565b600581106109b257600080fd5b805161099881611288565b6000602082840312156112b5576112b5600080fd5b6000610983848461129556fea264697066735822122088f63d9cb133fcbe483822e104f2f12b11d88efc622f185be02fd35592d4a28464736f6c63430008080033",
  "devdoc": {
    "kind": "dev",
    "methods": {},
    "version": 1
  },
  "userdoc": {
    "kind": "user",
    "methods": {},
    "version": 1
  },
  "storageLayout": {
    "storage": [],
    "types": null
  }
}