{
  "address": "0x002b34520317f55B1c7Dbe0ceFA519f9d7dDF90a",
  "abi": [
    {
      "anonymous": false,
      "inputs": [
        {
          "indexed": true,
          "internalType": "address",
          "name": "auction",
          "type": "address"
        },
        {
          "indexed": false,
          "internalType": "address",
          "name": "seller",
          "type": "address"
        },
        {
          "indexed": false,
          "internalType": "address",
          "name": "nftAddress",
          "type": "address"
        },
        {
          "indexed": true,
          "internalType": "uint256",
          "name": "tokenId",
          "type": "uint256"
        },
        {
          "indexed": true,
          "internalType": "address",
          "name": "winner",
          "type": "address"
        },
        {
          "indexed": false,
          "internalType": "uint256",
          "name": "winningBid",
          "type": "uint256"
        },
        {
          "indexed": false,
          "internalType": "uint256",
          "name": "time",
          "type": "uint256"
        },
        {
          "indexed": false,
          "internalType": "bool",
          "name": "pass",
          "type": "bool"
        }
      ],
      "name": "AuctionAuditResult",
      "type": "event"
    },
    {
      "anonymous": false,
      "inputs": [
        {
          "indexed": true,
          "internalType": "address",
          "name": "auction",
          "type": "address"
        },
        {
          "indexed": true,
          "internalType": "address",
          "name": "nftAddress",
          "type": "address"
        },
        {
          "indexed": true,
          "internalType": "uint256",
          "name": "tokenId",
          "type": "uint256"
        },
        {
          "indexed": false,
          "internalType": "address",
          "name": "bidder",
          "type": "address"
        },
        {
          "indexed": false,
          "internalType": "uint256",
          "name": "bidAmount",
          "type": "uint256"
        },
        {
          "indexed": false,
          "internalType": "uint256",
          "name": "bidTime",
          "type": "uint256"
        }
      ],
      "name": "AuctionBidPlaced",
      "type": "event"
    },
    {
      "anonymous": false,
      "inputs": [
        {
          "indexed": true,
          "internalType": "address",
          "name": "auction",
          "type": "address"
        },
        {
          "indexed": false,
          "internalType": "address",
          "name": "seller",
          "type": "address"
        },
        {
          "indexed": false,
          "internalType": "address",
          "name": "nftAddress",
          "type": "address"
        },
        {
          "indexed": true,
          "internalType": "uint256",
          "name": "tokenId",
          "type": "uint256"
        },
        {
          "indexed": false,
          "internalType": "uint256",
          "name": "closeTime",
          "type": "uint256"
        },
        {
          "indexed": false,
          "internalType": "address",
          "name": "winner",
          "type": "address"
        },
        {
          "indexed": false,
          "internalType": "uint256",
          "name": "winningBid",
          "type": "uint256"
        },
        {
          "indexed": true,
          "internalType": "enum Constants.AuctionEndState",
          "name": "endState",
          "type": "uint8"
        }
      ],
      "name": "AuctionClosed",
      "type": "event"
    },
    {
      "anonymous": false,
      "inputs": [
        {
          "indexed": true,
          "internalType": "address",
          "name": "auction",
          "type": "address"
        },
        {
          "indexed": true,
          "internalType": "address",
          "name": "nftAddress",
          "type": "address"
        },
        {
          "indexed": true,
          "internalType": "uint256",
          "name": "tokenId",
          "type": "uint256"
        },
        {
          "indexed": false,
          "internalType": "address",
          "name": "bidder",
          "type": "address"
        },
        {
          "indexed": false,
          "internalType": "uint256",
          "name": "depositAmount",
          "type": "uint256"
        },
        {
          "indexed": false,
          "internalType": "uint256",
          "name": "depositTime",
          "type": "uint256"
        }
      ],
      "name": "AuctionDepositPlaced",
      "type": "event"
    },
    {
      "anonymous": false,
      "inputs": [
        {
          "indexed": true,
          "internalType": "address",
          "name": "auction",
          "type": "address"
        },
        {
          "indexed": true,
          "internalType": "address",
          "name": "nftAddress",
          "type": "address"
        },
        {
          "indexed": true,
          "internalType": "uint256",
          "name": "tokenId",
          "type": "uint256"
        },
        {
          "indexed": false,
          "internalType": "address",
          "name": "bidder",
          "type": "address"
        },
        {
          "indexed": false,
          "internalType": "uint256",
          "name": "retrieveAmount",
          "type": "uint256"
        },
        {
          "indexed": false,
          "internalType": "uint256",
          "name": "retrievalTime",
          "type": "uint256"
        }
      ],
      "name": "AuctionDepositRetrieved",
      "type": "event"
    },
    {
      "anonymous": false,
      "inputs": [
        {
          "indexed": true,
          "internalType": "address",
          "name": "auction",
          "type": "address"
        },
        {
          "indexed": false,
          "internalType": "address",
          "name": "nftAddress",
          "type": "address"
        },
        {
          "indexed": false,
          "internalType": "uint256",
          "name": "tokenId",
          "type": "uint256"
        },
        {
          "indexed": true,
          "internalType": "address",
          "name": "winner",
          "type": "address"
        },
        {
          "indexed": false,
          "internalType": "address",
          "name": "seller",
          "type": "address"
        },
        {
          "indexed": true,
          "internalType": "uint256",
          "name": "paidAmount",
          "type": "uint256"
        },
        {
          "indexed": false,
          "internalType": "uint256",
          "name": "paidTime",
          "type": "uint256"
        }
      ],
      "name": "AuctionFullSettlementPaid",
      "type": "event"
    },
    {
      "anonymous": false,
      "inputs": [
        {
          "indexed": true,
          "internalType": "address",
          "name": "auction",
          "type": "address"
        },
        {
          "indexed": false,
          "internalType": "address",
          "name": "seller",
          "type": "address"
        },
        {
          "indexed": false,
          "internalType": "address",
          "name": "nftAddress",
          "type": "address"
        },
        {
          "indexed": true,
          "internalType": "uint256",
          "name": "tokenId",
          "type": "uint256"
        },
        {
          "indexed": true,
          "internalType": "address",
          "name": "winner",
          "type": "address"
        },
        {
          "indexed": false,
          "internalType": "uint256",
          "name": "winningBid",
          "type": "uint256"
        },
        {
          "indexed": false,
          "internalType": "uint256",
          "name": "startTime",
          "type": "uint256"
        },
        {
          "indexed": false,
          "internalType": "uint256",
          "name": "endTime",
          "type": "uint256"
        }
      ],
      "name": "AuctionPendingPayment",
      "type": "event"
    },
    {
      "anonymous": false,
      "inputs": [
        {
          "indexed": true,
          "internalType": "address",
          "name": "auction",
          "type": "address"
        },
        {
          "indexed": false,
          "internalType": "address",
          "name": "seller",
          "type": "address"
        },
        {
          "indexed": true,
          "internalType": "address",
          "name": "nftAddress",
          "type": "address"
        },
        {
          "indexed": true,
          "internalType": "uint256",
          "name": "tokenId",
          "type": "uint256"
        },
        {
          "indexed": false,
          "internalType": "uint256",
          "name": "registerTime",
          "type": "uint256"
        }
      ],
      "name": "AuctionRegistered",
      "type": "event"
    },
    {
      "anonymous": false,
      "inputs": [
        {
          "indexed": true,
          "internalType": "address",
          "name": "auction",
          "type": "address"
        },
        {
          "indexed": false,
          "internalType": "address",
          "name": "seller",
          "type": "address"
        },
        {
          "indexed": true,
          "internalType": "address",
          "name": "nftAddress",
          "type": "address"
        },
        {
          "indexed": true,
          "internalType": "uint256",
          "name": "tokenId",
          "type": "uint256"
        },
        {
          "indexed": false,
          "internalType": "uint256",
          "name": "depositWei",
          "type": "uint256"
        },
        {
          "indexed": false,
          "internalType": "uint256",
          "name": "bidStartTime",
          "type": "uint256"
        },
        {
          "indexed": false,
          "internalType": "uint256",
          "name": "bidEndTime",
          "type": "uint256"
        },
        {
          "indexed": false,
          "internalType": "uint256",
          "name": "startingBid",
          "type": "uint256"
        }
      ],
      "name": "AuctionStartedBidding",
      "type": "event"
    },
    {
      "anonymous": false,
      "inputs": [
        {
          "indexed": true,
          "internalType": "address",
          "name": "auction",
          "type": "address"
        },
        {
          "indexed": false,
          "internalType": "address",
          "name": "seller",
          "type": "address"
        },
        {
          "indexed": false,
          "internalType": "address",
          "name": "nftAddress",
          "type": "address"
        },
        {
          "indexed": true,
          "internalType": "uint256",
          "name": "tokenId",
          "type": "uint256"
        },
        {
          "indexed": true,
          "internalType": "address",
          "name": "winner",
          "type": "address"
        },
        {
          "indexed": false,
          "internalType": "uint256",
          "name": "winningBid",
          "type": "uint256"
        },
        {
          "indexed": false,
          "internalType": "uint256",
          "name": "platformCharge",
          "type": "uint256"
        },
        {
          "indexed": false,
          "internalType": "uint256",
          "name": "startTime",
          "type": "uint256"
        },
        {
          "indexed": false,
          "internalType": "uint256",
          "name": "endTime",
          "type": "uint256"
        }
      ],
      "name": "AuctionVerifyingWinner",
      "type": "event"
    },
    {
      "anonymous": false,
      "inputs": [
        {
          "indexed": true,
          "internalType": "address",
          "name": "auction",
          "type": "address"
        },
        {
          "indexed": true,
          "internalType": "address",
          "name": "nftAddress",
          "type": "address"
        },
        {
          "indexed": true,
          "internalType": "uint256",
          "name": "tokenId",
          "type": "uint256"
        },
        {
          "indexed": false,
          "internalType": "address",
          "name": "from",
          "type": "address"
        },
        {
          "indexed": false,
          "internalType": "address",
          "name": "to",
          "type": "address"
        }
      ],
      "name": "NftTransferred",
      "type": "event"
    },
    {
      "anonymous": false,
      "inputs": [
        {
          "indexed": true,
          "internalType": "address",
          "name": "platformOwner",
          "type": "address"
        },
        {
          "indexed": false,
          "internalType": "address",
          "name": "payer",
          "type": "address"
        },
        {
          "indexed": true,
          "internalType": "address",
          "name": "auction",
          "type": "address"
        },
        {
          "indexed": false,
          "internalType": "enum Constants.PlatformEarnings",
          "name": "earningType",
          "type": "uint8"
        },
        {
          "indexed": false,
          "internalType": "uint256",
          "name": "time",
          "type": "uint256"
        }
      ],
      "name": "PlatformEarnings",
      "type": "event"
    },
    {
      "anonymous": false,
      "inputs": [
        {
          "indexed": true,
          "internalType": "address",
          "name": "auction",
          "type": "address"
        },
        {
          "indexed": false,
          "internalType": "address",
          "name": "nftAddress",
          "type": "address"
        },
        {
          "indexed": false,
          "internalType": "uint256",
          "name": "tokenId",
          "type": "uint256"
        },
        {
          "indexed": true,
          "internalType": "address",
          "name": "seller",
          "type": "address"
        },
        {
          "indexed": true,
          "internalType": "uint256",
          "name": "retrieveAmount",
          "type": "uint256"
        },
        {
          "indexed": false,
          "internalType": "uint256",
          "name": "retrievalTime",
          "type": "uint256"
        }
      ],
      "name": "SellerEarningsRetrieved",
      "type": "event"
    },
    {
      "anonymous": false,
      "inputs": [
        {
          "indexed": true,
          "internalType": "address",
          "name": "auction",
          "type": "address"
        },
        {
          "indexed": false,
          "internalType": "address",
          "name": "nftAddress",
          "type": "address"
        },
        {
          "indexed": false,
          "internalType": "uint256",
          "name": "tokenId",
          "type": "uint256"
        },
        {
          "indexed": false,
          "internalType": "address",
          "name": "winner",
          "type": "address"
        },
        {
          "indexed": true,
          "internalType": "uint256",
          "name": "refundAmount",
          "type": "uint256"
        },
        {
          "indexed": false,
          "internalType": "uint256",
          "name": "retrievalTime",
          "type": "uint256"
        }
      ],
      "name": "WinnerPaymentRefunded",
      "type": "event"
    },
    {
      "inputs": [
        {
          "internalType": "address",
          "name": "_auction",
          "type": "address"
        },
        {
          "internalType": "address",
          "name": "_seller",
          "type": "address"
        },
        {
          "internalType": "address",
          "name": "_nftAddress",
          "type": "address"
        },
        {
          "internalType": "uint256",
          "name": "_tokenId",
          "type": "uint256"
        },
        {
          "internalType": "address",
          "name": "_winner",
          "type": "address"
        },
        {
          "internalType": "uint256",
          "name": "_winningBid",
          "type": "uint256"
        },
        {
          "internalType": "uint256",
          "name": "_time",
          "type": "uint256"
        },
        {
          "internalType": "bool",
          "name": "_pass",
          "type": "bool"
        }
      ],
      "name": "emitAuctionAuditResult",
      "outputs": [],
      "stateMutability": "nonpayable",
      "type": "function"
    },
    {
      "inputs": [
        {
          "internalType": "address",
          "name": "_auction",
          "type": "address"
        },
        {
          "internalType": "address",
          "name": "_nftAddress",
          "type": "address"
        },
        {
          "internalType": "uint256",
          "name": "_tokenId",
          "type": "uint256"
        },
        {
          "internalType": "address",
          "name": "_bidder",
          "type": "address"
        },
        {
          "internalType": "uint256",
          "name": "_bidAmount",
          "type": "uint256"
        },
        {
          "internalType": "uint256",
          "name": "_bidTime",
          "type": "uint256"
        }
      ],
      "name": "emitAuctionBidPlaced",
      "outputs": [],
      "stateMutability": "nonpayable",
      "type": "function"
    },
    {
      "inputs": [
        {
          "internalType": "address",
          "name": "_auction",
          "type": "address"
        },
        {
          "internalType": "address",
          "name": "_seller",
          "type": "address"
        },
        {
          "internalType": "address",
          "name": "_nftAddress",
          "type": "address"
        },
        {
          "internalType": "uint256",
          "name": "_tokenId",
          "type": "uint256"
        },
        {
          "internalType": "uint256",
          "name": "_closeTime",
          "type": "uint256"
        },
        {
          "internalType": "address",
          "name": "_winner",
          "type": "address"
        },
        {
          "internalType": "uint256",
          "name": "_winningBid",
          "type": "uint256"
        },
        {
          "internalType": "enum Constants.AuctionEndState",
          "name": "_endState",
          "type": "uint8"
        }
      ],
      "name": "emitAuctionClosed",
      "outputs": [],
      "stateMutability": "nonpayable",
      "type": "function"
    },
    {
      "inputs": [
        {
          "internalType": "address",
          "name": "_auction",
          "type": "address"
        },
        {
          "internalType": "address",
          "name": "_nftAddress",
          "type": "address"
        },
        {
          "internalType": "uint256",
          "name": "_tokenId",
          "type": "uint256"
        },
        {
          "internalType": "address",
          "name": "_bidder",
          "type": "address"
        },
        {
          "internalType": "uint256",
          "name": "_depositAmount",
          "type": "uint256"
        },
        {
          "internalType": "uint256",
          "name": "_depositTime",
          "type": "uint256"
        }
      ],
      "name": "emitAuctionDepositPlaced",
      "outputs": [],
      "stateMutability": "nonpayable",
      "type": "function"
    },
    {
      "inputs": [
        {
          "internalType": "address",
          "name": "_auction",
          "type": "address"
        },
        {
          "internalType": "address",
          "name": "_nftAddress",
          "type": "address"
        },
        {
          "internalType": "uint256",
          "name": "_tokenId",
          "type": "uint256"
        },
        {
          "internalType": "address",
          "name": "_bidder",
          "type": "address"
        },
        {
          "internalType": "uint256",
          "name": "_retrieveAmount",
          "type": "uint256"
        },
        {
          "internalType": "uint256",
          "name": "_retrievalTime",
          "type": "uint256"
        }
      ],
      "name": "emitAuctionDepositRetrieved",
      "outputs": [],
      "stateMutability": "nonpayable",
      "type": "function"
    },
    {
      "inputs": [
        {
          "internalType": "address",
          "name": "_auction",
          "type": "address"
        },
        {
          "internalType": "address",
          "name": "_nftAddress",
          "type": "address"
        },
        {
          "internalType": "uint256",
          "name": "_tokenId",
          "type": "uint256"
        },
        {
          "internalType": "address",
          "name": "_winner",
          "type": "address"
        },
        {
          "internalType": "address",
          "name": "_seller",
          "type": "address"
        },
        {
          "internalType": "uint256",
          "name": "_paidAmount",
          "type": "uint256"
        },
        {
          "internalType": "uint256",
          "name": "_paidTime",
          "type": "uint256"
        }
      ],
      "name": "emitAuctionFullSettlementPaid",
      "outputs": [],
      "stateMutability": "nonpayable",
      "type": "function"
    },
    {
      "inputs": [
        {
          "internalType": "address",
          "name": "_auction",
          "type": "address"
        },
        {
          "internalType": "address",
          "name": "_seller",
          "type": "address"
        },
        {
          "internalType": "address",
          "name": "_nftAddress",
          "type": "address"
        },
        {
          "internalType": "uint256",
          "name": "_tokenId",
          "type": "uint256"
        },
        {
          "internalType": "address",
          "name": "_winner",
          "type": "address"
        },
        {
          "internalType": "uint256",
          "name": "_winningBid",
          "type": "uint256"
        },
        {
          "internalType": "uint256",
          "name": "_startTime",
          "type": "uint256"
        },
        {
          "internalType": "uint256",
          "name": "_expiryTime",
          "type": "uint256"
        }
      ],
      "name": "emitAuctionPendingPayment",
      "outputs": [],
      "stateMutability": "nonpayable",
      "type": "function"
    },
    {
      "inputs": [
        {
          "internalType": "address",
          "name": "_auction",
          "type": "address"
        },
        {
          "internalType": "address",
          "name": "_seller",
          "type": "address"
        },
        {
          "internalType": "address",
          "name": "_nftAddress",
          "type": "address"
        },
        {
          "internalType": "uint256",
          "name": "_tokenId",
          "type": "uint256"
        },
        {
          "internalType": "uint256",
          "name": "_registerTime",
          "type": "uint256"
        }
      ],
      "name": "emitAuctionRegistered",
      "outputs": [],
      "stateMutability": "nonpayable",
      "type": "function"
    },
    {
      "inputs": [
        {
          "internalType": "address",
          "name": "_auction",
          "type": "address"
        },
        {
          "internalType": "address",
          "name": "_seller",
          "type": "address"
        },
        {
          "internalType": "address",
          "name": "_nftAddress",
          "type": "address"
        },
        {
          "internalType": "uint256",
          "name": "_tokenId",
          "type": "uint256"
        },
        {
          "internalType": "uint256",
          "name": "_depositWei",
          "type": "uint256"
        },
        {
          "internalType": "uint256",
          "name": "_startTime",
          "type": "uint256"
        },
        {
          "internalType": "uint256",
          "name": "_bidEndTime",
          "type": "uint256"
        },
        {
          "internalType": "uint256",
          "name": "_startingBid",
          "type": "uint256"
        }
      ],
      "name": "emitAuctionStartedBidding",
      "outputs": [],
      "stateMutability": "nonpayable",
      "type": "function"
    },
    {
      "inputs": [
        {
          "internalType": "address",
          "name": "_auction",
          "type": "address"
        },
        {
          "internalType": "address",
          "name": "_seller",
          "type": "address"
        },
        {
          "internalType": "address",
          "name": "_nftAddress",
          "type": "address"
        },
        {
          "internalType": "uint256",
          "name": "_tokenId",
          "type": "uint256"
        },
        {
          "internalType": "address",
          "name": "_winner",
          "type": "address"
        },
        {
          "internalType": "uint256",
          "name": "_winningBid",
          "type": "uint256"
        },
        {
          "internalType": "uint256",
          "name": "_platformCharge",
          "type": "uint256"
        },
        {
          "internalType": "uint256",
          "name": "_startTime",
          "type": "uint256"
        },
        {
          "internalType": "uint256",
          "name": "_expiryTime",
          "type": "uint256"
        }
      ],
      "name": "emitAuctionVerifyingWinner",
      "outputs": [],
      "stateMutability": "nonpayable",
      "type": "function"
    },
    {
      "inputs": [
        {
          "internalType": "address",
          "name": "_auction",
          "type": "address"
        },
        {
          "internalType": "address",
          "name": "_nftAddress",
          "type": "address"
        },
        {
          "internalType": "uint256",
          "name": "_tokenId",
          "type": "uint256"
        },
        {
          "internalType": "address",
          "name": "_from",
          "type": "address"
        },
        {
          "internalType": "address",
          "name": "_to",
          "type": "address"
        }
      ],
      "name": "emitNftTransferred",
      "outputs": [],
      "stateMutability": "nonpayable",
      "type": "function"
    },
    {
      "inputs": [
        {
          "internalType": "address",
          "name": "_platformOwner",
          "type": "address"
        },
        {
          "internalType": "address",
          "name": "_payer",
          "type": "address"
        },
        {
          "internalType": "address",
          "name": "_auction",
          "type": "address"
        },
        {
          "internalType": "enum Constants.PlatformEarnings",
          "name": "_earningType",
          "type": "uint8"
        },
        {
          "internalType": "uint256",
          "name": "_time",
          "type": "uint256"
        }
      ],
      "name": "emitPlatformEarnings",
      "outputs": [],
      "stateMutability": "nonpayable",
      "type": "function"
    },
    {
      "inputs": [
        {
          "internalType": "address",
          "name": "_auction",
          "type": "address"
        },
        {
          "internalType": "address",
          "name": "_nftAddress",
          "type": "address"
        },
        {
          "internalType": "uint256",
          "name": "_tokenId",
          "type": "uint256"
        },
        {
          "internalType": "address",
          "name": "_seller",
          "type": "address"
        },
        {
          "internalType": "uint256",
          "name": "_retrieveAmount",
          "type": "uint256"
        },
        {
          "internalType": "uint256",
          "name": "_retrievalTime",
          "type": "uint256"
        }
      ],
      "name": "emitSellerEarningsRetrieved",
      "outputs": [],
      "stateMutability": "nonpayable",
      "type": "function"
    },
    {
      "inputs": [
        {
          "internalType": "address",
          "name": "_auction",
          "type": "address"
        },
        {
          "internalType": "address",
          "name": "_nftAddress",
          "type": "address"
        },
        {
          "internalType": "uint256",
          "name": "_tokenId",
          "type": "uint256"
        },
        {
          "internalType": "address",
          "name": "_winner",
          "type": "address"
        },
        {
          "internalType": "uint256",
          "name": "_refundAmount",
          "type": "uint256"
        },
        {
          "internalType": "uint256",
          "name": "_retrievalTime",
          "type": "uint256"
        }
      ],
      "name": "emitWinnerPaymentRefunded",
      "outputs": [],
      "stateMutability": "nonpayable",
      "type": "function"
    }
  ],
  "transactionHash": "0x82526c21458782dd59f8c44f8046fcabd8ab5f888923ee7273ab0c6ed4c04628",
  "args": [],
  "numDeployments": 3,
  "solcInputHash": "420e6fc7771b913bd66719208a9a085e",
  "bytecode": "0x608060405234801561001057600080fd5b5061143b806100206000396000f3fe608060405234801561001057600080fd5b50600436106100ea5760003560e01c8063a02cc9571161008c578063c350d3a211610066578063c350d3a2146101af578063d3b63be8146101c2578063e08ea11a146101d5578063ef415bb6146101e857600080fd5b8063a02cc95714610176578063a780a03214610189578063ae69121c1461019c57600080fd5b806379cb66b9116100c857806379cb66b91461012a5780638dcf508d1461013d578063917e7058146101505780639ce3a7b21461016357600080fd5b80630eb941ff146100ef5780632eca920f146101045780632f7a085b14610117575b600080fd5b6101026100fd366004610a8f565b6101fb565b005b610102610112366004610b6e565b6102a0565b610102610125366004610c21565b610341565b610102610138366004610cd7565b6103c7565b61010261014b366004610d7a565b61044d565b61010261015e366004610e19565b6104e3565b610102610171366004610e89565b610569565b610102610184366004610e89565b6105f4565b610102610197366004610f2b565b610687565b6101026101aa366004610e89565b610718565b6101026101bd366004610fa3565b61079a565b6101026101d0366004610e89565b61082a565b6101026101e336600461100e565b6108ac565b6101026101f6366004610e89565b610901565b33600061020782610983565b600481111561021857610218611068565b1461023e5760405162461bcd60e51b8152600401610235906110c5565b60405180910390fd5b856001600160a01b0316878b6001600160a01b03167fb599fff20cd0cdacf6eba4e160e8d8009e20988c1eae26a9adbacd0825e57fe68c8c8a8a8a8a60405161028c969594939291906110ea565b60405180910390a450505050505050505050565b3360006102ac82610983565b60048111156102bd576102bd611068565b146102da5760405162461bcd60e51b8152600401610235906110c5565b8160068111156102ec576102ec611068565b868a6001600160a01b03167fc5afeb842b1ee0a786f0181fd50d600ada6f7182ac63862b96f7f442770648b28b8b8a8a8a60405161032e959493929190611144565b60405180910390a4505050505050505050565b33600061034d82610983565b600481111561035e5761035e611068565b1461037b5760405162461bcd60e51b8152600401610235906110c5565b85876001600160a01b03168a6001600160a01b03167f24eb4b3ed711873687e910758f75270c9463ed43b0ed071bdd590a4300bcd88e8b8989898960405161032e959493929190611190565b3360006103d382610983565b60048111156103e4576103e4611068565b146104015760405162461bcd60e51b8152600401610235906110c5565b846001600160a01b0316868a6001600160a01b03167f9508ec25b144da066199b5989b94395f140d3fa4b4b89d9d1fe759b3a56207818b8b89898960405161032e9594939291906111cd565b33600061045982610983565b600481111561046a5761046a611068565b146104875760405162461bcd60e51b8152600401610235906110c5565b82856001600160a01b0316896001600160a01b03167fd9aab4ab40bdf963884f8195430dfa8cfb4f612db68e77014f08b1572104386d8a8a89886040516104d1949392919061120f565b60405180910390a45050505050505050565b3360006104ef82610983565b600481111561050057610500611068565b1461051d5760405162461bcd60e51b8152600401610235906110c5565b846001600160a01b0316868a6001600160a01b03167fff4bb47ee7dfdeaa91aa6bb72cb414f4a5417cb8b7856c50518377140a76f84f8b8b89898960405161032e95949392919061124d565b33600061057582610983565b600481111561058657610586611068565b146105a35760405162461bcd60e51b8152600401610235906110c5565b82876001600160a01b03167f3a9c5bc83e1db6f3e83108121fd2f39d4f4833e4db23b894e1ba7179f60007d8888888876040516105e3949392919061120f565b60405180910390a350505050505050565b33600061060082610983565b600481111561061157610611611068565b1461062e5760405162461bcd60e51b8152600401610235906110c5565b84866001600160a01b0316886001600160a01b03167f9ae6f0a8ca0d7d683b3c09bd0ae5753f0e32122471cfd78314043b23098a6c2487878760405161067693929190611268565b60405180910390a450505050505050565b33600061069382610983565b60048111156106a4576106a4611068565b146106c15760405162461bcd60e51b8152600401610235906110c5565b836001600160a01b0316866001600160a01b03167f3ec02074dff7cee356720b1f6e201d35ea87c45961d9d9e3cc4ff52147908bc2878686604051610708939291906112c3565b60405180910390a3505050505050565b33600061072482610983565b600481111561073557610735611068565b146107525760405162461bcd60e51b8152600401610235906110c5565b84866001600160a01b0316886001600160a01b03167f61f5631971566b3768bafba61e9d2a9b41fcffa03bd2a2c2226c2187b9d4fbb487878760405161067693929190611268565b3360006107a682610983565b60048111156107b7576107b7611068565b146107d45760405162461bcd60e51b8152600401610235906110c5565b83856001600160a01b0316876001600160a01b03167f73a45ef237772c6839ccdd270f32c67db5a2453781bf8a23aeae3782b4a031ee868660405161081a9291906112de565b60405180910390a4505050505050565b33600061083682610983565b600481111561084757610847611068565b146108645760405162461bcd60e51b8152600401610235906110c5565b84866001600160a01b0316886001600160a01b03167f2babdf2515139b15f37dbc4b16e25fe27d46327703abc50cd73c7acb5369e3cc87878760405161067693929190611268565b81836001600160a01b0316866001600160a01b03167f34d6b4d35fa401c6a7d3efae588ddd17d510ceb459bf4af495f1498706fd44c187856040516108f2929190611300565b60405180910390a45050505050565b33600061090d82610983565b600481111561091e5761091e611068565b1461093b5760405162461bcd60e51b8152600401610235906110c5565b82846001600160a01b0316886001600160a01b03167f106d24c70bbf2f6dbb6d5fa931e9951c1809fa791d8239136c544c36ecb6b8e889898760405161067693929190611268565b60408051600481526024810182526020810180516001600160e01b0316630628d14f60e51b1790529051600091829182916001600160a01b038616916109c9919061136d565b6000604051808303816000865af19150503d8060008114610a06576040519150601f19603f3d011682016040523d82523d6000602084013e610a0b565b606091505b509150915081610a2d5760405162461bcd60e51b8152600401610235906113bc565b80806020019051810190610a4191906113e4565b949350505050565b60006001600160a01b0382165b92915050565b610a6581610a49565b8114610a7057600080fd5b50565b8035610a5681610a5c565b80610a65565b8035610a5681610a7e565b60008060008060008060008060006101208a8c031215610ab157610ab1600080fd5b6000610abd8c8c610a73565b9950506020610ace8c828d01610a73565b9850506040610adf8c828d01610a73565b9750506060610af08c828d01610a84565b9650506080610b018c828d01610a73565b95505060a0610b128c828d01610a84565b94505060c0610b238c828d01610a84565b93505060e0610b348c828d01610a84565b925050610100610b468c828d01610a84565b9150509295985092959850929598565b60078110610a7057600080fd5b8035610a5681610b56565b600080600080600080600080610100898b031215610b8e57610b8e600080fd5b6000610b9a8b8b610a73565b9850506020610bab8b828c01610a73565b9750506040610bbc8b828c01610a73565b9650506060610bcd8b828c01610a84565b9550506080610bde8b828c01610a84565b94505060a0610bef8b828c01610a73565b93505060c0610c008b828c01610a84565b92505060e0610c118b828c01610b63565b9150509295985092959890939650565b600080600080600080600080610100898b031215610c4157610c41600080fd5b6000610c4d8b8b610a73565b9850506020610c5e8b828c01610a73565b9750506040610c6f8b828c01610a73565b9650506060610c808b828c01610a84565b9550506080610c918b828c01610a84565b94505060a0610ca28b828c01610a84565b93505060c0610cb38b828c01610a84565b92505060e0610c118b828c01610a84565b801515610a65565b8035610a5681610cc4565b600080600080600080600080610100898b031215610cf757610cf7600080fd5b6000610d038b8b610a73565b9850506020610d148b828c01610a73565b9750506040610d258b828c01610a73565b9650506060610d368b828c01610a84565b9550506080610d478b828c01610a73565b94505060a0610d588b828c01610a84565b93505060c0610d698b828c01610a84565b92505060e0610c118b828c01610ccc565b600080600080600080600060e0888a031215610d9857610d98600080fd5b6000610da48a8a610a73565b9750506020610db58a828b01610a73565b9650506040610dc68a828b01610a84565b9550506060610dd78a828b01610a73565b9450506080610de88a828b01610a73565b93505060a0610df98a828b01610a84565b92505060c0610e0a8a828b01610a84565b91505092959891949750929550565b600080600080600080600080610100898b031215610e3957610e39600080fd5b6000610e458b8b610a73565b9850506020610e568b828c01610a73565b9750506040610e678b828c01610a73565b9650506060610e788b828c01610a84565b9550506080610c918b828c01610a73565b60008060008060008060c08789031215610ea557610ea5600080fd5b6000610eb18989610a73565b9650506020610ec289828a01610a73565b9550506040610ed389828a01610a84565b9450506060610ee489828a01610a73565b9350506080610ef589828a01610a84565b92505060a0610f0689828a01610a84565b9150509295509295509295565b60038110610a7057600080fd5b8035610a5681610f13565b600080600080600060a08688031215610f4657610f46600080fd5b6000610f528888610a73565b9550506020610f6388828901610a73565b9450506040610f7488828901610a73565b9350506060610f8588828901610f20565b9250506080610f9688828901610a84565b9150509295509295909350565b600080600080600060a08688031215610fbe57610fbe600080fd5b6000610fca8888610a73565b9550506020610fdb88828901610a73565b9450506040610fec88828901610a84565b9350506060610ffd88828901610a73565b9250506080610f9688828901610a73565b600080600080600060a0868803121561102957611029600080fd5b60006110358888610a73565b955050602061104688828901610a73565b945050604061105788828901610a73565b9350506060610f8588828901610a84565b634e487b7160e01b600052602160045260246000fd5b602781526000602082017f6576656e74456d69742063616e206f6e6c792062652063616c6c65642062792081526620bab1ba34b7b760c91b602082015291505b5060400190565b60208082528101610a568161107e565b6110de81610a49565b82525050565b806110de565b60c081016110f882896110d5565b61110560208301886110d5565b61111260408301876110e4565b61111f60608301866110e4565b61112c60808301856110e4565b61113960a08301846110e4565b979650505050505050565b60a0810161115282886110d5565b61115f60208301876110d5565b61116c60408301866110e4565b61117960608301856110d5565b61118660808301846110e4565b9695505050505050565b60a0810161119e82886110d5565b6111ab60208301876110e4565b6111b860408301866110e4565b61117960608301856110e4565b8015156110de565b60a081016111db82886110d5565b6111e860208301876110d5565b6111f560408301866110e4565b61120260608301856110e4565b61118660808301846111c5565b6080810161121d82876110d5565b61122a60208301866110e4565b61123760408301856110d5565b61124460608301846110e4565b95945050505050565b60a0810161125b82886110d5565b6111ab60208301876110d5565b6060810161127682866110d5565b61128360208301856110e4565b610a4160408301846110e4565b60038110610a7057610a70611068565b806112aa81611290565b919050565b6000610a56826112a0565b6110de816112af565b606081016112d182866110d5565b61128360208301856112ba565b604081016112ec82856110d5565b6112f960208301846110d5565b9392505050565b6040810161130e82856110d5565b6112f960208301846110e4565b60005b8381101561133657818101518382015260200161131e565b83811115611345576000848401525b50505050565b6000611355825190565b61136381856020860161131b565b9290920192915050565b60006112f9828461134b565b602681526000602082017f556e61626c6520746f2064657465726d696e652074686520636f6e747261637481526520747970652160d01b602082015291506110be565b60208082528101610a5681611379565b60058110610a7057600080fd5b8051610a56816113cc565b6000602082840312156113f9576113f9600080fd5b6000610a4184846113d956fea2646970667358221220b5786a277d680c334abcf4ebc47b0ec54fa1fabe79191197f2f96c7df079527d64736f6c63430008080033",
  "devdoc": {
    "kind": "dev",
    "methods": {},
    "version": 1
  },
  "userdoc": {
    "kind": "user",
    "methods": {},
    "version": 1
  },
  "storageLayout": {
    "storage": [],
    "types": null
  }
}