{
  "address": "0x8551675699b734490bf3a1B864E8C7CD27b5a42f",
  "abi": [
    {
      "inputs": [
        {
          "internalType": "string",
          "name": "_name",
          "type": "string"
        },
        {
          "internalType": "string",
          "name": "_symbol",
          "type": "string"
        }
      ],
      "stateMutability": "nonpayable",
      "type": "constructor"
    },
    {
      "anonymous": false,
      "inputs": [
        {
          "indexed": true,
          "internalType": "address",
          "name": "owner",
          "type": "address"
        },
        {
          "indexed": true,
          "internalType": "address",
          "name": "approved",
          "type": "address"
        },
        {
          "indexed": true,
          "internalType": "uint256",
          "name": "tokenId",
          "type": "uint256"
        }
      ],
      "name": "Approval",
      "type": "event"
    },
    {
      "anonymous": false,
      "inputs": [
        {
          "indexed": true,
          "internalType": "address",
          "name": "owner",
          "type": "address"
        },
        {
          "indexed": true,
          "internalType": "address",
          "name": "operator",
          "type": "address"
        },
        {
          "indexed": false,
          "internalType": "bool",
          "name": "approved",
          "type": "bool"
        }
      ],
      "name": "ApprovalForAll",
      "type": "event"
    },
    {
      "anonymous": false,
      "inputs": [
        {
          "indexed": true,
          "internalType": "address",
          "name": "owner",
          "type": "address"
        },
        {
          "indexed": true,
          "internalType": "uint256",
          "name": "tokenId",
          "type": "uint256"
        }
      ],
      "name": "NftBurned",
      "type": "event"
    },
    {
      "anonymous": false,
      "inputs": [
        {
          "indexed": true,
          "internalType": "address",
          "name": "owner",
          "type": "address"
        },
        {
          "indexed": false,
          "internalType": "string",
          "name": "tokenURI",
          "type": "string"
        },
        {
          "indexed": true,
          "internalType": "uint256",
          "name": "tokenId",
          "type": "uint256"
        }
      ],
      "name": "NftMinted",
      "type": "event"
    },
    {
      "anonymous": false,
      "inputs": [
        {
          "indexed": true,
          "internalType": "address",
          "name": "prev_Owner",
          "type": "address"
        },
        {
          "indexed": true,
          "internalType": "address",
          "name": "curr_Owner",
          "type": "address"
        },
        {
          "indexed": true,
          "internalType": "uint256",
          "name": "tokenId",
          "type": "uint256"
        }
      ],
      "name": "NftTransferred",
      "type": "event"
    },
    {
      "anonymous": false,
      "inputs": [
        {
          "indexed": true,
          "internalType": "address",
          "name": "from",
          "type": "address"
        },
        {
          "indexed": true,
          "internalType": "address",
          "name": "to",
          "type": "address"
        },
        {
          "indexed": true,
          "internalType": "uint256",
          "name": "tokenId",
          "type": "uint256"
        }
      ],
      "name": "Transfer",
      "type": "event"
    },
    {
      "inputs": [
        {
          "internalType": "address",
          "name": "to",
          "type": "address"
        },
        {
          "internalType": "uint256",
          "name": "tokenId",
          "type": "uint256"
        }
      ],
      "name": "approve",
      "outputs": [],
      "stateMutability": "nonpayable",
      "type": "function"
    },
    {
      "inputs": [
        {
          "internalType": "address",
          "name": "owner",
          "type": "address"
        }
      ],
      "name": "balanceOf",
      "outputs": [
        {
          "internalType": "uint256",
          "name": "",
          "type": "uint256"
        }
      ],
      "stateMutability": "view",
      "type": "function"
    },
    {
      "inputs": [
        {
          "internalType": "uint256",
          "name": "tokenId",
          "type": "uint256"
        }
      ],
      "name": "burn",
      "outputs": [],
      "stateMutability": "nonpayable",
      "type": "function"
    },
    {
      "inputs": [
        {
          "internalType": "uint256",
          "name": "tokenId",
          "type": "uint256"
        }
      ],
      "name": "getApproved",
      "outputs": [
        {
          "internalType": "address",
          "name": "",
          "type": "address"
        }
      ],
      "stateMutability": "view",
      "type": "function"
    },
    {
      "inputs": [],
      "name": "getAuthorityAddress",
      "outputs": [
        {
          "internalType": "address",
          "name": "",
          "type": "address"
        }
      ],
      "stateMutability": "view",
      "type": "function"
    },
    {
      "inputs": [
        {
          "internalType": "address",
          "name": "owner",
          "type": "address"
        },
        {
          "internalType": "address",
          "name": "operator",
          "type": "address"
        }
      ],
      "name": "isApprovedForAll",
      "outputs": [
        {
          "internalType": "bool",
          "name": "",
          "type": "bool"
        }
      ],
      "stateMutability": "view",
      "type": "function"
    },
    {
      "inputs": [],
      "name": "name",
      "outputs": [
        {
          "internalType": "string",
          "name": "",
          "type": "string"
        }
      ],
      "stateMutability": "view",
      "type": "function"
    },
    {
      "inputs": [
        {
          "internalType": "uint256",
          "name": "tokenId",
          "type": "uint256"
        }
      ],
      "name": "ownerOf",
      "outputs": [
        {
          "internalType": "address",
          "name": "",
          "type": "address"
        }
      ],
      "stateMutability": "view",
      "type": "function"
    },
    {
      "inputs": [
        {
          "internalType": "address",
          "name": "_owner",
          "type": "address"
        },
        {
          "internalType": "string",
          "name": "_tokenURI",
          "type": "string"
        },
        {
          "internalType": "string",
          "name": "_chassisNum",
          "type": "string"
        }
      ],
      "name": "registerVehicle",
      "outputs": [
        {
          "internalType": "uint256",
          "name": "",
          "type": "uint256"
        }
      ],
      "stateMutability": "nonpayable",
      "type": "function"
    },
    {
      "inputs": [
        {
          "internalType": "address",
          "name": "from",
          "type": "address"
        },
        {
          "internalType": "address",
          "name": "to",
          "type": "address"
        },
        {
          "internalType": "uint256",
          "name": "tokenId",
          "type": "uint256"
        }
      ],
      "name": "safeTransferFrom",
      "outputs": [],
      "stateMutability": "nonpayable",
      "type": "function"
    },
    {
      "inputs": [
        {
          "internalType": "address",
          "name": "from",
          "type": "address"
        },
        {
          "internalType": "address",
          "name": "to",
          "type": "address"
        },
        {
          "internalType": "uint256",
          "name": "tokenId",
          "type": "uint256"
        },
        {
          "internalType": "bytes",
          "name": "data",
          "type": "bytes"
        }
      ],
      "name": "safeTransferFrom",
      "outputs": [],
      "stateMutability": "nonpayable",
      "type": "function"
    },
    {
      "inputs": [
        {
          "internalType": "address",
          "name": "operator",
          "type": "address"
        },
        {
          "internalType": "bool",
          "name": "approved",
          "type": "bool"
        }
      ],
      "name": "setApprovalForAll",
      "outputs": [],
      "stateMutability": "nonpayable",
      "type": "function"
    },
    {
      "inputs": [
        {
          "internalType": "address",
          "name": "_auction",
          "type": "address"
        },
        {
          "internalType": "bool",
          "name": "_valid",
          "type": "bool"
        }
      ],
      "name": "setAuditResult",
      "outputs": [],
      "stateMutability": "nonpayable",
      "type": "function"
    },
    {
      "inputs": [
        {
          "internalType": "bytes4",
          "name": "interfaceId",
          "type": "bytes4"
        }
      ],
      "name": "supportsInterface",
      "outputs": [
        {
          "internalType": "bool",
          "name": "",
          "type": "bool"
        }
      ],
      "stateMutability": "view",
      "type": "function"
    },
    {
      "inputs": [],
      "name": "symbol",
      "outputs": [
        {
          "internalType": "string",
          "name": "",
          "type": "string"
        }
      ],
      "stateMutability": "view",
      "type": "function"
    },
    {
      "inputs": [
        {
          "internalType": "uint256",
          "name": "tokenId",
          "type": "uint256"
        }
      ],
      "name": "tokenURI",
      "outputs": [
        {
          "internalType": "string",
          "name": "",
          "type": "string"
        }
      ],
      "stateMutability": "view",
      "type": "function"
    },
    {
      "inputs": [
        {
          "internalType": "address",
          "name": "from",
          "type": "address"
        },
        {
          "internalType": "address",
          "name": "to",
          "type": "address"
        },
        {
          "internalType": "uint256",
          "name": "tokenId",
          "type": "uint256"
        }
      ],
      "name": "transferFrom",
      "outputs": [],
      "stateMutability": "nonpayable",
      "type": "function"
    }
  ],
  "transactionHash": "0xca0b05ef253e6ce392846bc44890e681d58cadd484365eb8ed9157ad92fec3df",
  "args": [
    "VehicleNft",
    "VOC"
  ],
  "numDeployments": 1,
  "solcInputHash": "d82b17d40ac8185215daf77bedc4a143",
  "bytecode": "0x60806040523480156200001157600080fd5b5060405162001cc338038062001cc3833981016040819052620000349162000264565b8151829082906200004d90600090602085019062000081565b5080516200006390600190602084019062000081565b5050600680546001600160a01b031916331790555062000325915050565b8280546200008f90620002f4565b90600052602060002090601f016020900481019282620000b35760008555620000fe565b82601f10620000ce57805160ff1916838001178555620000fe565b82800160010185558215620000fe579182015b82811115620000fe578251825591602001919060010190620000e1565b506200010c92915062000110565b5090565b5b808211156200010c576000815560010162000111565b634e487b7160e01b600052604160045260246000fd5b601f19601f83011681018181106001600160401b038211171562000165576200016562000127565b6040525050565b60006200017860405190565b90506200018682826200013d565b919050565b60006001600160401b03821115620001a757620001a762000127565b601f19601f83011660200192915050565b60005b83811015620001d5578181015183820152602001620001bb565b83811115620001e5576000848401525b50505050565b600062000202620001fc846200018b565b6200016c565b9050828152602081018484840111156200021f576200021f600080fd5b6200022c848285620001b8565b509392505050565b600082601f8301126200024a576200024a600080fd5b81516200025c848260208601620001eb565b949350505050565b600080604083850312156200027c576200027c600080fd5b82516001600160401b03811115620002975762000297600080fd5b620002a58582860162000234565b92505060208301516001600160401b03811115620002c657620002c6600080fd5b620002d48582860162000234565b9150509250929050565b634e487b7160e01b600052602260045260246000fd5b6002810460018216806200030957607f821691505b602082108114156200031f576200031f620002de565b50919050565b61198e80620003356000396000f3fe608060405234801561001057600080fd5b506004361061010b5760003560e01c806370a08231116100a2578063bd70e2b111610071578063bd70e2b11461021d578063c87b56dd14610230578063cc6168fc14610243578063e47a9d4614610256578063e985e9c51461026757600080fd5b806370a08231146101cf57806395d89b41146101ef578063a22cb465146101f7578063b88d4fde1461020a57600080fd5b806323b872dd116100de57806323b872dd1461018357806342842e0e1461019657806342966c68146101a95780636352211e146101bc57600080fd5b806301ffc9a71461011057806306fdde0314610139578063081812fc1461014e578063095ea7b31461016e575b600080fd5b61012361011e366004610f8b565b61027a565b6040516101309190610fb6565b60405180910390f35b6101416102cc565b6040516101309190611022565b61016161015c36600461104b565b61035e565b6040516101309190611086565b61018161017c3660046110a8565b610385565b005b6101816101913660046110e5565b610414565b6101816101a43660046110e5565b6104b5565b6101816101b736600461104b565b6104d0565b6101616101ca36600461104b565b610545565b6101e26101dd366004611135565b61057a565b604051610130919061115c565b6101416105be565b61018161020536600461117d565b6105cd565b6101816102183660046112a3565b6105dc565b61018161022b36600461117d565b610614565b61014161023e36600461104b565b6106f3565b6101e2610251366004611322565b6107c8565b6006546001600160a01b0316610161565b61012361027536600461139e565b610903565b60006001600160e01b031982166380ac58cd60e01b14806102ab57506001600160e01b03198216635b5e139f60e01b145b806102c657506301ffc9a760e01b6001600160e01b03198316145b92915050565b6060600080546102db906113e7565b80601f0160208091040260200160405190810160405280929190818152602001828054610307906113e7565b80156103545780601f1061032957610100808354040283529160200191610354565b820191906000526020600020905b81548152906001019060200180831161033757829003601f168201915b5050505050905090565b600061036982610931565b506000908152600460205260409020546001600160a01b031690565b600061039082610545565b9050806001600160a01b0316836001600160a01b031614156103cd5760405162461bcd60e51b81526004016103c490611455565b60405180910390fd5b336001600160a01b03821614806103e957506103e98133610903565b6104055760405162461bcd60e51b81526004016103c4906114bf565b61040f8383610968565b505050565b6006546001600160a01b0316331461043e5760405162461bcd60e51b81526004016103c490611506565b61044833826109d6565b6104645760405162461bcd60e51b81526004016103c490611560565b61046f838383610a35565b80826001600160a01b0316846001600160a01b03167f503c8ba91d48fc8384cff446c5c79279a4384cf2b87848c05b01cf3016c156b760405160405180910390a4505050565b61040f838383604051806020016040528060008152506105dc565b6006546001600160a01b031633146104fa5760405162461bcd60e51b81526004016103c490611506565b61050381610b5d565b8061050d82610545565b6001600160a01b03167f4124e08f3a7db6516639a90c8ef7f6f730d82e3c5c76c50a644b1e84cddaa89a60405160405180910390a350565b6000818152600260205260408120546001600160a01b0316806102c65760405162461bcd60e51b81526004016103c4906115a4565b60006001600160a01b0382166105a25760405162461bcd60e51b81526004016103c4906115fa565b506001600160a01b031660009081526003602052604090205490565b6060600180546102db906113e7565b6105d8338383610bf2565b5050565b6105e633836109d6565b6106025760405162461bcd60e51b81526004016103c490611560565b61060e84848484610c95565b50505050565b6006546001600160a01b0316331461063e5760405162461bcd60e51b81526004016103c490611506565b6000826001600160a01b03168260405160240161065b9190610fb6565b60408051601f198184030181529181526020820180516001600160e01b031663725be52760e01b17905251610690919061162c565b6000604051808303816000865af19150503d80600081146106cd576040519150601f19603f3d011682016040523d82523d6000602084013e6106d2565b606091505b505090508061040f5760405162461bcd60e51b81526004016103c49061166c565b6000818152600260205260409020546060906001600160a01b031661072a5760405162461bcd60e51b81526004016103c4906116c8565b60008281526008602052604090208054610743906113e7565b80601f016020809104026020016040519081016040528092919081815260200182805461076f906113e7565b80156107bc5780601f10610791576101008083540402835291602001916107bc565b820191906000526020600020905b81548152906001019060200180831161079f57829003601f168201915b50505050509050919050565b6006546000906001600160a01b031633146107f55760405162461bcd60e51b81526004016103c490611506565b81600981604051610806919061162c565b9081526040519081900360200190205460ff1615156001141561083b5760405162461bcd60e51b81526004016103c49061170c565b610849600780546001019055565b600061085460075490565b60008181526008602090815260409091208751929350610878929091880190610ed0565b506108838682610cc8565b6001600985604051610895919061162c565b908152604051908190036020018120805492151560ff199093169290921790915581906001600160a01b038816907f713d53f01460aaa9fbbd1c4117efe883950eeb42b192fdfb5ad4f2d601b7bdc4906108f0908990611022565b60405180910390a391505b509392505050565b6001600160a01b03918216600090815260056020908152604080832093909416825291909152205460ff1690565b6000818152600260205260409020546001600160a01b03166109655760405162461bcd60e51b81526004016103c4906115a4565b50565b600081815260046020526040902080546001600160a01b0319166001600160a01b038416908117909155819061099d82610545565b6001600160a01b03167f8c5be1e5ebec7d5bd14f71427d1e84f3dd0314c0f7b2291e5b200ac8c7c3b92560405160405180910390a45050565b6000806109e283610545565b9050806001600160a01b0316846001600160a01b03161480610a095750610a098185610903565b80610a2d5750836001600160a01b0316610a228461035e565b6001600160a01b0316145b949350505050565b826001600160a01b0316610a4882610545565b6001600160a01b031614610a6e5760405162461bcd60e51b81526004016103c49061175e565b6001600160a01b038216610a945760405162461bcd60e51b81526004016103c4906117af565b826001600160a01b0316610aa782610545565b6001600160a01b031614610acd5760405162461bcd60e51b81526004016103c49061175e565b600081815260046020908152604080832080546001600160a01b03199081169091556001600160a01b0387811680865260038552838620805460001901905590871680865283862080546001019055868652600290945282852080549092168417909155905184937fddf252ad1be2c89b69c2b068fc378daa952ba7f163c4a11628f55a4df523b3ef91a4505050565b6000610b6882610545565b9050610b7382610545565b600083815260046020908152604080832080546001600160a01b03199081169091556001600160a01b0385168085526003845282852080546000190190558785526002909352818420805490911690555192935084927fddf252ad1be2c89b69c2b068fc378daa952ba7f163c4a11628f55a4df523b3ef908390a45050565b816001600160a01b0316836001600160a01b03161415610c245760405162461bcd60e51b81526004016103c4906117f3565b6001600160a01b0383811660008181526005602090815260408083209487168084529490915290819020805460ff1916851515179055517f17307eab39ab6107e8899845ad3d59bd9653f200f220920489ca2b5937696c3190610c88908590610fb6565b60405180910390a3505050565b610ca0848484610a35565b610cac84848484610dc3565b61060e5760405162461bcd60e51b81526004016103c490611852565b6001600160a01b038216610cee5760405162461bcd60e51b81526004016103c490611894565b6000818152600260205260409020546001600160a01b031615610d235760405162461bcd60e51b81526004016103c4906118d8565b6000818152600260205260409020546001600160a01b031615610d585760405162461bcd60e51b81526004016103c4906118d8565b6001600160a01b038216600081815260036020908152604080832080546001019055848352600290915280822080546001600160a01b0319168417905551839291907fddf252ad1be2c89b69c2b068fc378daa952ba7f163c4a11628f55a4df523b3ef908290a45050565b60006001600160a01b0384163b15610ec557604051630a85bd0160e11b81526001600160a01b0385169063150b7a0290610e079033908990889088906004016118e8565b602060405180830381600087803b158015610e2157600080fd5b505af1925050508015610e51575060408051601f3d908101601f19168201909252610e4e91810190611937565b60015b610eab573d808015610e7f576040519150601f19603f3d011682016040523d82523d6000602084013e610e84565b606091505b508051610ea35760405162461bcd60e51b81526004016103c490611852565b805181602001fd5b6001600160e01b031916630a85bd0160e11b149050610a2d565b506001949350505050565b828054610edc906113e7565b90600052602060002090601f016020900481019282610efe5760008555610f44565b82601f10610f1757805160ff1916838001178555610f44565b82800160010185558215610f44579182015b82811115610f44578251825591602001919060010190610f29565b50610f50929150610f54565b5090565b5b80821115610f505760008155600101610f55565b6001600160e01b031981165b811461096557600080fd5b80356102c681610f69565b600060208284031215610fa057610fa0600080fd5b6000610a2d8484610f80565b8015155b82525050565b602081016102c68284610fac565b60005b83811015610fdf578181015183820152602001610fc7565b8381111561060e5750506000910152565b6000610ffa825190565b808452602084019350611011818560208601610fc4565b601f01601f19169290920192915050565b602080825281016110338184610ff0565b9392505050565b80610f75565b80356102c68161103a565b60006020828403121561106057611060600080fd5b6000610a2d8484611040565b60006001600160a01b0382166102c6565b610fb08161106c565b602081016102c6828461107d565b610f758161106c565b80356102c681611094565b600080604083850312156110be576110be600080fd5b60006110ca858561109d565b92505060206110db85828601611040565b9150509250929050565b6000806000606084860312156110fd576110fd600080fd5b6000611109868661109d565b935050602061111a8682870161109d565b925050604061112b86828701611040565b9150509250925092565b60006020828403121561114a5761114a600080fd5b6000610a2d848461109d565b80610fb0565b602081016102c68284611156565b801515610f75565b80356102c68161116a565b6000806040838503121561119357611193600080fd5b600061119f858561109d565b92505060206110db85828601611172565b634e487b7160e01b600052604160045260246000fd5b601f19601f830116810181811067ffffffffffffffff821117156111ec576111ec6111b0565b6040525050565b60006111fe60405190565b905061120a82826111c6565b919050565b600067ffffffffffffffff821115611229576112296111b0565b601f19601f83011660200192915050565b82818337506000910152565b60006112596112548461120f565b6111f3565b90508281526020810184848401111561127457611274600080fd5b6108fb84828561123a565b600082601f83011261129357611293600080fd5b8135610a2d848260208601611246565b600080600080608085870312156112bc576112bc600080fd5b60006112c8878761109d565b94505060206112d98782880161109d565b93505060406112ea87828801611040565b925050606085013567ffffffffffffffff81111561130a5761130a600080fd5b6113168782880161127f565b91505092959194509250565b60008060006060848603121561133a5761133a600080fd5b6000611346868661109d565b935050602084013567ffffffffffffffff81111561136657611366600080fd5b6113728682870161127f565b925050604084013567ffffffffffffffff81111561139257611392600080fd5b61112b8682870161127f565b600080604083850312156113b4576113b4600080fd5b60006113c0858561109d565b92505060206110db8582860161109d565b634e487b7160e01b600052602260045260246000fd5b6002810460018216806113fb57607f821691505b6020821081141561140e5761140e6113d1565b50919050565b602181526000602082017f4552433732313a20617070726f76616c20746f2063757272656e74206f776e658152603960f91b602082015291505b5060400190565b602080825281016102c681611414565b603d81526000602082017f4552433732313a20617070726f76652063616c6c6572206973206e6f7420746f81527f6b656e206f776e6572206f7220617070726f76656420666f7220616c6c0000006020820152915061144e565b602080825281016102c681611465565b601d81526000602082017f556e617574686f72697a65642066756e6374696f6e2061636365737321000000815291505b5060200190565b602080825281016102c6816114cf565b602d81526000602082017f4552433732313a2063616c6c6572206973206e6f7420746f6b656e206f776e6581526c1c881bdc88185c1c1c9bdd9959609a1b6020820152915061144e565b602080825281016102c681611516565b601881526000602082017f4552433732313a20696e76616c696420746f6b656e2049440000000000000000815291506114ff565b602080825281016102c681611570565b602981526000602082017f4552433732313a2061646472657373207a65726f206973206e6f7420612076618152683634b21037bbb732b960b91b6020820152915061144e565b602080825281016102c6816115b4565b6000611614825190565b611622818560208601610fc4565b9290920192915050565b6000611033828461160a565b601b81526000602082017f756e61626c6520746f2073656e6420617564697420726573756c740000000000815291506114ff565b602080825281016102c681611638565b602f81526000602082017f4552433732314d657461646174613a2055524920717565727920666f72206e6f81526e3732bc34b9ba32b73a103a37b5b2b760891b6020820152915061144e565b602080825281016102c68161167c565b601b81526000602082017f56656869636c6520616c72656164792072656769737465726564210000000000815291506114ff565b602080825281016102c6816116d8565b602581526000602082017f4552433732313a207472616e736665722066726f6d20696e636f72726563742081526437bbb732b960d91b6020820152915061144e565b602080825281016102c68161171c565b602481526000602082017f4552433732313a207472616e7366657220746f20746865207a65726f206164648152637265737360e01b6020820152915061144e565b602080825281016102c68161176e565b601981526000602082017f4552433732313a20617070726f766520746f2063616c6c657200000000000000815291506114ff565b602080825281016102c6816117bf565b603281526000602082017f4552433732313a207472616e7366657220746f206e6f6e20455243373231526581527131b2b4bb32b91034b6b83632b6b2b73a32b960711b6020820152915061144e565b602080825281016102c681611803565b60208082527f4552433732313a206d696e7420746f20746865207a65726f2061646472657373910190815260006114ff565b602080825281016102c681611862565b601c81526000602082017f4552433732313a20746f6b656e20616c7265616479206d696e74656400000000815291506114ff565b602080825281016102c6816118a4565b608081016118f6828761107d565b611903602083018661107d565b6119106040830185611156565b81810360608301526119228184610ff0565b9695505050505050565b80516102c681610f69565b60006020828403121561194c5761194c600080fd5b6000610a2d848461192c56fea26469706673582212200e35c35748a2c694b0365825225623a835a77ea49d365ec6a718a65a38557c3964736f6c63430008080033",
  "devdoc": {
    "kind": "dev",
    "methods": {
      "approve(address,uint256)": {
        "details": "See {IERC721-approve}."
      },
      "balanceOf(address)": {
        "details": "See {IERC721-balanceOf}."
      },
      "burn(uint256)": {
        "details": "Burns `tokenId`. See {ERC721-_burn}. Requirements: - The caller must own `tokenId` or be an approved operator."
      },
      "getApproved(uint256)": {
        "details": "See {IERC721-getApproved}."
      },
      "isApprovedForAll(address,address)": {
        "details": "See {IERC721-isApprovedForAll}."
      },
      "name()": {
        "details": "See {IERC721Metadata-name}."
      },
      "ownerOf(uint256)": {
        "details": "See {IERC721-ownerOf}."
      },
      "safeTransferFrom(address,address,uint256)": {
        "details": "See {IERC721-safeTransferFrom}."
      },
      "safeTransferFrom(address,address,uint256,bytes)": {
        "details": "See {IERC721-safeTransferFrom}."
      },
      "setApprovalForAll(address,bool)": {
        "details": "See {IERC721-setApprovalForAll}."
      },
      "supportsInterface(bytes4)": {
        "details": "See {IERC165-supportsInterface}."
      },
      "symbol()": {
        "details": "See {IERC721Metadata-symbol}."
      },
      "tokenURI(uint256)": {
        "details": "See {IERC721Metadata-tokenURI}."
      },
      "transferFrom(address,address,uint256)": {
        "details": "See {IERC721-transferFrom}."
      }
    },
    "version": 1
  },
  "userdoc": {
    "kind": "user",
    "methods": {},
    "version": 1
  },
  "storageLayout": {
    "storage": [
      {
        "astId": 129,
        "contract": "contracts/VehicleNft.sol:VehicleNft",
        "label": "_name",
        "offset": 0,
        "slot": "0",
        "type": "t_string_storage"
      },
      {
        "astId": 131,
        "contract": "contracts/VehicleNft.sol:VehicleNft",
        "label": "_symbol",
        "offset": 0,
        "slot": "1",
        "type": "t_string_storage"
      },
      {
        "astId": 135,
        "contract": "contracts/VehicleNft.sol:VehicleNft",
        "label": "_owners",
        "offset": 0,
        "slot": "2",
        "type": "t_mapping(t_uint256,t_address)"
      },
      {
        "astId": 139,
        "contract": "contracts/VehicleNft.sol:VehicleNft",
        "label": "_balances",
        "offset": 0,
        "slot": "3",
        "type": "t_mapping(t_address,t_uint256)"
      },
      {
        "astId": 143,
        "contract": "contracts/VehicleNft.sol:VehicleNft",
        "label": "_tokenApprovals",
        "offset": 0,
        "slot": "4",
        "type": "t_mapping(t_uint256,t_address)"
      },
      {
        "astId": 149,
        "contract": "contracts/VehicleNft.sol:VehicleNft",
        "label": "_operatorApprovals",
        "offset": 0,
        "slot": "5",
        "type": "t_mapping(t_address,t_mapping(t_address,t_bool))"
      },
      {
        "astId": 6047,
        "contract": "contracts/VehicleNft.sol:VehicleNft",
        "label": "authority",
        "offset": 0,
        "slot": "6",
        "type": "t_address"
      },
      {
        "astId": 6050,
        "contract": "contracts/VehicleNft.sol:VehicleNft",
        "label": "_tokenIds",
        "offset": 0,
        "slot": "7",
        "type": "t_struct(Counter)1608_storage"
      },
      {
        "astId": 6054,
        "contract": "contracts/VehicleNft.sol:VehicleNft",
        "label": "tokenIdToTokenUri",
        "offset": 0,
        "slot": "8",
        "type": "t_mapping(t_uint256,t_string_storage)"
      },
      {
        "astId": 6058,
        "contract": "contracts/VehicleNft.sol:VehicleNft",
        "label": "chassisNumToBool",
        "offset": 0,
        "slot": "9",
        "type": "t_mapping(t_string_memory_ptr,t_bool)"
      }
    ],
    "types": {
      "t_address": {
        "encoding": "inplace",
        "label": "address",
        "numberOfBytes": "20"
      },
      "t_bool": {
        "encoding": "inplace",
        "label": "bool",
        "numberOfBytes": "1"
      },
      "t_mapping(t_address,t_bool)": {
        "encoding": "mapping",
        "key": "t_address",
        "label": "mapping(address => bool)",
        "numberOfBytes": "32",
        "value": "t_bool"
      },
      "t_mapping(t_address,t_mapping(t_address,t_bool))": {
        "encoding": "mapping",
        "key": "t_address",
        "label": "mapping(address => mapping(address => bool))",
        "numberOfBytes": "32",
        "value": "t_mapping(t_address,t_bool)"
      },
      "t_mapping(t_address,t_uint256)": {
        "encoding": "mapping",
        "key": "t_address",
        "label": "mapping(address => uint256)",
        "numberOfBytes": "32",
        "value": "t_uint256"
      },
      "t_mapping(t_string_memory_ptr,t_bool)": {
        "encoding": "mapping",
        "key": "t_string_memory_ptr",
        "label": "mapping(string => bool)",
        "numberOfBytes": "32",
        "value": "t_bool"
      },
      "t_mapping(t_uint256,t_address)": {
        "encoding": "mapping",
        "key": "t_uint256",
        "label": "mapping(uint256 => address)",
        "numberOfBytes": "32",
        "value": "t_address"
      },
      "t_mapping(t_uint256,t_string_storage)": {
        "encoding": "mapping",
        "key": "t_uint256",
        "label": "mapping(uint256 => string)",
        "numberOfBytes": "32",
        "value": "t_string_storage"
      },
      "t_string_memory_ptr": {
        "encoding": "bytes",
        "label": "string",
        "numberOfBytes": "32"
      },
      "t_string_storage": {
        "encoding": "bytes",
        "label": "string",
        "numberOfBytes": "32"
      },
      "t_struct(Counter)1608_storage": {
        "encoding": "inplace",
        "label": "struct Counters.Counter",
        "members": [
          {
            "astId": 1607,
            "contract": "contracts/VehicleNft.sol:VehicleNft",
            "label": "_value",
            "offset": 0,
            "slot": "0",
            "type": "t_uint256"
          }
        ],
        "numberOfBytes": "32"
      },
      "t_uint256": {
        "encoding": "inplace",
        "label": "uint256",
        "numberOfBytes": "32"
      }
    }
  }
}