{
  "address": "0x34A41a425f322f72B6A611184844b7C40F61bd34",
  "abi": [
    {
      "inputs": [],
      "stateMutability": "nonpayable",
      "type": "constructor"
    },
    {
      "inputs": [],
      "name": "AuctionRegistry_RestrictedContractFactoryAccess",
      "type": "error"
    },
    {
      "inputs": [],
      "name": "AuctionRegistry_RestrictedOwnerAccess",
      "type": "error"
    },
    {
      "inputs": [
        {
          "internalType": "address",
          "name": "",
          "type": "address"
        },
        {
          "internalType": "uint256",
          "name": "",
          "type": "uint256"
        }
      ],
      "name": "auctionListings",
      "outputs": [
        {
          "internalType": "address",
          "name": "",
          "type": "address"
        }
      ],
      "stateMutability": "view",
      "type": "function"
    },
    {
      "inputs": [],
      "name": "auctionManagerAddress",
      "outputs": [
        {
          "internalType": "address",
          "name": "",
          "type": "address"
        }
      ],
      "stateMutability": "view",
      "type": "function"
    },
    {
      "inputs": [],
      "name": "getContractType",
      "outputs": [
        {
          "internalType": "enum Constants.ContractType",
          "name": "",
          "type": "uint8"
        }
      ],
      "stateMutability": "pure",
      "type": "function"
    },
    {
      "inputs": [],
      "name": "owner",
      "outputs": [
        {
          "internalType": "address",
          "name": "",
          "type": "address"
        }
      ],
      "stateMutability": "view",
      "type": "function"
    },
    {
      "inputs": [
        {
          "internalType": "address",
          "name": "_nftAddress",
          "type": "address"
        },
        {
          "internalType": "uint256",
          "name": "_tokenId",
          "type": "uint256"
        },
        {
          "internalType": "address",
          "name": "_auctionAddress",
          "type": "address"
        }
      ],
      "name": "registerAuction",
      "outputs": [],
      "stateMutability": "nonpayable",
      "type": "function"
    },
    {
      "inputs": [
        {
          "internalType": "address",
          "name": "_auctionManagerAddress",
          "type": "address"
        }
      ],
      "name": "setAuctionManagerAddress",
      "outputs": [],
      "stateMutability": "nonpayable",
      "type": "function"
    }
  ],
  "transactionHash": "0x35d3f03413fbff9c0594da6eecdb55416f903f242fbd4016f3c091b6d089c116",
  "args": [],
  "numDeployments": 9,
  "solcInputHash": "70ce8c2fbeef929dbeff0a5384bc6e0c",
  "bytecode": "0x60a060405234801561001057600080fd5b5033606081901b6080526105616100386000396000818160de01526101a201526105616000f3fe608060405234801561001057600080fd5b50600436106100625760003560e01c806329c71657146100675780635946f92c146100b157806370749d9b146100c65780638da5cb5b146100d9578063c51a29e014610100578063cd7dc52d1461010f575b600080fd5b61009b610075366004610321565b60026020908152600092835260408084209091529082529020546001600160a01b031681565b6040516100a8919061036d565b60405180910390f35b6100c46100bf36600461037b565b610122565b005b60005461009b906001600160a01b031681565b61009b7f000000000000000000000000000000000000000000000000000000000000000081565b60026040516100a89190610414565b6100c461011d366004610422565b610197565b600361012d3361020c565b600481111561013e5761013e6103cb565b1461015c57604051637d9a2a8760e11b815260040160405180910390fd5b6001600160a01b0392831660009081526002602090815260408083209483529390529190912080546001600160a01b03191691909216179055565b336001600160a01b037f000000000000000000000000000000000000000000000000000000000000000016146101e057604051632d387d8360e11b815260040160405180910390fd5b600080546001600160a01b039092166001600160a01b0319928316811790915560018054909216179055565b60408051600481526024810182526020810180516001600160e01b0316630628d14f60e51b1790529051600091829182916001600160a01b038616916102529190610495565b6000604051808303816000865af19150503d806000811461028f576040519150601f19603f3d011682016040523d82523d6000602084013e610294565b606091505b5091509150816102bf5760405162461bcd60e51b81526004016102b6906104a8565b60405180910390fd5b808060200190518101906102d3919061050a565b949350505050565b60006001600160a01b0382165b92915050565b6102f7816102db565b811461030257600080fd5b50565b80356102e8816102ee565b806102f7565b80356102e881610310565b6000806040838503121561033757610337600080fd5b60006103438585610305565b925050602061035485828601610316565b9150509250929050565b610367816102db565b82525050565b602081016102e8828461035e565b60008060006060848603121561039357610393600080fd5b600061039f8686610305565b93505060206103b086828701610316565b92505060406103c186828701610305565b9150509250925092565b634e487b7160e01b600052602160045260246000fd5b60058110610302576103026103cb565b806103fb816103e1565b919050565b60006102e8826103f1565b61036781610400565b602081016102e8828461040b565b60006020828403121561043757610437600080fd5b60006102d38484610305565b60005b8381101561045e578181015183820152602001610446565b8381111561046d576000848401525b50505050565b600061047d825190565b61048b818560208601610443565b9290920192915050565b60006104a18284610473565b9392505050565b602080825281016102e881602681527f556e61626c6520746f2064657465726d696e652074686520636f6e747261637460208201526520747970652160d01b604082015260600190565b6005811061030257600080fd5b80516102e8816104f2565b60006020828403121561051f5761051f600080fd5b60006102d384846104ff56fea264697066735822122011400eaddd53b62f892b5d66d30ca2aeb67fccb4a41860846b8322f11229fc7f64736f6c63430008080033",
  "devdoc": {
    "kind": "dev",
    "methods": {},
    "version": 1
  },
  "userdoc": {
    "kind": "user",
    "methods": {},
    "version": 1
  },
  "storageLayout": {
    "storage": [
      {
        "astId": 3729,
        "contract": "contracts/AuctionContracts.sol:AuctionRegistry",
        "label": "auctionManagerAddress",
        "offset": 0,
        "slot": "0",
        "type": "t_address"
      },
      {
        "astId": 3732,
        "contract": "contracts/AuctionContracts.sol:AuctionRegistry",
        "label": "auctionManager",
        "offset": 0,
        "slot": "1",
        "type": "t_contract(AuctionManager)4807"
      },
      {
        "astId": 3738,
        "contract": "contracts/AuctionContracts.sol:AuctionRegistry",
        "label": "auctionListings",
        "offset": 0,
        "slot": "2",
        "type": "t_mapping(t_address,t_mapping(t_uint256,t_address))"
      }
    ],
    "types": {
      "t_address": {
        "encoding": "inplace",
        "label": "address",
        "numberOfBytes": "20"
      },
      "t_contract(AuctionManager)4807": {
        "encoding": "inplace",
        "label": "contract AuctionManager",
        "numberOfBytes": "20"
      },
      "t_mapping(t_address,t_mapping(t_uint256,t_address))": {
        "encoding": "mapping",
        "key": "t_address",
        "label": "mapping(address => mapping(uint256 => address))",
        "numberOfBytes": "32",
        "value": "t_mapping(t_uint256,t_address)"
      },
      "t_mapping(t_uint256,t_address)": {
        "encoding": "mapping",
        "key": "t_uint256",
        "label": "mapping(uint256 => address)",
        "numberOfBytes": "32",
        "value": "t_address"
      },
      "t_uint256": {
        "encoding": "inplace",
        "label": "uint256",
        "numberOfBytes": "32"
      }
    }
  }
}