{
  "address": "0x1796814b9C8779c78B7674223436ae303D79E94f",
  "abi": [
    {
      "inputs": [],
      "stateMutability": "nonpayable",
      "type": "constructor"
    },
    {
      "inputs": [],
      "name": "AuctionRegistry_RestrictedContractFactoryAccess",
      "type": "error"
    },
    {
      "inputs": [],
      "name": "AuctionRegistry_RestrictedOwnerAccess",
      "type": "error"
    },
    {
      "inputs": [
        {
          "internalType": "address",
          "name": "",
          "type": "address"
        },
        {
          "internalType": "uint256",
          "name": "",
          "type": "uint256"
        }
      ],
      "name": "auctionListings",
      "outputs": [
        {
          "internalType": "address",
          "name": "",
          "type": "address"
        }
      ],
      "stateMutability": "view",
      "type": "function"
    },
    {
      "inputs": [],
      "name": "auctionManagerAddress",
      "outputs": [
        {
          "internalType": "address",
          "name": "",
          "type": "address"
        }
      ],
      "stateMutability": "view",
      "type": "function"
    },
    {
      "inputs": [],
      "name": "getContractType",
      "outputs": [
        {
          "internalType": "enum Constants.ContractType",
          "name": "",
          "type": "uint8"
        }
      ],
      "stateMutability": "pure",
      "type": "function"
    },
    {
      "inputs": [],
      "name": "owner",
      "outputs": [
        {
          "internalType": "address",
          "name": "",
          "type": "address"
        }
      ],
      "stateMutability": "view",
      "type": "function"
    },
    {
      "inputs": [
        {
          "internalType": "address",
          "name": "_nftAddress",
          "type": "address"
        },
        {
          "internalType": "uint256",
          "name": "_tokenId",
          "type": "uint256"
        },
        {
          "internalType": "address",
          "name": "_auctionAddress",
          "type": "address"
        }
      ],
      "name": "registerAuction",
      "outputs": [],
      "stateMutability": "nonpayable",
      "type": "function"
    },
    {
      "inputs": [
        {
          "internalType": "address",
          "name": "_auctionManagerAddress",
          "type": "address"
        }
      ],
      "name": "setAuctionManagerAddress",
      "outputs": [],
      "stateMutability": "nonpayable",
      "type": "function"
    }
  ],
  "transactionHash": "0x69a31e8b7c9a41ed235a6f65fb8c5af49a202ab27f4844274a7ea9cffd2d7883",
  "args": [],
  "numDeployments": 7,
  "solcInputHash": "ad35f6548b15af00ff2767515e8f869d",
  "bytecode": "0x60a060405234801561001057600080fd5b5033606081901b60805261073b6100386000396000818160de01526102ec015261073b6000f3fe608060405234801561001057600080fd5b50600436106100625760003560e01c806329c71657146100675780635946f92c146100b157806370749d9b146100c65780638da5cb5b146100d9578063c51a29e014610100578063cd7dc52d1461010f575b600080fd5b61009b610075366004610462565b60026020908152600092835260408084209091529082529020546001600160a01b031681565b6040516100a891906104ae565b60405180910390f35b6100c46100bf3660046104bc565b610122565b005b60005461009b906001600160a01b031681565b61009b7f000000000000000000000000000000000000000000000000000000000000000081565b60026040516100a89190610555565b6100c461011d366004610563565b6102e1565b600361012d33610356565b600481111561013e5761013e61050c565b1461015c57604051637d9a2a8760e11b815260040160405180910390fd5b6001600160a01b038084166000908152600260209081526040808320868452909152902054849184918491829116158061027d5750806001600160a01b031663d5055fa86040518163ffffffff1660e01b815260040160206040518083038186803b1580156101ca57600080fd5b505afa1580156101de573d6000803e3d6000fd5b505050506040513d601f19601f820116820180604052508101906102029190610597565b15801561027d5750806001600160a01b031663d6f7b6886040518163ffffffff1660e01b815260040160206040518083038186803b15801561024357600080fd5b505afa158015610257573d6000803e3d6000fd5b505050506040513d601f19601f8201168201806040525081019061027b9190610597565b155b6102a25760405162461bcd60e51b815260040161029990610604565b60405180910390fd5b505050506001600160a01b0392831660009081526002602090815260408083209483529390529190912080546001600160a01b03191691909216179055565b336001600160a01b037f0000000000000000000000000000000000000000000000000000000000000000161461032a57604051632d387d8360e11b815260040160405180910390fd5b600080546001600160a01b039092166001600160a01b0319928316811790915560018054909216179055565b60408051600481526024810182526020810180516001600160e01b0316630628d14f60e51b1790529051600091829182916001600160a01b0386169161039c9190610666565b6000604051808303816000865af19150503d80600081146103d9576040519150601f19603f3d011682016040523d82523d6000602084013e6103de565b606091505b5091509150816104005760405162461bcd60e51b8152600401610299906106bc565b8080602001905181019061041491906106e4565b949350505050565b60006001600160a01b0382165b92915050565b6104388161041c565b811461044357600080fd5b50565b80356104298161042f565b80610438565b803561042981610451565b6000806040838503121561047857610478600080fd5b60006104848585610446565b925050602061049585828601610457565b9150509250929050565b6104a88161041c565b82525050565b60208101610429828461049f565b6000806000606084860312156104d4576104d4600080fd5b60006104e08686610446565b93505060206104f186828701610457565b925050604061050286828701610446565b9150509250925092565b634e487b7160e01b600052602160045260246000fd5b600581106104435761044361050c565b8061053c81610522565b919050565b600061042982610532565b6104a881610541565b60208101610429828461054c565b60006020828403121561057857610578600080fd5b60006104148484610446565b801515610438565b805161042981610584565b6000602082840312156105ac576105ac600080fd5b6000610414848461058c565b602c81526000602082017f4475706c69636174652061756374696f6e20666f72207468652076656869636c81526b65206973206163746976652160a01b602082015291505b5060400190565b60208082528101610429816105b8565b60005b8381101561062f578181015183820152602001610617565b8381111561063e576000848401525b50505050565b600061064e825190565b61065c818560208601610614565b9290920192915050565b60006106728284610644565b9392505050565b602681526000602082017f556e61626c6520746f2064657465726d696e652074686520636f6e747261637481526520747970652160d01b602082015291506105fd565b6020808252810161042981610679565b6005811061044357600080fd5b8051610429816106cc565b6000602082840312156106f9576106f9600080fd5b600061041484846106d956fea264697066735822122019ae4c1202e4b5fa6246e48ae5bd4928396d7e6164891b3e6bc5dc1193c0819e64736f6c63430008080033",
  "devdoc": {
    "kind": "dev",
    "methods": {},
    "version": 1
  },
  "userdoc": {
    "kind": "user",
    "methods": {},
    "version": 1
  },
  "storageLayout": {
    "storage": [
      {
        "astId": 3669,
        "contract": "contracts/AuctionContracts.sol:AuctionRegistry",
        "label": "auctionManagerAddress",
        "offset": 0,
        "slot": "0",
        "type": "t_address"
      },
      {
        "astId": 3672,
        "contract": "contracts/AuctionContracts.sol:AuctionRegistry",
        "label": "auctionManager",
        "offset": 0,
        "slot": "1",
        "type": "t_contract(AuctionManager)4794"
      },
      {
        "astId": 3678,
        "contract": "contracts/AuctionContracts.sol:AuctionRegistry",
        "label": "auctionListings",
        "offset": 0,
        "slot": "2",
        "type": "t_mapping(t_address,t_mapping(t_uint256,t_address))"
      }
    ],
    "types": {
      "t_address": {
        "encoding": "inplace",
        "label": "address",
        "numberOfBytes": "20"
      },
      "t_contract(AuctionManager)4794": {
        "encoding": "inplace",
        "label": "contract AuctionManager",
        "numberOfBytes": "20"
      },
      "t_mapping(t_address,t_mapping(t_uint256,t_address))": {
        "encoding": "mapping",
        "key": "t_address",
        "label": "mapping(address => mapping(uint256 => address))",
        "numberOfBytes": "32",
        "value": "t_mapping(t_uint256,t_address)"
      },
      "t_mapping(t_uint256,t_address)": {
        "encoding": "mapping",
        "key": "t_uint256",
        "label": "mapping(uint256 => address)",
        "numberOfBytes": "32",
        "value": "t_address"
      },
      "t_uint256": {
        "encoding": "inplace",
        "label": "uint256",
        "numberOfBytes": "32"
      }
    }
  }
}