{
  "address": "0xdF17d67a575f06DA2359a5494193A1D9DC038510",
  "abi": [
    {
      "inputs": [
        {
          "internalType": "address",
          "name": "_auctionRegistryAddress",
          "type": "address"
        },
        {
          "internalType": "address",
          "name": "_eventEmitterAddress",
          "type": "address"
        },
        {
          "internalType": "address",
          "name": "_auctionKeeperAddress",
          "type": "address"
        },
        {
          "internalType": "address",
          "name": "_contractFactoryAddress",
          "type": "address"
        }
      ],
      "stateMutability": "nonpayable",
      "type": "constructor"
    },
    {
      "inputs": [
        {
          "internalType": "address",
          "name": "_auctionAddress",
          "type": "address"
        }
      ],
      "name": "addBiddingAuction",
      "outputs": [],
      "stateMutability": "nonpayable",
      "type": "function"
    },
    {
      "inputs": [
        {
          "internalType": "address",
          "name": "_auctionAddress",
          "type": "address"
        }
      ],
      "name": "addPendingPaymentAuction",
      "outputs": [],
      "stateMutability": "nonpayable",
      "type": "function"
    },
    {
      "inputs": [
        {
          "internalType": "address",
          "name": "_auctionAddress",
          "type": "address"
        }
      ],
      "name": "addVerifyWinnerAuction",
      "outputs": [],
      "stateMutability": "nonpayable",
      "type": "function"
    },
    {
      "inputs": [
        {
          "internalType": "uint256",
          "name": "",
          "type": "uint256"
        }
      ],
      "name": "biddingAuctions",
      "outputs": [
        {
          "internalType": "address",
          "name": "",
          "type": "address"
        }
      ],
      "stateMutability": "view",
      "type": "function"
    },
    {
      "inputs": [
        {
          "internalType": "address",
          "name": "_nftAddress",
          "type": "address"
        },
        {
          "internalType": "uint256",
          "name": "_tokenId",
          "type": "uint256"
        }
      ],
      "name": "createAuction",
      "outputs": [],
      "stateMutability": "nonpayable",
      "type": "function"
    },
    {
      "inputs": [],
      "name": "getBiddingAuctions",
      "outputs": [
        {
          "internalType": "address[]",
          "name": "",
          "type": "address[]"
        }
      ],
      "stateMutability": "view",
      "type": "function"
    },
    {
      "inputs": [],
      "name": "getContractType",
      "outputs": [
        {
          "internalType": "enum Constants.ContractType",
          "name": "",
          "type": "uint8"
        }
      ],
      "stateMutability": "pure",
      "type": "function"
    },
    {
      "inputs": [],
      "name": "getPendingPaymentAuctions",
      "outputs": [
        {
          "internalType": "address[]",
          "name": "",
          "type": "address[]"
        }
      ],
      "stateMutability": "view",
      "type": "function"
    },
    {
      "inputs": [],
      "name": "getVerifyWinnerAuctions",
      "outputs": [
        {
          "internalType": "address[]",
          "name": "",
          "type": "address[]"
        }
      ],
      "stateMutability": "view",
      "type": "function"
    },
    {
      "inputs": [],
      "name": "owner",
      "outputs": [
        {
          "internalType": "address",
          "name": "",
          "type": "address"
        }
      ],
      "stateMutability": "view",
      "type": "function"
    },
    {
      "inputs": [
        {
          "internalType": "uint256",
          "name": "",
          "type": "uint256"
        }
      ],
      "name": "pendingPaymentAuctions",
      "outputs": [
        {
          "internalType": "address",
          "name": "",
          "type": "address"
        }
      ],
      "stateMutability": "view",
      "type": "function"
    },
    {
      "inputs": [
        {
          "internalType": "address",
          "name": "_auctionAddress",
          "type": "address"
        }
      ],
      "name": "removeBiddingAuction",
      "outputs": [],
      "stateMutability": "nonpayable",
      "type": "function"
    },
    {
      "inputs": [
        {
          "internalType": "address",
          "name": "_auctionAddress",
          "type": "address"
        }
      ],
      "name": "removePendingPaymentAuction",
      "outputs": [],
      "stateMutability": "nonpayable",
      "type": "function"
    },
    {
      "inputs": [
        {
          "internalType": "address",
          "name": "_auctionAddress",
          "type": "address"
        }
      ],
      "name": "removeVerifyWinnerAuction",
      "outputs": [],
      "stateMutability": "nonpayable",
      "type": "function"
    },
    {
      "inputs": [
        {
          "internalType": "address",
          "name": "_auctionAddress",
          "type": "address"
        }
      ],
      "name": "searchBiddingAuction",
      "outputs": [
        {
          "internalType": "int256",
          "name": "",
          "type": "int256"
        }
      ],
      "stateMutability": "view",
      "type": "function"
    },
    {
      "inputs": [
        {
          "internalType": "address",
          "name": "_auctionAddress",
          "type": "address"
        }
      ],
      "name": "searchPendingPaymentAuction",
      "outputs": [
        {
          "internalType": "int256",
          "name": "",
          "type": "int256"
        }
      ],
      "stateMutability": "view",
      "type": "function"
    },
    {
      "inputs": [
        {
          "internalType": "address",
          "name": "_auctionAddress",
          "type": "address"
        }
      ],
      "name": "searchVerifyWinnerAuction",
      "outputs": [
        {
          "internalType": "int256",
          "name": "",
          "type": "int256"
        }
      ],
      "stateMutability": "view",
      "type": "function"
    },
    {
      "inputs": [
        {
          "internalType": "uint256",
          "name": "",
          "type": "uint256"
        }
      ],
      "name": "verifyWinnerAuctions",
      "outputs": [
        {
          "internalType": "address",
          "name": "",
          "type": "address"
        }
      ],
      "stateMutability": "view",
      "type": "function"
    }
  ],
  "transactionHash": "0xc9712b1c63025fe8fc664bffad6f93e555efbb2e7df11d6407fbaa2419ef00e4",
  "args": [
    "0xf41A3cd9a7De9741f6ccb2807d9215Aa63D7f707",
    "0x6e4c3A62ae617b06793A10AE20F3BB76045C8E33",
    "0xfdFe1DAF67Bc5Be4d78Be65Ab4997DC078D4A069",
    "0xEDe067920263fBbC0bE119648907ace7b8efB175"
  ],
  "numDeployments": 1,
  "solcInputHash": "5a73584ef5938b2b119319ecaaa7cfe3",
  "bytecode": "0x60a06040523480156200001157600080fd5b5060405162001188380380620011888339810160408190526200003491620000c9565b3360601b608052600380546001600160a01b039586166001600160a01b031991821617909155600480549486169482169490941790935560058054928516928416929092179091556006805491909316911617905562000137565b60006001600160a01b0382165b92915050565b620000ad816200008f565b8114620000b957600080fd5b50565b80516200009c81620000a2565b60008060008060808587031215620000e457620000e4600080fd5b6000620000f28787620000bc565b94505060206200010587828801620000bc565b93505060406200011887828801620000bc565b92505060606200012b87828801620000bc565b91505092959194509250565b60805160601c6110326200015660003960006101e701526110326000f3fe608060405234801561001057600080fd5b50600436106101165760003560e01c80638da5cb5b116100a2578063d3f7c1c011610071578063d3f7c1c01461023e578063e0f0f2cf14610251578063e558019114610259578063f575795c1461026c578063f7e882981461027f57600080fd5b80638da5cb5b146101e25780639188319c14610209578063c51a29e01461021c578063d054059c1461022b57600080fd5b80637ca80099116100e95780637ca80099146101815780638214fe33146101a157806382b4318c146101b457806387c8b7fb146101c75780638ac3f2ba146101cf57600080fd5b80630d800c1a1461011b5780630e652b48146101445780631d6a99651461015957806344b8f1891461016c575b600080fd5b61012e610129366004610bd4565b610292565b60405161013b9190610c15565b60405180910390f35b610157610152366004610c37565b6102bc565b005b610157610167366004610c37565b610331565b610174610446565b60405161013b9190610cb5565b61019461018f366004610c37565b6104a8565b60405161013b9190610cd3565b6101946101af366004610c37565b610510565b6101576101c2366004610c37565b61056e565b6101746105e5565b61012e6101dd366004610bd4565b610645565b61012e7f000000000000000000000000000000000000000000000000000000000000000081565b610157610217366004610c37565b610655565b600160405161013b9190610d2a565b61012e610239366004610bd4565b6106cd565b61015761024c366004610c37565b6106dd565b6101746107c8565b610194610267366004610c37565b610828565b61015761027a366004610c37565b610886565b61015761028d366004610d38565b610971565b600081815481106102a257600080fd5b6000918252602090912001546001600160a01b0316905081565b60006102c733610aed565b60048111156102d8576102d8610ce1565b146102e257600080fd5b600080546001810182559080527f290decd9548b62a8d60345a988386fc84ba6bc95484008f6362f93160ef3e5630180546001600160a01b0319166001600160a01b0392909216919091179055565b600061033c33610aed565b600481111561034d5761034d610ce1565b1461035757600080fd5b600080610363836104a8565b90506000811261044157905080805b60025461038190600190610d8b565b81101561040c576002610395826001610da2565b815481106103a5576103a5610dba565b600091825260209091200154600280546001600160a01b0390921691839081106103d1576103d1610dba565b600091825260209091200180546001600160a01b0319166001600160a01b03929092169190911790558061040481610dd0565b915050610372565b50600280548061041e5761041e610deb565b600082815260209020810160001990810180546001600160a01b03191690550190555b505050565b6060600280548060200260200160405190810160405280929190818152602001828054801561049e57602002820191906000526020600020905b81546001600160a01b03168152600190910190602001808311610480575b5050505050905090565b6000805b60025481101561050657826001600160a01b0316600282815481106104d3576104d3610dba565b6000918252602090912001546001600160a01b031614156104f45792915050565b806104fe81610dd0565b9150506104ac565b5060001992915050565b6000805b60015481101561050657826001600160a01b03166001828154811061053b5761053b610dba565b6000918252602090912001546001600160a01b0316141561055c5792915050565b8061056681610dd0565b915050610514565b600061057933610aed565b600481111561058a5761058a610ce1565b1461059457600080fd5b6001805480820182556000919091527fb10e2d527612073b26eecdfd717e6a320cf44b4afac2b0732d9fcbe2b7fa0cf60180546001600160a01b0319166001600160a01b0392909216919091179055565b6060600180548060200260200160405190810160405280929190818152602001828054801561049e576020028201919060005260206000209081546001600160a01b03168152600190910190602001808311610480575050505050905090565b600181815481106102a257600080fd5b600061066033610aed565b600481111561067157610671610ce1565b1461067b57600080fd5b600280546001810182556000919091527f405787fa12a823e0f2b7631cc41b3ba8828b3321ca811111fa75cd3aa3bb5ace0180546001600160a01b0319166001600160a01b0392909216919091179055565b600281815481106102a257600080fd5b60006106e833610aed565b60048111156106f9576106f9610ce1565b1461070357600080fd5b60008061070f83610510565b90506000811261044157905080805b6001805461072c9190610d8b565b8110156107b657600161073f8282610da2565b8154811061074f5761074f610dba565b600091825260209091200154600180546001600160a01b03909216918390811061077b5761077b610dba565b600091825260209091200180546001600160a01b0319166001600160a01b0392909216919091179055806107ae81610dd0565b91505061071e565b50600180548061041e5761041e610deb565b6060600080548060200260200160405190810160405280929190818152602001828054801561049e576020028201919060005260206000209081546001600160a01b03168152600190910190602001808311610480575050505050905090565b6000805b60005481101561050657826001600160a01b03166000828154811061085357610853610dba565b6000918252602090912001546001600160a01b031614156108745792915050565b8061087e81610dd0565b91505061082c565b600061089133610aed565b60048111156108a2576108a2610ce1565b146108ac57600080fd5b6000806108b883610828565b90506000811261044157905080805b6000546108d690600190610d8b565b81101561095f5760006108ea826001610da2565b815481106108fa576108fa610dba565b600091825260208220015481546001600160a01b0390911691908390811061092457610924610dba565b600091825260209091200180546001600160a01b0319166001600160a01b03929092169190911790558061095781610dd0565b9150506108c7565b50600080548061041e5761041e610deb565b600080836001600160a01b03168360405160240161098f9190610cd3565b60408051601f198184030181529181526020820180516001600160e01b03166331a9108f60e11b179052516109c49190610e53565b6000604051808303816000865af19150503d8060008114610a01576040519150601f19603f3d011682016040523d82523d6000602084013e610a06565b606091505b509150915081610a315760405162461bcd60e51b8152600401610a2890610e5f565b60405180910390fd5b600081806020019051810190610a479190610ea5565b9050336001600160a01b03821614610a715760405162461bcd60e51b8152600401610a2890610f14565b60065460048054600554604051633d85f50560e21b81526001600160a01b0394851694859463f617d41494610ab39433948e948e949381169392169101610f24565b600060405180830381600087803b158015610acd57600080fd5b505af1158015610ae1573d6000803e3d6000fd5b50505050505050505050565b60408051600481526024810182526020810180516001600160e01b0316630628d14f60e51b1790529051600091829182916001600160a01b03861691610b339190610e53565b6000604051808303816000865af19150503d8060008114610b70576040519150601f19603f3d011682016040523d82523d6000602084013e610b75565b606091505b509150915081610b975760405162461bcd60e51b8152600401610a2890610fb3565b80806020019051810190610bab9190610fdb565b949350505050565b805b8114610bc057600080fd5b50565b8035610bce81610bb3565b92915050565b600060208284031215610be957610be9600080fd5b6000610bab8484610bc3565b60006001600160a01b038216610bce565b610c0f81610bf5565b82525050565b60208101610bce8284610c06565b610bb581610bf5565b8035610bce81610c23565b600060208284031215610c4c57610c4c600080fd5b6000610bab8484610c2c565b6000610c648383610c06565b505060200190565b6000610c76825190565b80845260209384019383018060005b83811015610caa578151610c998882610c58565b975060208301925050600101610c85565b509495945050505050565b60208082528101610cc68184610c6c565b9392505050565b80610c0f565b60208101610bce8284610ccd565b634e487b7160e01b600052602160045260246000fd5b60058110610bc057610bc0610ce1565b80610d1181610cf7565b919050565b6000610bce82610d07565b610c0f81610d16565b60208101610bce8284610d21565b60008060408385031215610d4e57610d4e600080fd5b6000610d5a8585610c2c565b9250506020610d6b85828601610bc3565b9150509250929050565b634e487b7160e01b600052601160045260246000fd5b600082821015610d9d57610d9d610d75565b500390565b60008219821115610db557610db5610d75565b500190565b634e487b7160e01b600052603260045260246000fd5b6000600019821415610de457610de4610d75565b5060010190565b634e487b7160e01b600052603160045260246000fd5b60005b83811015610e1c578181015183820152602001610e04565b83811115610e2b576000848401525b50505050565b6000610e3b825190565b610e49818560208601610e01565b9290920192915050565b6000610cc68284610e31565b60208082528101610bce81601f81527f556e61626c6520746f2064657465726d696e65206e667420686f6c6465722100602082015260400190565b8051610bce81610c23565b600060208284031215610eba57610eba600080fd5b6000610bab8484610e9a565b602e81526000602082017f41756374696f6e2063616e206f6e6c792062652063726561746564206279205681526d4f43204e465420686f6c6465722160901b602082015291505b5060400190565b60208082528101610bce81610ec6565b60a08101610f328288610c06565b610f3f6020830187610c06565b610f4c6040830186610ccd565b610f596060830185610c06565b610f666080830184610c06565b9695505050505050565b602681526000602082017f556e61626c6520746f2064657465726d696e652074686520636f6e747261637481526520747970652160d01b60208201529150610f0d565b60208082528101610bce81610f70565b60058110610bc057600080fd5b8051610bce81610fc3565b600060208284031215610ff057610ff0600080fd5b6000610bab8484610fd056fea26469706673582212200acca512a98dc80c4fdfa127b8a6dff9a5d58ecd160f15bd473fd6741de411f164736f6c63430008080033",
  "devdoc": {
    "kind": "dev",
    "methods": {},
    "version": 1
  },
  "userdoc": {
    "kind": "user",
    "methods": {},
    "version": 1
  },
  "storageLayout": {
    "storage": [
      {
        "astId": 4253,
        "contract": "contracts/AuctionContracts.sol:AuctionManager",
        "label": "biddingAuctions",
        "offset": 0,
        "slot": "0",
        "type": "t_array(t_address)dyn_storage"
      },
      {
        "astId": 4256,
        "contract": "contracts/AuctionContracts.sol:AuctionManager",
        "label": "verifyWinnerAuctions",
        "offset": 0,
        "slot": "1",
        "type": "t_array(t_address)dyn_storage"
      },
      {
        "astId": 4259,
        "contract": "contracts/AuctionContracts.sol:AuctionManager",
        "label": "pendingPaymentAuctions",
        "offset": 0,
        "slot": "2",
        "type": "t_array(t_address)dyn_storage"
      },
      {
        "astId": 4261,
        "contract": "contracts/AuctionContracts.sol:AuctionManager",
        "label": "auctionRegistryAddress",
        "offset": 0,
        "slot": "3",
        "type": "t_address"
      },
      {
        "astId": 4263,
        "contract": "contracts/AuctionContracts.sol:AuctionManager",
        "label": "eventEmitterAddress",
        "offset": 0,
        "slot": "4",
        "type": "t_address"
      },
      {
        "astId": 4265,
        "contract": "contracts/AuctionContracts.sol:AuctionManager",
        "label": "auctionKeeperAddress",
        "offset": 0,
        "slot": "5",
        "type": "t_address"
      },
      {
        "astId": 4267,
        "contract": "contracts/AuctionContracts.sol:AuctionManager",
        "label": "contractFactoryAddress",
        "offset": 0,
        "slot": "6",
        "type": "t_address"
      }
    ],
    "types": {
      "t_address": {
        "encoding": "inplace",
        "label": "address",
        "numberOfBytes": "20"
      },
      "t_array(t_address)dyn_storage": {
        "base": "t_address",
        "encoding": "dynamic_array",
        "label": "address[]",
        "numberOfBytes": "32"
      }
    }
  }
}