{
  "address": "0xC7970C31b38BD51724546f66716f345b0b7b81eD",
  "abi": [
    {
      "inputs": [
        {
          "internalType": "address",
          "name": "_auctionRegistryAddress",
          "type": "address"
        }
      ],
      "stateMutability": "nonpayable",
      "type": "constructor"
    },
    {
      "inputs": [],
      "name": "ContractFactory_RestrictedOwnerAccess",
      "type": "error"
    },
    {
      "inputs": [],
      "name": "ContractFactory__RestrictedManagerAccess",
      "type": "error"
    },
    {
      "inputs": [],
      "name": "auctionManagerAddress",
      "outputs": [
        {
          "internalType": "address",
          "name": "",
          "type": "address"
        }
      ],
      "stateMutability": "view",
      "type": "function"
    },
    {
      "inputs": [],
      "name": "auctionRegistryAddress",
      "outputs": [
        {
          "internalType": "address",
          "name": "",
          "type": "address"
        }
      ],
      "stateMutability": "view",
      "type": "function"
    },
    {
      "inputs": [
        {
          "internalType": "address",
          "name": "_seller",
          "type": "address"
        },
        {
          "internalType": "address",
          "name": "_nftAddress",
          "type": "address"
        },
        {
          "internalType": "uint256",
          "name": "_tokenId",
          "type": "uint256"
        },
        {
          "internalType": "address",
          "name": "_eventEmitterAddress",
          "type": "address"
        },
        {
          "internalType": "address",
          "name": "_auctionKeeperAddress",
          "type": "address"
        }
      ],
      "name": "createAuction",
      "outputs": [],
      "stateMutability": "nonpayable",
      "type": "function"
    },
    {
      "inputs": [],
      "name": "getContractType",
      "outputs": [
        {
          "internalType": "enum Constants.ContractType",
          "name": "",
          "type": "uint8"
        }
      ],
      "stateMutability": "pure",
      "type": "function"
    },
    {
      "inputs": [],
      "name": "owner",
      "outputs": [
        {
          "internalType": "address",
          "name": "",
          "type": "address"
        }
      ],
      "stateMutability": "view",
      "type": "function"
    },
    {
      "inputs": [
        {
          "internalType": "address",
          "name": "_auctionManagerAddress",
          "type": "address"
        }
      ],
      "name": "setAuctionManagerAddress",
      "outputs": [],
      "stateMutability": "nonpayable",
      "type": "function"
    }
  ],
  "transactionHash": "0x4b57e534b7420d590fbd949672585efd9c9ce0933813495e0d19c0f2625d2605",
  "args": [
    "0x1796814b9C8779c78B7674223436ae303D79E94f"
  ],
  "numDeployments": 8,
  "solcInputHash": "0506793a948486ccfb8c846f3d3c68a3",
  "bytecode": "0x60a060405234801561001057600080fd5b5060405161473338038061473383398101604081905261002f9161009b565b3360601b608052600180546001600160a01b03929092166001600160a01b03199283168117909155600380549092161790556100c4565b60006001600160a01b0382165b92915050565b61008281610066565b811461008d57600080fd5b50565b805161007381610079565b6000602082840312156100b0576100b0600080fd5b60006100bc8484610090565b949350505050565b60805160601c6146446100ef6000396000818160a10152818161012301526101be01526146446000f3fe60806040523480156200001157600080fd5b50600436106200006a5760003560e01c806370749d9b146200006f5780638da5cb5b146200009b578063c51a29e014620000c3578063cd7dc52d14620000d4578063f5d8a57914620000ed578063f617d4141462000101575b600080fd5b60005462000083906001600160a01b031681565b604051620000929190620002d9565b60405180910390f35b620000837f000000000000000000000000000000000000000000000000000000000000000081565b60036040516200009291906200033e565b620000eb620000e536600462000372565b62000118565b005b60015462000083906001600160a01b031681565b620000eb62000112366004620003b3565b6200018e565b336001600160a01b037f000000000000000000000000000000000000000000000000000000000000000016146200016257604051630c74017560e41b815260040160405180910390fd5b600080546001600160a01b039092166001600160a01b0319928316811790915560028054909216179055565b6000546001600160a01b03163314620001ba57604051633cb5ab2560e11b815260040160405180910390fd5b60007f00000000000000000000000000000000000000000000000000000000000000008660008054906101000a90046001600160a01b0316858589896040516200020490620002a7565b6200021697969594939291906200043e565b604051809103906000f08015801562000233573d6000803e3d6000fd5b50600354604051631651be4b60e21b81529192506001600160a01b031690635946f92c906200026b90889088908690600401620004b4565b600060405180830381600087803b1580156200028657600080fd5b505af11580156200029b573d6000803e3d6000fd5b50505050505050505050565b61412c80620004e383390190565b60006001600160a01b0382165b92915050565b620002d381620002b5565b82525050565b60208101620002c28284620002c8565b634e487b7160e01b600052602160045260246000fd5b60058110620003125762000312620002e9565b50565b806200032181620002ff565b919050565b6000620002c28262000315565b620002d38162000326565b60208101620002c2828462000333565b6200035981620002b5565b81146200031257600080fd5b8035620002c2816200034e565b600060208284031215620003895762000389600080fd5b600062000397848462000365565b949350505050565b8062000359565b8035620002c2816200039f565b600080600080600060a08688031215620003d057620003d0600080fd5b6000620003de888862000365565b9550506020620003f18882890162000365565b94505060406200040488828901620003a6565b9350506060620004178882890162000365565b92505060806200042a8882890162000365565b9150509295509295909350565b80620002d3565b60e081016200044e828a620002c8565b6200045d6020830189620002c8565b6200046c6040830188620002c8565b6200047b6060830187620002c8565b6200048a6080830186620002c8565b6200049960a0830185620002c8565b620004a860c083018462000437565b98975050505050505050565b60608101620004c48286620002c8565b620004d3602083018562000437565b620003976040830184620002c856fe60c0604052600680546001600160801b031916600117905562015180600d8190556010556012805461ffff191690556014805460ff60a01b191690553480156200004857600080fd5b506040516200412c3803806200412c8339810160408190526200006b91620002ca565b606087811b6001600160601b03199081166080529087901b1660a052600380546001600160a01b03199081166001600160a01b0388811691821790935560028054831687851617905560048054831690911790556005805482168784161790556000805490911691841691909117905560018190556012805460ff191690556006546200010d906001600160801b03166200018b602090811b6200271517901c565b600755600554604051637047508d60e11b81526001600160a01b039091169063e08ea11a906200014a9030908a9087908790429060040162000391565b600060405180830381600087803b1580156200016557600080fd5b505af11580156200017a573d6000803e3d6000fd5b505050505050505050505062000581565b60008062000198620001cb565b90506000620001a88285620003fd565b620001c3906ec097ce7bc90715b34b9f100000000062000435565b949350505050565b60008073d4a33860578de61dbabdc8bfdb98fd742fa7028e90506000816001600160a01b031663feaf968c6040518163ffffffff1660e01b815260040160a06040518083038186803b1580156200022157600080fd5b505afa15801562000236573d6000803e3d6000fd5b505050506040513d601f19601f820116820180604052508101906200025c919062000469565b505050915050806402540be400620002759190620004ed565b9250505090565b60006001600160a01b0382165b92915050565b6200029a816200027c565b8114620002a657600080fd5b50565b805162000289816200028f565b806200029a565b80516200028981620002b6565b600080600080600080600060e0888a031215620002ea57620002ea600080fd5b6000620002f88a8a620002a9565b97505060206200030b8a828b01620002a9565b96505060406200031e8a828b01620002a9565b9550506060620003318a828b01620002a9565b9450506080620003448a828b01620002a9565b93505060a0620003578a828b01620002a9565b92505060c06200036a8a828b01620002bd565b91505092959891949750929550565b62000384816200027c565b82525050565b8062000384565b60a08101620003a1828862000379565b620003b0602083018762000379565b620003bf604083018662000379565b620003ce60608301856200038a565b620003dd60808301846200038a565b9695505050505050565b634e487b7160e01b600052601160045260246000fd5b60008160001904831182151516156200041a576200041a620003e7565b500290565b634e487b7160e01b600052601260045260246000fd5b6000826200044757620004476200041f565b500490565b6001600160501b0381166200029a565b805162000289816200044c565b600080600080600060a08688031215620004865762000486600080fd5b60006200049488886200045c565b9550506020620004a788828901620002bd565b9450506040620004ba88828901620002bd565b9350506060620004cd88828901620002bd565b9250506080620004e0888289016200045c565b9150509295509295909350565b6000826001600160ff1b030482116000841360008413161615620005155762000515620003e7565b81600160ff1b0583126000841260008413161615620005385762000538620003e7565b82600160ff1b05821260008413600084121616156200055b576200055b620003e7565b826001600160ff1b0305821260008412600084121616156200041a576200041a620003e7565b60805160601c60a05160601c613aa6620006866000396000818161027e015281816109ae01528181610dbe01528181610e1d0152818161105a01528181611188015281816111fd01528181611302015281816114410152818161158b01528181611754015281816117d70152818161182e0152818161196501528181611a5901528181611c7901528181611d3501528181611dfd01528181611ec1015281816121250152818161225b015281816123ec015281816124f2015261258901526000818161040801528181610d8b01528181610e5201528181610f7a01528181611bb401528181612001015281816120ac0152818161218d01526124250152613aa66000f3fe6080604052600436106102675760003560e01c8063898fca8e11610144578063d6f7b688116100b6578063e5ce7f771161007a578063e5ce7f7714610686578063e92ec65d146106a6578063f40d0601146106bc578063f5a2a53d146106c4578063f790c882146106fa578063ffac02d91461071a57600080fd5b8063d6f7b68814610611578063dbb9e0cd14610626578063dc9aaf361461063b578063dcd4c06314610650578063e1abf80c1461066657600080fd5b80639979ef45116101085780639979ef451461058d57806399a7b9a9146105ad578063c3691aa5146105b5578063c51a29e0146105ca578063d5055fa8146105e6578063d57bde79146105fb57600080fd5b8063898fca8e146104ff5780638b142225146105155780639157e1ba1461052b57806391f90157146105575780639500a4b91461057757600080fd5b80634ba9a927116101dd5780636d4d09d7116101a15780636d4d09d71461046a5780636fc60170146104805780636fefb0471461049557806371d05ecf146104aa578063725be527146104bf57806379dfe884146104df57600080fd5b80634ba9a927146103b35780634c2a178a146103c95780634df8ccb1146103f65780635917dc5f1461042a5780635bf8633a1461044a57600080fd5b80631a81d59c1161022f5780631a81d59c1461030f5780631ec2bf31146103245780631fcd47f514610346578063235965801461035b578063251d9abe1461037157806347e9e9781461038657600080fd5b806308551a531461026c578063117df088146102b657806315488b88146102c057806316662d99146102e357806317d70f7c146102f9575b600080fd5b34801561027857600080fd5b506102a07f000000000000000000000000000000000000000000000000000000000000000081565b6040516102ad91906128f7565b60405180910390f35b6102be610741565b005b3480156102cc57600080fd5b506102d660075481565b6040516102ad919061290b565b3480156102ef57600080fd5b506102d6600b5481565b34801561030557600080fd5b506102d660015481565b34801561031b57600080fd5b506102be6108da565b34801561033057600080fd5b50610339610c80565b6040516102ad9190612921565b34801561035257600080fd5b506102d6610cae565b34801561036757600080fd5b506102d6600d5481565b34801561037d57600080fd5b506102d6610cd3565b34801561039257600080fd5b506102d66103a136600461294e565b60166020526000908152604090205481565b3480156103bf57600080fd5b506102d660095481565b3480156103d557600080fd5b50600a546103e9906001600160801b031681565b6040516102ad919061297e565b34801561040257600080fd5b506102a07f000000000000000000000000000000000000000000000000000000000000000081565b34801561043657600080fd5b506006546103e9906001600160801b031681565b34801561045657600080fd5b506000546102a0906001600160a01b031681565b34801561047657600080fd5b506102d660085481565b34801561048c57600080fd5b506102d6610cf3565b3480156104a157600080fd5b50610339610d13565b3480156104b657600080fd5b506102be610d1c565b3480156104cb57600080fd5b506102be6104da36600461299f565b610f33565b3480156104eb57600080fd5b506102be6104fa36600461299f565b6111f2565b34801561050b57600080fd5b506102d6600e5481565b34801561052157600080fd5b506102d660115481565b34801561053757600080fd5b5060125461054a90610100900460ff1681565b6040516102ad9190612a09565b34801561056357600080fd5b506014546102a0906001600160a01b031681565b34801561058357600080fd5b506102d6600f5481565b34801561059957600080fd5b506102be6105a8366004612a28565b611436565b6102be611580565b3480156105c157600080fd5b506102be611749565b3480156105d657600080fd5b5060006040516102ad9190612a77565b3480156105f257600080fd5b50610339611913565b34801561060757600080fd5b506102d660135481565b34801561061d57600080fd5b5061033961191c565b34801561063257600080fd5b50610339611924565b34801561064757600080fd5b5061033961192d565b34801561065c57600080fd5b506102d6600c5481565b34801561067257600080fd5b506102be610681366004612a9f565b611936565b34801561069257600080fd5b506102be6106a1366004612af4565b611aeb565b3480156106b257600080fd5b506102d660105481565b6102be612312565b3480156106d057600080fd5b506103e96106df36600461294e565b6015602052600090815260409020546001600160801b031681565b34801561070657600080fd5b506102a0610715366004612a28565b6126eb565b34801561072657600080fd5b506012546107349060ff1681565b6040516102ad9190612b43565b6014546001600160a01b03163314158061077e57506014546001600160a01b03163314801561077e5750601454600160a01b900460ff1615156001145b806107a157506014546001600160a01b0316331480156107a157506107a1611913565b6107c65760405162461bcd60e51b81526004016107bd90612b7b565b60405180910390fd5b3360008181526015602052604080822080546001600160801b0319811690915590516001600160801b039091169290839061080090612b8e565b60006040518083038185875af1925050503d806000811461083d576040519150601f19603f3d011682016040523d82523d6000602084013e610842565b606091505b50509050806108635760405162461bcd60e51b81526004016107bd90612bc3565b600554600054600154604051632b9a448760e21b81526001600160a01b039384169363ae69121c936108a49330939290911691339089904290600401612bf1565b600060405180830381600087803b1580156108be57600080fd5b505af11580156108d2573d6000803e3d6000fd5b505050505050565b6108e261192d565b6108fe5760405162461bcd60e51b81526004016107bd90612c70565b6009544210156109205760405162461bcd60e51b81526004016107bd90612ca4565b6014546001600160a01b031661093f5761093a6002611aeb565b610c1d565b6012805460ff1916600217905542600b819055600d5461095e91612cca565b600c5560135461096d9061274f565b6011819055600554600054600154601454601354600b54600c54604051630eb941ff60e01b81526001600160a01b0397881698630eb941ff986109e39830987f00000000000000000000000000000000000000000000000000000000000000009891831697909692909116949093600401612d01565b600060405180830381600087803b1580156109fd57600080fd5b505af1158015610a11573d6000803e3d6000fd5b5050600480546040516320ad0c6360e21b81526001600160a01b0390911693506382b4318c9250610a44913091016128f7565b600060405180830381600087803b158015610a5e57600080fd5b505af1158015610a72573d6000803e3d6000fd5b5050505060005b601754811015610c1b57600060178281548110610a9857610a98612d87565b6000918252602090912001546014546001600160a01b03918216925016811415610ac25750610c1b565b6001600160a01b0381166000908152601560205260409020546001600160801b031680610af0575050610c1b565b6001600160a01b03821660008181526015602052604080822080546001600160801b0319169055519091906001600160801b03841690610b2f90612b8e565b60006040518083038185875af1925050503d8060008114610b6c576040519150601f19603f3d011682016040523d82523d6000602084013e610b71565b606091505b5050905080610b925760405162461bcd60e51b81526004016107bd90612dc8565b600554600054600154604051632b9a448760e21b81526001600160a01b039384169363ae69121c93610bd39330939290911691899089904290600401612bf1565b600060405180830381600087803b158015610bed57600080fd5b505af1158015610c01573d6000803e3d6000fd5b505050505050508080610c1390612dd8565b915050610a79565b505b60048054604051633d5d5e5760e21b81526001600160a01b039091169163f575795c91610c4c913091016128f7565b600060405180830381600087803b158015610c6657600080fd5b505af1158015610c7a573d6000803e3d6000fd5b50505050565b600060045b60125460ff166005811115610c9c57610c9c6129c0565b1415610ca85750600190565b50600090565b6000600f54421115610cc05750600090565b42600f54610cce9190612df3565b905090565b6000600c54421115610ce55750600090565b42600c54610cce9190612df3565b6000600954421115610d055750600090565b42600954610cce9190612df3565b60006002610c85565b6014546001600160a01b03163314610d465760405162461bcd60e51b81526004016107bd90612e4b565b6005601254610100900460ff166006811115610d6457610d646129c0565b14610d815760405162461bcd60e51b81526004016107bd90612e8f565b6001600160a01b037f00000000000000000000000000000000000000000000000000000000000000008116600090815260166020526040808220547f000000000000000000000000000000000000000000000000000000000000000090931682528120549091610df091612cca565b905060008111610e1357604051631087674760e31b815260040160405180910390fd5b6001600160a01b037f000000000000000000000000000000000000000000000000000000000000000081166000908152601660205260408082208290557f0000000000000000000000000000000000000000000000000000000000000000831682528082208290556014549051919216908390610e8f90612b8e565b60006040518083038185875af1925050503d8060008114610ecc576040519150601f19603f3d011682016040523d82523d6000602084013e610ed1565b606091505b5050905080610ef25760405162461bcd60e51b81526004016107bd90612ec9565b600554600054600154604051634e71d3d960e11b81526001600160a01b0393841693639ce3a7b2936108a49330939290911691339089904290600401612ed9565b6000546001600160a01b03163314610f4a57600080fd5b610f52610c80565b610f5b57600080fd5b600181151514156110bc57610f706006611aeb565b6001600160a01b037f00000000000000000000000000000000000000000000000000000000000000001660008181526016602052604080822080549083905590519092908390610fbf90612b8e565b60006040518083038185875af1925050503d8060008114610ffc576040519150601f19603f3d011682016040523d82523d6000602084013e611001565b606091505b50509050806110225760405162461bcd60e51b81526004016107bd90612ec9565b600554600054600154601354604051633b7031cf60e21b81526001600160a01b039485169463edc0c73c9461108394309491909216927f00000000000000000000000000000000000000000000000000000000000000009190600401612f1b565b600060405180830381600087803b15801561109d57600080fd5b505af11580156110b1573d6000803e3d6000fd5b505050505050611152565b6110c66005611aeb565b6005546000546001546014546013546011546001600160a01b0395861695633a214a989530959082169490939116916110ff9190612cca565b6040518663ffffffff1660e01b815260040161111f959493929190612f67565b600060405180830381600087803b15801561113957600080fd5b505af115801561114d573d6000803e3d6000fd5b505050505b6005546000546001546014546013546040516379cb66b960e01b81526001600160a01b03958616956379cb66b9956111bd9530957f00000000000000000000000000000000000000000000000000000000000000009592841694919316919042908b90600401612f9c565b600060405180830381600087803b1580156111d757600080fd5b505af11580156111eb573d6000803e3d6000fd5b5050505050565b336001600160a01b037f0000000000000000000000000000000000000000000000000000000000000000161480159061123657506002546001600160a01b03163314155b1561125457604051630f14818760e31b815260040160405180910390fd5b61125c610d13565b6112785760405162461bcd60e51b81526004016107bd90612c70565b6000611282610cd3565b1161129f5760405162461bcd60e51b81526004016107bd90613039565b80156113fa5742600e8190556010546112b791612cca565b600f8190556012805460ff19166003179055600554600054600154601454601354600e5460405163122fce0b60e31b81526001600160a01b039687169763917e7058976113389730977f0000000000000000000000000000000000000000000000000000000000000000979183169690959290911693909290600401613049565b600060405180830381600087803b15801561135257600080fd5b505af1158015611366573d6000803e3d6000fd5b50506004805460405163034fdf0760e61b81526001600160a01b03909116935063d3f7c1c09250611399913091016128f7565b600060405180830381600087803b1580156113b357600080fd5b505af11580156113c7573d6000803e3d6000fd5b5050600480546040516324620c6760e21b81526001600160a01b039091169350639188319c92506111bd913091016128f7565b6114046003611aeb565b6004805460405163034fdf0760e61b81526001600160a01b039091169163d3f7c1c0916111bd913091016128f7565b50565b336001600160a01b037f00000000000000000000000000000000000000000000000000000000000000001614156114805760405163c8cfc8e960e01b815260040160405180910390fd5b61148861192d565b6114a45760405162461bcd60e51b81526004016107bd90612c70565b60006114ae610cf3565b116114cb5760405162461bcd60e51b81526004016107bd906130d9565b600754336000908152601560205260409020546001600160801b031610156115055760405162461bcd60e51b81526004016107bd9061311d565b60135481116115265760405162461bcd60e51b81526004016107bd90613161565b6013819055601480546001600160a01b03191633908117909155600554600054600154604051631a76c77d60e31b81526001600160a01b039384169463d3b63be8946111bd94309491169290919088904290600401612ed9565b336001600160a01b037f00000000000000000000000000000000000000000000000000000000000000001614156115ca5760405163c8cfc8e960e01b815260040160405180910390fd5b6115d261192d565b6115ee5760405162461bcd60e51b81526004016107bd90612c70565b336000908152601560205260409020546001600160801b0316156116245760405162461bcd60e51b81526004016107bd9061319a565b6007543410156116465760405162461bcd60e51b81526004016107bd906131d6565b336000908152601560205260408120805434929061166e9084906001600160801b03166131e6565b82546001600160801b039182166101009390930a92830291909202199091161790555060055460005460015460405163a02cc95760e01b81526001600160a01b039384169363a02cc957936116d3933093919092169190339034904290600401612ed9565b600060405180830381600087803b1580156116ed57600080fd5b505af1158015611701573d6000803e3d6000fd5b5050601780546001810182556000919091527fc624b66cc0138b8fabc209247f72d758e1cf3343756d543badbf24212bed8c150180546001600160a01b031916331790555050565b336001600160a01b037f0000000000000000000000000000000000000000000000000000000000000000161461179257604051630f14818760e31b815260040160405180910390fd5b6006601254610100900460ff1660068111156117b0576117b06129c0565b146117cd5760405162461bcd60e51b81526004016107bd9061324d565b6001600160a01b037f0000000000000000000000000000000000000000000000000000000000000000166000908152601660205260409020548061182457604051631087674760e31b815260040160405180910390fd5b6001600160a01b037f00000000000000000000000000000000000000000000000000000000000000001660008181526016602052604080822082905551909190839061186f90612b8e565b60006040518083038185875af1925050503d80600081146118ac576040519150601f19603f3d011682016040523d82523d6000602084013e6118b1565b606091505b50509050806118d25760405162461bcd60e51b81526004016107bd90612ec9565b6005546000546001546040516377a0addb60e11b81526001600160a01b039384169363ef415bb6936108a49330939290911691339089904290600401612ed9565b60006005610c85565b600080610c85565b60006003610c85565b60006001610c85565b61193e61191c565b61195a5760405162461bcd60e51b81526004016107bd9061328f565b336001600160a01b037f000000000000000000000000000000000000000000000000000000000000000016146119a25760405162461bcd60e51b81526004016107bd906132c5565b6000816001600160801b0316116119cb5760405162461bcd60e51b81526004016107bd906132fa565b4260088190556119e5906001600160801b03841690612cca565b600955600a80546001600160801b0319166001600160801b03848116919091179091558116601355601280546001919060ff191682800217905550600554600054600154600754600854600954604051632f7a085b60e01b81526001600160a01b0396871696632f7a085b96611a8a9630967f000000000000000000000000000000000000000000000000000000000000000096929093169490938b9060040161330a565b600060405180830381600087803b158015611aa457600080fd5b505af1158015611ab8573d6000803e3d6000fd5b5050600480546040516301cca56960e31b81526001600160a01b039091169350630e652b4892506108a4913091016128f7565b6002816006811115611aff57611aff6129c0565b1415611c1e57600160125460ff166005811115611b1e57611b1e6129c0565b14611b3b5760405162461bcd60e51b81526004016107bd906133a8565b611b43610cf3565b15611b605760405162461bcd60e51b81526004016107bd906133e5565b6014546001600160a01b031615611b895760405162461bcd60e51b81526004016107bd9061343e565b6005546014546040516353c0501960e11b81526001600160a01b039283169263a780a03292611be7927f000000000000000000000000000000000000000000000000000000000000000092909116903090600090429060040161347c565b600060405180830381600087803b158015611c0157600080fd5b505af1158015611c15573d6000803e3d6000fd5b505050506121f3565b6003816006811115611c3257611c326129c0565b1415611cda57600260125460ff166005811115611c5157611c516129c0565b14611c6e5760405162461bcd60e51b81526004016107bd906134e5565b336001600160a01b037f0000000000000000000000000000000000000000000000000000000000000000161480611cbe57506004611cab3361276e565b6004811115611cbc57611cbc6129c0565b145b611b895760405162461bcd60e51b81526004016107bd90613539565b6004816006811115611cee57611cee6129c0565b1415611f2657600360125460ff166005811115611d0d57611d0d6129c0565b14611d2a5760405162461bcd60e51b81526004016107bd906134e5565b336001600160a01b037f0000000000000000000000000000000000000000000000000000000000000000161480611d7a57506004611d673361276e565b6004811115611d7857611d786129c0565b145b611d965760405162461bcd60e51b81526004016107bd90613539565b601454600160a01b900460ff1615611dc05760405162461bcd60e51b81526004016107bd90613574565b6014546001600160a01b0390811660009081526015602052604080822080546001600160801b0319811690915590516001600160801b03909116927f000000000000000000000000000000000000000000000000000000000000000016908390611e2990612b8e565b60006040518083038185875af1925050503d8060008114611e66576040519150601f19603f3d011682016040523d82523d6000602084013e611e6b565b606091505b5050905080611e8c5760405162461bcd60e51b81526004016107bd90612dc8565b600554600054600154604051632b9a448760e21b81526001600160a01b039384169363ae69121c93611eed93309392909116917f00000000000000000000000000000000000000000000000000000000000000009089904290600401613584565b600060405180830381600087803b158015611f0757600080fd5b505af1158015611f1b573d6000803e3d6000fd5b5050505050506121f3565b6006816006811115611f3a57611f3a6129c0565b1480611f5757506005816006811115611f5557611f556129c0565b145b156120e457600460125460ff166005811115611f7557611f756129c0565b14611f925760405162461bcd60e51b81526004016107bd906134e5565b6000546001600160a01b03163314611fbc5760405162461bcd60e51b81526004016107bd906135dc565b6005816006811115611fd057611fd06129c0565b1415612067576005546014546040516353c0501960e11b81526001600160a01b039283169263a780a03292612034927f000000000000000000000000000000000000000000000000000000000000000092909116903090600090429060040161347c565b600060405180830381600087803b15801561204e57600080fd5b505af1158015612062573d6000803e3d6000fd5b505050505b600681600681111561207b5761207b6129c0565b14156120df576005546014546040516353c0501960e11b81526001600160a01b039283169263a780a03292611be7927f000000000000000000000000000000000000000000000000000000000000000092909116903090600290429060040161347c565b6121f3565b600060125460ff1660058111156120fd576120fd6129c0565b1461211a5760405162461bcd60e51b81526004016107bd906134e5565b336001600160a01b037f000000000000000000000000000000000000000000000000000000000000000016146121625760405162461bcd60e51b81526004016107bd9061360f565b6005546014546040516353c0501960e11b81526001600160a01b039283169263a780a032926121c0927f000000000000000000000000000000000000000000000000000000000000000092909116903090600090429060040161347c565b600060405180830381600087803b1580156121da57600080fd5b505af11580156121ee573d6000803e3d6000fd5b505050505b60128054600560ff1982168117835583929161ffff191617610100836006811115612220576122206129c0565b0217905550600554600054600154601454601354604051632eca920f60e01b81526001600160a01b0395861695632eca920f956122909530957f00000000000000000000000000000000000000000000000000000000000000009592841694919342939116918b9060040161361f565b600060405180830381600087803b1580156122aa57600080fd5b505af11580156122be573d6000803e3d6000fd5b50600492506122cb915050565b8160068111156122dd576122dd6129c0565b14156114335760048054604051631d6a996560e01b81526001600160a01b0390911691631d6a9965916111bd913091016128f7565b6014546001600160a01b0316331461233c5760405162461bcd60e51b81526004016107bd906136b0565b612344611924565b6123605760405162461bcd60e51b81526004016107bd90612c70565b600061236a610cae565b116123875760405162461bcd60e51b81526004016107bd90613707565b6011546013546123979190612cca565b34146123b55760405162461bcd60e51b81526004016107bd90613765565b601454600160a01b900460ff16156123df5760405162461bcd60e51b81526004016107bd9061379a565b6013546001600160a01b037f00000000000000000000000000000000000000000000000000000000000000008116600090815260166020526040808220939093556011547f00000000000000000000000000000000000000000000000000000000000000008316825290839020556014805460ff60a01b1916600160a01b179055600480549251631d6a996560e01b81529290911691631d6a996591612487913091016128f7565b600060405180830381600087803b1580156124a157600080fd5b505af11580156124b5573d6000803e3d6000fd5b5050600554600054600154601454604051638dcf508d60e01b81526001600160a01b039485169650638dcf508d955061251e9430948116939216907f000000000000000000000000000000000000000000000000000000000000000090349042906004016137aa565b600060405180830381600087803b15801561253857600080fd5b505af115801561254c573d6000803e3d6000fd5b5050600554600054600154601454604051636df0d25360e11b81526001600160a01b03948516965063dbe1a4a695506125b59430948116939216907f000000000000000000000000000000000000000000000000000000000000000090349042906004016137aa565b600060405180830381600087803b1580156125cf57600080fd5b505af11580156125e3573d6000803e3d6000fd5b50506012805460ff191660041790555050601480546001600160a01b0390811660009081526015602052604080822080546001600160801b03198116909155935490516001600160801b039094169391921690839061264190612b8e565b60006040518083038185875af1925050503d806000811461267e576040519150601f19603f3d011682016040523d82523d6000602084013e612683565b606091505b50509050806126a45760405162461bcd60e51b81526004016107bd90612dc8565b600554600054600154601454604051632b9a448760e21b81526001600160a01b039485169463ae69121c946108a49430949183169390929091169089904290600401612bf1565b601781815481106126fb57600080fd5b6000918252602090912001546001600160a01b0316905081565b60008061272061282c565b9050600061272e8285613812565b612747906ec097ce7bc90715b34b9f1000000000613847565b949350505050565b6000606461275e600584613812565b6127689190613847565b92915050565b60408051600481526024810182526020810180516001600160e01b0316630628d14f60e51b1790529051600091829182916001600160a01b038616916127b491906138a9565b6000604051808303816000865af19150503d80600081146127f1576040519150601f19603f3d011682016040523d82523d6000602084013e6127f6565b606091505b5091509150816128185760405162461bcd60e51b81526004016107bd906138ff565b808060200190518101906127479190613927565b60008073d4a33860578de61dbabdc8bfdb98fd742fa7028e90506000816001600160a01b031663feaf968c6040518163ffffffff1660e01b815260040160a06040518083038186803b15801561288157600080fd5b505afa158015612895573d6000803e3d6000fd5b505050506040513d601f19601f820116820180604052508101906128b99190613970565b505050915050806402540be4006128d091906139e8565b9250505090565b60006001600160a01b038216612768565b6128f1816128d7565b82525050565b6020810161276882846128e8565b806128f1565b602081016127688284612905565b8015156128f1565b602081016127688284612919565b612938816128d7565b811461143357600080fd5b80356127688161292f565b60006020828403121561296357612963600080fd5b60006127478484612943565b6001600160801b0381166128f1565b60208101612768828461296f565b801515612938565b80356127688161298c565b6000602082840312156129b4576129b4600080fd5b60006127478484612994565b634e487b7160e01b600052602160045260246000fd5b60078110611433576114336129c0565b806129f0816129d6565b919050565b6000612768826129e6565b6128f1816129f5565b602081016127688284612a00565b80612938565b803561276881612a17565b600060208284031215612a3d57612a3d600080fd5b60006127478484612a1d565b60058110611433576114336129c0565b806129f081612a49565b600061276882612a59565b6128f181612a63565b602081016127688284612a6e565b6001600160801b038116612938565b803561276881612a85565b60008060408385031215612ab557612ab5600080fd5b6000612ac18585612a94565b9250506020612ad285828601612a94565b9150509250929050565b6007811061143357600080fd5b803561276881612adc565b600060208284031215612b0957612b09600080fd5b60006127478484612ae9565b60068110611433576114336129c0565b806129f081612b15565b600061276882612b25565b6128f181612b2f565b602081016127688284612b3a565b601081526000602082016f43616e6e6f742077697468647261772160801b815291505b5060200190565b6020808252810161276881612b51565b90565b600081612768565b6016815260006020820175455448207769746864726177616c206661696c65642160501b81529150612b74565b6020808252810161276881612b96565b6000612768612b8b6001600160801b03841681565b6128f181612bd3565b60c08101612bff82896128e8565b612c0c60208301886128e8565b612c196040830187612905565b612c2660608301866128e8565b612c336080830185612be8565b612c4060a0830184612905565b979650505050505050565b600e81526000602082016d496c6c6567616c2073746174652160901b81529150612b74565b6020808252810161276881612c4b565b600d81526000602082016c4269642074696d65203e20302160981b81529150612b74565b6020808252810161276881612c80565b634e487b7160e01b600052601160045260246000fd5b60008219821115612cdd57612cdd612cb4565b500190565b6000612768826128d7565b600061276882612ce2565b6128f181612ced565b6101208101612d10828c6128e8565b612d1d602083018b612cf8565b612d2a604083018a6128e8565b612d376060830189612905565b612d4460808301886128e8565b612d5160a0830187612905565b612d5e60c0830186612905565b612d6b60e0830185612905565b612d79610100830184612905565b9a9950505050505050505050565b634e487b7160e01b600052603260045260246000fd5b6014815260006020820173455448207472616e73666572206661696c65642160601b81529150612b74565b6020808252810161276881612d9d565b6000600019821415612dec57612dec612cb4565b5060010190565b600082821015612e0557612e05612cb4565b500390565b602181526000602082017f526566756e642063616e206f6e6c79206265206d61646520746f2070617965728152602160f81b602082015291505b5060400190565b6020808252810161276881612e0a565b601781526000602082017f496e65676c696769626c6520666f7220726566756e642100000000000000000081529150612b74565b6020808252810161276881612e5b565b6013815260006020820172115512081d1c985b9cd9995c8819985a5b1959606a1b81529150612b74565b6020808252810161276881612e9f565b60c08101612ee782896128e8565b612ef460208301886128e8565b612f016040830187612905565b612f0e60608301866128e8565b612c336080830185612905565b60a08101612f2982886128e8565b612f3660208301876128e8565b612f436040830186612905565b612f506060830185612cf8565b612f5d6080830184612905565b9695505050505050565b60a08101612f7582886128e8565b612f8260208301876128e8565b612f8f6040830186612905565b612f5060608301856128e8565b6101008101612fab828b6128e8565b612fb8602083018a612cf8565b612fc560408301896128e8565b612fd26060830188612905565b612fdf60808301876128e8565b612fec60a0830186612905565b612ff960c0830185612905565b61300660e0830184612919565b9998505050505050505050565b600f81526000602082016e56657269667920657870697265642160881b81529150612b74565b6020808252810161276881613013565b6101008101613058828b6128e8565b613065602083018a612cf8565b61307260408301896128e8565b61307f6060830188612905565b61308c60808301876128e8565b61309960a0830186612905565b6130a660c0830185612905565b61300660e0830184612905565b600f81526000602082016e42696464696e6720636c6f7365642160881b81529150612b74565b60208082528101612768816130b3565b601d81526000602082017f4465706f73697420726571756972656420666f722062696464696e672100000081529150612b74565b60208082528101612768816130e9565b601b81526000602082017f426964206c6f776572207468616e20686967686573742062696421000000000081529150612b74565b602080825281016127688161312d565b60128152600060208201714163636f756e74206465706f73697465642160701b81529150612b74565b6020808252810161276881613171565b601581526000602082017457726f6e67206465706f73697420616d6f756e742160581b81529150612b74565b60208082528101612768816131aa565b60006001600160801b03821691506001600160801b0383169250826001600160801b0303821115612cdd57612cdd612cb4565b601a81526000602082017f4f776e657273686970206e6f74207472616e736665727265642100000000000081529150612b74565b6020808252810161276881613219565b60208082527f41756374696f6e206e6f7420696e20526567697374657265642073746174652191019081526000612b74565b602080825281016127688161325d565b600f81526000602082016e5265717569726573206f776e65722160881b81529150612b74565b602080825281016127688161329f565b600e81526000602082016d537461727420626964203c20302160901b81529150612b74565b60208082528101612768816132d5565b6101008101613319828b6128e8565b613326602083018a612cf8565b61333360408301896128e8565b6133406060830188612905565b61334d6080830187612905565b61335a60a0830186612905565b61336760c0830185612905565b61300660e0830184612be8565b601981526000602082017f496c6c6567616c207374617465207472616e736974696f6e210000000000000081529150612b74565b6020808252810161276881613374565b601681526000602082017561756374696f6e207374696c6c2062696464696e672160501b81529150612b74565b60208082528101612768816133b8565b602c81526000602082017f636c6f736541756374696f6e2e4e4f5f424944444552206d757374206e6f742081526b686176652077696e6e65722160a01b60208201529150612e44565b60208082528101612768816133f5565b60038110611433576114336129c0565b806129f08161344e565b60006127688261345e565b6128f181613468565b60a0810161348a8288612cf8565b61349760208301876128e8565b6134a460408301866128e8565b612f506060830185613473565b601981526000602082017f696c6c6567616c207374617465207472616e736974696f6e210000000000000081529150612b74565b60208082528101612768816134b1565b602781526000602082017f636c6f736541756374696f6e2072657175697265732073656c6c6572206f72208152666b65657065722160c81b60208201529150612e44565b60208082528101612768816134f5565b601481526000602082017377696e6e657220616c726561647920706169642160601b81529150612b74565b6020808252810161276881613549565b60c0810161359282896128e8565b61359f60208301886128e8565b6135ac6040830187612905565b612c266060830186612cf8565b600c81526000602082016b37b7363c9020bab234ba37b960a11b81529150612b74565b60208082528101612768816135b9565b600c81526000602082016b6f6e6c792073656c6c65722160a01b81529150612b74565b60208082528101612768816135ec565b610100810161362e828b6128e8565b61363b602083018a612cf8565b61364860408301896128e8565b6136556060830188612905565b6136626080830187612905565b61366f60a08301866128e8565b61367c60c0830185612905565b61300660e0830184612a00565b601081526000602082016f4f6e6c792077696e6e6572207061792160801b81529150612b74565b6020808252810161276881613689565b602a81526000602082017f5061796d656e742077696e646f7720666f722066756c6c20736574746c656d658152696e7420636c6f7365642160b01b60208201529150612e44565b60208082528101612768816136c0565b603181526000602082017f5061796d656e742076616c756520213d202877696e6e696e6720626964202b20815270706c6174666f726d20636861726765292160781b60208201529150612e44565b6020808252810161276881613717565b600e81526000602082016d596f75206861766520706169642160901b81529150612b74565b6020808252810161276881613775565b60e081016137b8828a6128e8565b6137c560208301896128e8565b6137d26040830188612905565b6137df60608301876128e8565b6137ec6080830186612cf8565b6137f960a0830185612905565b61380660c0830184612905565b98975050505050505050565b600081600019048311821515161561382c5761382c612cb4565b500290565b634e487b7160e01b600052601260045260246000fd5b60008261385657613856613831565b500490565b60005b8381101561387657818101518382015260200161385e565b83811115610c7a5750506000910152565b6000613891825190565b61389f81856020860161385b565b9290920192915050565b60006138b58284613887565b9392505050565b602681526000602082017f556e61626c6520746f2064657465726d696e652074686520636f6e747261637481526520747970652160d01b60208201529150612e44565b60208082528101612768816138bc565b6005811061143357600080fd5b80516127688161390f565b60006020828403121561393c5761393c600080fd5b6000612747848461391c565b69ffffffffffffffffffff8116612938565b805161276881613948565b805161276881612a17565b600080600080600060a0868803121561398b5761398b600080fd5b6000613997888861395a565b95505060206139a888828901613965565b94505060406139b988828901613965565b93505060606139ca88828901613965565b92505060806139db8882890161395a565b9150509295509295909350565b6000826001600160ff1b030482116000841360008413161615613a0d57613a0d612cb4565b81600160ff1b0583126000841260008413161615613a2d57613a2d612cb4565b82600160ff1b0582126000841360008412161615613a4d57613a4d612cb4565b826001600160ff1b03058212600084126000841216161561382c5761382c612cb456fea2646970667358221220f03e5e51ad1d13f9acd1ff65d6636bf9674ade2a6ec406e742d251399596197264736f6c63430008080033a2646970667358221220e5b9cf00caef69d891d355b4c08d3ab8799c7f637783dacbf3a1ceb5dea6a67d64736f6c63430008080033",
  "devdoc": {
    "kind": "dev",
    "methods": {},
    "version": 1
  },
  "userdoc": {
    "kind": "user",
    "methods": {},
    "version": 1
  },
  "storageLayout": {
    "storage": [
      {
        "astId": 2785,
        "contract": "contracts/AuctionContracts.sol:ContractFactory",
        "label": "auctionManagerAddress",
        "offset": 0,
        "slot": "0",
        "type": "t_address"
      },
      {
        "astId": 2787,
        "contract": "contracts/AuctionContracts.sol:ContractFactory",
        "label": "auctionRegistryAddress",
        "offset": 0,
        "slot": "1",
        "type": "t_address"
      },
      {
        "astId": 2790,
        "contract": "contracts/AuctionContracts.sol:ContractFactory",
        "label": "auctionManager",
        "offset": 0,
        "slot": "2",
        "type": "t_contract(AuctionManager)4794"
      },
      {
        "astId": 2793,
        "contract": "contracts/AuctionContracts.sol:ContractFactory",
        "label": "auctionRegistry",
        "offset": 0,
        "slot": "3",
        "type": "t_contract(AuctionRegistry)3828"
      }
    ],
    "types": {
      "t_address": {
        "encoding": "inplace",
        "label": "address",
        "numberOfBytes": "20"
      },
      "t_contract(AuctionManager)4794": {
        "encoding": "inplace",
        "label": "contract AuctionManager",
        "numberOfBytes": "20"
      },
      "t_contract(AuctionRegistry)3828": {
        "encoding": "inplace",
        "label": "contract AuctionRegistry",
        "numberOfBytes": "20"
      }
    }
  }
}