{
  "address": "0xEDe067920263fBbC0bE119648907ace7b8efB175",
  "abi": [
    {
      "inputs": [
        {
          "internalType": "address",
          "name": "_auctionRegistryAddress",
          "type": "address"
        }
      ],
      "stateMutability": "nonpayable",
      "type": "constructor"
    },
    {
      "inputs": [],
      "name": "ContractFactory_AuctionOngoing",
      "type": "error"
    },
    {
      "inputs": [],
      "name": "ContractFactory_RestrictedOwnerAccess",
      "type": "error"
    },
    {
      "inputs": [],
      "name": "ContractFactory__RestrictedManagerAccess",
      "type": "error"
    },
    {
      "inputs": [],
      "name": "aucFoundInRegistry",
      "outputs": [
        {
          "internalType": "address",
          "name": "",
          "type": "address"
        }
      ],
      "stateMutability": "view",
      "type": "function"
    },
    {
      "inputs": [],
      "name": "auctionManagerAddress",
      "outputs": [
        {
          "internalType": "address",
          "name": "",
          "type": "address"
        }
      ],
      "stateMutability": "view",
      "type": "function"
    },
    {
      "inputs": [],
      "name": "auctionRegistryAddress",
      "outputs": [
        {
          "internalType": "address",
          "name": "",
          "type": "address"
        }
      ],
      "stateMutability": "view",
      "type": "function"
    },
    {
      "inputs": [
        {
          "internalType": "address",
          "name": "_seller",
          "type": "address"
        },
        {
          "internalType": "address",
          "name": "_nftAddress",
          "type": "address"
        },
        {
          "internalType": "uint256",
          "name": "_tokenId",
          "type": "uint256"
        },
        {
          "internalType": "address",
          "name": "_eventEmitterAddress",
          "type": "address"
        },
        {
          "internalType": "address",
          "name": "_auctionKeeperAddress",
          "type": "address"
        }
      ],
      "name": "createAuction",
      "outputs": [],
      "stateMutability": "nonpayable",
      "type": "function"
    },
    {
      "inputs": [],
      "name": "emptyAucInRegistry",
      "outputs": [
        {
          "internalType": "bool",
          "name": "",
          "type": "bool"
        }
      ],
      "stateMutability": "view",
      "type": "function"
    },
    {
      "inputs": [],
      "name": "getContractType",
      "outputs": [
        {
          "internalType": "enum Constants.ContractType",
          "name": "",
          "type": "uint8"
        }
      ],
      "stateMutability": "pure",
      "type": "function"
    },
    {
      "inputs": [],
      "name": "owner",
      "outputs": [
        {
          "internalType": "address",
          "name": "",
          "type": "address"
        }
      ],
      "stateMutability": "view",
      "type": "function"
    },
    {
      "inputs": [
        {
          "internalType": "address",
          "name": "_auctionManagerAddress",
          "type": "address"
        }
      ],
      "name": "setAuctionManagerAddress",
      "outputs": [],
      "stateMutability": "nonpayable",
      "type": "function"
    }
  ],
  "transactionHash": "0x67e2c1b12eb0961076c19223ed2a3fd1aa0e5eeb66944909cc05f02361bf766a",
  "args": [
    "0xf41A3cd9a7De9741f6ccb2807d9215Aa63D7f707"
  ],
  "numDeployments": 1,
  "solcInputHash": "5a73584ef5938b2b119319ecaaa7cfe3",
  "bytecode": "0x60a060405234801561001057600080fd5b5060405161497838038061497883398101604081905261002f9161009b565b3360601b608052600180546001600160a01b03929092166001600160a01b03199283168117909155600380549092161790556100c4565b60006001600160a01b0382165b92915050565b61008281610066565b811461008d57600080fd5b50565b805161007381610079565b6000602082840312156100b0576100b0600080fd5b60006100bc8484610090565b949350505050565b60805160601c6148896100ef6000396000818160ca0152818161018401526103b301526148896000f3fe60806040523480156200001157600080fd5b5060043610620000935760003560e01c8063cd7dc52d1162000062578063cd7dc52d1462000111578063f599f413146200012a578063f5d8a579146200014e578063f617d414146200016257600080fd5b806370749d9b14620000985780638da5cb5b14620000c4578063c51a29e014620000ec578063c6f6483e14620000fd575b600080fd5b600054620000ac906001600160a01b031681565b604051620000bb9190620004ca565b60405180910390f35b620000ac7f000000000000000000000000000000000000000000000000000000000000000081565b6003604051620000bb91906200052f565b600454620000ac906001600160a01b031681565b620001286200012236600462000563565b62000179565b005b6003546200013f90600160a01b900460ff1681565b604051620000bb919062000599565b600154620000ac906001600160a01b031681565b6200012862000173366004620005bd565b620001ef565b336001600160a01b037f00000000000000000000000000000000000000000000000000000000000000001614620001c357604051630c74017560e41b815260040160405180910390fd5b600080546001600160a01b039092166001600160a01b0319928316811790915560028054909216179055565b6000546001600160a01b031633146200021b57604051633cb5ab2560e11b815260040160405180910390fd5b6003546040516329c7165760e01b81526000916001600160a01b0316906329c716579062000250908890889060040162000648565b60206040518083038186803b1580156200026957600080fd5b505afa1580156200027e573d6000803e3d6000fd5b505050506040513d601f19601f82011682018060405250810190620002a491906200067b565b600480546001600160a01b0319166001600160a01b0383169081179091559091501562000397576003805460ff60a01b191690556040805160016253fd2760e01b03198152905182916000916001600160a01b0384169163ffac02d9916004808301926020929190829003018186803b1580156200032157600080fd5b505afa15801562000336573d6000803e3d6000fd5b505050506040513d601f19601f820116820180604052508101906200035c9190620006bb565b90506005816005811115620003755762000375620004da565b146200039457604051637dcf75a760e01b815260040160405180910390fd5b50505b6003805460ff60a01b1916600160a01b179055600080546040517f00000000000000000000000000000000000000000000000000000000000000009189916001600160a01b0390911690879087908b908b90620003f49062000498565b620004069796959493929190620006e0565b604051809103906000f08015801562000423573d6000803e3d6000fd5b50600354604051631651be4b60e21b81529192506001600160a01b031690635946f92c906200045b9089908990869060040162000756565b600060405180830381600087803b1580156200047657600080fd5b505af11580156200048b573d6000803e3d6000fd5b5050505050505050505050565b6140cf806200078583390190565b60006001600160a01b0382165b92915050565b620004c481620004a6565b82525050565b60208101620004b38284620004b9565b634e487b7160e01b600052602160045260246000fd5b60058110620005035762000503620004da565b50565b806200051281620004f0565b919050565b6000620004b38262000506565b620004c48162000517565b60208101620004b3828462000524565b6200054a81620004a6565b81146200050357600080fd5b8035620004b3816200053f565b6000602082840312156200057a576200057a600080fd5b600062000588848462000556565b949350505050565b801515620004c4565b60208101620004b3828462000590565b806200054a565b8035620004b381620005a9565b600080600080600060a08688031215620005da57620005da600080fd5b6000620005e8888862000556565b9550506020620005fb8882890162000556565b94505060406200060e88828901620005b0565b9350506060620006218882890162000556565b9250506080620006348882890162000556565b9150509295509295909350565b80620004c4565b60408101620006588285620004b9565b62000667602083018462000641565b9392505050565b8051620004b3816200053f565b600060208284031215620006925762000692600080fd5b60006200058884846200066e565b600681106200050357600080fd5b8051620004b381620006a0565b600060208284031215620006d257620006d2600080fd5b6000620005888484620006ae565b60e08101620006f0828a620004b9565b620006ff6020830189620004b9565b6200070e6040830188620004b9565b6200071d6060830187620004b9565b6200072c6080830186620004b9565b6200073b60a0830185620004b9565b6200074a60c083018462000641565b98975050505050505050565b60608101620007668286620004b9565b62000775602083018562000641565b620005886040830184620004b956fe60c0604052600680546001600160801b031916600117905562015180600d8190556010556012805461ffff191690556014805460ff60a01b191690553480156200004857600080fd5b50604051620040cf380380620040cf8339810160408190526200006b91620002ca565b606087811b6001600160601b03199081166080529087901b1660a052600380546001600160a01b03199081166001600160a01b0388811691821790935560028054831687851617905560048054831690911790556005805482168784161790556000805490911691841691909117905560018190556012805460ff191690556006546200010d906001600160801b03166200018b602090811b620026ee17901c565b600755600554604051637047508d60e11b81526001600160a01b039091169063e08ea11a906200014a9030908a9087908790429060040162000391565b600060405180830381600087803b1580156200016557600080fd5b505af11580156200017a573d6000803e3d6000fd5b505050505050505050505062000581565b60008062000198620001cb565b90506000620001a88285620003fd565b620001c3906ec097ce7bc90715b34b9f100000000062000435565b949350505050565b60008073d4a33860578de61dbabdc8bfdb98fd742fa7028e90506000816001600160a01b031663feaf968c6040518163ffffffff1660e01b815260040160a06040518083038186803b1580156200022157600080fd5b505afa15801562000236573d6000803e3d6000fd5b505050506040513d601f19601f820116820180604052508101906200025c919062000469565b505050915050806402540be400620002759190620004ed565b9250505090565b60006001600160a01b0382165b92915050565b6200029a816200027c565b8114620002a657600080fd5b50565b805162000289816200028f565b806200029a565b80516200028981620002b6565b600080600080600080600060e0888a031215620002ea57620002ea600080fd5b6000620002f88a8a620002a9565b97505060206200030b8a828b01620002a9565b96505060406200031e8a828b01620002a9565b9550506060620003318a828b01620002a9565b9450506080620003448a828b01620002a9565b93505060a0620003578a828b01620002a9565b92505060c06200036a8a828b01620002bd565b91505092959891949750929550565b62000384816200027c565b82525050565b8062000384565b60a08101620003a1828862000379565b620003b0602083018762000379565b620003bf604083018662000379565b620003ce60608301856200038a565b620003dd60808301846200038a565b9695505050505050565b634e487b7160e01b600052601160045260246000fd5b60008160001904831182151516156200041a576200041a620003e7565b500290565b634e487b7160e01b600052601260045260246000fd5b6000826200044757620004476200041f565b500490565b6001600160501b0381166200029a565b805162000289816200044c565b600080600080600060a08688031215620004865762000486600080fd5b60006200049488886200045c565b9550506020620004a788828901620002bd565b9450506040620004ba88828901620002bd565b9350506060620004cd88828901620002bd565b9250506080620004e0888289016200045c565b9150509295509295909350565b6000826001600160ff1b030482116000841360008413161615620005155762000515620003e7565b81600160ff1b0583126000841260008413161615620005385762000538620003e7565b82600160ff1b05821260008413600084121616156200055b576200055b620003e7565b826001600160ff1b0305821260008412600084121616156200041a576200041a620003e7565b60805160601c60a05160601c613a49620006866000396000818161027e015281816109ae01528181610dbe01528181610e1d0152818161105a01528181611188015281816111fd015281816112db0152818161141a015281816115640152818161172d015281816117b0015281816118070152818161193e01528181611a3201528181611c5201528181611d0e01528181611dd601528181611e9a015281816120fe01528181612234015281816123c5015281816124cb015261256201526000818161040801528181610d8b01528181610e5201528181610f7a01528181611b8d01528181611fda015281816120850152818161216601526123fe0152613a496000f3fe6080604052600436106102675760003560e01c8063898fca8e11610144578063d6f7b688116100b6578063e5ce7f771161007a578063e5ce7f7714610686578063e92ec65d146106a6578063f40d0601146106bc578063f5a2a53d146106c4578063f790c882146106fa578063ffac02d91461071a57600080fd5b8063d6f7b68814610611578063dbb9e0cd14610626578063dc9aaf361461063b578063dcd4c06314610650578063e1abf80c1461066657600080fd5b80639979ef45116101085780639979ef451461058d57806399a7b9a9146105ad578063c3691aa5146105b5578063c51a29e0146105ca578063d5055fa8146105e6578063d57bde79146105fb57600080fd5b8063898fca8e146104ff5780638b142225146105155780639157e1ba1461052b57806391f90157146105575780639500a4b91461057757600080fd5b80634ba9a927116101dd5780636d4d09d7116101a15780636d4d09d71461046a5780636fc60170146104805780636fefb0471461049557806371d05ecf146104aa578063725be527146104bf57806379dfe884146104df57600080fd5b80634ba9a927146103b35780634c2a178a146103c95780634df8ccb1146103f65780635917dc5f1461042a5780635bf8633a1461044a57600080fd5b80631a81d59c1161022f5780631a81d59c1461030f5780631ec2bf31146103245780631fcd47f514610346578063235965801461035b578063251d9abe1461037157806347e9e9781461038657600080fd5b806308551a531461026c578063117df088146102b657806315488b88146102c057806316662d99146102e357806317d70f7c146102f9575b600080fd5b34801561027857600080fd5b506102a07f000000000000000000000000000000000000000000000000000000000000000081565b6040516102ad91906128d0565b60405180910390f35b6102be610741565b005b3480156102cc57600080fd5b506102d660075481565b6040516102ad91906128e4565b3480156102ef57600080fd5b506102d6600b5481565b34801561030557600080fd5b506102d660015481565b34801561031b57600080fd5b506102be6108da565b34801561033057600080fd5b50610339610c80565b6040516102ad91906128fa565b34801561035257600080fd5b506102d6610cae565b34801561036757600080fd5b506102d6600d5481565b34801561037d57600080fd5b506102d6610cd3565b34801561039257600080fd5b506102d66103a1366004612927565b60166020526000908152604090205481565b3480156103bf57600080fd5b506102d660095481565b3480156103d557600080fd5b50600a546103e9906001600160801b031681565b6040516102ad9190612957565b34801561040257600080fd5b506102a07f000000000000000000000000000000000000000000000000000000000000000081565b34801561043657600080fd5b506006546103e9906001600160801b031681565b34801561045657600080fd5b506000546102a0906001600160a01b031681565b34801561047657600080fd5b506102d660085481565b34801561048c57600080fd5b506102d6610cf3565b3480156104a157600080fd5b50610339610d13565b3480156104b657600080fd5b506102be610d1c565b3480156104cb57600080fd5b506102be6104da366004612978565b610f33565b3480156104eb57600080fd5b506102be6104fa366004612978565b6111f2565b34801561050b57600080fd5b506102d6600e5481565b34801561052157600080fd5b506102d660115481565b34801561053757600080fd5b5060125461054a90610100900460ff1681565b6040516102ad91906129e2565b34801561056357600080fd5b506014546102a0906001600160a01b031681565b34801561058357600080fd5b506102d6600f5481565b34801561059957600080fd5b506102be6105a8366004612a01565b61140f565b6102be611559565b3480156105c157600080fd5b506102be611722565b3480156105d657600080fd5b5060006040516102ad9190612a50565b3480156105f257600080fd5b506103396118ec565b34801561060757600080fd5b506102d660135481565b34801561061d57600080fd5b506103396118f5565b34801561063257600080fd5b506103396118fd565b34801561064757600080fd5b50610339611906565b34801561065c57600080fd5b506102d6600c5481565b34801561067257600080fd5b506102be610681366004612a78565b61190f565b34801561069257600080fd5b506102be6106a1366004612acd565b611ac4565b3480156106b257600080fd5b506102d660105481565b6102be6122eb565b3480156106d057600080fd5b506103e96106df366004612927565b6015602052600090815260409020546001600160801b031681565b34801561070657600080fd5b506102a0610715366004612a01565b6126c4565b34801561072657600080fd5b506012546107349060ff1681565b6040516102ad9190612b1c565b6014546001600160a01b03163314158061077e57506014546001600160a01b03163314801561077e5750601454600160a01b900460ff1615156001145b806107a157506014546001600160a01b0316331480156107a157506107a16118ec565b6107c65760405162461bcd60e51b81526004016107bd90612b54565b60405180910390fd5b3360008181526015602052604080822080546001600160801b0319811690915590516001600160801b039091169290839061080090612b67565b60006040518083038185875af1925050503d806000811461083d576040519150601f19603f3d011682016040523d82523d6000602084013e610842565b606091505b50509050806108635760405162461bcd60e51b81526004016107bd90612b9c565b600554600054600154604051632b9a448760e21b81526001600160a01b039384169363ae69121c936108a49330939290911691339089904290600401612bca565b600060405180830381600087803b1580156108be57600080fd5b505af11580156108d2573d6000803e3d6000fd5b505050505050565b6108e2611906565b6108fe5760405162461bcd60e51b81526004016107bd90612c49565b6009544210156109205760405162461bcd60e51b81526004016107bd90612c7d565b6014546001600160a01b031661093f5761093a6002611ac4565b610c1d565b6012805460ff1916600217905542600b819055600d5461095e91612ca3565b600c5560135461096d90612728565b6011819055600554600054600154601454601354600b54600c54604051630eb941ff60e01b81526001600160a01b0397881698630eb941ff986109e39830987f00000000000000000000000000000000000000000000000000000000000000009891831697909692909116949093600401612cda565b600060405180830381600087803b1580156109fd57600080fd5b505af1158015610a11573d6000803e3d6000fd5b5050600480546040516320ad0c6360e21b81526001600160a01b0390911693506382b4318c9250610a44913091016128d0565b600060405180830381600087803b158015610a5e57600080fd5b505af1158015610a72573d6000803e3d6000fd5b5050505060005b601754811015610c1b57600060178281548110610a9857610a98612d60565b6000918252602090912001546014546001600160a01b03918216925016811415610ac25750610c1b565b6001600160a01b0381166000908152601560205260409020546001600160801b031680610af0575050610c1b565b6001600160a01b03821660008181526015602052604080822080546001600160801b0319169055519091906001600160801b03841690610b2f90612b67565b60006040518083038185875af1925050503d8060008114610b6c576040519150601f19603f3d011682016040523d82523d6000602084013e610b71565b606091505b5050905080610b925760405162461bcd60e51b81526004016107bd90612da1565b600554600054600154604051632b9a448760e21b81526001600160a01b039384169363ae69121c93610bd39330939290911691899089904290600401612bca565b600060405180830381600087803b158015610bed57600080fd5b505af1158015610c01573d6000803e3d6000fd5b505050505050508080610c1390612db1565b915050610a79565b505b60048054604051633d5d5e5760e21b81526001600160a01b039091169163f575795c91610c4c913091016128d0565b600060405180830381600087803b158015610c6657600080fd5b505af1158015610c7a573d6000803e3d6000fd5b50505050565b600060045b60125460ff166005811115610c9c57610c9c612999565b1415610ca85750600190565b50600090565b6000600f54421115610cc05750600090565b42600f54610cce9190612dcc565b905090565b6000600c54421115610ce55750600090565b42600c54610cce9190612dcc565b6000600954421115610d055750600090565b42600954610cce9190612dcc565b60006002610c85565b6014546001600160a01b03163314610d465760405162461bcd60e51b81526004016107bd90612e24565b6005601254610100900460ff166006811115610d6457610d64612999565b14610d815760405162461bcd60e51b81526004016107bd90612e68565b6001600160a01b037f00000000000000000000000000000000000000000000000000000000000000008116600090815260166020526040808220547f000000000000000000000000000000000000000000000000000000000000000090931682528120549091610df091612ca3565b905060008111610e1357604051631087674760e31b815260040160405180910390fd5b6001600160a01b037f000000000000000000000000000000000000000000000000000000000000000081166000908152601660205260408082208290557f0000000000000000000000000000000000000000000000000000000000000000831682528082208290556014549051919216908390610e8f90612b67565b60006040518083038185875af1925050503d8060008114610ecc576040519150601f19603f3d011682016040523d82523d6000602084013e610ed1565b606091505b5050905080610ef25760405162461bcd60e51b81526004016107bd90612ea2565b600554600054600154604051634e71d3d960e11b81526001600160a01b0393841693639ce3a7b2936108a49330939290911691339089904290600401612eb2565b6000546001600160a01b03163314610f4a57600080fd5b610f52610c80565b610f5b57600080fd5b600181151514156110bc57610f706006611ac4565b6001600160a01b037f00000000000000000000000000000000000000000000000000000000000000001660008181526016602052604080822080549083905590519092908390610fbf90612b67565b60006040518083038185875af1925050503d8060008114610ffc576040519150601f19603f3d011682016040523d82523d6000602084013e611001565b606091505b50509050806110225760405162461bcd60e51b81526004016107bd90612ea2565b600554600054600154601354604051633b7031cf60e21b81526001600160a01b039485169463edc0c73c9461108394309491909216927f00000000000000000000000000000000000000000000000000000000000000009190600401612ef4565b600060405180830381600087803b15801561109d57600080fd5b505af11580156110b1573d6000803e3d6000fd5b505050505050611152565b6110c66005611ac4565b6005546000546001546014546013546011546001600160a01b0395861695633a214a989530959082169490939116916110ff9190612ca3565b6040518663ffffffff1660e01b815260040161111f959493929190612f40565b600060405180830381600087803b15801561113957600080fd5b505af115801561114d573d6000803e3d6000fd5b505050505b6005546000546001546014546013546040516379cb66b960e01b81526001600160a01b03958616956379cb66b9956111bd9530957f00000000000000000000000000000000000000000000000000000000000000009592841694919316919042908b90600401612f75565b600060405180830381600087803b1580156111d757600080fd5b505af11580156111eb573d6000803e3d6000fd5b5050505050565b336001600160a01b037f0000000000000000000000000000000000000000000000000000000000000000161480159061123657506002546001600160a01b03163314155b1561125457604051630f14818760e31b815260040160405180910390fd5b61125c610d13565b6112785760405162461bcd60e51b81526004016107bd90612c49565b80156113d35742600e81905560105461129091612ca3565b600f8190556012805460ff19166003179055600554600054600154601454601354600e5460405163122fce0b60e31b81526001600160a01b039687169763917e7058976113119730977f0000000000000000000000000000000000000000000000000000000000000000979183169690959290911693909290600401612fec565b600060405180830381600087803b15801561132b57600080fd5b505af115801561133f573d6000803e3d6000fd5b50506004805460405163034fdf0760e61b81526001600160a01b03909116935063d3f7c1c09250611372913091016128d0565b600060405180830381600087803b15801561138c57600080fd5b505af11580156113a0573d6000803e3d6000fd5b5050600480546040516324620c6760e21b81526001600160a01b039091169350639188319c92506111bd913091016128d0565b6113dd6003611ac4565b6004805460405163034fdf0760e61b81526001600160a01b039091169163d3f7c1c0916111bd913091016128d0565b50565b336001600160a01b037f00000000000000000000000000000000000000000000000000000000000000001614156114595760405163c8cfc8e960e01b815260040160405180910390fd5b611461611906565b61147d5760405162461bcd60e51b81526004016107bd90612c49565b6000611487610cf3565b116114a45760405162461bcd60e51b81526004016107bd9061307c565b600754336000908152601560205260409020546001600160801b031610156114de5760405162461bcd60e51b81526004016107bd906130c0565b60135481116114ff5760405162461bcd60e51b81526004016107bd90613104565b6013819055601480546001600160a01b03191633908117909155600554600054600154604051631a76c77d60e31b81526001600160a01b039384169463d3b63be8946111bd94309491169290919088904290600401612eb2565b336001600160a01b037f00000000000000000000000000000000000000000000000000000000000000001614156115a35760405163c8cfc8e960e01b815260040160405180910390fd5b6115ab611906565b6115c75760405162461bcd60e51b81526004016107bd90612c49565b336000908152601560205260409020546001600160801b0316156115fd5760405162461bcd60e51b81526004016107bd9061313d565b60075434101561161f5760405162461bcd60e51b81526004016107bd90613179565b33600090815260156020526040812080543492906116479084906001600160801b0316613189565b82546001600160801b039182166101009390930a92830291909202199091161790555060055460005460015460405163a02cc95760e01b81526001600160a01b039384169363a02cc957936116ac933093919092169190339034904290600401612eb2565b600060405180830381600087803b1580156116c657600080fd5b505af11580156116da573d6000803e3d6000fd5b5050601780546001810182556000919091527fc624b66cc0138b8fabc209247f72d758e1cf3343756d543badbf24212bed8c150180546001600160a01b031916331790555050565b336001600160a01b037f0000000000000000000000000000000000000000000000000000000000000000161461176b57604051630f14818760e31b815260040160405180910390fd5b6006601254610100900460ff16600681111561178957611789612999565b146117a65760405162461bcd60e51b81526004016107bd906131f0565b6001600160a01b037f000000000000000000000000000000000000000000000000000000000000000016600090815260166020526040902054806117fd57604051631087674760e31b815260040160405180910390fd5b6001600160a01b037f00000000000000000000000000000000000000000000000000000000000000001660008181526016602052604080822082905551909190839061184890612b67565b60006040518083038185875af1925050503d8060008114611885576040519150601f19603f3d011682016040523d82523d6000602084013e61188a565b606091505b50509050806118ab5760405162461bcd60e51b81526004016107bd90612ea2565b6005546000546001546040516377a0addb60e11b81526001600160a01b039384169363ef415bb6936108a49330939290911691339089904290600401612eb2565b60006005610c85565b600080610c85565b60006003610c85565b60006001610c85565b6119176118f5565b6119335760405162461bcd60e51b81526004016107bd90613232565b336001600160a01b037f0000000000000000000000000000000000000000000000000000000000000000161461197b5760405162461bcd60e51b81526004016107bd90613268565b6000816001600160801b0316116119a45760405162461bcd60e51b81526004016107bd9061329d565b4260088190556119be906001600160801b03841690612ca3565b600955600a80546001600160801b0319166001600160801b03848116919091179091558116601355601280546001919060ff191682800217905550600554600054600154600754600854600954604051632f7a085b60e01b81526001600160a01b0396871696632f7a085b96611a639630967f000000000000000000000000000000000000000000000000000000000000000096929093169490938b906004016132ad565b600060405180830381600087803b158015611a7d57600080fd5b505af1158015611a91573d6000803e3d6000fd5b5050600480546040516301cca56960e31b81526001600160a01b039091169350630e652b4892506108a4913091016128d0565b6002816006811115611ad857611ad8612999565b1415611bf757600160125460ff166005811115611af757611af7612999565b14611b145760405162461bcd60e51b81526004016107bd9061334b565b611b1c610cf3565b15611b395760405162461bcd60e51b81526004016107bd90613388565b6014546001600160a01b031615611b625760405162461bcd60e51b81526004016107bd906133e1565b6005546014546040516353c0501960e11b81526001600160a01b039283169263a780a03292611bc0927f000000000000000000000000000000000000000000000000000000000000000092909116903090600090429060040161341f565b600060405180830381600087803b158015611bda57600080fd5b505af1158015611bee573d6000803e3d6000fd5b505050506121cc565b6003816006811115611c0b57611c0b612999565b1415611cb357600260125460ff166005811115611c2a57611c2a612999565b14611c475760405162461bcd60e51b81526004016107bd90613488565b336001600160a01b037f0000000000000000000000000000000000000000000000000000000000000000161480611c9757506004611c8433612747565b6004811115611c9557611c95612999565b145b611b625760405162461bcd60e51b81526004016107bd906134dc565b6004816006811115611cc757611cc7612999565b1415611eff57600360125460ff166005811115611ce657611ce6612999565b14611d035760405162461bcd60e51b81526004016107bd90613488565b336001600160a01b037f0000000000000000000000000000000000000000000000000000000000000000161480611d5357506004611d4033612747565b6004811115611d5157611d51612999565b145b611d6f5760405162461bcd60e51b81526004016107bd906134dc565b601454600160a01b900460ff1615611d995760405162461bcd60e51b81526004016107bd90613517565b6014546001600160a01b0390811660009081526015602052604080822080546001600160801b0319811690915590516001600160801b03909116927f000000000000000000000000000000000000000000000000000000000000000016908390611e0290612b67565b60006040518083038185875af1925050503d8060008114611e3f576040519150601f19603f3d011682016040523d82523d6000602084013e611e44565b606091505b5050905080611e655760405162461bcd60e51b81526004016107bd90612da1565b600554600054600154604051632b9a448760e21b81526001600160a01b039384169363ae69121c93611ec693309392909116917f00000000000000000000000000000000000000000000000000000000000000009089904290600401613527565b600060405180830381600087803b158015611ee057600080fd5b505af1158015611ef4573d6000803e3d6000fd5b5050505050506121cc565b6006816006811115611f1357611f13612999565b1480611f3057506005816006811115611f2e57611f2e612999565b145b156120bd57600460125460ff166005811115611f4e57611f4e612999565b14611f6b5760405162461bcd60e51b81526004016107bd90613488565b6000546001600160a01b03163314611f955760405162461bcd60e51b81526004016107bd9061357f565b6005816006811115611fa957611fa9612999565b1415612040576005546014546040516353c0501960e11b81526001600160a01b039283169263a780a0329261200d927f000000000000000000000000000000000000000000000000000000000000000092909116903090600090429060040161341f565b600060405180830381600087803b15801561202757600080fd5b505af115801561203b573d6000803e3d6000fd5b505050505b600681600681111561205457612054612999565b14156120b8576005546014546040516353c0501960e11b81526001600160a01b039283169263a780a03292611bc0927f000000000000000000000000000000000000000000000000000000000000000092909116903090600290429060040161341f565b6121cc565b600060125460ff1660058111156120d6576120d6612999565b146120f35760405162461bcd60e51b81526004016107bd90613488565b336001600160a01b037f0000000000000000000000000000000000000000000000000000000000000000161461213b5760405162461bcd60e51b81526004016107bd906135b2565b6005546014546040516353c0501960e11b81526001600160a01b039283169263a780a03292612199927f000000000000000000000000000000000000000000000000000000000000000092909116903090600090429060040161341f565b600060405180830381600087803b1580156121b357600080fd5b505af11580156121c7573d6000803e3d6000fd5b505050505b60128054600560ff1982168117835583929161ffff1916176101008360068111156121f9576121f9612999565b0217905550600554600054600154601454601354604051632eca920f60e01b81526001600160a01b0395861695632eca920f956122699530957f00000000000000000000000000000000000000000000000000000000000000009592841694919342939116918b906004016135c2565b600060405180830381600087803b15801561228357600080fd5b505af1158015612297573d6000803e3d6000fd5b50600492506122a4915050565b8160068111156122b6576122b6612999565b141561140c5760048054604051631d6a996560e01b81526001600160a01b0390911691631d6a9965916111bd913091016128d0565b6014546001600160a01b031633146123155760405162461bcd60e51b81526004016107bd90613653565b61231d6118fd565b6123395760405162461bcd60e51b81526004016107bd90612c49565b6000612343610cae565b116123605760405162461bcd60e51b81526004016107bd906136aa565b6011546013546123709190612ca3565b341461238e5760405162461bcd60e51b81526004016107bd90613708565b601454600160a01b900460ff16156123b85760405162461bcd60e51b81526004016107bd9061373d565b6013546001600160a01b037f00000000000000000000000000000000000000000000000000000000000000008116600090815260166020526040808220939093556011547f00000000000000000000000000000000000000000000000000000000000000008316825290839020556014805460ff60a01b1916600160a01b179055600480549251631d6a996560e01b81529290911691631d6a996591612460913091016128d0565b600060405180830381600087803b15801561247a57600080fd5b505af115801561248e573d6000803e3d6000fd5b5050600554600054600154601454604051638dcf508d60e01b81526001600160a01b039485169650638dcf508d95506124f79430948116939216907f0000000000000000000000000000000000000000000000000000000000000000903490429060040161374d565b600060405180830381600087803b15801561251157600080fd5b505af1158015612525573d6000803e3d6000fd5b5050600554600054600154601454604051636df0d25360e11b81526001600160a01b03948516965063dbe1a4a6955061258e9430948116939216907f0000000000000000000000000000000000000000000000000000000000000000903490429060040161374d565b600060405180830381600087803b1580156125a857600080fd5b505af11580156125bc573d6000803e3d6000fd5b50506012805460ff191660041790555050601480546001600160a01b0390811660009081526015602052604080822080546001600160801b03198116909155935490516001600160801b039094169391921690839061261a90612b67565b60006040518083038185875af1925050503d8060008114612657576040519150601f19603f3d011682016040523d82523d6000602084013e61265c565b606091505b505090508061267d5760405162461bcd60e51b81526004016107bd90612da1565b600554600054600154601454604051632b9a448760e21b81526001600160a01b039485169463ae69121c946108a49430949183169390929091169089904290600401612bca565b601781815481106126d457600080fd5b6000918252602090912001546001600160a01b0316905081565b6000806126f9612805565b9050600061270782856137b5565b612720906ec097ce7bc90715b34b9f10000000006137ea565b949350505050565b600060646127376005846137b5565b61274191906137ea565b92915050565b60408051600481526024810182526020810180516001600160e01b0316630628d14f60e51b1790529051600091829182916001600160a01b0386169161278d919061384c565b6000604051808303816000865af19150503d80600081146127ca576040519150601f19603f3d011682016040523d82523d6000602084013e6127cf565b606091505b5091509150816127f15760405162461bcd60e51b81526004016107bd906138a2565b8080602001905181019061272091906138ca565b60008073d4a33860578de61dbabdc8bfdb98fd742fa7028e90506000816001600160a01b031663feaf968c6040518163ffffffff1660e01b815260040160a06040518083038186803b15801561285a57600080fd5b505afa15801561286e573d6000803e3d6000fd5b505050506040513d601f19601f820116820180604052508101906128929190613913565b505050915050806402540be4006128a9919061398b565b9250505090565b60006001600160a01b038216612741565b6128ca816128b0565b82525050565b6020810161274182846128c1565b806128ca565b6020810161274182846128de565b8015156128ca565b6020810161274182846128f2565b612911816128b0565b811461140c57600080fd5b803561274181612908565b60006020828403121561293c5761293c600080fd5b6000612720848461291c565b6001600160801b0381166128ca565b602081016127418284612948565b801515612911565b803561274181612965565b60006020828403121561298d5761298d600080fd5b6000612720848461296d565b634e487b7160e01b600052602160045260246000fd5b6007811061140c5761140c612999565b806129c9816129af565b919050565b6000612741826129bf565b6128ca816129ce565b6020810161274182846129d9565b80612911565b8035612741816129f0565b600060208284031215612a1657612a16600080fd5b600061272084846129f6565b6005811061140c5761140c612999565b806129c981612a22565b600061274182612a32565b6128ca81612a3c565b602081016127418284612a47565b6001600160801b038116612911565b803561274181612a5e565b60008060408385031215612a8e57612a8e600080fd5b6000612a9a8585612a6d565b9250506020612aab85828601612a6d565b9150509250929050565b6007811061140c57600080fd5b803561274181612ab5565b600060208284031215612ae257612ae2600080fd5b60006127208484612ac2565b6006811061140c5761140c612999565b806129c981612aee565b600061274182612afe565b6128ca81612b08565b602081016127418284612b13565b601081526000602082016f43616e6e6f742077697468647261772160801b815291505b5060200190565b6020808252810161274181612b2a565b90565b600081612741565b6016815260006020820175455448207769746864726177616c206661696c65642160501b81529150612b4d565b6020808252810161274181612b6f565b6000612741612b646001600160801b03841681565b6128ca81612bac565b60c08101612bd882896128c1565b612be560208301886128c1565b612bf260408301876128de565b612bff60608301866128c1565b612c0c6080830185612bc1565b612c1960a08301846128de565b979650505050505050565b600e81526000602082016d496c6c6567616c2073746174652160901b81529150612b4d565b6020808252810161274181612c24565b600d81526000602082016c4269642074696d65203e20302160981b81529150612b4d565b6020808252810161274181612c59565b634e487b7160e01b600052601160045260246000fd5b60008219821115612cb657612cb6612c8d565b500190565b6000612741826128b0565b600061274182612cbb565b6128ca81612cc6565b6101208101612ce9828c6128c1565b612cf6602083018b612cd1565b612d03604083018a6128c1565b612d1060608301896128de565b612d1d60808301886128c1565b612d2a60a08301876128de565b612d3760c08301866128de565b612d4460e08301856128de565b612d526101008301846128de565b9a9950505050505050505050565b634e487b7160e01b600052603260045260246000fd5b6014815260006020820173455448207472616e73666572206661696c65642160601b81529150612b4d565b6020808252810161274181612d76565b6000600019821415612dc557612dc5612c8d565b5060010190565b600082821015612dde57612dde612c8d565b500390565b602181526000602082017f526566756e642063616e206f6e6c79206265206d61646520746f2070617965728152602160f81b602082015291505b5060400190565b6020808252810161274181612de3565b601781526000602082017f496e65676c696769626c6520666f7220726566756e642100000000000000000081529150612b4d565b6020808252810161274181612e34565b6013815260006020820172115512081d1c985b9cd9995c8819985a5b1959606a1b81529150612b4d565b6020808252810161274181612e78565b60c08101612ec082896128c1565b612ecd60208301886128c1565b612eda60408301876128de565b612ee760608301866128c1565b612c0c60808301856128de565b60a08101612f0282886128c1565b612f0f60208301876128c1565b612f1c60408301866128de565b612f296060830185612cd1565b612f3660808301846128de565b9695505050505050565b60a08101612f4e82886128c1565b612f5b60208301876128c1565b612f6860408301866128de565b612f2960608301856128c1565b6101008101612f84828b6128c1565b612f91602083018a612cd1565b612f9e60408301896128c1565b612fab60608301886128de565b612fb860808301876128c1565b612fc560a08301866128de565b612fd260c08301856128de565b612fdf60e08301846128f2565b9998505050505050505050565b6101008101612ffb828b6128c1565b613008602083018a612cd1565b61301560408301896128c1565b61302260608301886128de565b61302f60808301876128c1565b61303c60a08301866128de565b61304960c08301856128de565b612fdf60e08301846128de565b600f81526000602082016e42696464696e6720636c6f7365642160881b81529150612b4d565b6020808252810161274181613056565b601d81526000602082017f4465706f73697420726571756972656420666f722062696464696e672100000081529150612b4d565b602080825281016127418161308c565b601b81526000602082017f426964206c6f776572207468616e20686967686573742062696421000000000081529150612b4d565b60208082528101612741816130d0565b60128152600060208201714163636f756e74206465706f73697465642160701b81529150612b4d565b6020808252810161274181613114565b601581526000602082017457726f6e67206465706f73697420616d6f756e742160581b81529150612b4d565b602080825281016127418161314d565b60006001600160801b03821691506001600160801b0383169250826001600160801b0303821115612cb657612cb6612c8d565b601a81526000602082017f4f776e657273686970206e6f74207472616e736665727265642100000000000081529150612b4d565b60208082528101612741816131bc565b60208082527f41756374696f6e206e6f7420696e20526567697374657265642073746174652191019081526000612b4d565b6020808252810161274181613200565b600f81526000602082016e5265717569726573206f776e65722160881b81529150612b4d565b6020808252810161274181613242565b600e81526000602082016d537461727420626964203c20302160901b81529150612b4d565b6020808252810161274181613278565b61010081016132bc828b6128c1565b6132c9602083018a612cd1565b6132d660408301896128c1565b6132e360608301886128de565b6132f060808301876128de565b6132fd60a08301866128de565b61330a60c08301856128de565b612fdf60e0830184612bc1565b601981526000602082017f496c6c6567616c207374617465207472616e736974696f6e210000000000000081529150612b4d565b6020808252810161274181613317565b601681526000602082017561756374696f6e207374696c6c2062696464696e672160501b81529150612b4d565b602080825281016127418161335b565b602c81526000602082017f636c6f736541756374696f6e2e4e4f5f424944444552206d757374206e6f742081526b686176652077696e6e65722160a01b60208201529150612e1d565b6020808252810161274181613398565b6003811061140c5761140c612999565b806129c9816133f1565b600061274182613401565b6128ca8161340b565b60a0810161342d8288612cd1565b61343a60208301876128c1565b61344760408301866128c1565b612f296060830185613416565b601981526000602082017f696c6c6567616c207374617465207472616e736974696f6e210000000000000081529150612b4d565b6020808252810161274181613454565b602781526000602082017f636c6f736541756374696f6e2072657175697265732073656c6c6572206f72208152666b65657065722160c81b60208201529150612e1d565b6020808252810161274181613498565b601481526000602082017377696e6e657220616c726561647920706169642160601b81529150612b4d565b60208082528101612741816134ec565b60c0810161353582896128c1565b61354260208301886128c1565b61354f60408301876128de565b612bff6060830186612cd1565b600c81526000602082016b37b7363c9020bab234ba37b960a11b81529150612b4d565b602080825281016127418161355c565b600c81526000602082016b6f6e6c792073656c6c65722160a01b81529150612b4d565b602080825281016127418161358f565b61010081016135d1828b6128c1565b6135de602083018a612cd1565b6135eb60408301896128c1565b6135f860608301886128de565b61360560808301876128de565b61361260a08301866128c1565b61361f60c08301856128de565b612fdf60e08301846129d9565b601081526000602082016f4f6e6c792077696e6e6572207061792160801b81529150612b4d565b602080825281016127418161362c565b602a81526000602082017f5061796d656e742077696e646f7720666f722066756c6c20736574746c656d658152696e7420636c6f7365642160b01b60208201529150612e1d565b6020808252810161274181613663565b603181526000602082017f5061796d656e742076616c756520213d202877696e6e696e6720626964202b20815270706c6174666f726d20636861726765292160781b60208201529150612e1d565b60208082528101612741816136ba565b600e81526000602082016d596f75206861766520706169642160901b81529150612b4d565b6020808252810161274181613718565b60e0810161375b828a6128c1565b61376860208301896128c1565b61377560408301886128de565b61378260608301876128c1565b61378f6080830186612cd1565b61379c60a08301856128de565b6137a960c08301846128de565b98975050505050505050565b60008160001904831182151516156137cf576137cf612c8d565b500290565b634e487b7160e01b600052601260045260246000fd5b6000826137f9576137f96137d4565b500490565b60005b83811015613819578181015183820152602001613801565b83811115610c7a5750506000910152565b6000613834825190565b6138428185602086016137fe565b9290920192915050565b6000613858828461382a565b9392505050565b602681526000602082017f556e61626c6520746f2064657465726d696e652074686520636f6e747261637481526520747970652160d01b60208201529150612e1d565b602080825281016127418161385f565b6005811061140c57600080fd5b8051612741816138b2565b6000602082840312156138df576138df600080fd5b600061272084846138bf565b69ffffffffffffffffffff8116612911565b8051612741816138eb565b8051612741816129f0565b600080600080600060a0868803121561392e5761392e600080fd5b600061393a88886138fd565b955050602061394b88828901613908565b945050604061395c88828901613908565b935050606061396d88828901613908565b925050608061397e888289016138fd565b9150509295509295909350565b6000826001600160ff1b0304821160008413600084131616156139b0576139b0612c8d565b81600160ff1b05831260008412600084131616156139d0576139d0612c8d565b82600160ff1b05821260008413600084121616156139f0576139f0612c8d565b826001600160ff1b0305821260008412600084121616156137cf576137cf612c8d56fea26469706673582212204be5d8be96aeaed9253627dcdf492ebb7aec70030fd4cbe084d483c6757c4c3464736f6c63430008080033a2646970667358221220dd85f2beb42dfef6b9ce4c85c808641a68aa7bf70da594c017d472bc3841a94e64736f6c63430008080033",
  "devdoc": {
    "kind": "dev",
    "methods": {},
    "version": 1
  },
  "userdoc": {
    "kind": "user",
    "methods": {},
    "version": 1
  },
  "storageLayout": {
    "storage": [
      {
        "astId": 2787,
        "contract": "contracts/AuctionContracts.sol:ContractFactory",
        "label": "auctionManagerAddress",
        "offset": 0,
        "slot": "0",
        "type": "t_address"
      },
      {
        "astId": 2789,
        "contract": "contracts/AuctionContracts.sol:ContractFactory",
        "label": "auctionRegistryAddress",
        "offset": 0,
        "slot": "1",
        "type": "t_address"
      },
      {
        "astId": 2792,
        "contract": "contracts/AuctionContracts.sol:ContractFactory",
        "label": "auctionManager",
        "offset": 0,
        "slot": "2",
        "type": "t_contract(AuctionManager)4807"
      },
      {
        "astId": 2795,
        "contract": "contracts/AuctionContracts.sol:ContractFactory",
        "label": "auctionRegistry",
        "offset": 0,
        "slot": "3",
        "type": "t_contract(AuctionRegistry)3841"
      },
      {
        "astId": 2797,
        "contract": "contracts/AuctionContracts.sol:ContractFactory",
        "label": "emptyAucInRegistry",
        "offset": 20,
        "slot": "3",
        "type": "t_bool"
      },
      {
        "astId": 2799,
        "contract": "contracts/AuctionContracts.sol:ContractFactory",
        "label": "aucFoundInRegistry",
        "offset": 0,
        "slot": "4",
        "type": "t_address"
      }
    ],
    "types": {
      "t_address": {
        "encoding": "inplace",
        "label": "address",
        "numberOfBytes": "20"
      },
      "t_bool": {
        "encoding": "inplace",
        "label": "bool",
        "numberOfBytes": "1"
      },
      "t_contract(AuctionManager)4807": {
        "encoding": "inplace",
        "label": "contract AuctionManager",
        "numberOfBytes": "20"
      },
      "t_contract(AuctionRegistry)3841": {
        "encoding": "inplace",
        "label": "contract AuctionRegistry",
        "numberOfBytes": "20"
      }
    }
  }
}