{
  "address": "0xb0BC8ffe0448B4982CE39C4cb40A8289dDcD02e6",
  "abi": [
    {
      "anonymous": false,
      "inputs": [
        {
          "indexed": true,
          "internalType": "address",
          "name": "auction",
          "type": "address"
        },
        {
          "indexed": false,
          "internalType": "address",
          "name": "seller",
          "type": "address"
        },
        {
          "indexed": true,
          "internalType": "address",
          "name": "nftAddress",
          "type": "address"
        },
        {
          "indexed": true,
          "internalType": "uint256",
          "name": "tokenId",
          "type": "uint256"
        },
        {
          "indexed": false,
          "internalType": "address",
          "name": "winner",
          "type": "address"
        },
        {
          "indexed": false,
          "internalType": "uint256",
          "name": "winningBid",
          "type": "uint256"
        },
        {
          "indexed": false,
          "internalType": "uint256",
          "name": "time",
          "type": "uint256"
        },
        {
          "indexed": false,
          "internalType": "bool",
          "name": "pass",
          "type": "bool"
        }
      ],
      "name": "AuctionAuditResult",
      "type": "event"
    },
    {
      "anonymous": false,
      "inputs": [
        {
          "indexed": true,
          "internalType": "address",
          "name": "auction",
          "type": "address"
        },
        {
          "indexed": true,
          "internalType": "address",
          "name": "nftAddress",
          "type": "address"
        },
        {
          "indexed": true,
          "internalType": "uint256",
          "name": "tokenId",
          "type": "uint256"
        },
        {
          "indexed": false,
          "internalType": "address",
          "name": "bidder",
          "type": "address"
        },
        {
          "indexed": false,
          "internalType": "uint256",
          "name": "bidAmount",
          "type": "uint256"
        },
        {
          "indexed": false,
          "internalType": "uint256",
          "name": "bidTime",
          "type": "uint256"
        }
      ],
      "name": "AuctionBidPlaced",
      "type": "event"
    },
    {
      "anonymous": false,
      "inputs": [
        {
          "indexed": true,
          "internalType": "address",
          "name": "auction",
          "type": "address"
        },
        {
          "indexed": false,
          "internalType": "address",
          "name": "seller",
          "type": "address"
        },
        {
          "indexed": true,
          "internalType": "address",
          "name": "nftAddress",
          "type": "address"
        },
        {
          "indexed": true,
          "internalType": "uint256",
          "name": "tokenId",
          "type": "uint256"
        },
        {
          "indexed": false,
          "internalType": "uint256",
          "name": "closeTime",
          "type": "uint256"
        },
        {
          "indexed": false,
          "internalType": "address",
          "name": "winner",
          "type": "address"
        },
        {
          "indexed": false,
          "internalType": "uint256",
          "name": "winningBid",
          "type": "uint256"
        },
        {
          "indexed": false,
          "internalType": "enum Constants.AuctionEndState",
          "name": "endState",
          "type": "uint8"
        }
      ],
      "name": "AuctionClosed",
      "type": "event"
    },
    {
      "anonymous": false,
      "inputs": [
        {
          "indexed": true,
          "internalType": "address",
          "name": "auction",
          "type": "address"
        },
        {
          "indexed": true,
          "internalType": "address",
          "name": "nftAddress",
          "type": "address"
        },
        {
          "indexed": true,
          "internalType": "uint256",
          "name": "tokenId",
          "type": "uint256"
        },
        {
          "indexed": false,
          "internalType": "address",
          "name": "bidder",
          "type": "address"
        },
        {
          "indexed": false,
          "internalType": "uint256",
          "name": "depositAmount",
          "type": "uint256"
        },
        {
          "indexed": false,
          "internalType": "uint256",
          "name": "depositTime",
          "type": "uint256"
        }
      ],
      "name": "AuctionDepositPlaced",
      "type": "event"
    },
    {
      "anonymous": false,
      "inputs": [
        {
          "indexed": true,
          "internalType": "address",
          "name": "auction",
          "type": "address"
        },
        {
          "indexed": true,
          "internalType": "address",
          "name": "nftAddress",
          "type": "address"
        },
        {
          "indexed": true,
          "internalType": "uint256",
          "name": "tokenId",
          "type": "uint256"
        },
        {
          "indexed": false,
          "internalType": "address",
          "name": "bidder",
          "type": "address"
        },
        {
          "indexed": false,
          "internalType": "uint256",
          "name": "retrieveAmount",
          "type": "uint256"
        },
        {
          "indexed": false,
          "internalType": "uint256",
          "name": "retrievalTime",
          "type": "uint256"
        }
      ],
      "name": "AuctionDepositRetrieved",
      "type": "event"
    },
    {
      "anonymous": false,
      "inputs": [
        {
          "indexed": true,
          "internalType": "address",
          "name": "auction",
          "type": "address"
        },
        {
          "indexed": true,
          "internalType": "address",
          "name": "nftAddress",
          "type": "address"
        },
        {
          "indexed": true,
          "internalType": "uint256",
          "name": "tokenId",
          "type": "uint256"
        },
        {
          "indexed": false,
          "internalType": "address",
          "name": "winner",
          "type": "address"
        },
        {
          "indexed": false,
          "internalType": "address",
          "name": "seller",
          "type": "address"
        },
        {
          "indexed": false,
          "internalType": "uint256",
          "name": "paidAmount",
          "type": "uint256"
        },
        {
          "indexed": false,
          "internalType": "uint256",
          "name": "paidTime",
          "type": "uint256"
        }
      ],
      "name": "AuctionFullSettlementPaid",
      "type": "event"
    },
    {
      "anonymous": false,
      "inputs": [
        {
          "indexed": true,
          "internalType": "address",
          "name": "auction",
          "type": "address"
        },
        {
          "indexed": true,
          "internalType": "address",
          "name": "nftAddress",
          "type": "address"
        },
        {
          "indexed": true,
          "internalType": "uint256",
          "name": "tokenId",
          "type": "uint256"
        },
        {
          "indexed": false,
          "internalType": "address",
          "name": "winner",
          "type": "address"
        },
        {
          "indexed": false,
          "internalType": "address",
          "name": "seller",
          "type": "address"
        },
        {
          "indexed": false,
          "internalType": "uint256",
          "name": "paidAmount",
          "type": "uint256"
        },
        {
          "indexed": false,
          "internalType": "uint256",
          "name": "paidTime",
          "type": "uint256"
        }
      ],
      "name": "AuctionPendingAudit",
      "type": "event"
    },
    {
      "anonymous": false,
      "inputs": [
        {
          "indexed": true,
          "internalType": "address",
          "name": "auction",
          "type": "address"
        },
        {
          "indexed": false,
          "internalType": "address",
          "name": "seller",
          "type": "address"
        },
        {
          "indexed": true,
          "internalType": "address",
          "name": "nftAddress",
          "type": "address"
        },
        {
          "indexed": true,
          "internalType": "uint256",
          "name": "tokenId",
          "type": "uint256"
        },
        {
          "indexed": false,
          "internalType": "address",
          "name": "winner",
          "type": "address"
        },
        {
          "indexed": false,
          "internalType": "uint256",
          "name": "winningBid",
          "type": "uint256"
        },
        {
          "indexed": false,
          "internalType": "uint256",
          "name": "startTime",
          "type": "uint256"
        },
        {
          "indexed": false,
          "internalType": "uint256",
          "name": "endTime",
          "type": "uint256"
        }
      ],
      "name": "AuctionPendingPayment",
      "type": "event"
    },
    {
      "anonymous": false,
      "inputs": [
        {
          "indexed": true,
          "internalType": "address",
          "name": "auction",
          "type": "address"
        },
        {
          "indexed": false,
          "internalType": "address",
          "name": "seller",
          "type": "address"
        },
        {
          "indexed": true,
          "internalType": "address",
          "name": "nftAddress",
          "type": "address"
        },
        {
          "indexed": true,
          "internalType": "uint256",
          "name": "tokenId",
          "type": "uint256"
        },
        {
          "indexed": false,
          "internalType": "uint256",
          "name": "registerTime",
          "type": "uint256"
        }
      ],
      "name": "AuctionRegistered",
      "type": "event"
    },
    {
      "anonymous": false,
      "inputs": [
        {
          "indexed": true,
          "internalType": "address",
          "name": "auction",
          "type": "address"
        },
        {
          "indexed": false,
          "internalType": "address",
          "name": "seller",
          "type": "address"
        },
        {
          "indexed": true,
          "internalType": "address",
          "name": "nftAddress",
          "type": "address"
        },
        {
          "indexed": true,
          "internalType": "uint256",
          "name": "tokenId",
          "type": "uint256"
        },
        {
          "indexed": false,
          "internalType": "uint256",
          "name": "depositWei",
          "type": "uint256"
        },
        {
          "indexed": false,
          "internalType": "uint256",
          "name": "bidStartTime",
          "type": "uint256"
        },
        {
          "indexed": false,
          "internalType": "uint256",
          "name": "bidEndTime",
          "type": "uint256"
        },
        {
          "indexed": false,
          "internalType": "uint256",
          "name": "startingBid",
          "type": "uint256"
        }
      ],
      "name": "AuctionStartedBidding",
      "type": "event"
    },
    {
      "anonymous": false,
      "inputs": [
        {
          "indexed": true,
          "internalType": "address",
          "name": "auction",
          "type": "address"
        },
        {
          "indexed": false,
          "internalType": "address",
          "name": "seller",
          "type": "address"
        },
        {
          "indexed": true,
          "internalType": "address",
          "name": "nftAddress",
          "type": "address"
        },
        {
          "indexed": true,
          "internalType": "uint256",
          "name": "tokenId",
          "type": "uint256"
        },
        {
          "indexed": false,
          "internalType": "address",
          "name": "winner",
          "type": "address"
        },
        {
          "indexed": false,
          "internalType": "uint256",
          "name": "winningBid",
          "type": "uint256"
        },
        {
          "indexed": false,
          "internalType": "uint256",
          "name": "platformCharge",
          "type": "uint256"
        },
        {
          "indexed": false,
          "internalType": "uint256",
          "name": "startTime",
          "type": "uint256"
        },
        {
          "indexed": false,
          "internalType": "uint256",
          "name": "endTime",
          "type": "uint256"
        }
      ],
      "name": "AuctionVerifyingWinner",
      "type": "event"
    },
    {
      "anonymous": false,
      "inputs": [
        {
          "indexed": true,
          "internalType": "address",
          "name": "auction",
          "type": "address"
        },
        {
          "indexed": true,
          "internalType": "address",
          "name": "nftAddress",
          "type": "address"
        },
        {
          "indexed": true,
          "internalType": "uint256",
          "name": "tokenId",
          "type": "uint256"
        },
        {
          "indexed": false,
          "internalType": "address",
          "name": "seller",
          "type": "address"
        },
        {
          "indexed": false,
          "internalType": "uint256",
          "name": "highestBid",
          "type": "uint256"
        }
      ],
      "name": "PendingSellerEarningsRetrieval",
      "type": "event"
    },
    {
      "anonymous": false,
      "inputs": [
        {
          "indexed": true,
          "internalType": "address",
          "name": "auction",
          "type": "address"
        },
        {
          "indexed": true,
          "internalType": "address",
          "name": "nftAddress",
          "type": "address"
        },
        {
          "indexed": true,
          "internalType": "uint256",
          "name": "tokenId",
          "type": "uint256"
        },
        {
          "indexed": false,
          "internalType": "address",
          "name": "winner",
          "type": "address"
        },
        {
          "indexed": false,
          "internalType": "uint256",
          "name": "fullSettlement",
          "type": "uint256"
        }
      ],
      "name": "PendingWinnerPaymentRefund",
      "type": "event"
    },
    {
      "anonymous": false,
      "inputs": [
        {
          "indexed": false,
          "internalType": "address",
          "name": "platformOwner",
          "type": "address"
        },
        {
          "indexed": true,
          "internalType": "address",
          "name": "payer",
          "type": "address"
        },
        {
          "indexed": true,
          "internalType": "address",
          "name": "auction",
          "type": "address"
        },
        {
          "indexed": true,
          "internalType": "enum Constants.PlatformEarnings",
          "name": "earningType",
          "type": "uint8"
        },
        {
          "indexed": false,
          "internalType": "uint256",
          "name": "time",
          "type": "uint256"
        }
      ],
      "name": "PlatformEarnings",
      "type": "event"
    },
    {
      "anonymous": false,
      "inputs": [
        {
          "indexed": true,
          "internalType": "address",
          "name": "auction",
          "type": "address"
        },
        {
          "indexed": true,
          "internalType": "address",
          "name": "nftAddress",
          "type": "address"
        },
        {
          "indexed": true,
          "internalType": "uint256",
          "name": "tokenId",
          "type": "uint256"
        },
        {
          "indexed": false,
          "internalType": "address",
          "name": "seller",
          "type": "address"
        },
        {
          "indexed": false,
          "internalType": "uint256",
          "name": "retrieveAmount",
          "type": "uint256"
        },
        {
          "indexed": false,
          "internalType": "uint256",
          "name": "retrievalTime",
          "type": "uint256"
        }
      ],
      "name": "SellerEarningsRetrieved",
      "type": "event"
    },
    {
      "anonymous": false,
      "inputs": [
        {
          "indexed": true,
          "internalType": "address",
          "name": "auction",
          "type": "address"
        },
        {
          "indexed": true,
          "internalType": "address",
          "name": "nftAddress",
          "type": "address"
        },
        {
          "indexed": true,
          "internalType": "uint256",
          "name": "tokenId",
          "type": "uint256"
        },
        {
          "indexed": false,
          "internalType": "address",
          "name": "winner",
          "type": "address"
        },
        {
          "indexed": false,
          "internalType": "uint256",
          "name": "refundAmount",
          "type": "uint256"
        },
        {
          "indexed": false,
          "internalType": "uint256",
          "name": "retrievalTime",
          "type": "uint256"
        }
      ],
      "name": "WinnerPaymentRefunded",
      "type": "event"
    },
    {
      "inputs": [
        {
          "internalType": "address",
          "name": "_auction",
          "type": "address"
        },
        {
          "internalType": "address",
          "name": "_seller",
          "type": "address"
        },
        {
          "internalType": "address",
          "name": "_nftAddress",
          "type": "address"
        },
        {
          "internalType": "uint256",
          "name": "_tokenId",
          "type": "uint256"
        },
        {
          "internalType": "address",
          "name": "_winner",
          "type": "address"
        },
        {
          "internalType": "uint256",
          "name": "_winningBid",
          "type": "uint256"
        },
        {
          "internalType": "uint256",
          "name": "_time",
          "type": "uint256"
        },
        {
          "internalType": "bool",
          "name": "_pass",
          "type": "bool"
        }
      ],
      "name": "emitAuctionAuditResult",
      "outputs": [],
      "stateMutability": "nonpayable",
      "type": "function"
    },
    {
      "inputs": [
        {
          "internalType": "address",
          "name": "_auction",
          "type": "address"
        },
        {
          "internalType": "address",
          "name": "_nftAddress",
          "type": "address"
        },
        {
          "internalType": "uint256",
          "name": "_tokenId",
          "type": "uint256"
        },
        {
          "internalType": "address",
          "name": "_bidder",
          "type": "address"
        },
        {
          "internalType": "uint256",
          "name": "_bidAmount",
          "type": "uint256"
        },
        {
          "internalType": "uint256",
          "name": "_bidTime",
          "type": "uint256"
        }
      ],
      "name": "emitAuctionBidPlaced",
      "outputs": [],
      "stateMutability": "nonpayable",
      "type": "function"
    },
    {
      "inputs": [
        {
          "internalType": "address",
          "name": "_auction",
          "type": "address"
        },
        {
          "internalType": "address",
          "name": "_seller",
          "type": "address"
        },
        {
          "internalType": "address",
          "name": "_nftAddress",
          "type": "address"
        },
        {
          "internalType": "uint256",
          "name": "_tokenId",
          "type": "uint256"
        },
        {
          "internalType": "uint256",
          "name": "_closeTime",
          "type": "uint256"
        },
        {
          "internalType": "address",
          "name": "_winner",
          "type": "address"
        },
        {
          "internalType": "uint256",
          "name": "_winningBid",
          "type": "uint256"
        },
        {
          "internalType": "enum Constants.AuctionEndState",
          "name": "_endState",
          "type": "uint8"
        }
      ],
      "name": "emitAuctionClosed",
      "outputs": [],
      "stateMutability": "nonpayable",
      "type": "function"
    },
    {
      "inputs": [
        {
          "internalType": "address",
          "name": "_auction",
          "type": "address"
        },
        {
          "internalType": "address",
          "name": "_nftAddress",
          "type": "address"
        },
        {
          "internalType": "uint256",
          "name": "_tokenId",
          "type": "uint256"
        },
        {
          "internalType": "address",
          "name": "_bidder",
          "type": "address"
        },
        {
          "internalType": "uint256",
          "name": "_depositAmount",
          "type": "uint256"
        },
        {
          "internalType": "uint256",
          "name": "_depositTime",
          "type": "uint256"
        }
      ],
      "name": "emitAuctionDepositPlaced",
      "outputs": [],
      "stateMutability": "nonpayable",
      "type": "function"
    },
    {
      "inputs": [
        {
          "internalType": "address",
          "name": "_auction",
          "type": "address"
        },
        {
          "internalType": "address",
          "name": "_nftAddress",
          "type": "address"
        },
        {
          "internalType": "uint256",
          "name": "_tokenId",
          "type": "uint256"
        },
        {
          "internalType": "address",
          "name": "_retriever",
          "type": "address"
        },
        {
          "internalType": "uint256",
          "name": "_retrieveAmount",
          "type": "uint256"
        },
        {
          "internalType": "uint256",
          "name": "_retrievalTime",
          "type": "uint256"
        }
      ],
      "name": "emitAuctionDepositRetrieved",
      "outputs": [],
      "stateMutability": "nonpayable",
      "type": "function"
    },
    {
      "inputs": [
        {
          "internalType": "address",
          "name": "_auction",
          "type": "address"
        },
        {
          "internalType": "address",
          "name": "_nftAddress",
          "type": "address"
        },
        {
          "internalType": "uint256",
          "name": "_tokenId",
          "type": "uint256"
        },
        {
          "internalType": "address",
          "name": "_winner",
          "type": "address"
        },
        {
          "internalType": "address",
          "name": "_seller",
          "type": "address"
        },
        {
          "internalType": "uint256",
          "name": "_paidAmount",
          "type": "uint256"
        },
        {
          "internalType": "uint256",
          "name": "_paidTime",
          "type": "uint256"
        }
      ],
      "name": "emitAuctionFullSettlementPaid",
      "outputs": [],
      "stateMutability": "nonpayable",
      "type": "function"
    },
    {
      "inputs": [
        {
          "internalType": "address",
          "name": "_auction",
          "type": "address"
        },
        {
          "internalType": "address",
          "name": "_nftAddress",
          "type": "address"
        },
        {
          "internalType": "uint256",
          "name": "_tokenId",
          "type": "uint256"
        },
        {
          "internalType": "address",
          "name": "_winner",
          "type": "address"
        },
        {
          "internalType": "address",
          "name": "_seller",
          "type": "address"
        },
        {
          "internalType": "uint256",
          "name": "_paidAmount",
          "type": "uint256"
        },
        {
          "internalType": "uint256",
          "name": "_paidTime",
          "type": "uint256"
        }
      ],
      "name": "emitAuctionPendingAudit",
      "outputs": [],
      "stateMutability": "nonpayable",
      "type": "function"
    },
    {
      "inputs": [
        {
          "internalType": "address",
          "name": "_auction",
          "type": "address"
        },
        {
          "internalType": "address",
          "name": "_seller",
          "type": "address"
        },
        {
          "internalType": "address",
          "name": "_nftAddress",
          "type": "address"
        },
        {
          "internalType": "uint256",
          "name": "_tokenId",
          "type": "uint256"
        },
        {
          "internalType": "address",
          "name": "_winner",
          "type": "address"
        },
        {
          "internalType": "uint256",
          "name": "_winningBid",
          "type": "uint256"
        },
        {
          "internalType": "uint256",
          "name": "_startTime",
          "type": "uint256"
        },
        {
          "internalType": "uint256",
          "name": "_expiryTime",
          "type": "uint256"
        }
      ],
      "name": "emitAuctionPendingPayment",
      "outputs": [],
      "stateMutability": "nonpayable",
      "type": "function"
    },
    {
      "inputs": [
        {
          "internalType": "address",
          "name": "_auction",
          "type": "address"
        },
        {
          "internalType": "address",
          "name": "_seller",
          "type": "address"
        },
        {
          "internalType": "address",
          "name": "_nftAddress",
          "type": "address"
        },
        {
          "internalType": "uint256",
          "name": "_tokenId",
          "type": "uint256"
        },
        {
          "internalType": "uint256",
          "name": "_registerTime",
          "type": "uint256"
        }
      ],
      "name": "emitAuctionRegistered",
      "outputs": [],
      "stateMutability": "nonpayable",
      "type": "function"
    },
    {
      "inputs": [
        {
          "internalType": "address",
          "name": "_auction",
          "type": "address"
        },
        {
          "internalType": "address",
          "name": "_seller",
          "type": "address"
        },
        {
          "internalType": "address",
          "name": "_nftAddress",
          "type": "address"
        },
        {
          "internalType": "uint256",
          "name": "_tokenId",
          "type": "uint256"
        },
        {
          "internalType": "uint256",
          "name": "_depositWei",
          "type": "uint256"
        },
        {
          "internalType": "uint256",
          "name": "_startTime",
          "type": "uint256"
        },
        {
          "internalType": "uint256",
          "name": "_bidEndTime",
          "type": "uint256"
        },
        {
          "internalType": "uint256",
          "name": "_startingBid",
          "type": "uint256"
        }
      ],
      "name": "emitAuctionStartedBidding",
      "outputs": [],
      "stateMutability": "nonpayable",
      "type": "function"
    },
    {
      "inputs": [
        {
          "internalType": "address",
          "name": "_auction",
          "type": "address"
        },
        {
          "internalType": "address",
          "name": "_seller",
          "type": "address"
        },
        {
          "internalType": "address",
          "name": "_nftAddress",
          "type": "address"
        },
        {
          "internalType": "uint256",
          "name": "_tokenId",
          "type": "uint256"
        },
        {
          "internalType": "address",
          "name": "_winner",
          "type": "address"
        },
        {
          "internalType": "uint256",
          "name": "_winningBid",
          "type": "uint256"
        },
        {
          "internalType": "uint256",
          "name": "_platformCharge",
          "type": "uint256"
        },
        {
          "internalType": "uint256",
          "name": "_startTime",
          "type": "uint256"
        },
        {
          "internalType": "uint256",
          "name": "_expiryTime",
          "type": "uint256"
        }
      ],
      "name": "emitAuctionVerifyingWinner",
      "outputs": [],
      "stateMutability": "nonpayable",
      "type": "function"
    },
    {
      "inputs": [
        {
          "internalType": "address",
          "name": "_auction",
          "type": "address"
        },
        {
          "internalType": "address",
          "name": "_nftAddress",
          "type": "address"
        },
        {
          "internalType": "uint256",
          "name": "_tokenId",
          "type": "uint256"
        },
        {
          "internalType": "address",
          "name": "_seller",
          "type": "address"
        },
        {
          "internalType": "uint256",
          "name": "_highestBid",
          "type": "uint256"
        }
      ],
      "name": "emitPendingSellerEarningsRetrieval",
      "outputs": [],
      "stateMutability": "nonpayable",
      "type": "function"
    },
    {
      "inputs": [
        {
          "internalType": "address",
          "name": "_auction",
          "type": "address"
        },
        {
          "internalType": "address",
          "name": "_nftAddress",
          "type": "address"
        },
        {
          "internalType": "uint256",
          "name": "_tokenId",
          "type": "uint256"
        },
        {
          "internalType": "address",
          "name": "_winner",
          "type": "address"
        },
        {
          "internalType": "uint256",
          "name": "_fullSettlement",
          "type": "uint256"
        }
      ],
      "name": "emitPendingWinnerPaymentRefund",
      "outputs": [],
      "stateMutability": "nonpayable",
      "type": "function"
    },
    {
      "inputs": [
        {
          "internalType": "address",
          "name": "_platformOwner",
          "type": "address"
        },
        {
          "internalType": "address",
          "name": "_payer",
          "type": "address"
        },
        {
          "internalType": "address",
          "name": "_auction",
          "type": "address"
        },
        {
          "internalType": "enum Constants.PlatformEarnings",
          "name": "_earningType",
          "type": "uint8"
        },
        {
          "internalType": "uint256",
          "name": "_time",
          "type": "uint256"
        }
      ],
      "name": "emitPlatformEarnings",
      "outputs": [],
      "stateMutability": "nonpayable",
      "type": "function"
    },
    {
      "inputs": [
        {
          "internalType": "address",
          "name": "_auction",
          "type": "address"
        },
        {
          "internalType": "address",
          "name": "_nftAddress",
          "type": "address"
        },
        {
          "internalType": "uint256",
          "name": "_tokenId",
          "type": "uint256"
        },
        {
          "internalType": "address",
          "name": "_seller",
          "type": "address"
        },
        {
          "internalType": "uint256",
          "name": "_retrieveAmount",
          "type": "uint256"
        },
        {
          "internalType": "uint256",
          "name": "_retrievalTime",
          "type": "uint256"
        }
      ],
      "name": "emitSellerEarningsRetrieved",
      "outputs": [],
      "stateMutability": "nonpayable",
      "type": "function"
    },
    {
      "inputs": [
        {
          "internalType": "address",
          "name": "_auction",
          "type": "address"
        },
        {
          "internalType": "address",
          "name": "_nftAddress",
          "type": "address"
        },
        {
          "internalType": "uint256",
          "name": "_tokenId",
          "type": "uint256"
        },
        {
          "internalType": "address",
          "name": "_winner",
          "type": "address"
        },
        {
          "internalType": "uint256",
          "name": "_refundAmount",
          "type": "uint256"
        },
        {
          "internalType": "uint256",
          "name": "_retrievalTime",
          "type": "uint256"
        }
      ],
      "name": "emitWinnerPaymentRefunded",
      "outputs": [],
      "stateMutability": "nonpayable",
      "type": "function"
    }
  ],
  "transactionHash": "0x28904acf443e1b9e954e0705c6f31d20fc222cfdaf4e8f1e468da75cfe3be69d",
  "args": [],
  "numDeployments": 9,
  "solcInputHash": "dca9c8e390ff40ebad791b350cdac07c",
  "bytecode": "0x608060405234801561001057600080fd5b50611530806100206000396000f3fe608060405234801561001057600080fd5b50600436106101005760003560e01c8063a02cc95711610097578063dbe1a4a611610066578063dbe1a4a6146101eb578063e08ea11a146101fe578063edc0c73c14610211578063ef415bb61461022457600080fd5b8063a02cc9571461019f578063a780a032146101b2578063ae69121c146101c5578063d3b63be8146101d857600080fd5b806379cb66b9116100d357806379cb66b9146101535780638dcf508d14610166578063917e7058146101795780639ce3a7b21461018c57600080fd5b80630eb941ff146101055780632eca920f1461011a5780632f7a085b1461012d5780633a214a9814610140575b600080fd5b610118610113366004610bbe565b610237565b005b610118610128366004610c9d565b6102dc565b61011861013b366004610d50565b610375565b61011861014e366004610df3565b6103fb565b610118610161366004610e7e565b61048b565b610118610174366004610f21565b610511565b610118610187366004610fc0565b6105a7565b61011861019a366004611030565b61062d565b6101186101ad366004611030565b6106c0565b6101186101c03660046110d2565b610742565b6101186101d3366004611030565b6107d3565b6101186101e6366004611030565b610855565b6101186101f9366004610f21565b6108d7565b61011861020c36600461112c565b61095b565b61011861021f366004610df3565b6109b0565b610118610232366004611030565b610a30565b33600061024382610ab2565b600481111561025457610254611186565b1461027a5760405162461bcd60e51b8152600401610271906111e3565b60405180910390fd5b86886001600160a01b03168b6001600160a01b03167fb599fff20cd0cdacf6eba4e160e8d8009e20988c1eae26a9adbacd0825e57fe68c8a8a8a8a8a6040516102c896959493929190611208565b60405180910390a450505050505050505050565b3360006102e882610ab2565b60048111156102f9576102f9611186565b146103165760405162461bcd60e51b8152600401610271906111e3565b85876001600160a01b03168a6001600160a01b03167fc5afeb842b1ee0a786f0181fd50d600ada6f7182ac63862b96f7f442770648b28b89898989604051610362959493929190611295565b60405180910390a4505050505050505050565b33600061038182610ab2565b600481111561039257610392611186565b146103af5760405162461bcd60e51b8152600401610271906111e3565b85876001600160a01b03168a6001600160a01b03167f24eb4b3ed711873687e910758f75270c9463ed43b0ed071bdd590a4300bcd88e8b898989896040516103629594939291906112e1565b33600061040782610ab2565b600481111561041857610418611186565b146104355760405162461bcd60e51b8152600401610271906111e3565b83856001600160a01b0316876001600160a01b03167f7cb648c70f74f4ebff5eef46c983ec413f843086f6ab45c65d76f03907743770868660405161047b929190611323565b60405180910390a4505050505050565b33600061049782610ab2565b60048111156104a8576104a8611186565b146104c55760405162461bcd60e51b8152600401610271906111e3565b85876001600160a01b03168a6001600160a01b03167f9508ec25b144da066199b5989b94395f140d3fa4b4b89d9d1fe759b3a56207818b8989898960405161036295949392919061134d565b33600061051d82610ab2565b600481111561052e5761052e611186565b1461054b5760405162461bcd60e51b8152600401610271906111e3565b85876001600160a01b0316896001600160a01b03167fd9aab4ab40bdf963884f8195430dfa8cfb4f612db68e77014f08b1572104386d88888888604051610595949392919061138f565b60405180910390a45050505050505050565b3360006105b382610ab2565b60048111156105c4576105c4611186565b146105e15760405162461bcd60e51b8152600401610271906111e3565b85876001600160a01b03168a6001600160a01b03167fff4bb47ee7dfdeaa91aa6bb72cb414f4a5417cb8b7856c50518377140a76f84f8b898989896040516103629594939291906113cd565b33600061063982610ab2565b600481111561064a5761064a611186565b146106675760405162461bcd60e51b8152600401610271906111e3565b84866001600160a01b0316886001600160a01b03167f3a9c5bc83e1db6f3e83108121fd2f39d4f4833e4db23b894e1ba7179f60007d88787876040516106af939291906113e8565b60405180910390a450505050505050565b3360006106cc82610ab2565b60048111156106dd576106dd611186565b146106fa5760405162461bcd60e51b8152600401610271906111e3565b84866001600160a01b0316886001600160a01b03167f9ae6f0a8ca0d7d683b3c09bd0ae5753f0e32122471cfd78314043b23098a6c248787876040516106af939291906113e8565b33600061074e82610ab2565b600481111561075f5761075f611186565b1461077c5760405162461bcd60e51b8152600401610271906111e3565b82600281111561078e5761078e611186565b846001600160a01b0316866001600160a01b03167f3ec02074dff7cee356720b1f6e201d35ea87c45961d9d9e3cc4ff52147908bc2898660405161047b929190611323565b3360006107df82610ab2565b60048111156107f0576107f0611186565b1461080d5760405162461bcd60e51b8152600401610271906111e3565b84866001600160a01b0316886001600160a01b03167f61f5631971566b3768bafba61e9d2a9b41fcffa03bd2a2c2226c2187b9d4fbb48787876040516106af939291906113e8565b33600061086182610ab2565b600481111561087257610872611186565b1461088f5760405162461bcd60e51b8152600401610271906111e3565b84866001600160a01b0316886001600160a01b03167f2babdf2515139b15f37dbc4b16e25fe27d46327703abc50cd73c7acb5369e3cc8787876040516106af939291906113e8565b3360006108e382610ab2565b60048111156108f4576108f4611186565b146109115760405162461bcd60e51b8152600401610271906111e3565b85876001600160a01b0316896001600160a01b03167f6508363baadf10a2e45e005d3e4f83ac4241be9659d4e5a1db450047c96ffc0388888888604051610595949392919061138f565b81836001600160a01b0316866001600160a01b03167f34d6b4d35fa401c6a7d3efae588ddd17d510ceb459bf4af495f1498706fd44c187856040516109a1929190611323565b60405180910390a45050505050565b3360006109bc82610ab2565b60048111156109cd576109cd611186565b146109ea5760405162461bcd60e51b8152600401610271906111e3565b83856001600160a01b0316876001600160a01b03167fb69b183a4797f588738e4791cd412f053536c39134f30c2c74f7e76ec8804360868660405161047b929190611323565b336000610a3c82610ab2565b6004811115610a4d57610a4d611186565b14610a6a5760405162461bcd60e51b8152600401610271906111e3565b84866001600160a01b0316886001600160a01b03167f106d24c70bbf2f6dbb6d5fa931e9951c1809fa791d8239136c544c36ecb6b8e88787876040516106af939291906113e8565b60408051600481526024810182526020810180516001600160e01b0316630628d14f60e51b1790529051600091829182916001600160a01b03861691610af89190611462565b6000604051808303816000865af19150503d8060008114610b35576040519150601f19603f3d011682016040523d82523d6000602084013e610b3a565b606091505b509150915081610b5c5760405162461bcd60e51b8152600401610271906114b1565b80806020019051810190610b7091906114d9565b949350505050565b60006001600160a01b0382165b92915050565b610b9481610b78565b8114610b9f57600080fd5b50565b8035610b8581610b8b565b80610b94565b8035610b8581610bad565b60008060008060008060008060006101208a8c031215610be057610be0600080fd5b6000610bec8c8c610ba2565b9950506020610bfd8c828d01610ba2565b9850506040610c0e8c828d01610ba2565b9750506060610c1f8c828d01610bb3565b9650506080610c308c828d01610ba2565b95505060a0610c418c828d01610bb3565b94505060c0610c528c828d01610bb3565b93505060e0610c638c828d01610bb3565b925050610100610c758c828d01610bb3565b9150509295985092959850929598565b60078110610b9f57600080fd5b8035610b8581610c85565b600080600080600080600080610100898b031215610cbd57610cbd600080fd5b6000610cc98b8b610ba2565b9850506020610cda8b828c01610ba2565b9750506040610ceb8b828c01610ba2565b9650506060610cfc8b828c01610bb3565b9550506080610d0d8b828c01610bb3565b94505060a0610d1e8b828c01610ba2565b93505060c0610d2f8b828c01610bb3565b92505060e0610d408b828c01610c92565b9150509295985092959890939650565b600080600080600080600080610100898b031215610d7057610d70600080fd5b6000610d7c8b8b610ba2565b9850506020610d8d8b828c01610ba2565b9750506040610d9e8b828c01610ba2565b9650506060610daf8b828c01610bb3565b9550506080610dc08b828c01610bb3565b94505060a0610dd18b828c01610bb3565b93505060c0610de28b828c01610bb3565b92505060e0610d408b828c01610bb3565b600080600080600060a08688031215610e0e57610e0e600080fd5b6000610e1a8888610ba2565b9550506020610e2b88828901610ba2565b9450506040610e3c88828901610bb3565b9350506060610e4d88828901610ba2565b9250506080610e5e88828901610bb3565b9150509295509295909350565b801515610b94565b8035610b8581610e6b565b600080600080600080600080610100898b031215610e9e57610e9e600080fd5b6000610eaa8b8b610ba2565b9850506020610ebb8b828c01610ba2565b9750506040610ecc8b828c01610ba2565b9650506060610edd8b828c01610bb3565b9550506080610eee8b828c01610ba2565b94505060a0610eff8b828c01610bb3565b93505060c0610f108b828c01610bb3565b92505060e0610d408b828c01610e73565b600080600080600080600060e0888a031215610f3f57610f3f600080fd5b6000610f4b8a8a610ba2565b9750506020610f5c8a828b01610ba2565b9650506040610f6d8a828b01610bb3565b9550506060610f7e8a828b01610ba2565b9450506080610f8f8a828b01610ba2565b93505060a0610fa08a828b01610bb3565b92505060c0610fb18a828b01610bb3565b91505092959891949750929550565b600080600080600080600080610100898b031215610fe057610fe0600080fd5b6000610fec8b8b610ba2565b9850506020610ffd8b828c01610ba2565b975050604061100e8b828c01610ba2565b965050606061101f8b828c01610bb3565b9550506080610dc08b828c01610ba2565b60008060008060008060c0878903121561104c5761104c600080fd5b60006110588989610ba2565b965050602061106989828a01610ba2565b955050604061107a89828a01610bb3565b945050606061108b89828a01610ba2565b935050608061109c89828a01610bb3565b92505060a06110ad89828a01610bb3565b9150509295509295509295565b60038110610b9f57600080fd5b8035610b85816110ba565b600080600080600060a086880312156110ed576110ed600080fd5b60006110f98888610ba2565b955050602061110a88828901610ba2565b945050604061111b88828901610ba2565b9350506060610e4d888289016110c7565b600080600080600060a0868803121561114757611147600080fd5b60006111538888610ba2565b955050602061116488828901610ba2565b945050604061117588828901610ba2565b9350506060610e4d88828901610bb3565b634e487b7160e01b600052602160045260246000fd5b602781526000602082017f6576656e74456d69742063616e206f6e6c792062652063616c6c65642062792081526620bab1ba34b7b760c91b602082015291505b5060400190565b60208082528101610b858161119c565b6111fc81610b78565b82525050565b806111fc565b60c0810161121682896111f3565b61122360208301886111f3565b6112306040830187611202565b61123d6060830186611202565b61124a6080830185611202565b61125760a0830184611202565b979650505050505050565b60078110610b9f57610b9f611186565b8061127c81611262565b919050565b6000610b8582611272565b6111fc81611281565b60a081016112a382886111f3565b6112b06020830187611202565b6112bd60408301866111f3565b6112ca6060830185611202565b6112d7608083018461128c565b9695505050505050565b60a081016112ef82886111f3565b6112fc6020830187611202565b6113096040830186611202565b6113166060830185611202565b6112d76080830184611202565b6040810161133182856111f3565b61133e6020830184611202565b9392505050565b8015156111fc565b60a0810161135b82886111f3565b61136860208301876111f3565b6113756040830186611202565b6113826060830185611202565b6112d76080830184611345565b6080810161139d82876111f3565b6113aa60208301866111f3565b6113b76040830185611202565b6113c46060830184611202565b95945050505050565b60a081016113db82886111f3565b6112fc60208301876111f3565b606081016113f682866111f3565b6114036020830185611202565b610b706040830184611202565b60005b8381101561142b578181015183820152602001611413565b8381111561143a576000848401525b50505050565b600061144a825190565b611458818560208601611410565b9290920192915050565b600061133e8284611440565b602681526000602082017f556e61626c6520746f2064657465726d696e652074686520636f6e747261637481526520747970652160d01b602082015291506111dc565b60208082528101610b858161146e565b60058110610b9f57600080fd5b8051610b85816114c1565b6000602082840312156114ee576114ee600080fd5b6000610b7084846114ce56fea26469706673582212206e6db55f63317b2dca0cfe68dbc3f1d7ef2685487c868c0b99d959757eac249464736f6c63430008080033",
  "devdoc": {
    "kind": "dev",
    "methods": {},
    "version": 1
  },
  "userdoc": {
    "kind": "user",
    "methods": {},
    "version": 1
  },
  "storageLayout": {
    "storage": [],
    "types": null
  }
}