{
  "address": "0xDeb8dfb915B68e0bF4a898fc94d035f736c104eC",
  "abi": [
    {
      "inputs": [
        {
          "internalType": "string",
          "name": "_name",
          "type": "string"
        },
        {
          "internalType": "string",
          "name": "_symbol",
          "type": "string"
        }
      ],
      "stateMutability": "nonpayable",
      "type": "constructor"
    },
    {
      "anonymous": false,
      "inputs": [
        {
          "indexed": true,
          "internalType": "address",
          "name": "owner",
          "type": "address"
        },
        {
          "indexed": true,
          "internalType": "address",
          "name": "approved",
          "type": "address"
        },
        {
          "indexed": true,
          "internalType": "uint256",
          "name": "tokenId",
          "type": "uint256"
        }
      ],
      "name": "Approval",
      "type": "event"
    },
    {
      "anonymous": false,
      "inputs": [
        {
          "indexed": true,
          "internalType": "address",
          "name": "owner",
          "type": "address"
        },
        {
          "indexed": true,
          "internalType": "address",
          "name": "operator",
          "type": "address"
        },
        {
          "indexed": false,
          "internalType": "bool",
          "name": "approved",
          "type": "bool"
        }
      ],
      "name": "ApprovalForAll",
      "type": "event"
    },
    {
      "anonymous": false,
      "inputs": [
        {
          "indexed": true,
          "internalType": "address",
          "name": "owner",
          "type": "address"
        },
        {
          "indexed": true,
          "internalType": "uint256",
          "name": "tokenId",
          "type": "uint256"
        }
      ],
      "name": "NftBurned",
      "type": "event"
    },
    {
      "anonymous": false,
      "inputs": [
        {
          "indexed": true,
          "internalType": "address",
          "name": "owner",
          "type": "address"
        },
        {
          "indexed": false,
          "internalType": "string",
          "name": "tokenURI",
          "type": "string"
        },
        {
          "indexed": true,
          "internalType": "uint256",
          "name": "tokenId",
          "type": "uint256"
        }
      ],
      "name": "NftMinted",
      "type": "event"
    },
    {
      "anonymous": false,
      "inputs": [
        {
          "indexed": true,
          "internalType": "address",
          "name": "prev_Owner",
          "type": "address"
        },
        {
          "indexed": true,
          "internalType": "address",
          "name": "curr_Owner",
          "type": "address"
        },
        {
          "indexed": true,
          "internalType": "uint256",
          "name": "tokenId",
          "type": "uint256"
        }
      ],
      "name": "NftTransferred",
      "type": "event"
    },
    {
      "anonymous": false,
      "inputs": [
        {
          "indexed": true,
          "internalType": "address",
          "name": "from",
          "type": "address"
        },
        {
          "indexed": true,
          "internalType": "address",
          "name": "to",
          "type": "address"
        },
        {
          "indexed": true,
          "internalType": "uint256",
          "name": "tokenId",
          "type": "uint256"
        }
      ],
      "name": "Transfer",
      "type": "event"
    },
    {
      "inputs": [
        {
          "internalType": "uint256",
          "name": "_tokenId",
          "type": "uint256"
        },
        {
          "internalType": "string",
          "name": "_tokenURI",
          "type": "string"
        }
      ],
      "name": "addReport",
      "outputs": [],
      "stateMutability": "nonpayable",
      "type": "function"
    },
    {
      "inputs": [
        {
          "internalType": "address",
          "name": "to",
          "type": "address"
        },
        {
          "internalType": "uint256",
          "name": "tokenId",
          "type": "uint256"
        }
      ],
      "name": "approve",
      "outputs": [],
      "stateMutability": "nonpayable",
      "type": "function"
    },
    {
      "inputs": [
        {
          "internalType": "uint256",
          "name": "_tokenId",
          "type": "uint256"
        }
      ],
      "name": "approveBurn",
      "outputs": [],
      "stateMutability": "nonpayable",
      "type": "function"
    },
    {
      "inputs": [
        {
          "internalType": "address",
          "name": "owner",
          "type": "address"
        }
      ],
      "name": "balanceOf",
      "outputs": [
        {
          "internalType": "uint256",
          "name": "",
          "type": "uint256"
        }
      ],
      "stateMutability": "view",
      "type": "function"
    },
    {
      "inputs": [
        {
          "internalType": "uint256",
          "name": "_tokenId",
          "type": "uint256"
        }
      ],
      "name": "burn",
      "outputs": [],
      "stateMutability": "nonpayable",
      "type": "function"
    },
    {
      "inputs": [
        {
          "internalType": "uint256",
          "name": "tokenId",
          "type": "uint256"
        }
      ],
      "name": "getApproved",
      "outputs": [
        {
          "internalType": "address",
          "name": "",
          "type": "address"
        }
      ],
      "stateMutability": "view",
      "type": "function"
    },
    {
      "inputs": [],
      "name": "getAuthorityAddress",
      "outputs": [
        {
          "internalType": "address",
          "name": "",
          "type": "address"
        }
      ],
      "stateMutability": "view",
      "type": "function"
    },
    {
      "inputs": [
        {
          "internalType": "address",
          "name": "owner",
          "type": "address"
        },
        {
          "internalType": "address",
          "name": "operator",
          "type": "address"
        }
      ],
      "name": "isApprovedForAll",
      "outputs": [
        {
          "internalType": "bool",
          "name": "",
          "type": "bool"
        }
      ],
      "stateMutability": "view",
      "type": "function"
    },
    {
      "inputs": [],
      "name": "name",
      "outputs": [
        {
          "internalType": "string",
          "name": "",
          "type": "string"
        }
      ],
      "stateMutability": "view",
      "type": "function"
    },
    {
      "inputs": [
        {
          "internalType": "uint256",
          "name": "tokenId",
          "type": "uint256"
        }
      ],
      "name": "ownerOf",
      "outputs": [
        {
          "internalType": "address",
          "name": "",
          "type": "address"
        }
      ],
      "stateMutability": "view",
      "type": "function"
    },
    {
      "inputs": [
        {
          "internalType": "address",
          "name": "_owner",
          "type": "address"
        },
        {
          "internalType": "string",
          "name": "_tokenURI",
          "type": "string"
        },
        {
          "internalType": "string",
          "name": "_chassisNum",
          "type": "string"
        }
      ],
      "name": "registerVehicle",
      "outputs": [
        {
          "internalType": "uint256",
          "name": "",
          "type": "uint256"
        }
      ],
      "stateMutability": "nonpayable",
      "type": "function"
    },
    {
      "inputs": [
        {
          "internalType": "address",
          "name": "from",
          "type": "address"
        },
        {
          "internalType": "address",
          "name": "to",
          "type": "address"
        },
        {
          "internalType": "uint256",
          "name": "tokenId",
          "type": "uint256"
        }
      ],
      "name": "safeTransferFrom",
      "outputs": [],
      "stateMutability": "nonpayable",
      "type": "function"
    },
    {
      "inputs": [
        {
          "internalType": "address",
          "name": "from",
          "type": "address"
        },
        {
          "internalType": "address",
          "name": "to",
          "type": "address"
        },
        {
          "internalType": "uint256",
          "name": "tokenId",
          "type": "uint256"
        },
        {
          "internalType": "bytes",
          "name": "data",
          "type": "bytes"
        }
      ],
      "name": "safeTransferFrom",
      "outputs": [],
      "stateMutability": "nonpayable",
      "type": "function"
    },
    {
      "inputs": [
        {
          "internalType": "address",
          "name": "operator",
          "type": "address"
        },
        {
          "internalType": "bool",
          "name": "approved",
          "type": "bool"
        }
      ],
      "name": "setApprovalForAll",
      "outputs": [],
      "stateMutability": "nonpayable",
      "type": "function"
    },
    {
      "inputs": [
        {
          "internalType": "address",
          "name": "_auction",
          "type": "address"
        },
        {
          "internalType": "bool",
          "name": "_valid",
          "type": "bool"
        }
      ],
      "name": "setAuditResult",
      "outputs": [],
      "stateMutability": "nonpayable",
      "type": "function"
    },
    {
      "inputs": [
        {
          "internalType": "bytes4",
          "name": "interfaceId",
          "type": "bytes4"
        }
      ],
      "name": "supportsInterface",
      "outputs": [
        {
          "internalType": "bool",
          "name": "",
          "type": "bool"
        }
      ],
      "stateMutability": "view",
      "type": "function"
    },
    {
      "inputs": [],
      "name": "symbol",
      "outputs": [
        {
          "internalType": "string",
          "name": "",
          "type": "string"
        }
      ],
      "stateMutability": "view",
      "type": "function"
    },
    {
      "inputs": [
        {
          "internalType": "uint256",
          "name": "",
          "type": "uint256"
        }
      ],
      "name": "tokenIdToBurnBool",
      "outputs": [
        {
          "internalType": "bool",
          "name": "",
          "type": "bool"
        }
      ],
      "stateMutability": "view",
      "type": "function"
    },
    {
      "inputs": [
        {
          "internalType": "uint256",
          "name": "",
          "type": "uint256"
        }
      ],
      "name": "tokenIdToReportUri",
      "outputs": [
        {
          "internalType": "string",
          "name": "",
          "type": "string"
        }
      ],
      "stateMutability": "view",
      "type": "function"
    },
    {
      "inputs": [
        {
          "internalType": "uint256",
          "name": "tokenId",
          "type": "uint256"
        }
      ],
      "name": "tokenURI",
      "outputs": [
        {
          "internalType": "string",
          "name": "",
          "type": "string"
        }
      ],
      "stateMutability": "view",
      "type": "function"
    },
    {
      "inputs": [
        {
          "internalType": "address",
          "name": "from",
          "type": "address"
        },
        {
          "internalType": "address",
          "name": "to",
          "type": "address"
        },
        {
          "internalType": "uint256",
          "name": "tokenId",
          "type": "uint256"
        }
      ],
      "name": "transferFrom",
      "outputs": [],
      "stateMutability": "nonpayable",
      "type": "function"
    }
  ],
  "transactionHash": "0x09e0e8a28cc4c2fce321584f561b616e402cf878d4c2bac1efba166a6b1dc216",
  "args": [
    "VehicleNft",
    "VOC"
  ],
  "numDeployments": 1,
  "solcInputHash": "5a73584ef5938b2b119319ecaaa7cfe3",
  "bytecode": "0x60806040523480156200001157600080fd5b506040516200234138038062002341833981016040819052620000349162000264565b8151829082906200004d90600090602085019062000081565b5080516200006390600190602084019062000081565b5050600680546001600160a01b031916331790555062000325915050565b8280546200008f90620002f4565b90600052602060002090601f016020900481019282620000b35760008555620000fe565b82601f10620000ce57805160ff1916838001178555620000fe565b82800160010185558215620000fe579182015b82811115620000fe578251825591602001919060010190620000e1565b506200010c92915062000110565b5090565b5b808211156200010c576000815560010162000111565b634e487b7160e01b600052604160045260246000fd5b601f19601f83011681018181106001600160401b038211171562000165576200016562000127565b6040525050565b60006200017860405190565b90506200018682826200013d565b919050565b60006001600160401b03821115620001a757620001a762000127565b601f19601f83011660200192915050565b60005b83811015620001d5578181015183820152602001620001bb565b83811115620001e5576000848401525b50505050565b600062000202620001fc846200018b565b6200016c565b9050828152602081018484840111156200021f576200021f600080fd5b6200022c848285620001b8565b509392505050565b600082601f8301126200024a576200024a600080fd5b81516200025c848260208601620001eb565b949350505050565b600080604083850312156200027c576200027c600080fd5b82516001600160401b03811115620002975762000297600080fd5b620002a58582860162000234565b92505060208301516001600160401b03811115620002c657620002c6600080fd5b620002d48582860162000234565b9150509250929050565b634e487b7160e01b600052602260045260246000fd5b6002810460018216806200030957607f821691505b602082108114156200031f576200031f620002de565b50919050565b61200c80620003356000396000f3fe608060405234801561001057600080fd5b50600436106101375760003560e01c8063827eea00116100b8578063b88d4fde1161007c578063b88d4fde14610292578063bd70e2b1146102a5578063c87b56dd146102b8578063cc6168fc146102cb578063e47a9d46146102de578063e985e9c5146102ef57600080fd5b8063827eea001461022e57806395d89b411461024157806399a2c42a14610249578063a22cb4651461026c578063aa3eef641461027f57600080fd5b806342842e0e116100ff57806342842e0e146101c257806342966c68146101d55780636352211e146101e85780636c3f4850146101fb57806370a082311461020e57600080fd5b806301ffc9a71461013c57806306fdde0314610165578063081812fc1461017a578063095ea7b31461019a57806323b872dd146101af575b600080fd5b61014f61014a366004611441565b610302565b60405161015c919061146c565b60405180910390f35b61016d610354565b60405161015c91906114d8565b61018d610188366004611501565b6103e6565b60405161015c919061153c565b6101ad6101a836600461155e565b61040d565b005b6101ad6101bd36600461159b565b61049c565b6101ad6101d036600461159b565b610552565b6101ad6101e3366004611501565b61056d565b61018d6101f6366004611501565b610641565b61016d610209366004611501565b610676565b61022161021c3660046115eb565b610710565b60405161015c9190611612565b6101ad61023c366004611501565b610754565b61016d6107cb565b61014f610257366004611501565b600a6020526000908152604090205460ff1681565b6101ad61027a366004611633565b6107da565b6101ad61028d366004611759565b6107e9565b6101ad6102a03660046117a7565b610832565b6101ad6102b3366004611633565b61086a565b61016d6102c6366004611501565b610ba9565b6102216102d9366004611826565b610c7e565b6006546001600160a01b031661018d565b61014f6102fd3660046118a2565b610db9565b60006001600160e01b031982166380ac58cd60e01b148061033357506001600160e01b03198216635b5e139f60e01b145b8061034e57506301ffc9a760e01b6001600160e01b03198316145b92915050565b606060008054610363906118eb565b80601f016020809104026020016040519081016040528092919081815260200182805461038f906118eb565b80156103dc5780601f106103b1576101008083540402835291602001916103dc565b820191906000526020600020905b8154815290600101906020018083116103bf57829003601f168201915b5050505050905090565b60006103f182610de7565b506000908152600460205260409020546001600160a01b031690565b600061041882610641565b9050806001600160a01b0316836001600160a01b031614156104555760405162461bcd60e51b815260040161044c90611959565b60405180910390fd5b336001600160a01b038216148061047157506104718133610db9565b61048d5760405162461bcd60e51b815260040161044c906119c3565b6104978383610e1e565b505050565b6006546001600160a01b031633146104c65760405162461bcd60e51b815260040161044c90611a0a565b6104d03382610e8c565b806104e557506006546001600160a01b031633145b6105015760405162461bcd60e51b815260040161044c90611a64565b61050c838383610eeb565b80826001600160a01b0316846001600160a01b03167f503c8ba91d48fc8384cff446c5c79279a4384cf2b87848c05b01cf3016c156b760405160405180910390a4505050565b61049783838360405180602001604052806000815250610832565b6000818152600a6020526040902054819060ff1615156001146105a25760405162461bcd60e51b815260040161044c90611aa1565b6105ab82610641565b6001600160a01b0316336001600160a01b031614806105d457506006546001600160a01b031633145b6105f05760405162461bcd60e51b815260040161044c90611afb565b60006105fb83610641565b905061060683611013565b60405183906001600160a01b038316907f4124e08f3a7db6516639a90c8ef7f6f730d82e3c5c76c50a644b1e84cddaa89a90600090a3505050565b6000818152600260205260408120546001600160a01b03168061034e5760405162461bcd60e51b815260040161044c90611b3f565b600b602052600090815260409020805461068f906118eb565b80601f01602080910402602001604051908101604052809291908181526020018280546106bb906118eb565b80156107085780601f106106dd57610100808354040283529160200191610708565b820191906000526020600020905b8154815290600101906020018083116106eb57829003601f168201915b505050505081565b60006001600160a01b0382166107385760405162461bcd60e51b815260040161044c90611b95565b506001600160a01b031660009081526003602052604090205490565b6006546001600160a01b0316331461077e5760405162461bcd60e51b815260040161044c90611a0a565b600061078982610641565b6001600160a01b031614156107b05760405162461bcd60e51b815260040161044c90611bcd565b6000908152600a60205260409020805460ff19166001179055565b606060018054610363906118eb565b6107e53383836110a8565b5050565b6006546001600160a01b031633146108135760405162461bcd60e51b815260040161044c90611a0a565b6000828152600b60209081526040909120825161049792840190611386565b61083c3383610e8c565b6108585760405162461bcd60e51b815260040161044c90611a64565b6108648484848461114b565b50505050565b6006546001600160a01b031633146108945760405162461bcd60e51b815260040161044c90611a0a565b6000826001600160a01b0316826040516024016108b1919061146c565b60408051601f198184030181529181526020820180516001600160e01b031663725be52760e01b179052516108e69190611bff565b6000604051808303816000865af19150503d8060008114610923576040519150601f19603f3d011682016040523d82523d6000602084013e610928565b606091505b50509050806109495760405162461bcd60e51b815260040161044c90611c3f565b81156104975760408051600481526024810182526020810180516001600160e01b03166308551a5360e01b179052905160009182916001600160a01b0387169161099291611bff565b6000604051808303816000865af19150503d80600081146109cf576040519150601f19603f3d011682016040523d82523d6000602084013e6109d4565b606091505b5091509150816109f65760405162461bcd60e51b815260040161044c90611c92565b600081806020019051810190610a0c9190611cad565b60408051600481526024810182526020810180516001600160e01b03166391f9015760e01b179052905191925060009182916001600160a01b038a1691610a539190611bff565b6000604051808303816000865af19150503d8060008114610a90576040519150601f19603f3d011682016040523d82523d6000602084013e610a95565b606091505b509150915081610ab75760405162461bcd60e51b815260040161044c90611c92565b600081806020019051810190610acd9190611cad565b60408051600481526024810182526020810180516001600160e01b03166305f5c3df60e21b179052905191925060009182916001600160a01b038d1691610b149190611bff565b6000604051808303816000865af19150503d8060008114610b51576040519150601f19603f3d011682016040523d82523d6000602084013e610b56565b606091505b509150915081610b785760405162461bcd60e51b815260040161044c90611c92565b600081806020019051810190610b8e9190611cd9565b9050610b9b87858361049c565b505050505050505050505050565b6000818152600260205260409020546060906001600160a01b0316610be05760405162461bcd60e51b815260040161044c90611d46565b60008281526008602052604090208054610bf9906118eb565b80601f0160208091040260200160405190810160405280929190818152602001828054610c25906118eb565b8015610c725780601f10610c4757610100808354040283529160200191610c72565b820191906000526020600020905b815481529060010190602001808311610c5557829003601f168201915b50505050509050919050565b6006546000906001600160a01b03163314610cab5760405162461bcd60e51b815260040161044c90611a0a565b81600981604051610cbc9190611bff565b9081526040519081900360200190205460ff16151560011415610cf15760405162461bcd60e51b815260040161044c90611d8a565b610cff600780546001019055565b6000610d0a60075490565b60008181526008602090815260409091208751929350610d2e929091880190611386565b50610d39868261117e565b6001600985604051610d4b9190611bff565b908152604051908190036020018120805492151560ff199093169290921790915581906001600160a01b038816907f713d53f01460aaa9fbbd1c4117efe883950eeb42b192fdfb5ad4f2d601b7bdc490610da69089906114d8565b60405180910390a391505b509392505050565b6001600160a01b03918216600090815260056020908152604080832093909416825291909152205460ff1690565b6000818152600260205260409020546001600160a01b0316610e1b5760405162461bcd60e51b815260040161044c90611b3f565b50565b600081815260046020526040902080546001600160a01b0319166001600160a01b0384169081179091558190610e5382610641565b6001600160a01b03167f8c5be1e5ebec7d5bd14f71427d1e84f3dd0314c0f7b2291e5b200ac8c7c3b92560405160405180910390a45050565b600080610e9883610641565b9050806001600160a01b0316846001600160a01b03161480610ebf5750610ebf8185610db9565b80610ee35750836001600160a01b0316610ed8846103e6565b6001600160a01b0316145b949350505050565b826001600160a01b0316610efe82610641565b6001600160a01b031614610f245760405162461bcd60e51b815260040161044c90611ddc565b6001600160a01b038216610f4a5760405162461bcd60e51b815260040161044c90611e2d565b826001600160a01b0316610f5d82610641565b6001600160a01b031614610f835760405162461bcd60e51b815260040161044c90611ddc565b600081815260046020908152604080832080546001600160a01b03199081169091556001600160a01b0387811680865260038552838620805460001901905590871680865283862080546001019055868652600290945282852080549092168417909155905184937fddf252ad1be2c89b69c2b068fc378daa952ba7f163c4a11628f55a4df523b3ef91a4505050565b600061101e82610641565b905061102982610641565b600083815260046020908152604080832080546001600160a01b03199081169091556001600160a01b0385168085526003845282852080546000190190558785526002909352818420805490911690555192935084927fddf252ad1be2c89b69c2b068fc378daa952ba7f163c4a11628f55a4df523b3ef908390a45050565b816001600160a01b0316836001600160a01b031614156110da5760405162461bcd60e51b815260040161044c90611e71565b6001600160a01b0383811660008181526005602090815260408083209487168084529490915290819020805460ff1916851515179055517f17307eab39ab6107e8899845ad3d59bd9653f200f220920489ca2b5937696c319061113e90859061146c565b60405180910390a3505050565b611156848484610eeb565b61116284848484611279565b6108645760405162461bcd60e51b815260040161044c90611ed0565b6001600160a01b0382166111a45760405162461bcd60e51b815260040161044c90611f12565b6000818152600260205260409020546001600160a01b0316156111d95760405162461bcd60e51b815260040161044c90611f56565b6000818152600260205260409020546001600160a01b03161561120e5760405162461bcd60e51b815260040161044c90611f56565b6001600160a01b038216600081815260036020908152604080832080546001019055848352600290915280822080546001600160a01b0319168417905551839291907fddf252ad1be2c89b69c2b068fc378daa952ba7f163c4a11628f55a4df523b3ef908290a45050565b60006001600160a01b0384163b1561137b57604051630a85bd0160e11b81526001600160a01b0385169063150b7a02906112bd903390899088908890600401611f66565b602060405180830381600087803b1580156112d757600080fd5b505af1925050508015611307575060408051601f3d908101601f1916820190925261130491810190611fb5565b60015b611361573d808015611335576040519150601f19603f3d011682016040523d82523d6000602084013e61133a565b606091505b5080516113595760405162461bcd60e51b815260040161044c90611ed0565b805181602001fd5b6001600160e01b031916630a85bd0160e11b149050610ee3565b506001949350505050565b828054611392906118eb565b90600052602060002090601f0160209004810192826113b457600085556113fa565b82601f106113cd57805160ff19168380011785556113fa565b828001600101855582156113fa579182015b828111156113fa5782518255916020019190600101906113df565b5061140692915061140a565b5090565b5b80821115611406576000815560010161140b565b6001600160e01b031981165b8114610e1b57600080fd5b803561034e8161141f565b60006020828403121561145657611456600080fd5b6000610ee38484611436565b8015155b82525050565b6020810161034e8284611462565b60005b8381101561149557818101518382015260200161147d565b838111156108645750506000910152565b60006114b0825190565b8084526020840193506114c781856020860161147a565b601f01601f19169290920192915050565b602080825281016114e981846114a6565b9392505050565b8061142b565b803561034e816114f0565b60006020828403121561151657611516600080fd5b6000610ee384846114f6565b60006001600160a01b03821661034e565b61146681611522565b6020810161034e8284611533565b61142b81611522565b803561034e8161154a565b6000806040838503121561157457611574600080fd5b60006115808585611553565b9250506020611591858286016114f6565b9150509250929050565b6000806000606084860312156115b3576115b3600080fd5b60006115bf8686611553565b93505060206115d086828701611553565b92505060406115e1868287016114f6565b9150509250925092565b60006020828403121561160057611600600080fd5b6000610ee38484611553565b80611466565b6020810161034e828461160c565b80151561142b565b803561034e81611620565b6000806040838503121561164957611649600080fd5b60006116558585611553565b925050602061159185828601611628565b634e487b7160e01b600052604160045260246000fd5b601f19601f830116810181811067ffffffffffffffff821117156116a2576116a2611666565b6040525050565b60006116b460405190565b90506116c0828261167c565b919050565b600067ffffffffffffffff8211156116df576116df611666565b601f19601f83011660200192915050565b82818337506000910152565b600061170f61170a846116c5565b6116a9565b90508281526020810184848401111561172a5761172a600080fd5b610db18482856116f0565b600082601f83011261174957611749600080fd5b8135610ee38482602086016116fc565b6000806040838503121561176f5761176f600080fd5b600061177b85856114f6565b925050602083013567ffffffffffffffff81111561179b5761179b600080fd5b61159185828601611735565b600080600080608085870312156117c0576117c0600080fd5b60006117cc8787611553565b94505060206117dd87828801611553565b93505060406117ee878288016114f6565b925050606085013567ffffffffffffffff81111561180e5761180e600080fd5b61181a87828801611735565b91505092959194509250565b60008060006060848603121561183e5761183e600080fd5b600061184a8686611553565b935050602084013567ffffffffffffffff81111561186a5761186a600080fd5b61187686828701611735565b925050604084013567ffffffffffffffff81111561189657611896600080fd5b6115e186828701611735565b600080604083850312156118b8576118b8600080fd5b60006118c48585611553565b925050602061159185828601611553565b634e487b7160e01b600052602260045260246000fd5b6002810460018216806118ff57607f821691505b60208210811415611912576119126118d5565b50919050565b602181526000602082017f4552433732313a20617070726f76616c20746f2063757272656e74206f776e658152603960f91b602082015291505b5060400190565b6020808252810161034e81611918565b603d81526000602082017f4552433732313a20617070726f76652063616c6c6572206973206e6f7420746f81527f6b656e206f776e6572206f7220617070726f76656420666f7220616c6c00000060208201529150611952565b6020808252810161034e81611969565b601d81526000602082017f556e617574686f72697a65642066756e6374696f6e2061636365737321000000815291505b5060200190565b6020808252810161034e816119d3565b602d81526000602082017f4552433732313a2063616c6c6572206973206e6f7420746f6b656e206f776e6581526c1c881bdc88185c1c1c9bdd9959609a1b60208201529150611952565b6020808252810161034e81611a1a565b60168152600060208201754e4654206275726e206e6f7420617070726f7665642160501b81529150611a03565b6020808252810161034e81611a74565b602d81526000602082017f4275726e2063616e206f6e6c792062652063616c6c6564206279206f776e657281526c206f7220617574686f7269747960981b60208201529150611952565b6020808252810161034e81611ab1565b601881526000602082017f4552433732313a20696e76616c696420746f6b656e204944000000000000000081529150611a03565b6020808252810161034e81611b0b565b602981526000602082017f4552433732313a2061646472657373207a65726f206973206e6f7420612076618152683634b21037bbb732b960b91b60208201529150611952565b6020808252810161034e81611b4f565b6011815260006020820170496e76616c696420746f6b656e2049642160781b81529150611a03565b6020808252810161034e81611ba5565b6000611be7825190565b611bf581856020860161147a565b9290920192915050565b60006114e98284611bdd565b601b81526000602082017f756e61626c6520746f2073656e6420617564697420726573756c74000000000081529150611a03565b6020808252810161034e81611c0b565b602681526000602082017f556e61626c6520746f2064657465726d696e652074686520636f6e747261637481526520747970652160d01b60208201529150611952565b6020808252810161034e81611c4f565b805161034e8161154a565b600060208284031215611cc257611cc2600080fd5b6000610ee38484611ca2565b805161034e816114f0565b600060208284031215611cee57611cee600080fd5b6000610ee38484611cce565b602f81526000602082017f4552433732314d657461646174613a2055524920717565727920666f72206e6f81526e3732bc34b9ba32b73a103a37b5b2b760891b60208201529150611952565b6020808252810161034e81611cfa565b601b81526000602082017f56656869636c6520616c7265616479207265676973746572656421000000000081529150611a03565b6020808252810161034e81611d56565b602581526000602082017f4552433732313a207472616e736665722066726f6d20696e636f72726563742081526437bbb732b960d91b60208201529150611952565b6020808252810161034e81611d9a565b602481526000602082017f4552433732313a207472616e7366657220746f20746865207a65726f206164648152637265737360e01b60208201529150611952565b6020808252810161034e81611dec565b601981526000602082017f4552433732313a20617070726f766520746f2063616c6c65720000000000000081529150611a03565b6020808252810161034e81611e3d565b603281526000602082017f4552433732313a207472616e7366657220746f206e6f6e20455243373231526581527131b2b4bb32b91034b6b83632b6b2b73a32b960711b60208201529150611952565b6020808252810161034e81611e81565b60208082527f4552433732313a206d696e7420746f20746865207a65726f206164647265737391019081526000611a03565b6020808252810161034e81611ee0565b601c81526000602082017f4552433732313a20746f6b656e20616c7265616479206d696e7465640000000081529150611a03565b6020808252810161034e81611f22565b60808101611f748287611533565b611f816020830186611533565b611f8e604083018561160c565b8181036060830152611fa081846114a6565b9695505050505050565b805161034e8161141f565b600060208284031215611fca57611fca600080fd5b6000610ee38484611faa56fea2646970667358221220d58a10fcc044754c75779c2d2f763af77c9f36f8ab0b3f4f127440eff39c504964736f6c63430008080033",
  "devdoc": {
    "kind": "dev",
    "methods": {
      "approve(address,uint256)": {
        "details": "See {IERC721-approve}."
      },
      "balanceOf(address)": {
        "details": "See {IERC721-balanceOf}."
      },
      "getApproved(uint256)": {
        "details": "See {IERC721-getApproved}."
      },
      "isApprovedForAll(address,address)": {
        "details": "See {IERC721-isApprovedForAll}."
      },
      "name()": {
        "details": "See {IERC721Metadata-name}."
      },
      "ownerOf(uint256)": {
        "details": "See {IERC721-ownerOf}."
      },
      "safeTransferFrom(address,address,uint256)": {
        "details": "See {IERC721-safeTransferFrom}."
      },
      "safeTransferFrom(address,address,uint256,bytes)": {
        "details": "See {IERC721-safeTransferFrom}."
      },
      "setApprovalForAll(address,bool)": {
        "details": "See {IERC721-setApprovalForAll}."
      },
      "supportsInterface(bytes4)": {
        "details": "See {IERC165-supportsInterface}."
      },
      "symbol()": {
        "details": "See {IERC721Metadata-symbol}."
      },
      "tokenURI(uint256)": {
        "details": "See {IERC721Metadata-tokenURI}."
      },
      "transferFrom(address,address,uint256)": {
        "details": "See {IERC721-transferFrom}."
      }
    },
    "version": 1
  },
  "userdoc": {
    "kind": "user",
    "methods": {},
    "version": 1
  },
  "storageLayout": {
    "storage": [
      {
        "astId": 129,
        "contract": "contracts/VehicleNft.sol:VehicleNft",
        "label": "_name",
        "offset": 0,
        "slot": "0",
        "type": "t_string_storage"
      },
      {
        "astId": 131,
        "contract": "contracts/VehicleNft.sol:VehicleNft",
        "label": "_symbol",
        "offset": 0,
        "slot": "1",
        "type": "t_string_storage"
      },
      {
        "astId": 135,
        "contract": "contracts/VehicleNft.sol:VehicleNft",
        "label": "_owners",
        "offset": 0,
        "slot": "2",
        "type": "t_mapping(t_uint256,t_address)"
      },
      {
        "astId": 139,
        "contract": "contracts/VehicleNft.sol:VehicleNft",
        "label": "_balances",
        "offset": 0,
        "slot": "3",
        "type": "t_mapping(t_address,t_uint256)"
      },
      {
        "astId": 143,
        "contract": "contracts/VehicleNft.sol:VehicleNft",
        "label": "_tokenApprovals",
        "offset": 0,
        "slot": "4",
        "type": "t_mapping(t_uint256,t_address)"
      },
      {
        "astId": 149,
        "contract": "contracts/VehicleNft.sol:VehicleNft",
        "label": "_operatorApprovals",
        "offset": 0,
        "slot": "5",
        "type": "t_mapping(t_address,t_mapping(t_address,t_bool))"
      },
      {
        "astId": 6641,
        "contract": "contracts/VehicleNft.sol:VehicleNft",
        "label": "authority",
        "offset": 0,
        "slot": "6",
        "type": "t_address"
      },
      {
        "astId": 6644,
        "contract": "contracts/VehicleNft.sol:VehicleNft",
        "label": "_tokenIds",
        "offset": 0,
        "slot": "7",
        "type": "t_struct(Counter)1608_storage"
      },
      {
        "astId": 6648,
        "contract": "contracts/VehicleNft.sol:VehicleNft",
        "label": "tokenIdToTokenUri",
        "offset": 0,
        "slot": "8",
        "type": "t_mapping(t_uint256,t_string_storage)"
      },
      {
        "astId": 6652,
        "contract": "contracts/VehicleNft.sol:VehicleNft",
        "label": "chassisNumToBool",
        "offset": 0,
        "slot": "9",
        "type": "t_mapping(t_string_memory_ptr,t_bool)"
      },
      {
        "astId": 6656,
        "contract": "contracts/VehicleNft.sol:VehicleNft",
        "label": "tokenIdToBurnBool",
        "offset": 0,
        "slot": "10",
        "type": "t_mapping(t_uint256,t_bool)"
      },
      {
        "astId": 6660,
        "contract": "contracts/VehicleNft.sol:VehicleNft",
        "label": "tokenIdToReportUri",
        "offset": 0,
        "slot": "11",
        "type": "t_mapping(t_uint256,t_string_storage)"
      }
    ],
    "types": {
      "t_address": {
        "encoding": "inplace",
        "label": "address",
        "numberOfBytes": "20"
      },
      "t_bool": {
        "encoding": "inplace",
        "label": "bool",
        "numberOfBytes": "1"
      },
      "t_mapping(t_address,t_bool)": {
        "encoding": "mapping",
        "key": "t_address",
        "label": "mapping(address => bool)",
        "numberOfBytes": "32",
        "value": "t_bool"
      },
      "t_mapping(t_address,t_mapping(t_address,t_bool))": {
        "encoding": "mapping",
        "key": "t_address",
        "label": "mapping(address => mapping(address => bool))",
        "numberOfBytes": "32",
        "value": "t_mapping(t_address,t_bool)"
      },
      "t_mapping(t_address,t_uint256)": {
        "encoding": "mapping",
        "key": "t_address",
        "label": "mapping(address => uint256)",
        "numberOfBytes": "32",
        "value": "t_uint256"
      },
      "t_mapping(t_string_memory_ptr,t_bool)": {
        "encoding": "mapping",
        "key": "t_string_memory_ptr",
        "label": "mapping(string => bool)",
        "numberOfBytes": "32",
        "value": "t_bool"
      },
      "t_mapping(t_uint256,t_address)": {
        "encoding": "mapping",
        "key": "t_uint256",
        "label": "mapping(uint256 => address)",
        "numberOfBytes": "32",
        "value": "t_address"
      },
      "t_mapping(t_uint256,t_bool)": {
        "encoding": "mapping",
        "key": "t_uint256",
        "label": "mapping(uint256 => bool)",
        "numberOfBytes": "32",
        "value": "t_bool"
      },
      "t_mapping(t_uint256,t_string_storage)": {
        "encoding": "mapping",
        "key": "t_uint256",
        "label": "mapping(uint256 => string)",
        "numberOfBytes": "32",
        "value": "t_string_storage"
      },
      "t_string_memory_ptr": {
        "encoding": "bytes",
        "label": "string",
        "numberOfBytes": "32"
      },
      "t_string_storage": {
        "encoding": "bytes",
        "label": "string",
        "numberOfBytes": "32"
      },
      "t_struct(Counter)1608_storage": {
        "encoding": "inplace",
        "label": "struct Counters.Counter",
        "members": [
          {
            "astId": 1607,
            "contract": "contracts/VehicleNft.sol:VehicleNft",
            "label": "_value",
            "offset": 0,
            "slot": "0",
            "type": "t_uint256"
          }
        ],
        "numberOfBytes": "32"
      },
      "t_uint256": {
        "encoding": "inplace",
        "label": "uint256",
        "numberOfBytes": "32"
      }
    }
  }
}